{
	"octo-ps.sol": {
		"PreSale": {
			"abi": [
				{
					"inputs": [
						{
							"internalType": "address",
							"name": "_token",
							"type": "address"
						},
						{
							"internalType": "address",
							"name": "_preSaleWallet",
							"type": "address"
						},
						{
							"internalType": "uint256",
							"name": "_rate",
							"type": "uint256"
						},
						{
							"internalType": "uint256",
							"name": "_minContribution",
							"type": "uint256"
						},
						{
							"internalType": "uint256",
							"name": "_maxContribution",
							"type": "uint256"
						},
						{
							"internalType": "uint256",
							"name": "_startTime",
							"type": "uint256"
						},
						{
							"internalType": "uint256",
							"name": "_endTime",
							"type": "uint256"
						}
					],
					"stateMutability": "nonpayable",
					"type": "constructor"
				},
				{
					"inputs": [
						{
							"internalType": "address",
							"name": "owner",
							"type": "address"
						}
					],
					"name": "OwnableInvalidOwner",
					"type": "error"
				},
				{
					"inputs": [
						{
							"internalType": "address",
							"name": "account",
							"type": "address"
						}
					],
					"name": "OwnableUnauthorizedAccount",
					"type": "error"
				},
				{
					"anonymous": false,
					"inputs": [
						{
							"indexed": false,
							"internalType": "uint256",
							"name": "currentTime",
							"type": "uint256"
						},
						{
							"indexed": false,
							"internalType": "uint256",
							"name": "startTime",
							"type": "uint256"
						},
						{
							"indexed": false,
							"internalType": "uint256",
							"name": "endTime",
							"type": "uint256"
						},
						{
							"indexed": false,
							"internalType": "uint256",
							"name": "value",
							"type": "uint256"
						},
						{
							"indexed": false,
							"internalType": "uint256",
							"name": "minContribution",
							"type": "uint256"
						},
						{
							"indexed": false,
							"internalType": "uint256",
							"name": "maxContribution",
							"type": "uint256"
						}
					],
					"name": "Debug",
					"type": "event"
				},
				{
					"anonymous": false,
					"inputs": [
						{
							"indexed": true,
							"internalType": "address",
							"name": "previousOwner",
							"type": "address"
						},
						{
							"indexed": true,
							"internalType": "address",
							"name": "newOwner",
							"type": "address"
						}
					],
					"name": "OwnershipTransferred",
					"type": "event"
				},
				{
					"anonymous": false,
					"inputs": [],
					"name": "PreSaleFinalized",
					"type": "event"
				},
				{
					"anonymous": false,
					"inputs": [
						{
							"indexed": true,
							"internalType": "address",
							"name": "purchaser",
							"type": "address"
						},
						{
							"indexed": false,
							"internalType": "uint256",
							"name": "value",
							"type": "uint256"
						},
						{
							"indexed": false,
							"internalType": "uint256",
							"name": "amount",
							"type": "uint256"
						}
					],
					"name": "TokensPurchased",
					"type": "event"
				},
				{
					"stateMutability": "payable",
					"type": "fallback"
				},
				{
					"inputs": [],
					"name": "buyTokens",
					"outputs": [],
					"stateMutability": "payable",
					"type": "function"
				},
				{
					"inputs": [],
					"name": "claimTokens",
					"outputs": [],
					"stateMutability": "nonpayable",
					"type": "function"
				},
				{
					"inputs": [
						{
							"internalType": "address",
							"name": "",
							"type": "address"
						}
					],
					"name": "contributions",
					"outputs": [
						{
							"internalType": "uint256",
							"name": "",
							"type": "uint256"
						}
					],
					"stateMutability": "view",
					"type": "function"
				},
				{
					"inputs": [],
					"name": "endTime",
					"outputs": [
						{
							"internalType": "uint256",
							"name": "",
							"type": "uint256"
						}
					],
					"stateMutability": "view",
					"type": "function"
				},
				{
					"inputs": [],
					"name": "finalizePreSale",
					"outputs": [],
					"stateMutability": "nonpayable",
					"type": "function"
				},
				{
					"inputs": [],
					"name": "finalized",
					"outputs": [
						{
							"internalType": "bool",
							"name": "",
							"type": "bool"
						}
					],
					"stateMutability": "view",
					"type": "function"
				},
				{
					"inputs": [],
					"name": "maxContribution",
					"outputs": [
						{
							"internalType": "uint256",
							"name": "",
							"type": "uint256"
						}
					],
					"stateMutability": "view",
					"type": "function"
				},
				{
					"inputs": [],
					"name": "minContribution",
					"outputs": [
						{
							"internalType": "uint256",
							"name": "",
							"type": "uint256"
						}
					],
					"stateMutability": "view",
					"type": "function"
				},
				{
					"inputs": [],
					"name": "owner",
					"outputs": [
						{
							"internalType": "address",
							"name": "",
							"type": "address"
						}
					],
					"stateMutability": "view",
					"type": "function"
				},
				{
					"inputs": [],
					"name": "preSaleWallet",
					"outputs": [
						{
							"internalType": "address",
							"name": "",
							"type": "address"
						}
					],
					"stateMutability": "view",
					"type": "function"
				},
				{
					"inputs": [],
					"name": "rate",
					"outputs": [
						{
							"internalType": "uint256",
							"name": "",
							"type": "uint256"
						}
					],
					"stateMutability": "view",
					"type": "function"
				},
				{
					"inputs": [],
					"name": "renounceOwnership",
					"outputs": [],
					"stateMutability": "nonpayable",
					"type": "function"
				},
				{
					"inputs": [],
					"name": "startTime",
					"outputs": [
						{
							"internalType": "uint256",
							"name": "",
							"type": "uint256"
						}
					],
					"stateMutability": "view",
					"type": "function"
				},
				{
					"inputs": [],
					"name": "token",
					"outputs": [
						{
							"internalType": "contract IERC20",
							"name": "",
							"type": "address"
						}
					],
					"stateMutability": "view",
					"type": "function"
				},
				{
					"inputs": [],
					"name": "totalContributions",
					"outputs": [
						{
							"internalType": "uint256",
							"name": "",
							"type": "uint256"
						}
					],
					"stateMutability": "view",
					"type": "function"
				},
				{
					"inputs": [
						{
							"internalType": "address",
							"name": "newOwner",
							"type": "address"
						}
					],
					"name": "transferOwnership",
					"outputs": [],
					"stateMutability": "nonpayable",
					"type": "function"
				},
				{
					"stateMutability": "payable",
					"type": "receive"
				}
			],
			"devdoc": {
				"errors": {
					"OwnableInvalidOwner(address)": [
						{
							"details": "The owner is not a valid owner account. (eg. `address(0)`)"
						}
					],
					"OwnableUnauthorizedAccount(address)": [
						{
							"details": "The caller account is not authorized to perform an operation."
						}
					]
				},
				"kind": "dev",
				"methods": {
					"owner()": {
						"details": "Returns the address of the current owner."
					},
					"renounceOwnership()": {
						"details": "Leaves the contract without owner. It will not be possible to call `onlyOwner` functions. Can only be called by the current owner. NOTE: Renouncing ownership will leave the contract without an owner, thereby disabling any functionality that is only available to the owner."
					},
					"transferOwnership(address)": {
						"details": "Transfers ownership of the contract to a new account (`newOwner`). Can only be called by the current owner."
					}
				},
				"version": 1
			},
			"evm": {
				"assembly": "    /* \"octo-ps.sol\":233:3371  contract PreSale is Ownable, ReentrancyGuard {... */\n  mstore(0x40, 0x80)\n    /* \"octo-ps.sol\":550:555  false */\n  0x00\n    /* \"octo-ps.sol\":526:555  bool public finalized = false */\n  0x09\n  exp(0x0100, 0x00)\n  dup2\n  sload\n  dup2\n  0xff\n  mul\n  not\n  and\n  swap1\n  dup4\n  iszero\n  iszero\n  mul\n  or\n  swap1\n  sstore\n  pop\n    /* \"octo-ps.sol\":911:1619  constructor(... */\n  callvalue\n  dup1\n  iszero\n  tag_1\n  jumpi\n  0x00\n  dup1\n  revert\ntag_1:\n  pop\n  mload(0x40)\n  sub(codesize, bytecodeSize)\n  dup1\n  bytecodeSize\n  dup4\n  codecopy\n  dup2\n  dup2\n  add\n  0x40\n  mstore\n  dup2\n  add\n  swap1\n  tag_2\n  swap2\n  swap1\n  tag_3\n  jump\t// in\ntag_2:\n    /* \"octo-ps.sol\":1138:1148  msg.sender */\n  caller\n    /* \"@openzeppelin/contracts/access/Ownable.sol\":1297:1298  0 */\n  0x00\n    /* \"@openzeppelin/contracts/access/Ownable.sol\":1273:1299  initialOwner == address(0) */\n  0xffffffffffffffffffffffffffffffffffffffff\n  and\n    /* \"@openzeppelin/contracts/access/Ownable.sol\":1273:1285  initialOwner */\n  dup2\n    /* \"@openzeppelin/contracts/access/Ownable.sol\":1273:1299  initialOwner == address(0) */\n  0xffffffffffffffffffffffffffffffffffffffff\n  and\n  sub\n    /* \"@openzeppelin/contracts/access/Ownable.sol\":1269:1364  if (initialOwner == address(0)) {... */\n  tag_8\n  jumpi\n    /* \"@openzeppelin/contracts/access/Ownable.sol\":1350:1351  0 */\n  0x00\n    /* \"@openzeppelin/contracts/access/Ownable.sol\":1322:1353  OwnableInvalidOwner(address(0)) */\n  mload(0x40)\n  0x1e4fbdf700000000000000000000000000000000000000000000000000000000\n  dup2\n  mstore\n  0x04\n  add\n  tag_9\n  swap2\n  swap1\n  tag_10\n  jump\t// in\ntag_9:\n  mload(0x40)\n  dup1\n  swap2\n  sub\n  swap1\n  revert\n    /* \"@openzeppelin/contracts/access/Ownable.sol\":1269:1364  if (initialOwner == address(0)) {... */\ntag_8:\n    /* \"@openzeppelin/contracts/access/Ownable.sol\":1373:1405  _transferOwnership(initialOwner) */\n  tag_11\n    /* \"@openzeppelin/contracts/access/Ownable.sol\":1392:1404  initialOwner */\n  dup2\n    /* \"@openzeppelin/contracts/access/Ownable.sol\":1373:1391  _transferOwnership */\n  shl(0x20, tag_12)\n    /* \"@openzeppelin/contracts/access/Ownable.sol\":1373:1405  _transferOwnership(initialOwner) */\n  0x20\n  shr\n  jump\t// in\ntag_11:\n    /* \"@openzeppelin/contracts/access/Ownable.sol\":1225:1412  constructor(address initialOwner) {... */\n  pop\n    /* \"@openzeppelin/contracts/security/ReentrancyGuard.sol\":1716:1717  1 */\n  0x01\n    /* \"@openzeppelin/contracts/security/ReentrancyGuard.sol\":1821:1828  _status */\n  dup1\n    /* \"@openzeppelin/contracts/security/ReentrancyGuard.sol\":1821:1843  _status = _NOT_ENTERED */\n  dup2\n  swap1\n  sstore\n  pop\n    /* \"octo-ps.sol\":1180:1190  _startTime */\n  dup2\n    /* \"octo-ps.sol\":1169:1177  _endTime */\n  dup2\n    /* \"octo-ps.sol\":1169:1190  _endTime > _startTime */\n  gt\n    /* \"octo-ps.sol\":1161:1228  require(_endTime > _startTime, \"End time must be after start time\") */\n  tag_15\n  jumpi\n  mload(0x40)\n  0x08c379a000000000000000000000000000000000000000000000000000000000\n  dup2\n  mstore\n  0x04\n  add\n  tag_16\n  swap1\n  tag_17\n  jump\t// in\ntag_16:\n  mload(0x40)\n  dup1\n  swap2\n  sub\n  swap1\n  revert\ntag_15:\n    /* \"octo-ps.sol\":1254:1255  0 */\n  0x00\n    /* \"octo-ps.sol\":1246:1251  _rate */\n  dup6\n    /* \"octo-ps.sol\":1246:1255  _rate > 0 */\n  gt\n    /* \"octo-ps.sol\":1238:1287  require(_rate > 0, \"Rate must be greater than 0\") */\n  tag_18\n  jumpi\n  mload(0x40)\n  0x08c379a000000000000000000000000000000000000000000000000000000000\n  dup2\n  mstore\n  0x04\n  add\n  tag_19\n  swap1\n  tag_20\n  jump\t// in\ntag_19:\n  mload(0x40)\n  dup1\n  swap2\n  sub\n  swap1\n  revert\ntag_18:\n    /* \"octo-ps.sol\":1324:1325  0 */\n  0x00\n    /* \"octo-ps.sol\":1305:1321  _minContribution */\n  dup5\n    /* \"octo-ps.sol\":1305:1325  _minContribution > 0 */\n  gt\n    /* \"octo-ps.sol\":1297:1369  require(_minContribution > 0, \"Min contribution must be greater than 0\") */\n  tag_21\n  jumpi\n  mload(0x40)\n  0x08c379a000000000000000000000000000000000000000000000000000000000\n  dup2\n  mstore\n  0x04\n  add\n  tag_22\n  swap1\n  tag_23\n  jump\t// in\ntag_22:\n  mload(0x40)\n  dup1\n  swap2\n  sub\n  swap1\n  revert\ntag_21:\n    /* \"octo-ps.sol\":1395:1401  _token */\n  dup7\n    /* \"octo-ps.sol\":1380:1385  token */\n  0x02\n  0x00\n    /* \"octo-ps.sol\":1380:1402  token = IERC20(_token) */\n  0x0100\n  exp\n  dup2\n  sload\n  dup2\n  0xffffffffffffffffffffffffffffffffffffffff\n  mul\n  not\n  and\n  swap1\n  dup4\n  0xffffffffffffffffffffffffffffffffffffffff\n  and\n  mul\n  or\n  swap1\n  sstore\n  pop\n    /* \"octo-ps.sol\":1428:1442  _preSaleWallet */\n  dup6\n    /* \"octo-ps.sol\":1412:1425  preSaleWallet */\n  0x03\n  0x00\n    /* \"octo-ps.sol\":1412:1442  preSaleWallet = _preSaleWallet */\n  0x0100\n  exp\n  dup2\n  sload\n  dup2\n  0xffffffffffffffffffffffffffffffffffffffff\n  mul\n  not\n  and\n  swap1\n  dup4\n  0xffffffffffffffffffffffffffffffffffffffff\n  and\n  mul\n  or\n  swap1\n  sstore\n  pop\n    /* \"octo-ps.sol\":1459:1464  _rate */\n  dup5\n    /* \"octo-ps.sol\":1452:1456  rate */\n  0x04\n    /* \"octo-ps.sol\":1452:1464  rate = _rate */\n  dup2\n  swap1\n  sstore\n  pop\n    /* \"octo-ps.sol\":1492:1508  _minContribution */\n  dup4\n    /* \"octo-ps.sol\":1474:1489  minContribution */\n  0x05\n    /* \"octo-ps.sol\":1474:1508  minContribution = _minContribution */\n  dup2\n  swap1\n  sstore\n  pop\n    /* \"octo-ps.sol\":1536:1552  _maxContribution */\n  dup3\n    /* \"octo-ps.sol\":1518:1533  maxContribution */\n  0x06\n    /* \"octo-ps.sol\":1518:1552  maxContribution = _maxContribution */\n  dup2\n  swap1\n  sstore\n  pop\n    /* \"octo-ps.sol\":1574:1584  _startTime */\n  dup2\n    /* \"octo-ps.sol\":1562:1571  startTime */\n  0x07\n    /* \"octo-ps.sol\":1562:1584  startTime = _startTime */\n  dup2\n  swap1\n  sstore\n  pop\n    /* \"octo-ps.sol\":1604:1612  _endTime */\n  dup1\n    /* \"octo-ps.sol\":1594:1601  endTime */\n  0x08\n    /* \"octo-ps.sol\":1594:1612  endTime = _endTime */\n  dup2\n  swap1\n  sstore\n  pop\n    /* \"octo-ps.sol\":911:1619  constructor(... */\n  pop\n  pop\n  pop\n  pop\n  pop\n  pop\n  pop\n    /* \"octo-ps.sol\":233:3371  contract PreSale is Ownable, ReentrancyGuard {... */\n  jump(tag_24)\n    /* \"@openzeppelin/contracts/access/Ownable.sol\":2912:3099  function _transferOwnership(address newOwner) internal virtual {... */\ntag_12:\n    /* \"@openzeppelin/contracts/access/Ownable.sol\":2985:3001  address oldOwner */\n  0x00\n    /* \"@openzeppelin/contracts/access/Ownable.sol\":3004:3010  _owner */\n  dup1\n  0x00\n  swap1\n  sload\n  swap1\n  0x0100\n  exp\n  swap1\n  div\n  0xffffffffffffffffffffffffffffffffffffffff\n  and\n    /* \"@openzeppelin/contracts/access/Ownable.sol\":2985:3010  address oldOwner = _owner */\n  swap1\n  pop\n    /* \"@openzeppelin/contracts/access/Ownable.sol\":3029:3037  newOwner */\n  dup2\n    /* \"@openzeppelin/contracts/access/Ownable.sol\":3020:3026  _owner */\n  0x00\n  dup1\n    /* \"@openzeppelin/contracts/access/Ownable.sol\":3020:3037  _owner = newOwner */\n  0x0100\n  exp\n  dup2\n  sload\n  dup2\n  0xffffffffffffffffffffffffffffffffffffffff\n  mul\n  not\n  and\n  swap1\n  dup4\n  0xffffffffffffffffffffffffffffffffffffffff\n  and\n  mul\n  or\n  swap1\n  sstore\n  pop\n    /* \"@openzeppelin/contracts/access/Ownable.sol\":3083:3091  newOwner */\n  dup2\n    /* \"@openzeppelin/contracts/access/Ownable.sol\":3052:3092  OwnershipTransferred(oldOwner, newOwner) */\n  0xffffffffffffffffffffffffffffffffffffffff\n  and\n    /* \"@openzeppelin/contracts/access/Ownable.sol\":3073:3081  oldOwner */\n  dup2\n    /* \"@openzeppelin/contracts/access/Ownable.sol\":3052:3092  OwnershipTransferred(oldOwner, newOwner) */\n  0xffffffffffffffffffffffffffffffffffffffff\n  and\n  0x8be0079c531659141344cd1fd0a4f28419497f9722a3daafe3b4186f6b6457e0\n  mload(0x40)\n  mload(0x40)\n  dup1\n  swap2\n  sub\n  swap1\n  log3\n    /* \"@openzeppelin/contracts/access/Ownable.sol\":2975:3099  {... */\n  pop\n    /* \"@openzeppelin/contracts/access/Ownable.sol\":2912:3099  function _transferOwnership(address newOwner) internal virtual {... */\n  pop\n  jump\t// out\n    /* \"#utility.yul\":88:205   */\ntag_27:\n    /* \"#utility.yul\":197:198   */\n  0x00\n    /* \"#utility.yul\":194:195   */\n  dup1\n    /* \"#utility.yul\":187:199   */\n  revert\n    /* \"#utility.yul\":334:460   */\ntag_29:\n    /* \"#utility.yul\":371:378   */\n  0x00\n    /* \"#utility.yul\":411:453   */\n  0xffffffffffffffffffffffffffffffffffffffff\n    /* \"#utility.yul\":404:409   */\n  dup3\n    /* \"#utility.yul\":400:454   */\n  and\n    /* \"#utility.yul\":389:454   */\n  swap1\n  pop\n    /* \"#utility.yul\":334:460   */\n  swap2\n  swap1\n  pop\n  jump\t// out\n    /* \"#utility.yul\":466:562   */\ntag_30:\n    /* \"#utility.yul\":503:510   */\n  0x00\n    /* \"#utility.yul\":532:556   */\n  tag_50\n    /* \"#utility.yul\":550:555   */\n  dup3\n    /* \"#utility.yul\":532:556   */\n  tag_29\n  jump\t// in\ntag_50:\n    /* \"#utility.yul\":521:556   */\n  swap1\n  pop\n    /* \"#utility.yul\":466:562   */\n  swap2\n  swap1\n  pop\n  jump\t// out\n    /* \"#utility.yul\":568:690   */\ntag_31:\n    /* \"#utility.yul\":641:665   */\n  tag_52\n    /* \"#utility.yul\":659:664   */\n  dup2\n    /* \"#utility.yul\":641:665   */\n  tag_30\n  jump\t// in\ntag_52:\n    /* \"#utility.yul\":634:639   */\n  dup2\n    /* \"#utility.yul\":631:666   */\n  eq\n    /* \"#utility.yul\":621:684   */\n  tag_53\n  jumpi\n    /* \"#utility.yul\":680:681   */\n  0x00\n    /* \"#utility.yul\":677:678   */\n  dup1\n    /* \"#utility.yul\":670:682   */\n  revert\n    /* \"#utility.yul\":621:684   */\ntag_53:\n    /* \"#utility.yul\":568:690   */\n  pop\n  jump\t// out\n    /* \"#utility.yul\":696:839   */\ntag_32:\n    /* \"#utility.yul\":753:758   */\n  0x00\n    /* \"#utility.yul\":784:790   */\n  dup2\n    /* \"#utility.yul\":778:791   */\n  mload\n    /* \"#utility.yul\":769:791   */\n  swap1\n  pop\n    /* \"#utility.yul\":800:833   */\n  tag_55\n    /* \"#utility.yul\":827:832   */\n  dup2\n    /* \"#utility.yul\":800:833   */\n  tag_31\n  jump\t// in\ntag_55:\n    /* \"#utility.yul\":696:839   */\n  swap3\n  swap2\n  pop\n  pop\n  jump\t// out\n    /* \"#utility.yul\":845:922   */\ntag_33:\n    /* \"#utility.yul\":882:889   */\n  0x00\n    /* \"#utility.yul\":911:916   */\n  dup2\n    /* \"#utility.yul\":900:916   */\n  swap1\n  pop\n    /* \"#utility.yul\":845:922   */\n  swap2\n  swap1\n  pop\n  jump\t// out\n    /* \"#utility.yul\":928:1050   */\ntag_34:\n    /* \"#utility.yul\":1001:1025   */\n  tag_58\n    /* \"#utility.yul\":1019:1024   */\n  dup2\n    /* \"#utility.yul\":1001:1025   */\n  tag_33\n  jump\t// in\ntag_58:\n    /* \"#utility.yul\":994:999   */\n  dup2\n    /* \"#utility.yul\":991:1026   */\n  eq\n    /* \"#utility.yul\":981:1044   */\n  tag_59\n  jumpi\n    /* \"#utility.yul\":1040:1041   */\n  0x00\n    /* \"#utility.yul\":1037:1038   */\n  dup1\n    /* \"#utility.yul\":1030:1042   */\n  revert\n    /* \"#utility.yul\":981:1044   */\ntag_59:\n    /* \"#utility.yul\":928:1050   */\n  pop\n  jump\t// out\n    /* \"#utility.yul\":1056:1199   */\ntag_35:\n    /* \"#utility.yul\":1113:1118   */\n  0x00\n    /* \"#utility.yul\":1144:1150   */\n  dup2\n    /* \"#utility.yul\":1138:1151   */\n  mload\n    /* \"#utility.yul\":1129:1151   */\n  swap1\n  pop\n    /* \"#utility.yul\":1160:1193   */\n  tag_61\n    /* \"#utility.yul\":1187:1192   */\n  dup2\n    /* \"#utility.yul\":1160:1193   */\n  tag_34\n  jump\t// in\ntag_61:\n    /* \"#utility.yul\":1056:1199   */\n  swap3\n  swap2\n  pop\n  pop\n  jump\t// out\n    /* \"#utility.yul\":1205:2496   */\ntag_3:\n    /* \"#utility.yul\":1329:1335   */\n  0x00\n    /* \"#utility.yul\":1337:1343   */\n  dup1\n    /* \"#utility.yul\":1345:1351   */\n  0x00\n    /* \"#utility.yul\":1353:1359   */\n  dup1\n    /* \"#utility.yul\":1361:1367   */\n  0x00\n    /* \"#utility.yul\":1369:1375   */\n  dup1\n    /* \"#utility.yul\":1377:1383   */\n  0x00\n    /* \"#utility.yul\":1426:1429   */\n  0xe0\n    /* \"#utility.yul\":1414:1423   */\n  dup9\n    /* \"#utility.yul\":1405:1412   */\n  dup11\n    /* \"#utility.yul\":1401:1424   */\n  sub\n    /* \"#utility.yul\":1397:1430   */\n  slt\n    /* \"#utility.yul\":1394:1514   */\n  iszero\n  tag_63\n  jumpi\n    /* \"#utility.yul\":1433:1512   */\n  tag_64\n  tag_27\n  jump\t// in\ntag_64:\n    /* \"#utility.yul\":1394:1514   */\ntag_63:\n    /* \"#utility.yul\":1553:1554   */\n  0x00\n    /* \"#utility.yul\":1578:1642   */\n  tag_65\n    /* \"#utility.yul\":1634:1641   */\n  dup11\n    /* \"#utility.yul\":1625:1631   */\n  dup3\n    /* \"#utility.yul\":1614:1623   */\n  dup12\n    /* \"#utility.yul\":1610:1632   */\n  add\n    /* \"#utility.yul\":1578:1642   */\n  tag_32\n  jump\t// in\ntag_65:\n    /* \"#utility.yul\":1568:1642   */\n  swap8\n  pop\n    /* \"#utility.yul\":1524:1652   */\n  pop\n    /* \"#utility.yul\":1691:1693   */\n  0x20\n    /* \"#utility.yul\":1717:1781   */\n  tag_66\n    /* \"#utility.yul\":1773:1780   */\n  dup11\n    /* \"#utility.yul\":1764:1770   */\n  dup3\n    /* \"#utility.yul\":1753:1762   */\n  dup12\n    /* \"#utility.yul\":1749:1771   */\n  add\n    /* \"#utility.yul\":1717:1781   */\n  tag_32\n  jump\t// in\ntag_66:\n    /* \"#utility.yul\":1707:1781   */\n  swap7\n  pop\n    /* \"#utility.yul\":1662:1791   */\n  pop\n    /* \"#utility.yul\":1830:1832   */\n  0x40\n    /* \"#utility.yul\":1856:1920   */\n  tag_67\n    /* \"#utility.yul\":1912:1919   */\n  dup11\n    /* \"#utility.yul\":1903:1909   */\n  dup3\n    /* \"#utility.yul\":1892:1901   */\n  dup12\n    /* \"#utility.yul\":1888:1910   */\n  add\n    /* \"#utility.yul\":1856:1920   */\n  tag_35\n  jump\t// in\ntag_67:\n    /* \"#utility.yul\":1846:1920   */\n  swap6\n  pop\n    /* \"#utility.yul\":1801:1930   */\n  pop\n    /* \"#utility.yul\":1969:1971   */\n  0x60\n    /* \"#utility.yul\":1995:2059   */\n  tag_68\n    /* \"#utility.yul\":2051:2058   */\n  dup11\n    /* \"#utility.yul\":2042:2048   */\n  dup3\n    /* \"#utility.yul\":2031:2040   */\n  dup12\n    /* \"#utility.yul\":2027:2049   */\n  add\n    /* \"#utility.yul\":1995:2059   */\n  tag_35\n  jump\t// in\ntag_68:\n    /* \"#utility.yul\":1985:2059   */\n  swap5\n  pop\n    /* \"#utility.yul\":1940:2069   */\n  pop\n    /* \"#utility.yul\":2108:2111   */\n  0x80\n    /* \"#utility.yul\":2135:2199   */\n  tag_69\n    /* \"#utility.yul\":2191:2198   */\n  dup11\n    /* \"#utility.yul\":2182:2188   */\n  dup3\n    /* \"#utility.yul\":2171:2180   */\n  dup12\n    /* \"#utility.yul\":2167:2189   */\n  add\n    /* \"#utility.yul\":2135:2199   */\n  tag_35\n  jump\t// in\ntag_69:\n    /* \"#utility.yul\":2125:2199   */\n  swap4\n  pop\n    /* \"#utility.yul\":2079:2209   */\n  pop\n    /* \"#utility.yul\":2248:2251   */\n  0xa0\n    /* \"#utility.yul\":2275:2339   */\n  tag_70\n    /* \"#utility.yul\":2331:2338   */\n  dup11\n    /* \"#utility.yul\":2322:2328   */\n  dup3\n    /* \"#utility.yul\":2311:2320   */\n  dup12\n    /* \"#utility.yul\":2307:2329   */\n  add\n    /* \"#utility.yul\":2275:2339   */\n  tag_35\n  jump\t// in\ntag_70:\n    /* \"#utility.yul\":2265:2339   */\n  swap3\n  pop\n    /* \"#utility.yul\":2219:2349   */\n  pop\n    /* \"#utility.yul\":2388:2391   */\n  0xc0\n    /* \"#utility.yul\":2415:2479   */\n  tag_71\n    /* \"#utility.yul\":2471:2478   */\n  dup11\n    /* \"#utility.yul\":2462:2468   */\n  dup3\n    /* \"#utility.yul\":2451:2460   */\n  dup12\n    /* \"#utility.yul\":2447:2469   */\n  add\n    /* \"#utility.yul\":2415:2479   */\n  tag_35\n  jump\t// in\ntag_71:\n    /* \"#utility.yul\":2405:2479   */\n  swap2\n  pop\n    /* \"#utility.yul\":2359:2489   */\n  pop\n    /* \"#utility.yul\":1205:2496   */\n  swap3\n  swap6\n  swap9\n  swap2\n  swap5\n  swap8\n  pop\n  swap3\n  swap6\n  pop\n  jump\t// out\n    /* \"#utility.yul\":2502:2620   */\ntag_36:\n    /* \"#utility.yul\":2589:2613   */\n  tag_73\n    /* \"#utility.yul\":2607:2612   */\n  dup2\n    /* \"#utility.yul\":2589:2613   */\n  tag_30\n  jump\t// in\ntag_73:\n    /* \"#utility.yul\":2584:2587   */\n  dup3\n    /* \"#utility.yul\":2577:2614   */\n  mstore\n    /* \"#utility.yul\":2502:2620   */\n  pop\n  pop\n  jump\t// out\n    /* \"#utility.yul\":2626:2848   */\ntag_10:\n    /* \"#utility.yul\":2719:2723   */\n  0x00\n    /* \"#utility.yul\":2757:2759   */\n  0x20\n    /* \"#utility.yul\":2746:2755   */\n  dup3\n    /* \"#utility.yul\":2742:2760   */\n  add\n    /* \"#utility.yul\":2734:2760   */\n  swap1\n  pop\n    /* \"#utility.yul\":2770:2841   */\n  tag_75\n    /* \"#utility.yul\":2838:2839   */\n  0x00\n    /* \"#utility.yul\":2827:2836   */\n  dup4\n    /* \"#utility.yul\":2823:2840   */\n  add\n    /* \"#utility.yul\":2814:2820   */\n  dup5\n    /* \"#utility.yul\":2770:2841   */\n  tag_36\n  jump\t// in\ntag_75:\n    /* \"#utility.yul\":2626:2848   */\n  swap3\n  swap2\n  pop\n  pop\n  jump\t// out\n    /* \"#utility.yul\":2854:3023   */\ntag_37:\n    /* \"#utility.yul\":2938:2949   */\n  0x00\n    /* \"#utility.yul\":2972:2978   */\n  dup3\n    /* \"#utility.yul\":2967:2970   */\n  dup3\n    /* \"#utility.yul\":2960:2979   */\n  mstore\n    /* \"#utility.yul\":3012:3016   */\n  0x20\n    /* \"#utility.yul\":3007:3010   */\n  dup3\n    /* \"#utility.yul\":3003:3017   */\n  add\n    /* \"#utility.yul\":2988:3017   */\n  swap1\n  pop\n    /* \"#utility.yul\":2854:3023   */\n  swap3\n  swap2\n  pop\n  pop\n  jump\t// out\n    /* \"#utility.yul\":3029:3249   */\ntag_38:\n    /* \"#utility.yul\":3169:3203   */\n  0x456e642074696d65206d7573742062652061667465722073746172742074696d\n    /* \"#utility.yul\":3165:3166   */\n  0x00\n    /* \"#utility.yul\":3157:3163   */\n  dup3\n    /* \"#utility.yul\":3153:3167   */\n  add\n    /* \"#utility.yul\":3146:3204   */\n  mstore\n    /* \"#utility.yul\":3238:3241   */\n  0x6500000000000000000000000000000000000000000000000000000000000000\n    /* \"#utility.yul\":3233:3235   */\n  0x20\n    /* \"#utility.yul\":3225:3231   */\n  dup3\n    /* \"#utility.yul\":3221:3236   */\n  add\n    /* \"#utility.yul\":3214:3242   */\n  mstore\n    /* \"#utility.yul\":3029:3249   */\n  pop\n  jump\t// out\n    /* \"#utility.yul\":3255:3621   */\ntag_39:\n    /* \"#utility.yul\":3397:3400   */\n  0x00\n    /* \"#utility.yul\":3418:3485   */\n  tag_79\n    /* \"#utility.yul\":3482:3484   */\n  0x21\n    /* \"#utility.yul\":3477:3480   */\n  dup4\n    /* \"#utility.yul\":3418:3485   */\n  tag_37\n  jump\t// in\ntag_79:\n    /* \"#utility.yul\":3411:3485   */\n  swap2\n  pop\n    /* \"#utility.yul\":3494:3587   */\n  tag_80\n    /* \"#utility.yul\":3583:3586   */\n  dup3\n    /* \"#utility.yul\":3494:3587   */\n  tag_38\n  jump\t// in\ntag_80:\n    /* \"#utility.yul\":3612:3614   */\n  0x40\n    /* \"#utility.yul\":3607:3610   */\n  dup3\n    /* \"#utility.yul\":3603:3615   */\n  add\n    /* \"#utility.yul\":3596:3615   */\n  swap1\n  pop\n    /* \"#utility.yul\":3255:3621   */\n  swap2\n  swap1\n  pop\n  jump\t// out\n    /* \"#utility.yul\":3627:4046   */\ntag_17:\n    /* \"#utility.yul\":3793:3797   */\n  0x00\n    /* \"#utility.yul\":3831:3833   */\n  0x20\n    /* \"#utility.yul\":3820:3829   */\n  dup3\n    /* \"#utility.yul\":3816:3834   */\n  add\n    /* \"#utility.yul\":3808:3834   */\n  swap1\n  pop\n    /* \"#utility.yul\":3880:3889   */\n  dup2\n    /* \"#utility.yul\":3874:3878   */\n  dup2\n    /* \"#utility.yul\":3870:3890   */\n  sub\n    /* \"#utility.yul\":3866:3867   */\n  0x00\n    /* \"#utility.yul\":3855:3864   */\n  dup4\n    /* \"#utility.yul\":3851:3868   */\n  add\n    /* \"#utility.yul\":3844:3891   */\n  mstore\n    /* \"#utility.yul\":3908:4039   */\n  tag_82\n    /* \"#utility.yul\":4034:4038   */\n  dup2\n    /* \"#utility.yul\":3908:4039   */\n  tag_39\n  jump\t// in\ntag_82:\n    /* \"#utility.yul\":3900:4039   */\n  swap1\n  pop\n    /* \"#utility.yul\":3627:4046   */\n  swap2\n  swap1\n  pop\n  jump\t// out\n    /* \"#utility.yul\":4052:4229   */\ntag_40:\n    /* \"#utility.yul\":4192:4221   */\n  0x52617465206d7573742062652067726561746572207468616e20300000000000\n    /* \"#utility.yul\":4188:4189   */\n  0x00\n    /* \"#utility.yul\":4180:4186   */\n  dup3\n    /* \"#utility.yul\":4176:4190   */\n  add\n    /* \"#utility.yul\":4169:4222   */\n  mstore\n    /* \"#utility.yul\":4052:4229   */\n  pop\n  jump\t// out\n    /* \"#utility.yul\":4235:4601   */\ntag_41:\n    /* \"#utility.yul\":4377:4380   */\n  0x00\n    /* \"#utility.yul\":4398:4465   */\n  tag_85\n    /* \"#utility.yul\":4462:4464   */\n  0x1b\n    /* \"#utility.yul\":4457:4460   */\n  dup4\n    /* \"#utility.yul\":4398:4465   */\n  tag_37\n  jump\t// in\ntag_85:\n    /* \"#utility.yul\":4391:4465   */\n  swap2\n  pop\n    /* \"#utility.yul\":4474:4567   */\n  tag_86\n    /* \"#utility.yul\":4563:4566   */\n  dup3\n    /* \"#utility.yul\":4474:4567   */\n  tag_40\n  jump\t// in\ntag_86:\n    /* \"#utility.yul\":4592:4594   */\n  0x20\n    /* \"#utility.yul\":4587:4590   */\n  dup3\n    /* \"#utility.yul\":4583:4595   */\n  add\n    /* \"#utility.yul\":4576:4595   */\n  swap1\n  pop\n    /* \"#utility.yul\":4235:4601   */\n  swap2\n  swap1\n  pop\n  jump\t// out\n    /* \"#utility.yul\":4607:5026   */\ntag_20:\n    /* \"#utility.yul\":4773:4777   */\n  0x00\n    /* \"#utility.yul\":4811:4813   */\n  0x20\n    /* \"#utility.yul\":4800:4809   */\n  dup3\n    /* \"#utility.yul\":4796:4814   */\n  add\n    /* \"#utility.yul\":4788:4814   */\n  swap1\n  pop\n    /* \"#utility.yul\":4860:4869   */\n  dup2\n    /* \"#utility.yul\":4854:4858   */\n  dup2\n    /* \"#utility.yul\":4850:4870   */\n  sub\n    /* \"#utility.yul\":4846:4847   */\n  0x00\n    /* \"#utility.yul\":4835:4844   */\n  dup4\n    /* \"#utility.yul\":4831:4848   */\n  add\n    /* \"#utility.yul\":4824:4871   */\n  mstore\n    /* \"#utility.yul\":4888:5019   */\n  tag_88\n    /* \"#utility.yul\":5014:5018   */\n  dup2\n    /* \"#utility.yul\":4888:5019   */\n  tag_41\n  jump\t// in\ntag_88:\n    /* \"#utility.yul\":4880:5019   */\n  swap1\n  pop\n    /* \"#utility.yul\":4607:5026   */\n  swap2\n  swap1\n  pop\n  jump\t// out\n    /* \"#utility.yul\":5032:5258   */\ntag_42:\n    /* \"#utility.yul\":5172:5206   */\n  0x4d696e20636f6e747269627574696f6e206d7573742062652067726561746572\n    /* \"#utility.yul\":5168:5169   */\n  0x00\n    /* \"#utility.yul\":5160:5166   */\n  dup3\n    /* \"#utility.yul\":5156:5170   */\n  add\n    /* \"#utility.yul\":5149:5207   */\n  mstore\n    /* \"#utility.yul\":5241:5250   */\n  0x207468616e203000000000000000000000000000000000000000000000000000\n    /* \"#utility.yul\":5236:5238   */\n  0x20\n    /* \"#utility.yul\":5228:5234   */\n  dup3\n    /* \"#utility.yul\":5224:5239   */\n  add\n    /* \"#utility.yul\":5217:5251   */\n  mstore\n    /* \"#utility.yul\":5032:5258   */\n  pop\n  jump\t// out\n    /* \"#utility.yul\":5264:5630   */\ntag_43:\n    /* \"#utility.yul\":5406:5409   */\n  0x00\n    /* \"#utility.yul\":5427:5494   */\n  tag_91\n    /* \"#utility.yul\":5491:5493   */\n  0x27\n    /* \"#utility.yul\":5486:5489   */\n  dup4\n    /* \"#utility.yul\":5427:5494   */\n  tag_37\n  jump\t// in\ntag_91:\n    /* \"#utility.yul\":5420:5494   */\n  swap2\n  pop\n    /* \"#utility.yul\":5503:5596   */\n  tag_92\n    /* \"#utility.yul\":5592:5595   */\n  dup3\n    /* \"#utility.yul\":5503:5596   */\n  tag_42\n  jump\t// in\ntag_92:\n    /* \"#utility.yul\":5621:5623   */\n  0x40\n    /* \"#utility.yul\":5616:5619   */\n  dup3\n    /* \"#utility.yul\":5612:5624   */\n  add\n    /* \"#utility.yul\":5605:5624   */\n  swap1\n  pop\n    /* \"#utility.yul\":5264:5630   */\n  swap2\n  swap1\n  pop\n  jump\t// out\n    /* \"#utility.yul\":5636:6055   */\ntag_23:\n    /* \"#utility.yul\":5802:5806   */\n  0x00\n    /* \"#utility.yul\":5840:5842   */\n  0x20\n    /* \"#utility.yul\":5829:5838   */\n  dup3\n    /* \"#utility.yul\":5825:5843   */\n  add\n    /* \"#utility.yul\":5817:5843   */\n  swap1\n  pop\n    /* \"#utility.yul\":5889:5898   */\n  dup2\n    /* \"#utility.yul\":5883:5887   */\n  dup2\n    /* \"#utility.yul\":5879:5899   */\n  sub\n    /* \"#utility.yul\":5875:5876   */\n  0x00\n    /* \"#utility.yul\":5864:5873   */\n  dup4\n    /* \"#utility.yul\":5860:5877   */\n  add\n    /* \"#utility.yul\":5853:5900   */\n  mstore\n    /* \"#utility.yul\":5917:6048   */\n  tag_94\n    /* \"#utility.yul\":6043:6047   */\n  dup2\n    /* \"#utility.yul\":5917:6048   */\n  tag_43\n  jump\t// in\ntag_94:\n    /* \"#utility.yul\":5909:6048   */\n  swap1\n  pop\n    /* \"#utility.yul\":5636:6055   */\n  swap2\n  swap1\n  pop\n  jump\t// out\n    /* \"octo-ps.sol\":233:3371  contract PreSale is Ownable, ReentrancyGuard {... */\ntag_24:\n  dataSize(sub_0)\n  dup1\n  dataOffset(sub_0)\n  0x00\n  codecopy\n  0x00\n  return\nstop\n\nsub_0: assembly {\n        /* \"octo-ps.sol\":233:3371  contract PreSale is Ownable, ReentrancyGuard {... */\n      mstore(0x40, 0x80)\n      jumpi(tag_1, lt(calldatasize, 0x04))\n      shr(0xe0, calldataload(0x00))\n      dup1\n      0x78e97925\n      gt\n      tag_19\n      jumpi\n      dup1\n      0xb3f05b97\n      gt\n      tag_20\n      jumpi\n      dup1\n      0xb3f05b97\n      eq\n      tag_15\n      jumpi\n      dup1\n      0xd0febe4c\n      eq\n      tag_16\n      jumpi\n      dup1\n      0xf2fde38b\n      eq\n      tag_17\n      jumpi\n      dup1\n      0xfc0c546a\n      eq\n      tag_18\n      jumpi\n      jump(tag_2)\n    tag_20:\n      dup1\n      0x78e97925\n      eq\n      tag_11\n      jumpi\n      dup1\n      0x8d3d6576\n      eq\n      tag_12\n      jumpi\n      dup1\n      0x8da5cb5b\n      eq\n      tag_13\n      jumpi\n      dup1\n      0xaaffadf3\n      eq\n      tag_14\n      jumpi\n      jump(tag_2)\n    tag_19:\n      dup1\n      0x42e94c90\n      gt\n      tag_21\n      jumpi\n      dup1\n      0x42e94c90\n      eq\n      tag_7\n      jumpi\n      dup1\n      0x48c54b9d\n      eq\n      tag_8\n      jumpi\n      dup1\n      0x715018a6\n      eq\n      tag_9\n      jumpi\n      dup1\n      0x7376678b\n      eq\n      tag_10\n      jumpi\n      jump(tag_2)\n    tag_21:\n      dup1\n      0x1fc75e41\n      eq\n      tag_3\n      jumpi\n      dup1\n      0x2c4e722e\n      eq\n      tag_4\n      jumpi\n      dup1\n      0x3197cbb6\n      eq\n      tag_5\n      jumpi\n      dup1\n      0x37c08923\n      eq\n      tag_6\n      jumpi\n      jump(tag_2)\n    tag_1:\n      jumpi(tag_2, calldatasize)\n        /* \"octo-ps.sol\":1662:1673  buyTokens() */\n      tag_24\n        /* \"octo-ps.sol\":1662:1671  buyTokens */\n      tag_25\n        /* \"octo-ps.sol\":1662:1673  buyTokens() */\n      jump\t// in\n    tag_24:\n        /* \"octo-ps.sol\":233:3371  contract PreSale is Ownable, ReentrancyGuard {... */\n      stop\n    tag_2:\n        /* \"octo-ps.sol\":1724:1735  buyTokens() */\n      tag_28\n        /* \"octo-ps.sol\":1724:1733  buyTokens */\n      tag_25\n        /* \"octo-ps.sol\":1724:1735  buyTokens() */\n      jump\t// in\n    tag_28:\n        /* \"octo-ps.sol\":233:3371  contract PreSale is Ownable, ReentrancyGuard {... */\n      stop\n        /* \"octo-ps.sol\":309:337  address public preSaleWallet */\n    tag_3:\n      callvalue\n      dup1\n      iszero\n      tag_29\n      jumpi\n      0x00\n      dup1\n      revert\n    tag_29:\n      pop\n      tag_30\n      tag_31\n      jump\t// in\n    tag_30:\n      mload(0x40)\n      tag_32\n      swap2\n      swap1\n      tag_33\n      jump\t// in\n    tag_32:\n      mload(0x40)\n      dup1\n      swap2\n      sub\n      swap1\n      return\n        /* \"octo-ps.sol\":343:362  uint256 public rate */\n    tag_4:\n      callvalue\n      dup1\n      iszero\n      tag_34\n      jumpi\n      0x00\n      dup1\n      revert\n    tag_34:\n      pop\n      tag_35\n      tag_36\n      jump\t// in\n    tag_35:\n      mload(0x40)\n      tag_37\n      swap2\n      swap1\n      tag_38\n      jump\t// in\n    tag_37:\n      mload(0x40)\n      dup1\n      swap2\n      sub\n      swap1\n      return\n        /* \"octo-ps.sol\":498:520  uint256 public endTime */\n    tag_5:\n      callvalue\n      dup1\n      iszero\n      tag_39\n      jumpi\n      0x00\n      dup1\n      revert\n    tag_39:\n      pop\n      tag_40\n      tag_41\n      jump\t// in\n    tag_40:\n      mload(0x40)\n      tag_42\n      swap2\n      swap1\n      tag_38\n      jump\t// in\n    tag_42:\n      mload(0x40)\n      dup1\n      swap2\n      sub\n      swap1\n      return\n        /* \"octo-ps.sol\":616:649  uint256 public totalContributions */\n    tag_6:\n      callvalue\n      dup1\n      iszero\n      tag_43\n      jumpi\n      0x00\n      dup1\n      revert\n    tag_43:\n      pop\n      tag_44\n      tag_45\n      jump\t// in\n    tag_44:\n      mload(0x40)\n      tag_46\n      swap2\n      swap1\n      tag_38\n      jump\t// in\n    tag_46:\n      mload(0x40)\n      dup1\n      swap2\n      sub\n      swap1\n      return\n        /* \"octo-ps.sol\":562:610  mapping(address => uint256) public contributions */\n    tag_7:\n      callvalue\n      dup1\n      iszero\n      tag_47\n      jumpi\n      0x00\n      dup1\n      revert\n    tag_47:\n      pop\n      tag_48\n      0x04\n      dup1\n      calldatasize\n      sub\n      dup2\n      add\n      swap1\n      tag_49\n      swap2\n      swap1\n      tag_50\n      jump\t// in\n    tag_49:\n      tag_51\n      jump\t// in\n    tag_48:\n      mload(0x40)\n      tag_52\n      swap2\n      swap1\n      tag_38\n      jump\t// in\n    tag_52:\n      mload(0x40)\n      dup1\n      swap2\n      sub\n      swap1\n      return\n        /* \"octo-ps.sol\":3031:3369  function claimTokens() external nonReentrant {... */\n    tag_8:\n      callvalue\n      dup1\n      iszero\n      tag_53\n      jumpi\n      0x00\n      dup1\n      revert\n    tag_53:\n      pop\n      tag_54\n      tag_55\n      jump\t// in\n    tag_54:\n      stop\n        /* \"@openzeppelin/contracts/access/Ownable.sol\":2293:2394  function renounceOwnership() public virtual onlyOwner {... */\n    tag_9:\n      callvalue\n      dup1\n      iszero\n      tag_56\n      jumpi\n      0x00\n      dup1\n      revert\n    tag_56:\n      pop\n      tag_57\n      tag_58\n      jump\t// in\n    tag_57:\n      stop\n        /* \"octo-ps.sol\":2550:3025  function finalizePreSale() external onlyOwner {... */\n    tag_10:\n      callvalue\n      dup1\n      iszero\n      tag_59\n      jumpi\n      0x00\n      dup1\n      revert\n    tag_59:\n      pop\n      tag_60\n      tag_61\n      jump\t// in\n    tag_60:\n      stop\n        /* \"octo-ps.sol\":468:492  uint256 public startTime */\n    tag_11:\n      callvalue\n      dup1\n      iszero\n      tag_62\n      jumpi\n      0x00\n      dup1\n      revert\n    tag_62:\n      pop\n      tag_63\n      tag_64\n      jump\t// in\n    tag_63:\n      mload(0x40)\n      tag_65\n      swap2\n      swap1\n      tag_38\n      jump\t// in\n    tag_65:\n      mload(0x40)\n      dup1\n      swap2\n      sub\n      swap1\n      return\n        /* \"octo-ps.sol\":432:462  uint256 public maxContribution */\n    tag_12:\n      callvalue\n      dup1\n      iszero\n      tag_66\n      jumpi\n      0x00\n      dup1\n      revert\n    tag_66:\n      pop\n      tag_67\n      tag_68\n      jump\t// in\n    tag_67:\n      mload(0x40)\n      tag_69\n      swap2\n      swap1\n      tag_38\n      jump\t// in\n    tag_69:\n      mload(0x40)\n      dup1\n      swap2\n      sub\n      swap1\n      return\n        /* \"@openzeppelin/contracts/access/Ownable.sol\":1638:1723  function owner() public view virtual returns (address) {... */\n    tag_13:\n      callvalue\n      dup1\n      iszero\n      tag_70\n      jumpi\n      0x00\n      dup1\n      revert\n    tag_70:\n      pop\n      tag_71\n      tag_72\n      jump\t// in\n    tag_71:\n      mload(0x40)\n      tag_73\n      swap2\n      swap1\n      tag_33\n      jump\t// in\n    tag_73:\n      mload(0x40)\n      dup1\n      swap2\n      sub\n      swap1\n      return\n        /* \"octo-ps.sol\":396:426  uint256 public minContribution */\n    tag_14:\n      callvalue\n      dup1\n      iszero\n      tag_74\n      jumpi\n      0x00\n      dup1\n      revert\n    tag_74:\n      pop\n      tag_75\n      tag_76\n      jump\t// in\n    tag_75:\n      mload(0x40)\n      tag_77\n      swap2\n      swap1\n      tag_38\n      jump\t// in\n    tag_77:\n      mload(0x40)\n      dup1\n      swap2\n      sub\n      swap1\n      return\n        /* \"octo-ps.sol\":526:555  bool public finalized = false */\n    tag_15:\n      callvalue\n      dup1\n      iszero\n      tag_78\n      jumpi\n      0x00\n      dup1\n      revert\n    tag_78:\n      pop\n      tag_79\n      tag_80\n      jump\t// in\n    tag_79:\n      mload(0x40)\n      tag_81\n      swap2\n      swap1\n      tag_82\n      jump\t// in\n    tag_81:\n      mload(0x40)\n      dup1\n      swap2\n      sub\n      swap1\n      return\n        /* \"octo-ps.sol\":1748:2423  function buyTokens() public nonReentrant payable {... */\n    tag_16:\n      tag_83\n      tag_25\n      jump\t// in\n    tag_83:\n      stop\n        /* \"@openzeppelin/contracts/access/Ownable.sol\":2543:2758  function transferOwnership(address newOwner) public virtual onlyOwner {... */\n    tag_17:\n      callvalue\n      dup1\n      iszero\n      tag_84\n      jumpi\n      0x00\n      dup1\n      revert\n    tag_84:\n      pop\n      tag_85\n      0x04\n      dup1\n      calldatasize\n      sub\n      dup2\n      add\n      swap1\n      tag_86\n      swap2\n      swap1\n      tag_50\n      jump\t// in\n    tag_86:\n      tag_87\n      jump\t// in\n    tag_85:\n      stop\n        /* \"octo-ps.sol\":284:303  IERC20 public token */\n    tag_18:\n      callvalue\n      dup1\n      iszero\n      tag_88\n      jumpi\n      0x00\n      dup1\n      revert\n    tag_88:\n      pop\n      tag_89\n      tag_90\n      jump\t// in\n    tag_89:\n      mload(0x40)\n      tag_91\n      swap2\n      swap1\n      tag_92\n      jump\t// in\n    tag_91:\n      mload(0x40)\n      dup1\n      swap2\n      sub\n      swap1\n      return\n        /* \"octo-ps.sol\":1748:2423  function buyTokens() public nonReentrant payable {... */\n    tag_25:\n        /* \"@openzeppelin/contracts/security/ReentrancyGuard.sol\":2261:2282  _nonReentrantBefore() */\n      tag_94\n        /* \"@openzeppelin/contracts/security/ReentrancyGuard.sol\":2261:2280  _nonReentrantBefore */\n      tag_95\n        /* \"@openzeppelin/contracts/security/ReentrancyGuard.sol\":2261:2282  _nonReentrantBefore() */\n      jump\t// in\n    tag_94:\n        /* \"octo-ps.sol\":1812:1899  Debug(block.timestamp, startTime, endTime, msg.value, minContribution, maxContribution) */\n      0xc09d2df50ba063522fd6763cfb9c99e8e93dee49b8af5450c70a00268ba281b2\n        /* \"octo-ps.sol\":1818:1833  block.timestamp */\n      timestamp\n        /* \"octo-ps.sol\":1835:1844  startTime */\n      sload(0x07)\n        /* \"octo-ps.sol\":1846:1853  endTime */\n      sload(0x08)\n        /* \"octo-ps.sol\":1855:1864  msg.value */\n      callvalue\n        /* \"octo-ps.sol\":1866:1881  minContribution */\n      sload(0x05)\n        /* \"octo-ps.sol\":1883:1898  maxContribution */\n      sload(0x06)\n        /* \"octo-ps.sol\":1812:1899  Debug(block.timestamp, startTime, endTime, msg.value, minContribution, maxContribution) */\n      mload(0x40)\n      tag_97\n      swap7\n      swap6\n      swap5\n      swap4\n      swap3\n      swap2\n      swap1\n      tag_98\n      jump\t// in\n    tag_97:\n      mload(0x40)\n      dup1\n      swap2\n      sub\n      swap1\n      log1\n        /* \"octo-ps.sol\":1937:1946  startTime */\n      sload(0x07)\n        /* \"octo-ps.sol\":1918:1933  block.timestamp */\n      timestamp\n        /* \"octo-ps.sol\":1918:1946  block.timestamp >= startTime */\n      lt\n      iszero\n        /* \"octo-ps.sol\":1918:1976  block.timestamp >= startTime && block.timestamp <= endTime */\n      dup1\n      iszero\n      tag_99\n      jumpi\n      pop\n        /* \"octo-ps.sol\":1969:1976  endTime */\n      sload(0x08)\n        /* \"octo-ps.sol\":1950:1965  block.timestamp */\n      timestamp\n        /* \"octo-ps.sol\":1950:1976  block.timestamp <= endTime */\n      gt\n      iszero\n        /* \"octo-ps.sol\":1918:1976  block.timestamp >= startTime && block.timestamp <= endTime */\n    tag_99:\n        /* \"octo-ps.sol\":1910:2003  require(block.timestamp >= startTime && block.timestamp <= endTime, \"Pre-sale is not active\") */\n      tag_100\n      jumpi\n      mload(0x40)\n      0x08c379a000000000000000000000000000000000000000000000000000000000\n      dup2\n      mstore\n      0x04\n      add\n      tag_101\n      swap1\n      tag_102\n      jump\t// in\n    tag_101:\n      mload(0x40)\n      dup1\n      swap2\n      sub\n      swap1\n      revert\n    tag_100:\n        /* \"octo-ps.sol\":2034:2049  minContribution */\n      sload(0x05)\n        /* \"octo-ps.sol\":2021:2030  msg.value */\n      callvalue\n        /* \"octo-ps.sol\":2021:2049  msg.value >= minContribution */\n      lt\n      iszero\n        /* \"octo-ps.sol\":2013:2089  require(msg.value >= minContribution, \"Contribution is below minimum limit\") */\n      tag_103\n      jumpi\n      mload(0x40)\n      0x08c379a000000000000000000000000000000000000000000000000000000000\n      dup2\n      mstore\n      0x04\n      add\n      tag_104\n      swap1\n      tag_105\n      jump\t// in\n    tag_104:\n      mload(0x40)\n      dup1\n      swap2\n      sub\n      swap1\n      revert\n    tag_103:\n        /* \"octo-ps.sol\":2148:2163  maxContribution */\n      sload(0x06)\n        /* \"octo-ps.sol\":2135:2144  msg.value */\n      callvalue\n        /* \"octo-ps.sol\":2107:2120  contributions */\n      0x0a\n        /* \"octo-ps.sol\":2107:2132  contributions[msg.sender] */\n      0x00\n        /* \"octo-ps.sol\":2121:2131  msg.sender */\n      caller\n        /* \"octo-ps.sol\":2107:2132  contributions[msg.sender] */\n      0xffffffffffffffffffffffffffffffffffffffff\n      and\n      0xffffffffffffffffffffffffffffffffffffffff\n      and\n      dup2\n      mstore\n      0x20\n      add\n      swap1\n      dup2\n      mstore\n      0x20\n      add\n      0x00\n      keccak256\n      sload\n        /* \"octo-ps.sol\":2107:2144  contributions[msg.sender] + msg.value */\n      tag_106\n      swap2\n      swap1\n      tag_107\n      jump\t// in\n    tag_106:\n        /* \"octo-ps.sol\":2107:2163  contributions[msg.sender] + msg.value <= maxContribution */\n      gt\n      iszero\n        /* \"octo-ps.sol\":2099:2202  require(contributions[msg.sender] + msg.value <= maxContribution, \"Contribution exceeds maximum limit\") */\n      tag_108\n      jumpi\n      mload(0x40)\n      0x08c379a000000000000000000000000000000000000000000000000000000000\n      dup2\n      mstore\n      0x04\n      add\n      tag_109\n      swap1\n      tag_110\n      jump\t// in\n    tag_109:\n      mload(0x40)\n      dup1\n      swap2\n      sub\n      swap1\n      revert\n    tag_108:\n        /* \"octo-ps.sol\":2213:2232  uint256 tokenAmount */\n      0x00\n        /* \"octo-ps.sol\":2235:2260  getTokenAmount(msg.value) */\n      tag_111\n        /* \"octo-ps.sol\":2250:2259  msg.value */\n      callvalue\n        /* \"octo-ps.sol\":2235:2249  getTokenAmount */\n      tag_112\n        /* \"octo-ps.sol\":2235:2260  getTokenAmount(msg.value) */\n      jump\t// in\n    tag_111:\n        /* \"octo-ps.sol\":2213:2260  uint256 tokenAmount = getTokenAmount(msg.value) */\n      swap1\n      pop\n        /* \"octo-ps.sol\":2299:2308  msg.value */\n      callvalue\n        /* \"octo-ps.sol\":2270:2283  contributions */\n      0x0a\n        /* \"octo-ps.sol\":2270:2295  contributions[msg.sender] */\n      0x00\n        /* \"octo-ps.sol\":2284:2294  msg.sender */\n      caller\n        /* \"octo-ps.sol\":2270:2295  contributions[msg.sender] */\n      0xffffffffffffffffffffffffffffffffffffffff\n      and\n      0xffffffffffffffffffffffffffffffffffffffff\n      and\n      dup2\n      mstore\n      0x20\n      add\n      swap1\n      dup2\n      mstore\n      0x20\n      add\n      0x00\n      keccak256\n      0x00\n        /* \"octo-ps.sol\":2270:2308  contributions[msg.sender] += msg.value */\n      dup3\n      dup3\n      sload\n      tag_113\n      swap2\n      swap1\n      tag_107\n      jump\t// in\n    tag_113:\n      swap3\n      pop\n      pop\n      dup2\n      swap1\n      sstore\n      pop\n        /* \"octo-ps.sol\":2340:2349  msg.value */\n      callvalue\n        /* \"octo-ps.sol\":2318:2336  totalContributions */\n      0x0b\n      0x00\n        /* \"octo-ps.sol\":2318:2349  totalContributions += msg.value */\n      dup3\n      dup3\n      sload\n      tag_114\n      swap2\n      swap1\n      tag_107\n      jump\t// in\n    tag_114:\n      swap3\n      pop\n      pop\n      dup2\n      swap1\n      sstore\n      pop\n        /* \"octo-ps.sol\":2381:2391  msg.sender */\n      caller\n        /* \"octo-ps.sol\":2365:2416  TokensPurchased(msg.sender, msg.value, tokenAmount) */\n      0xffffffffffffffffffffffffffffffffffffffff\n      and\n      0x8fafebcaf9d154343dad25669bfa277f4fbacd7ac6b0c4fed522580e040a0f33\n        /* \"octo-ps.sol\":2393:2402  msg.value */\n      callvalue\n        /* \"octo-ps.sol\":2404:2415  tokenAmount */\n      dup4\n        /* \"octo-ps.sol\":2365:2416  TokensPurchased(msg.sender, msg.value, tokenAmount) */\n      mload(0x40)\n      tag_115\n      swap3\n      swap2\n      swap1\n      tag_116\n      jump\t// in\n    tag_115:\n      mload(0x40)\n      dup1\n      swap2\n      sub\n      swap1\n      log2\n        /* \"octo-ps.sol\":1797:2423  {... */\n      pop\n        /* \"@openzeppelin/contracts/security/ReentrancyGuard.sol\":2303:2323  _nonReentrantAfter() */\n      tag_117\n        /* \"@openzeppelin/contracts/security/ReentrancyGuard.sol\":2303:2321  _nonReentrantAfter */\n      tag_118\n        /* \"@openzeppelin/contracts/security/ReentrancyGuard.sol\":2303:2323  _nonReentrantAfter() */\n      jump\t// in\n    tag_117:\n        /* \"octo-ps.sol\":1748:2423  function buyTokens() public nonReentrant payable {... */\n      jump\t// out\n        /* \"octo-ps.sol\":309:337  address public preSaleWallet */\n    tag_31:\n      0x03\n      0x00\n      swap1\n      sload\n      swap1\n      0x0100\n      exp\n      swap1\n      div\n      0xffffffffffffffffffffffffffffffffffffffff\n      and\n      dup2\n      jump\t// out\n        /* \"octo-ps.sol\":343:362  uint256 public rate */\n    tag_36:\n      sload(0x04)\n      dup2\n      jump\t// out\n        /* \"octo-ps.sol\":498:520  uint256 public endTime */\n    tag_41:\n      sload(0x08)\n      dup2\n      jump\t// out\n        /* \"octo-ps.sol\":616:649  uint256 public totalContributions */\n    tag_45:\n      sload(0x0b)\n      dup2\n      jump\t// out\n        /* \"octo-ps.sol\":562:610  mapping(address => uint256) public contributions */\n    tag_51:\n      mstore(0x20, 0x0a)\n      dup1\n      0x00\n      mstore\n      keccak256(0x00, 0x40)\n      0x00\n      swap2\n      pop\n      swap1\n      pop\n      sload\n      dup2\n      jump\t// out\n        /* \"octo-ps.sol\":3031:3369  function claimTokens() external nonReentrant {... */\n    tag_55:\n        /* \"@openzeppelin/contracts/security/ReentrancyGuard.sol\":2261:2282  _nonReentrantBefore() */\n      tag_120\n        /* \"@openzeppelin/contracts/security/ReentrancyGuard.sol\":2261:2280  _nonReentrantBefore */\n      tag_95\n        /* \"@openzeppelin/contracts/security/ReentrancyGuard.sol\":2261:2282  _nonReentrantBefore() */\n      jump\t// in\n    tag_120:\n        /* \"octo-ps.sol\":3094:3103  finalized */\n      0x09\n      0x00\n      swap1\n      sload\n      swap1\n      0x0100\n      exp\n      swap1\n      div\n      0xff\n      and\n        /* \"octo-ps.sol\":3086:3130  require(finalized, \"Pre-sale not finalized\") */\n      tag_122\n      jumpi\n      mload(0x40)\n      0x08c379a000000000000000000000000000000000000000000000000000000000\n      dup2\n      mstore\n      0x04\n      add\n      tag_123\n      swap1\n      tag_124\n      jump\t// in\n    tag_123:\n      mload(0x40)\n      dup1\n      swap2\n      sub\n      swap1\n      revert\n    tag_122:\n        /* \"octo-ps.sol\":3176:3177  0 */\n      0x00\n        /* \"octo-ps.sol\":3148:3161  contributions */\n      0x0a\n        /* \"octo-ps.sol\":3148:3173  contributions[msg.sender] */\n      0x00\n        /* \"octo-ps.sol\":3162:3172  msg.sender */\n      caller\n        /* \"octo-ps.sol\":3148:3173  contributions[msg.sender] */\n      0xffffffffffffffffffffffffffffffffffffffff\n      and\n      0xffffffffffffffffffffffffffffffffffffffff\n      and\n      dup2\n      mstore\n      0x20\n      add\n      swap1\n      dup2\n      mstore\n      0x20\n      add\n      0x00\n      keccak256\n      sload\n        /* \"octo-ps.sol\":3148:3177  contributions[msg.sender] > 0 */\n      gt\n        /* \"octo-ps.sol\":3140:3200  require(contributions[msg.sender] > 0, \"No tokens to claim\") */\n      tag_125\n      jumpi\n      mload(0x40)\n      0x08c379a000000000000000000000000000000000000000000000000000000000\n      dup2\n      mstore\n      0x04\n      add\n      tag_126\n      swap1\n      tag_127\n      jump\t// in\n    tag_126:\n      mload(0x40)\n      dup1\n      swap2\n      sub\n      swap1\n      revert\n    tag_125:\n        /* \"octo-ps.sol\":3211:3230  uint256 tokenAmount */\n      0x00\n        /* \"octo-ps.sol\":3233:3274  getTokenAmount(contributions[msg.sender]) */\n      tag_128\n        /* \"octo-ps.sol\":3248:3261  contributions */\n      0x0a\n        /* \"octo-ps.sol\":3248:3273  contributions[msg.sender] */\n      0x00\n        /* \"octo-ps.sol\":3262:3272  msg.sender */\n      caller\n        /* \"octo-ps.sol\":3248:3273  contributions[msg.sender] */\n      0xffffffffffffffffffffffffffffffffffffffff\n      and\n      0xffffffffffffffffffffffffffffffffffffffff\n      and\n      dup2\n      mstore\n      0x20\n      add\n      swap1\n      dup2\n      mstore\n      0x20\n      add\n      0x00\n      keccak256\n      sload\n        /* \"octo-ps.sol\":3233:3247  getTokenAmount */\n      tag_112\n        /* \"octo-ps.sol\":3233:3274  getTokenAmount(contributions[msg.sender]) */\n      jump\t// in\n    tag_128:\n        /* \"octo-ps.sol\":3211:3274  uint256 tokenAmount = getTokenAmount(contributions[msg.sender]) */\n      swap1\n      pop\n        /* \"octo-ps.sol\":3312:3313  0 */\n      0x00\n        /* \"octo-ps.sol\":3284:3297  contributions */\n      0x0a\n        /* \"octo-ps.sol\":3284:3309  contributions[msg.sender] */\n      0x00\n        /* \"octo-ps.sol\":3298:3308  msg.sender */\n      caller\n        /* \"octo-ps.sol\":3284:3309  contributions[msg.sender] */\n      0xffffffffffffffffffffffffffffffffffffffff\n      and\n      0xffffffffffffffffffffffffffffffffffffffff\n      and\n      dup2\n      mstore\n      0x20\n      add\n      swap1\n      dup2\n      mstore\n      0x20\n      add\n      0x00\n      keccak256\n        /* \"octo-ps.sol\":3284:3313  contributions[msg.sender] = 0 */\n      dup2\n      swap1\n      sstore\n      pop\n        /* \"octo-ps.sol\":3323:3328  token */\n      0x02\n      0x00\n      swap1\n      sload\n      swap1\n      0x0100\n      exp\n      swap1\n      div\n      0xffffffffffffffffffffffffffffffffffffffff\n      and\n        /* \"octo-ps.sol\":3323:3337  token.transfer */\n      0xffffffffffffffffffffffffffffffffffffffff\n      and\n      0xa9059cbb\n        /* \"octo-ps.sol\":3338:3348  msg.sender */\n      caller\n        /* \"octo-ps.sol\":3350:3361  tokenAmount */\n      dup4\n        /* \"octo-ps.sol\":3323:3362  token.transfer(msg.sender, tokenAmount) */\n      mload(0x40)\n      dup4\n      0xffffffff\n      and\n      0xe0\n      shl\n      dup2\n      mstore\n      0x04\n      add\n      tag_129\n      swap3\n      swap2\n      swap1\n      tag_130\n      jump\t// in\n    tag_129:\n      0x20\n      mload(0x40)\n      dup1\n      dup4\n      sub\n      dup2\n      0x00\n      dup8\n      gas\n      call\n      iszero\n      dup1\n      iszero\n      tag_132\n      jumpi\n      returndatasize\n      0x00\n      dup1\n      returndatacopy\n      revert(0x00, returndatasize)\n    tag_132:\n      pop\n      pop\n      pop\n      pop\n      mload(0x40)\n      returndatasize\n      not(0x1f)\n      0x1f\n      dup3\n      add\n      and\n      dup3\n      add\n      dup1\n      0x40\n      mstore\n      pop\n      dup2\n      add\n      swap1\n      tag_133\n      swap2\n      swap1\n      tag_134\n      jump\t// in\n    tag_133:\n      pop\n        /* \"octo-ps.sol\":3076:3369  {... */\n      pop\n        /* \"@openzeppelin/contracts/security/ReentrancyGuard.sol\":2303:2323  _nonReentrantAfter() */\n      tag_135\n        /* \"@openzeppelin/contracts/security/ReentrancyGuard.sol\":2303:2321  _nonReentrantAfter */\n      tag_118\n        /* \"@openzeppelin/contracts/security/ReentrancyGuard.sol\":2303:2323  _nonReentrantAfter() */\n      jump\t// in\n    tag_135:\n        /* \"octo-ps.sol\":3031:3369  function claimTokens() external nonReentrant {... */\n      jump\t// out\n        /* \"@openzeppelin/contracts/access/Ownable.sol\":2293:2394  function renounceOwnership() public virtual onlyOwner {... */\n    tag_58:\n        /* \"@openzeppelin/contracts/access/Ownable.sol\":1531:1544  _checkOwner() */\n      tag_137\n        /* \"@openzeppelin/contracts/access/Ownable.sol\":1531:1542  _checkOwner */\n      tag_138\n        /* \"@openzeppelin/contracts/access/Ownable.sol\":1531:1544  _checkOwner() */\n      jump\t// in\n    tag_137:\n        /* \"@openzeppelin/contracts/access/Ownable.sol\":2357:2387  _transferOwnership(address(0)) */\n      tag_140\n        /* \"@openzeppelin/contracts/access/Ownable.sol\":2384:2385  0 */\n      0x00\n        /* \"@openzeppelin/contracts/access/Ownable.sol\":2357:2375  _transferOwnership */\n      tag_141\n        /* \"@openzeppelin/contracts/access/Ownable.sol\":2357:2387  _transferOwnership(address(0)) */\n      jump\t// in\n    tag_140:\n        /* \"@openzeppelin/contracts/access/Ownable.sol\":2293:2394  function renounceOwnership() public virtual onlyOwner {... */\n      jump\t// out\n        /* \"octo-ps.sol\":2550:3025  function finalizePreSale() external onlyOwner {... */\n    tag_61:\n        /* \"@openzeppelin/contracts/access/Ownable.sol\":1531:1544  _checkOwner() */\n      tag_143\n        /* \"@openzeppelin/contracts/access/Ownable.sol\":1531:1542  _checkOwner */\n      tag_138\n        /* \"@openzeppelin/contracts/access/Ownable.sol\":1531:1544  _checkOwner() */\n      jump\t// in\n    tag_143:\n        /* \"octo-ps.sol\":2632:2639  endTime */\n      sload(0x08)\n        /* \"octo-ps.sol\":2614:2629  block.timestamp */\n      timestamp\n        /* \"octo-ps.sol\":2614:2639  block.timestamp > endTime */\n      gt\n        /* \"octo-ps.sol\":2606:2670  require(block.timestamp > endTime, \"Pre-sale has not ended yet\") */\n      tag_145\n      jumpi\n      mload(0x40)\n      0x08c379a000000000000000000000000000000000000000000000000000000000\n      dup2\n      mstore\n      0x04\n      add\n      tag_146\n      swap1\n      tag_147\n      jump\t// in\n    tag_146:\n      mload(0x40)\n      dup1\n      swap2\n      sub\n      swap1\n      revert\n    tag_145:\n        /* \"octo-ps.sol\":2689:2698  finalized */\n      0x09\n      0x00\n      swap1\n      sload\n      swap1\n      0x0100\n      exp\n      swap1\n      div\n      0xff\n      and\n        /* \"octo-ps.sol\":2688:2698  !finalized */\n      iszero\n        /* \"octo-ps.sol\":2680:2729  require(!finalized, \"Pre-sale already finalized\") */\n      tag_148\n      jumpi\n      mload(0x40)\n      0x08c379a000000000000000000000000000000000000000000000000000000000\n      dup2\n      mstore\n      0x04\n      add\n      tag_149\n      swap1\n      tag_150\n      jump\t// in\n    tag_149:\n      mload(0x40)\n      dup1\n      swap2\n      sub\n      swap1\n      revert\n    tag_148:\n        /* \"octo-ps.sol\":2752:2756  true */\n      0x01\n        /* \"octo-ps.sol\":2740:2749  finalized */\n      0x09\n      0x00\n        /* \"octo-ps.sol\":2740:2756  finalized = true */\n      0x0100\n      exp\n      dup2\n      sload\n      dup2\n      0xff\n      mul\n      not\n      and\n      swap1\n      dup4\n      iszero\n      iszero\n      mul\n      or\n      swap1\n      sstore\n      pop\n        /* \"octo-ps.sol\":2767:2787  uint256 unsoldTokens */\n      0x00\n        /* \"octo-ps.sol\":2790:2795  token */\n      0x02\n      0x00\n      swap1\n      sload\n      swap1\n      0x0100\n      exp\n      swap1\n      div\n      0xffffffffffffffffffffffffffffffffffffffff\n      and\n        /* \"octo-ps.sol\":2790:2805  token.balanceOf */\n      0xffffffffffffffffffffffffffffffffffffffff\n      and\n      0x70a08231\n        /* \"octo-ps.sol\":2814:2818  this */\n      address\n        /* \"octo-ps.sol\":2790:2820  token.balanceOf(address(this)) */\n      mload(0x40)\n      dup3\n      0xffffffff\n      and\n      0xe0\n      shl\n      dup2\n      mstore\n      0x04\n      add\n      tag_151\n      swap2\n      swap1\n      tag_33\n      jump\t// in\n    tag_151:\n      0x20\n      mload(0x40)\n      dup1\n      dup4\n      sub\n      dup2\n      dup7\n      gas\n      staticcall\n      iszero\n      dup1\n      iszero\n      tag_153\n      jumpi\n      returndatasize\n      0x00\n      dup1\n      returndatacopy\n      revert(0x00, returndatasize)\n    tag_153:\n      pop\n      pop\n      pop\n      pop\n      mload(0x40)\n      returndatasize\n      not(0x1f)\n      0x1f\n      dup3\n      add\n      and\n      dup3\n      add\n      dup1\n      0x40\n      mstore\n      pop\n      dup2\n      add\n      swap1\n      tag_154\n      swap2\n      swap1\n      tag_155\n      jump\t// in\n    tag_154:\n        /* \"octo-ps.sol\":2767:2820  uint256 unsoldTokens = token.balanceOf(address(this)) */\n      swap1\n      pop\n        /* \"octo-ps.sol\":2849:2850  0 */\n      0x00\n        /* \"octo-ps.sol\":2834:2846  unsoldTokens */\n      dup2\n        /* \"octo-ps.sol\":2834:2850  unsoldTokens > 0 */\n      gt\n        /* \"octo-ps.sol\":2830:2920  if (unsoldTokens > 0) {... */\n      iszero\n      tag_156\n      jumpi\n        /* \"octo-ps.sol\":2866:2871  token */\n      0x02\n      0x00\n      swap1\n      sload\n      swap1\n      0x0100\n      exp\n      swap1\n      div\n      0xffffffffffffffffffffffffffffffffffffffff\n      and\n        /* \"octo-ps.sol\":2866:2880  token.transfer */\n      0xffffffffffffffffffffffffffffffffffffffff\n      and\n      0xa9059cbb\n        /* \"octo-ps.sol\":2881:2894  preSaleWallet */\n      0x03\n      0x00\n      swap1\n      sload\n      swap1\n      0x0100\n      exp\n      swap1\n      div\n      0xffffffffffffffffffffffffffffffffffffffff\n      and\n        /* \"octo-ps.sol\":2896:2908  unsoldTokens */\n      dup4\n        /* \"octo-ps.sol\":2866:2909  token.transfer(preSaleWallet, unsoldTokens) */\n      mload(0x40)\n      dup4\n      0xffffffff\n      and\n      0xe0\n      shl\n      dup2\n      mstore\n      0x04\n      add\n      tag_157\n      swap3\n      swap2\n      swap1\n      tag_130\n      jump\t// in\n    tag_157:\n      0x20\n      mload(0x40)\n      dup1\n      dup4\n      sub\n      dup2\n      0x00\n      dup8\n      gas\n      call\n      iszero\n      dup1\n      iszero\n      tag_159\n      jumpi\n      returndatasize\n      0x00\n      dup1\n      returndatacopy\n      revert(0x00, returndatasize)\n    tag_159:\n      pop\n      pop\n      pop\n      pop\n      mload(0x40)\n      returndatasize\n      not(0x1f)\n      0x1f\n      dup3\n      add\n      and\n      dup3\n      add\n      dup1\n      0x40\n      mstore\n      pop\n      dup2\n      add\n      swap1\n      tag_160\n      swap2\n      swap1\n      tag_134\n      jump\t// in\n    tag_160:\n      pop\n        /* \"octo-ps.sol\":2830:2920  if (unsoldTokens > 0) {... */\n    tag_156:\n        /* \"octo-ps.sol\":2938:2951  preSaleWallet */\n      0x03\n      0x00\n      swap1\n      sload\n      swap1\n      0x0100\n      exp\n      swap1\n      div\n      0xffffffffffffffffffffffffffffffffffffffff\n      and\n        /* \"octo-ps.sol\":2930:2961  payable(preSaleWallet).transfer */\n      0xffffffffffffffffffffffffffffffffffffffff\n      and\n        /* \"octo-ps.sol\":2930:2984  payable(preSaleWallet).transfer(address(this).balance) */\n      0x08fc\n        /* \"octo-ps.sol\":2962:2983  address(this).balance */\n      selfbalance\n        /* \"octo-ps.sol\":2930:2984  payable(preSaleWallet).transfer(address(this).balance) */\n      swap1\n      dup2\n      iszero\n      mul\n      swap1\n      mload(0x40)\n      0x00\n      mload(0x40)\n      dup1\n      dup4\n      sub\n      dup2\n      dup6\n      dup9\n      dup9\n      call\n      swap4\n      pop\n      pop\n      pop\n      pop\n      iszero\n      dup1\n      iszero\n      tag_162\n      jumpi\n      returndatasize\n      0x00\n      dup1\n      returndatacopy\n      revert(0x00, returndatasize)\n    tag_162:\n      pop\n        /* \"octo-ps.sol\":3000:3018  PreSaleFinalized() */\n      0x1ad1caa1c571aefbfc687d24e1f5c54fb44b2a683ce9dd8d68a2c391e5d83213\n      mload(0x40)\n      mload(0x40)\n      dup1\n      swap2\n      sub\n      swap1\n      log1\n        /* \"octo-ps.sol\":2596:3025  {... */\n      pop\n        /* \"octo-ps.sol\":2550:3025  function finalizePreSale() external onlyOwner {... */\n      jump\t// out\n        /* \"octo-ps.sol\":468:492  uint256 public startTime */\n    tag_64:\n      sload(0x07)\n      dup2\n      jump\t// out\n        /* \"octo-ps.sol\":432:462  uint256 public maxContribution */\n    tag_68:\n      sload(0x06)\n      dup2\n      jump\t// out\n        /* \"@openzeppelin/contracts/access/Ownable.sol\":1638:1723  function owner() public view virtual returns (address) {... */\n    tag_72:\n        /* \"@openzeppelin/contracts/access/Ownable.sol\":1684:1691  address */\n      0x00\n        /* \"@openzeppelin/contracts/access/Ownable.sol\":1710:1716  _owner */\n      dup1\n      0x00\n      swap1\n      sload\n      swap1\n      0x0100\n      exp\n      swap1\n      div\n      0xffffffffffffffffffffffffffffffffffffffff\n      and\n        /* \"@openzeppelin/contracts/access/Ownable.sol\":1703:1716  return _owner */\n      swap1\n      pop\n        /* \"@openzeppelin/contracts/access/Ownable.sol\":1638:1723  function owner() public view virtual returns (address) {... */\n      swap1\n      jump\t// out\n        /* \"octo-ps.sol\":396:426  uint256 public minContribution */\n    tag_76:\n      sload(0x05)\n      dup2\n      jump\t// out\n        /* \"octo-ps.sol\":526:555  bool public finalized = false */\n    tag_80:\n      0x09\n      0x00\n      swap1\n      sload\n      swap1\n      0x0100\n      exp\n      swap1\n      div\n      0xff\n      and\n      dup2\n      jump\t// out\n        /* \"@openzeppelin/contracts/access/Ownable.sol\":2543:2758  function transferOwnership(address newOwner) public virtual onlyOwner {... */\n    tag_87:\n        /* \"@openzeppelin/contracts/access/Ownable.sol\":1531:1544  _checkOwner() */\n      tag_165\n        /* \"@openzeppelin/contracts/access/Ownable.sol\":1531:1542  _checkOwner */\n      tag_138\n        /* \"@openzeppelin/contracts/access/Ownable.sol\":1531:1544  _checkOwner() */\n      jump\t// in\n    tag_165:\n        /* \"@openzeppelin/contracts/access/Ownable.sol\":2647:2648  0 */\n      0x00\n        /* \"@openzeppelin/contracts/access/Ownable.sol\":2627:2649  newOwner == address(0) */\n      0xffffffffffffffffffffffffffffffffffffffff\n      and\n        /* \"@openzeppelin/contracts/access/Ownable.sol\":2627:2635  newOwner */\n      dup2\n        /* \"@openzeppelin/contracts/access/Ownable.sol\":2627:2649  newOwner == address(0) */\n      0xffffffffffffffffffffffffffffffffffffffff\n      and\n      sub\n        /* \"@openzeppelin/contracts/access/Ownable.sol\":2623:2714  if (newOwner == address(0)) {... */\n      tag_167\n      jumpi\n        /* \"@openzeppelin/contracts/access/Ownable.sol\":2700:2701  0 */\n      0x00\n        /* \"@openzeppelin/contracts/access/Ownable.sol\":2672:2703  OwnableInvalidOwner(address(0)) */\n      mload(0x40)\n      0x1e4fbdf700000000000000000000000000000000000000000000000000000000\n      dup2\n      mstore\n      0x04\n      add\n      tag_168\n      swap2\n      swap1\n      tag_33\n      jump\t// in\n    tag_168:\n      mload(0x40)\n      dup1\n      swap2\n      sub\n      swap1\n      revert\n        /* \"@openzeppelin/contracts/access/Ownable.sol\":2623:2714  if (newOwner == address(0)) {... */\n    tag_167:\n        /* \"@openzeppelin/contracts/access/Ownable.sol\":2723:2751  _transferOwnership(newOwner) */\n      tag_169\n        /* \"@openzeppelin/contracts/access/Ownable.sol\":2742:2750  newOwner */\n      dup2\n        /* \"@openzeppelin/contracts/access/Ownable.sol\":2723:2741  _transferOwnership */\n      tag_141\n        /* \"@openzeppelin/contracts/access/Ownable.sol\":2723:2751  _transferOwnership(newOwner) */\n      jump\t// in\n    tag_169:\n        /* \"@openzeppelin/contracts/access/Ownable.sol\":2543:2758  function transferOwnership(address newOwner) public virtual onlyOwner {... */\n      pop\n      jump\t// out\n        /* \"octo-ps.sol\":284:303  IERC20 public token */\n    tag_90:\n      0x02\n      0x00\n      swap1\n      sload\n      swap1\n      0x0100\n      exp\n      swap1\n      div\n      0xffffffffffffffffffffffffffffffffffffffff\n      and\n      dup2\n      jump\t// out\n        /* \"@openzeppelin/contracts/security/ReentrancyGuard.sol\":2336:2623  function _nonReentrantBefore() private {... */\n    tag_95:\n        /* \"@openzeppelin/contracts/security/ReentrancyGuard.sol\":1759:1760  2 */\n      0x02\n        /* \"@openzeppelin/contracts/security/ReentrancyGuard.sol\":2468:2475  _status */\n      sload(0x01)\n        /* \"@openzeppelin/contracts/security/ReentrancyGuard.sol\":2468:2487  _status != _ENTERED */\n      sub\n        /* \"@openzeppelin/contracts/security/ReentrancyGuard.sol\":2460:2523  require(_status != _ENTERED, \"ReentrancyGuard: reentrant call\") */\n      tag_171\n      jumpi\n      mload(0x40)\n      0x08c379a000000000000000000000000000000000000000000000000000000000\n      dup2\n      mstore\n      0x04\n      add\n      tag_172\n      swap1\n      tag_173\n      jump\t// in\n    tag_172:\n      mload(0x40)\n      dup1\n      swap2\n      sub\n      swap1\n      revert\n    tag_171:\n        /* \"@openzeppelin/contracts/security/ReentrancyGuard.sol\":1759:1760  2 */\n      0x02\n        /* \"@openzeppelin/contracts/security/ReentrancyGuard.sol\":2598:2605  _status */\n      0x01\n        /* \"@openzeppelin/contracts/security/ReentrancyGuard.sol\":2598:2616  _status = _ENTERED */\n      dup2\n      swap1\n      sstore\n      pop\n        /* \"@openzeppelin/contracts/security/ReentrancyGuard.sol\":2336:2623  function _nonReentrantBefore() private {... */\n      jump\t// out\n        /* \"octo-ps.sol\":2429:2544  function getTokenAmount(uint256 weiAmount) internal view returns (uint256) {... */\n    tag_112:\n        /* \"octo-ps.sol\":2495:2502  uint256 */\n      0x00\n        /* \"octo-ps.sol\":2533:2537  rate */\n      sload(0x04)\n        /* \"octo-ps.sol\":2521:2530  weiAmount */\n      dup3\n        /* \"octo-ps.sol\":2521:2537  weiAmount * rate */\n      tag_175\n      swap2\n      swap1\n      tag_176\n      jump\t// in\n    tag_175:\n        /* \"octo-ps.sol\":2514:2537  return weiAmount * rate */\n      swap1\n      pop\n        /* \"octo-ps.sol\":2429:2544  function getTokenAmount(uint256 weiAmount) internal view returns (uint256) {... */\n      swap2\n      swap1\n      pop\n      jump\t// out\n        /* \"@openzeppelin/contracts/security/ReentrancyGuard.sol\":2629:2838  function _nonReentrantAfter() private {... */\n    tag_118:\n        /* \"@openzeppelin/contracts/security/ReentrancyGuard.sol\":1716:1717  1 */\n      0x01\n        /* \"@openzeppelin/contracts/security/ReentrancyGuard.sol\":2809:2816  _status */\n      dup1\n        /* \"@openzeppelin/contracts/security/ReentrancyGuard.sol\":2809:2831  _status = _NOT_ENTERED */\n      dup2\n      swap1\n      sstore\n      pop\n        /* \"@openzeppelin/contracts/security/ReentrancyGuard.sol\":2629:2838  function _nonReentrantAfter() private {... */\n      jump\t// out\n        /* \"@openzeppelin/contracts/access/Ownable.sol\":1796:1958  function _checkOwner() internal view virtual {... */\n    tag_138:\n        /* \"@openzeppelin/contracts/access/Ownable.sol\":1866:1878  _msgSender() */\n      tag_179\n        /* \"@openzeppelin/contracts/access/Ownable.sol\":1866:1876  _msgSender */\n      tag_180\n        /* \"@openzeppelin/contracts/access/Ownable.sol\":1866:1878  _msgSender() */\n      jump\t// in\n    tag_179:\n        /* \"@openzeppelin/contracts/access/Ownable.sol\":1855:1878  owner() != _msgSender() */\n      0xffffffffffffffffffffffffffffffffffffffff\n      and\n        /* \"@openzeppelin/contracts/access/Ownable.sol\":1855:1862  owner() */\n      tag_181\n        /* \"@openzeppelin/contracts/access/Ownable.sol\":1855:1860  owner */\n      tag_72\n        /* \"@openzeppelin/contracts/access/Ownable.sol\":1855:1862  owner() */\n      jump\t// in\n    tag_181:\n        /* \"@openzeppelin/contracts/access/Ownable.sol\":1855:1878  owner() != _msgSender() */\n      0xffffffffffffffffffffffffffffffffffffffff\n      and\n      eq\n        /* \"@openzeppelin/contracts/access/Ownable.sol\":1851:1952  if (owner() != _msgSender()) {... */\n      tag_182\n      jumpi\n        /* \"@openzeppelin/contracts/access/Ownable.sol\":1928:1940  _msgSender() */\n      tag_183\n        /* \"@openzeppelin/contracts/access/Ownable.sol\":1928:1938  _msgSender */\n      tag_180\n        /* \"@openzeppelin/contracts/access/Ownable.sol\":1928:1940  _msgSender() */\n      jump\t// in\n    tag_183:\n        /* \"@openzeppelin/contracts/access/Ownable.sol\":1901:1941  OwnableUnauthorizedAccount(_msgSender()) */\n      mload(0x40)\n      0x118cdaa700000000000000000000000000000000000000000000000000000000\n      dup2\n      mstore\n      0x04\n      add\n      tag_184\n      swap2\n      swap1\n      tag_33\n      jump\t// in\n    tag_184:\n      mload(0x40)\n      dup1\n      swap2\n      sub\n      swap1\n      revert\n        /* \"@openzeppelin/contracts/access/Ownable.sol\":1851:1952  if (owner() != _msgSender()) {... */\n    tag_182:\n        /* \"@openzeppelin/contracts/access/Ownable.sol\":1796:1958  function _checkOwner() internal view virtual {... */\n      jump\t// out\n        /* \"@openzeppelin/contracts/access/Ownable.sol\":2912:3099  function _transferOwnership(address newOwner) internal virtual {... */\n    tag_141:\n        /* \"@openzeppelin/contracts/access/Ownable.sol\":2985:3001  address oldOwner */\n      0x00\n        /* \"@openzeppelin/contracts/access/Ownable.sol\":3004:3010  _owner */\n      dup1\n      0x00\n      swap1\n      sload\n      swap1\n      0x0100\n      exp\n      swap1\n      div\n      0xffffffffffffffffffffffffffffffffffffffff\n      and\n        /* \"@openzeppelin/contracts/access/Ownable.sol\":2985:3010  address oldOwner = _owner */\n      swap1\n      pop\n        /* \"@openzeppelin/contracts/access/Ownable.sol\":3029:3037  newOwner */\n      dup2\n        /* \"@openzeppelin/contracts/access/Ownable.sol\":3020:3026  _owner */\n      0x00\n      dup1\n        /* \"@openzeppelin/contracts/access/Ownable.sol\":3020:3037  _owner = newOwner */\n      0x0100\n      exp\n      dup2\n      sload\n      dup2\n      0xffffffffffffffffffffffffffffffffffffffff\n      mul\n      not\n      and\n      swap1\n      dup4\n      0xffffffffffffffffffffffffffffffffffffffff\n      and\n      mul\n      or\n      swap1\n      sstore\n      pop\n        /* \"@openzeppelin/contracts/access/Ownable.sol\":3083:3091  newOwner */\n      dup2\n        /* \"@openzeppelin/contracts/access/Ownable.sol\":3052:3092  OwnershipTransferred(oldOwner, newOwner) */\n      0xffffffffffffffffffffffffffffffffffffffff\n      and\n        /* \"@openzeppelin/contracts/access/Ownable.sol\":3073:3081  oldOwner */\n      dup2\n        /* \"@openzeppelin/contracts/access/Ownable.sol\":3052:3092  OwnershipTransferred(oldOwner, newOwner) */\n      0xffffffffffffffffffffffffffffffffffffffff\n      and\n      0x8be0079c531659141344cd1fd0a4f28419497f9722a3daafe3b4186f6b6457e0\n      mload(0x40)\n      mload(0x40)\n      dup1\n      swap2\n      sub\n      swap1\n      log3\n        /* \"@openzeppelin/contracts/access/Ownable.sol\":2975:3099  {... */\n      pop\n        /* \"@openzeppelin/contracts/access/Ownable.sol\":2912:3099  function _transferOwnership(address newOwner) internal virtual {... */\n      pop\n      jump\t// out\n        /* \"@openzeppelin/contracts/utils/Context.sol\":656:752  function _msgSender() internal view virtual returns (address) {... */\n    tag_180:\n        /* \"@openzeppelin/contracts/utils/Context.sol\":709:716  address */\n      0x00\n        /* \"@openzeppelin/contracts/utils/Context.sol\":735:745  msg.sender */\n      caller\n        /* \"@openzeppelin/contracts/utils/Context.sol\":728:745  return msg.sender */\n      swap1\n      pop\n        /* \"@openzeppelin/contracts/utils/Context.sol\":656:752  function _msgSender() internal view virtual returns (address) {... */\n      swap1\n      jump\t// out\n        /* \"#utility.yul\":7:133   */\n    tag_187:\n        /* \"#utility.yul\":44:51   */\n      0x00\n        /* \"#utility.yul\":84:126   */\n      0xffffffffffffffffffffffffffffffffffffffff\n        /* \"#utility.yul\":77:82   */\n      dup3\n        /* \"#utility.yul\":73:127   */\n      and\n        /* \"#utility.yul\":62:127   */\n      swap1\n      pop\n        /* \"#utility.yul\":7:133   */\n      swap2\n      swap1\n      pop\n      jump\t// out\n        /* \"#utility.yul\":139:235   */\n    tag_188:\n        /* \"#utility.yul\":176:183   */\n      0x00\n        /* \"#utility.yul\":205:229   */\n      tag_229\n        /* \"#utility.yul\":223:228   */\n      dup3\n        /* \"#utility.yul\":205:229   */\n      tag_187\n      jump\t// in\n    tag_229:\n        /* \"#utility.yul\":194:229   */\n      swap1\n      pop\n        /* \"#utility.yul\":139:235   */\n      swap2\n      swap1\n      pop\n      jump\t// out\n        /* \"#utility.yul\":241:359   */\n    tag_189:\n        /* \"#utility.yul\":328:352   */\n      tag_231\n        /* \"#utility.yul\":346:351   */\n      dup2\n        /* \"#utility.yul\":328:352   */\n      tag_188\n      jump\t// in\n    tag_231:\n        /* \"#utility.yul\":323:326   */\n      dup3\n        /* \"#utility.yul\":316:353   */\n      mstore\n        /* \"#utility.yul\":241:359   */\n      pop\n      pop\n      jump\t// out\n        /* \"#utility.yul\":365:587   */\n    tag_33:\n        /* \"#utility.yul\":458:462   */\n      0x00\n        /* \"#utility.yul\":496:498   */\n      0x20\n        /* \"#utility.yul\":485:494   */\n      dup3\n        /* \"#utility.yul\":481:499   */\n      add\n        /* \"#utility.yul\":473:499   */\n      swap1\n      pop\n        /* \"#utility.yul\":509:580   */\n      tag_233\n        /* \"#utility.yul\":577:578   */\n      0x00\n        /* \"#utility.yul\":566:575   */\n      dup4\n        /* \"#utility.yul\":562:579   */\n      add\n        /* \"#utility.yul\":553:559   */\n      dup5\n        /* \"#utility.yul\":509:580   */\n      tag_189\n      jump\t// in\n    tag_233:\n        /* \"#utility.yul\":365:587   */\n      swap3\n      swap2\n      pop\n      pop\n      jump\t// out\n        /* \"#utility.yul\":593:670   */\n    tag_190:\n        /* \"#utility.yul\":630:637   */\n      0x00\n        /* \"#utility.yul\":659:664   */\n      dup2\n        /* \"#utility.yul\":648:664   */\n      swap1\n      pop\n        /* \"#utility.yul\":593:670   */\n      swap2\n      swap1\n      pop\n      jump\t// out\n        /* \"#utility.yul\":676:794   */\n    tag_191:\n        /* \"#utility.yul\":763:787   */\n      tag_236\n        /* \"#utility.yul\":781:786   */\n      dup2\n        /* \"#utility.yul\":763:787   */\n      tag_190\n      jump\t// in\n    tag_236:\n        /* \"#utility.yul\":758:761   */\n      dup3\n        /* \"#utility.yul\":751:788   */\n      mstore\n        /* \"#utility.yul\":676:794   */\n      pop\n      pop\n      jump\t// out\n        /* \"#utility.yul\":800:1022   */\n    tag_38:\n        /* \"#utility.yul\":893:897   */\n      0x00\n        /* \"#utility.yul\":931:933   */\n      0x20\n        /* \"#utility.yul\":920:929   */\n      dup3\n        /* \"#utility.yul\":916:934   */\n      add\n        /* \"#utility.yul\":908:934   */\n      swap1\n      pop\n        /* \"#utility.yul\":944:1015   */\n      tag_238\n        /* \"#utility.yul\":1012:1013   */\n      0x00\n        /* \"#utility.yul\":1001:1010   */\n      dup4\n        /* \"#utility.yul\":997:1014   */\n      add\n        /* \"#utility.yul\":988:994   */\n      dup5\n        /* \"#utility.yul\":944:1015   */\n      tag_191\n      jump\t// in\n    tag_238:\n        /* \"#utility.yul\":800:1022   */\n      swap3\n      swap2\n      pop\n      pop\n      jump\t// out\n        /* \"#utility.yul\":1109:1226   */\n    tag_193:\n        /* \"#utility.yul\":1218:1219   */\n      0x00\n        /* \"#utility.yul\":1215:1216   */\n      dup1\n        /* \"#utility.yul\":1208:1220   */\n      revert\n        /* \"#utility.yul\":1355:1477   */\n    tag_195:\n        /* \"#utility.yul\":1428:1452   */\n      tag_243\n        /* \"#utility.yul\":1446:1451   */\n      dup2\n        /* \"#utility.yul\":1428:1452   */\n      tag_188\n      jump\t// in\n    tag_243:\n        /* \"#utility.yul\":1421:1426   */\n      dup2\n        /* \"#utility.yul\":1418:1453   */\n      eq\n        /* \"#utility.yul\":1408:1471   */\n      tag_244\n      jumpi\n        /* \"#utility.yul\":1467:1468   */\n      0x00\n        /* \"#utility.yul\":1464:1465   */\n      dup1\n        /* \"#utility.yul\":1457:1469   */\n      revert\n        /* \"#utility.yul\":1408:1471   */\n    tag_244:\n        /* \"#utility.yul\":1355:1477   */\n      pop\n      jump\t// out\n        /* \"#utility.yul\":1483:1622   */\n    tag_196:\n        /* \"#utility.yul\":1529:1534   */\n      0x00\n        /* \"#utility.yul\":1567:1573   */\n      dup2\n        /* \"#utility.yul\":1554:1574   */\n      calldataload\n        /* \"#utility.yul\":1545:1574   */\n      swap1\n      pop\n        /* \"#utility.yul\":1583:1616   */\n      tag_246\n        /* \"#utility.yul\":1610:1615   */\n      dup2\n        /* \"#utility.yul\":1583:1616   */\n      tag_195\n      jump\t// in\n    tag_246:\n        /* \"#utility.yul\":1483:1622   */\n      swap3\n      swap2\n      pop\n      pop\n      jump\t// out\n        /* \"#utility.yul\":1628:1957   */\n    tag_50:\n        /* \"#utility.yul\":1687:1693   */\n      0x00\n        /* \"#utility.yul\":1736:1738   */\n      0x20\n        /* \"#utility.yul\":1724:1733   */\n      dup3\n        /* \"#utility.yul\":1715:1722   */\n      dup5\n        /* \"#utility.yul\":1711:1734   */\n      sub\n        /* \"#utility.yul\":1707:1739   */\n      slt\n        /* \"#utility.yul\":1704:1823   */\n      iszero\n      tag_248\n      jumpi\n        /* \"#utility.yul\":1742:1821   */\n      tag_249\n      tag_193\n      jump\t// in\n    tag_249:\n        /* \"#utility.yul\":1704:1823   */\n    tag_248:\n        /* \"#utility.yul\":1862:1863   */\n      0x00\n        /* \"#utility.yul\":1887:1940   */\n      tag_250\n        /* \"#utility.yul\":1932:1939   */\n      dup5\n        /* \"#utility.yul\":1923:1929   */\n      dup3\n        /* \"#utility.yul\":1912:1921   */\n      dup6\n        /* \"#utility.yul\":1908:1930   */\n      add\n        /* \"#utility.yul\":1887:1940   */\n      tag_196\n      jump\t// in\n    tag_250:\n        /* \"#utility.yul\":1877:1940   */\n      swap2\n      pop\n        /* \"#utility.yul\":1833:1950   */\n      pop\n        /* \"#utility.yul\":1628:1957   */\n      swap3\n      swap2\n      pop\n      pop\n      jump\t// out\n        /* \"#utility.yul\":1963:2053   */\n    tag_197:\n        /* \"#utility.yul\":1997:2004   */\n      0x00\n        /* \"#utility.yul\":2040:2045   */\n      dup2\n        /* \"#utility.yul\":2033:2046   */\n      iszero\n        /* \"#utility.yul\":2026:2047   */\n      iszero\n        /* \"#utility.yul\":2015:2047   */\n      swap1\n      pop\n        /* \"#utility.yul\":1963:2053   */\n      swap2\n      swap1\n      pop\n      jump\t// out\n        /* \"#utility.yul\":2059:2168   */\n    tag_198:\n        /* \"#utility.yul\":2140:2161   */\n      tag_253\n        /* \"#utility.yul\":2155:2160   */\n      dup2\n        /* \"#utility.yul\":2140:2161   */\n      tag_197\n      jump\t// in\n    tag_253:\n        /* \"#utility.yul\":2135:2138   */\n      dup3\n        /* \"#utility.yul\":2128:2162   */\n      mstore\n        /* \"#utility.yul\":2059:2168   */\n      pop\n      pop\n      jump\t// out\n        /* \"#utility.yul\":2174:2384   */\n    tag_82:\n        /* \"#utility.yul\":2261:2265   */\n      0x00\n        /* \"#utility.yul\":2299:2301   */\n      0x20\n        /* \"#utility.yul\":2288:2297   */\n      dup3\n        /* \"#utility.yul\":2284:2302   */\n      add\n        /* \"#utility.yul\":2276:2302   */\n      swap1\n      pop\n        /* \"#utility.yul\":2312:2377   */\n      tag_255\n        /* \"#utility.yul\":2374:2375   */\n      0x00\n        /* \"#utility.yul\":2363:2372   */\n      dup4\n        /* \"#utility.yul\":2359:2376   */\n      add\n        /* \"#utility.yul\":2350:2356   */\n      dup5\n        /* \"#utility.yul\":2312:2377   */\n      tag_198\n      jump\t// in\n    tag_255:\n        /* \"#utility.yul\":2174:2384   */\n      swap3\n      swap2\n      pop\n      pop\n      jump\t// out\n        /* \"#utility.yul\":2390:2450   */\n    tag_199:\n        /* \"#utility.yul\":2418:2421   */\n      0x00\n        /* \"#utility.yul\":2439:2444   */\n      dup2\n        /* \"#utility.yul\":2432:2444   */\n      swap1\n      pop\n        /* \"#utility.yul\":2390:2450   */\n      swap2\n      swap1\n      pop\n      jump\t// out\n        /* \"#utility.yul\":2456:2598   */\n    tag_200:\n        /* \"#utility.yul\":2506:2515   */\n      0x00\n        /* \"#utility.yul\":2539:2592   */\n      tag_258\n        /* \"#utility.yul\":2557:2591   */\n      tag_259\n        /* \"#utility.yul\":2566:2590   */\n      tag_260\n        /* \"#utility.yul\":2584:2589   */\n      dup5\n        /* \"#utility.yul\":2566:2590   */\n      tag_187\n      jump\t// in\n    tag_260:\n        /* \"#utility.yul\":2557:2591   */\n      tag_199\n      jump\t// in\n    tag_259:\n        /* \"#utility.yul\":2539:2592   */\n      tag_187\n      jump\t// in\n    tag_258:\n        /* \"#utility.yul\":2526:2592   */\n      swap1\n      pop\n        /* \"#utility.yul\":2456:2598   */\n      swap2\n      swap1\n      pop\n      jump\t// out\n        /* \"#utility.yul\":2604:2730   */\n    tag_201:\n        /* \"#utility.yul\":2654:2663   */\n      0x00\n        /* \"#utility.yul\":2687:2724   */\n      tag_262\n        /* \"#utility.yul\":2718:2723   */\n      dup3\n        /* \"#utility.yul\":2687:2724   */\n      tag_200\n      jump\t// in\n    tag_262:\n        /* \"#utility.yul\":2674:2724   */\n      swap1\n      pop\n        /* \"#utility.yul\":2604:2730   */\n      swap2\n      swap1\n      pop\n      jump\t// out\n        /* \"#utility.yul\":2736:2876   */\n    tag_202:\n        /* \"#utility.yul\":2800:2809   */\n      0x00\n        /* \"#utility.yul\":2833:2870   */\n      tag_264\n        /* \"#utility.yul\":2864:2869   */\n      dup3\n        /* \"#utility.yul\":2833:2870   */\n      tag_201\n      jump\t// in\n    tag_264:\n        /* \"#utility.yul\":2820:2870   */\n      swap1\n      pop\n        /* \"#utility.yul\":2736:2876   */\n      swap2\n      swap1\n      pop\n      jump\t// out\n        /* \"#utility.yul\":2882:3041   */\n    tag_203:\n        /* \"#utility.yul\":2983:3034   */\n      tag_266\n        /* \"#utility.yul\":3028:3033   */\n      dup2\n        /* \"#utility.yul\":2983:3034   */\n      tag_202\n      jump\t// in\n    tag_266:\n        /* \"#utility.yul\":2978:2981   */\n      dup3\n        /* \"#utility.yul\":2971:3035   */\n      mstore\n        /* \"#utility.yul\":2882:3041   */\n      pop\n      pop\n      jump\t// out\n        /* \"#utility.yul\":3047:3297   */\n    tag_92:\n        /* \"#utility.yul\":3154:3158   */\n      0x00\n        /* \"#utility.yul\":3192:3194   */\n      0x20\n        /* \"#utility.yul\":3181:3190   */\n      dup3\n        /* \"#utility.yul\":3177:3195   */\n      add\n        /* \"#utility.yul\":3169:3195   */\n      swap1\n      pop\n        /* \"#utility.yul\":3205:3290   */\n      tag_268\n        /* \"#utility.yul\":3287:3288   */\n      0x00\n        /* \"#utility.yul\":3276:3285   */\n      dup4\n        /* \"#utility.yul\":3272:3289   */\n      add\n        /* \"#utility.yul\":3263:3269   */\n      dup5\n        /* \"#utility.yul\":3205:3290   */\n      tag_203\n      jump\t// in\n    tag_268:\n        /* \"#utility.yul\":3047:3297   */\n      swap3\n      swap2\n      pop\n      pop\n      jump\t// out\n        /* \"#utility.yul\":3303:4078   */\n    tag_98:\n        /* \"#utility.yul\":3536:3540   */\n      0x00\n        /* \"#utility.yul\":3574:3577   */\n      0xc0\n        /* \"#utility.yul\":3563:3572   */\n      dup3\n        /* \"#utility.yul\":3559:3578   */\n      add\n        /* \"#utility.yul\":3551:3578   */\n      swap1\n      pop\n        /* \"#utility.yul\":3588:3659   */\n      tag_270\n        /* \"#utility.yul\":3656:3657   */\n      0x00\n        /* \"#utility.yul\":3645:3654   */\n      dup4\n        /* \"#utility.yul\":3641:3658   */\n      add\n        /* \"#utility.yul\":3632:3638   */\n      dup10\n        /* \"#utility.yul\":3588:3659   */\n      tag_191\n      jump\t// in\n    tag_270:\n        /* \"#utility.yul\":3669:3741   */\n      tag_271\n        /* \"#utility.yul\":3737:3739   */\n      0x20\n        /* \"#utility.yul\":3726:3735   */\n      dup4\n        /* \"#utility.yul\":3722:3740   */\n      add\n        /* \"#utility.yul\":3713:3719   */\n      dup9\n        /* \"#utility.yul\":3669:3741   */\n      tag_191\n      jump\t// in\n    tag_271:\n        /* \"#utility.yul\":3751:3823   */\n      tag_272\n        /* \"#utility.yul\":3819:3821   */\n      0x40\n        /* \"#utility.yul\":3808:3817   */\n      dup4\n        /* \"#utility.yul\":3804:3822   */\n      add\n        /* \"#utility.yul\":3795:3801   */\n      dup8\n        /* \"#utility.yul\":3751:3823   */\n      tag_191\n      jump\t// in\n    tag_272:\n        /* \"#utility.yul\":3833:3905   */\n      tag_273\n        /* \"#utility.yul\":3901:3903   */\n      0x60\n        /* \"#utility.yul\":3890:3899   */\n      dup4\n        /* \"#utility.yul\":3886:3904   */\n      add\n        /* \"#utility.yul\":3877:3883   */\n      dup7\n        /* \"#utility.yul\":3833:3905   */\n      tag_191\n      jump\t// in\n    tag_273:\n        /* \"#utility.yul\":3915:3988   */\n      tag_274\n        /* \"#utility.yul\":3983:3986   */\n      0x80\n        /* \"#utility.yul\":3972:3981   */\n      dup4\n        /* \"#utility.yul\":3968:3987   */\n      add\n        /* \"#utility.yul\":3959:3965   */\n      dup6\n        /* \"#utility.yul\":3915:3988   */\n      tag_191\n      jump\t// in\n    tag_274:\n        /* \"#utility.yul\":3998:4071   */\n      tag_275\n        /* \"#utility.yul\":4066:4069   */\n      0xa0\n        /* \"#utility.yul\":4055:4064   */\n      dup4\n        /* \"#utility.yul\":4051:4070   */\n      add\n        /* \"#utility.yul\":4042:4048   */\n      dup5\n        /* \"#utility.yul\":3998:4071   */\n      tag_191\n      jump\t// in\n    tag_275:\n        /* \"#utility.yul\":3303:4078   */\n      swap8\n      swap7\n      pop\n      pop\n      pop\n      pop\n      pop\n      pop\n      pop\n      jump\t// out\n        /* \"#utility.yul\":4084:4253   */\n    tag_204:\n        /* \"#utility.yul\":4168:4179   */\n      0x00\n        /* \"#utility.yul\":4202:4208   */\n      dup3\n        /* \"#utility.yul\":4197:4200   */\n      dup3\n        /* \"#utility.yul\":4190:4209   */\n      mstore\n        /* \"#utility.yul\":4242:4246   */\n      0x20\n        /* \"#utility.yul\":4237:4240   */\n      dup3\n        /* \"#utility.yul\":4233:4247   */\n      add\n        /* \"#utility.yul\":4218:4247   */\n      swap1\n      pop\n        /* \"#utility.yul\":4084:4253   */\n      swap3\n      swap2\n      pop\n      pop\n      jump\t// out\n        /* \"#utility.yul\":4259:4431   */\n    tag_205:\n        /* \"#utility.yul\":4399:4423   */\n      0x5072652d73616c65206973206e6f742061637469766500000000000000000000\n        /* \"#utility.yul\":4395:4396   */\n      0x00\n        /* \"#utility.yul\":4387:4393   */\n      dup3\n        /* \"#utility.yul\":4383:4397   */\n      add\n        /* \"#utility.yul\":4376:4424   */\n      mstore\n        /* \"#utility.yul\":4259:4431   */\n      pop\n      jump\t// out\n        /* \"#utility.yul\":4437:4803   */\n    tag_206:\n        /* \"#utility.yul\":4579:4582   */\n      0x00\n        /* \"#utility.yul\":4600:4667   */\n      tag_279\n        /* \"#utility.yul\":4664:4666   */\n      0x16\n        /* \"#utility.yul\":4659:4662   */\n      dup4\n        /* \"#utility.yul\":4600:4667   */\n      tag_204\n      jump\t// in\n    tag_279:\n        /* \"#utility.yul\":4593:4667   */\n      swap2\n      pop\n        /* \"#utility.yul\":4676:4769   */\n      tag_280\n        /* \"#utility.yul\":4765:4768   */\n      dup3\n        /* \"#utility.yul\":4676:4769   */\n      tag_205\n      jump\t// in\n    tag_280:\n        /* \"#utility.yul\":4794:4796   */\n      0x20\n        /* \"#utility.yul\":4789:4792   */\n      dup3\n        /* \"#utility.yul\":4785:4797   */\n      add\n        /* \"#utility.yul\":4778:4797   */\n      swap1\n      pop\n        /* \"#utility.yul\":4437:4803   */\n      swap2\n      swap1\n      pop\n      jump\t// out\n        /* \"#utility.yul\":4809:5228   */\n    tag_102:\n        /* \"#utility.yul\":4975:4979   */\n      0x00\n        /* \"#utility.yul\":5013:5015   */\n      0x20\n        /* \"#utility.yul\":5002:5011   */\n      dup3\n        /* \"#utility.yul\":4998:5016   */\n      add\n        /* \"#utility.yul\":4990:5016   */\n      swap1\n      pop\n        /* \"#utility.yul\":5062:5071   */\n      dup2\n        /* \"#utility.yul\":5056:5060   */\n      dup2\n        /* \"#utility.yul\":5052:5072   */\n      sub\n        /* \"#utility.yul\":5048:5049   */\n      0x00\n        /* \"#utility.yul\":5037:5046   */\n      dup4\n        /* \"#utility.yul\":5033:5050   */\n      add\n        /* \"#utility.yul\":5026:5073   */\n      mstore\n        /* \"#utility.yul\":5090:5221   */\n      tag_282\n        /* \"#utility.yul\":5216:5220   */\n      dup2\n        /* \"#utility.yul\":5090:5221   */\n      tag_206\n      jump\t// in\n    tag_282:\n        /* \"#utility.yul\":5082:5221   */\n      swap1\n      pop\n        /* \"#utility.yul\":4809:5228   */\n      swap2\n      swap1\n      pop\n      jump\t// out\n        /* \"#utility.yul\":5234:5456   */\n    tag_207:\n        /* \"#utility.yul\":5374:5408   */\n      0x436f6e747269627574696f6e2069732062656c6f77206d696e696d756d206c69\n        /* \"#utility.yul\":5370:5371   */\n      0x00\n        /* \"#utility.yul\":5362:5368   */\n      dup3\n        /* \"#utility.yul\":5358:5372   */\n      add\n        /* \"#utility.yul\":5351:5409   */\n      mstore\n        /* \"#utility.yul\":5443:5448   */\n      0x6d69740000000000000000000000000000000000000000000000000000000000\n        /* \"#utility.yul\":5438:5440   */\n      0x20\n        /* \"#utility.yul\":5430:5436   */\n      dup3\n        /* \"#utility.yul\":5426:5441   */\n      add\n        /* \"#utility.yul\":5419:5449   */\n      mstore\n        /* \"#utility.yul\":5234:5456   */\n      pop\n      jump\t// out\n        /* \"#utility.yul\":5462:5828   */\n    tag_208:\n        /* \"#utility.yul\":5604:5607   */\n      0x00\n        /* \"#utility.yul\":5625:5692   */\n      tag_285\n        /* \"#utility.yul\":5689:5691   */\n      0x23\n        /* \"#utility.yul\":5684:5687   */\n      dup4\n        /* \"#utility.yul\":5625:5692   */\n      tag_204\n      jump\t// in\n    tag_285:\n        /* \"#utility.yul\":5618:5692   */\n      swap2\n      pop\n        /* \"#utility.yul\":5701:5794   */\n      tag_286\n        /* \"#utility.yul\":5790:5793   */\n      dup3\n        /* \"#utility.yul\":5701:5794   */\n      tag_207\n      jump\t// in\n    tag_286:\n        /* \"#utility.yul\":5819:5821   */\n      0x40\n        /* \"#utility.yul\":5814:5817   */\n      dup3\n        /* \"#utility.yul\":5810:5822   */\n      add\n        /* \"#utility.yul\":5803:5822   */\n      swap1\n      pop\n        /* \"#utility.yul\":5462:5828   */\n      swap2\n      swap1\n      pop\n      jump\t// out\n        /* \"#utility.yul\":5834:6253   */\n    tag_105:\n        /* \"#utility.yul\":6000:6004   */\n      0x00\n        /* \"#utility.yul\":6038:6040   */\n      0x20\n        /* \"#utility.yul\":6027:6036   */\n      dup3\n        /* \"#utility.yul\":6023:6041   */\n      add\n        /* \"#utility.yul\":6015:6041   */\n      swap1\n      pop\n        /* \"#utility.yul\":6087:6096   */\n      dup2\n        /* \"#utility.yul\":6081:6085   */\n      dup2\n        /* \"#utility.yul\":6077:6097   */\n      sub\n        /* \"#utility.yul\":6073:6074   */\n      0x00\n        /* \"#utility.yul\":6062:6071   */\n      dup4\n        /* \"#utility.yul\":6058:6075   */\n      add\n        /* \"#utility.yul\":6051:6098   */\n      mstore\n        /* \"#utility.yul\":6115:6246   */\n      tag_288\n        /* \"#utility.yul\":6241:6245   */\n      dup2\n        /* \"#utility.yul\":6115:6246   */\n      tag_208\n      jump\t// in\n    tag_288:\n        /* \"#utility.yul\":6107:6246   */\n      swap1\n      pop\n        /* \"#utility.yul\":5834:6253   */\n      swap2\n      swap1\n      pop\n      jump\t// out\n        /* \"#utility.yul\":6259:6439   */\n    tag_209:\n        /* \"#utility.yul\":6307:6384   */\n      0x4e487b7100000000000000000000000000000000000000000000000000000000\n        /* \"#utility.yul\":6304:6305   */\n      0x00\n        /* \"#utility.yul\":6297:6385   */\n      mstore\n        /* \"#utility.yul\":6404:6408   */\n      0x11\n        /* \"#utility.yul\":6401:6402   */\n      0x04\n        /* \"#utility.yul\":6394:6409   */\n      mstore\n        /* \"#utility.yul\":6428:6432   */\n      0x24\n        /* \"#utility.yul\":6425:6426   */\n      0x00\n        /* \"#utility.yul\":6418:6433   */\n      revert\n        /* \"#utility.yul\":6445:6636   */\n    tag_107:\n        /* \"#utility.yul\":6485:6488   */\n      0x00\n        /* \"#utility.yul\":6504:6524   */\n      tag_291\n        /* \"#utility.yul\":6522:6523   */\n      dup3\n        /* \"#utility.yul\":6504:6524   */\n      tag_190\n      jump\t// in\n    tag_291:\n        /* \"#utility.yul\":6499:6524   */\n      swap2\n      pop\n        /* \"#utility.yul\":6538:6558   */\n      tag_292\n        /* \"#utility.yul\":6556:6557   */\n      dup4\n        /* \"#utility.yul\":6538:6558   */\n      tag_190\n      jump\t// in\n    tag_292:\n        /* \"#utility.yul\":6533:6558   */\n      swap3\n      pop\n        /* \"#utility.yul\":6581:6582   */\n      dup3\n        /* \"#utility.yul\":6578:6579   */\n      dup3\n        /* \"#utility.yul\":6574:6583   */\n      add\n        /* \"#utility.yul\":6567:6583   */\n      swap1\n      pop\n        /* \"#utility.yul\":6602:6605   */\n      dup1\n        /* \"#utility.yul\":6599:6600   */\n      dup3\n        /* \"#utility.yul\":6596:6606   */\n      gt\n        /* \"#utility.yul\":6593:6629   */\n      iszero\n      tag_293\n      jumpi\n        /* \"#utility.yul\":6609:6627   */\n      tag_294\n      tag_209\n      jump\t// in\n    tag_294:\n        /* \"#utility.yul\":6593:6629   */\n    tag_293:\n        /* \"#utility.yul\":6445:6636   */\n      swap3\n      swap2\n      pop\n      pop\n      jump\t// out\n        /* \"#utility.yul\":6642:6863   */\n    tag_210:\n        /* \"#utility.yul\":6782:6816   */\n      0x436f6e747269627574696f6e2065786365656473206d6178696d756d206c696d\n        /* \"#utility.yul\":6778:6779   */\n      0x00\n        /* \"#utility.yul\":6770:6776   */\n      dup3\n        /* \"#utility.yul\":6766:6780   */\n      add\n        /* \"#utility.yul\":6759:6817   */\n      mstore\n        /* \"#utility.yul\":6851:6855   */\n      0x6974000000000000000000000000000000000000000000000000000000000000\n        /* \"#utility.yul\":6846:6848   */\n      0x20\n        /* \"#utility.yul\":6838:6844   */\n      dup3\n        /* \"#utility.yul\":6834:6849   */\n      add\n        /* \"#utility.yul\":6827:6856   */\n      mstore\n        /* \"#utility.yul\":6642:6863   */\n      pop\n      jump\t// out\n        /* \"#utility.yul\":6869:7235   */\n    tag_211:\n        /* \"#utility.yul\":7011:7014   */\n      0x00\n        /* \"#utility.yul\":7032:7099   */\n      tag_297\n        /* \"#utility.yul\":7096:7098   */\n      0x22\n        /* \"#utility.yul\":7091:7094   */\n      dup4\n        /* \"#utility.yul\":7032:7099   */\n      tag_204\n      jump\t// in\n    tag_297:\n        /* \"#utility.yul\":7025:7099   */\n      swap2\n      pop\n        /* \"#utility.yul\":7108:7201   */\n      tag_298\n        /* \"#utility.yul\":7197:7200   */\n      dup3\n        /* \"#utility.yul\":7108:7201   */\n      tag_210\n      jump\t// in\n    tag_298:\n        /* \"#utility.yul\":7226:7228   */\n      0x40\n        /* \"#utility.yul\":7221:7224   */\n      dup3\n        /* \"#utility.yul\":7217:7229   */\n      add\n        /* \"#utility.yul\":7210:7229   */\n      swap1\n      pop\n        /* \"#utility.yul\":6869:7235   */\n      swap2\n      swap1\n      pop\n      jump\t// out\n        /* \"#utility.yul\":7241:7660   */\n    tag_110:\n        /* \"#utility.yul\":7407:7411   */\n      0x00\n        /* \"#utility.yul\":7445:7447   */\n      0x20\n        /* \"#utility.yul\":7434:7443   */\n      dup3\n        /* \"#utility.yul\":7430:7448   */\n      add\n        /* \"#utility.yul\":7422:7448   */\n      swap1\n      pop\n        /* \"#utility.yul\":7494:7503   */\n      dup2\n        /* \"#utility.yul\":7488:7492   */\n      dup2\n        /* \"#utility.yul\":7484:7504   */\n      sub\n        /* \"#utility.yul\":7480:7481   */\n      0x00\n        /* \"#utility.yul\":7469:7478   */\n      dup4\n        /* \"#utility.yul\":7465:7482   */\n      add\n        /* \"#utility.yul\":7458:7505   */\n      mstore\n        /* \"#utility.yul\":7522:7653   */\n      tag_300\n        /* \"#utility.yul\":7648:7652   */\n      dup2\n        /* \"#utility.yul\":7522:7653   */\n      tag_211\n      jump\t// in\n    tag_300:\n        /* \"#utility.yul\":7514:7653   */\n      swap1\n      pop\n        /* \"#utility.yul\":7241:7660   */\n      swap2\n      swap1\n      pop\n      jump\t// out\n        /* \"#utility.yul\":7666:7998   */\n    tag_116:\n        /* \"#utility.yul\":7787:7791   */\n      0x00\n        /* \"#utility.yul\":7825:7827   */\n      0x40\n        /* \"#utility.yul\":7814:7823   */\n      dup3\n        /* \"#utility.yul\":7810:7828   */\n      add\n        /* \"#utility.yul\":7802:7828   */\n      swap1\n      pop\n        /* \"#utility.yul\":7838:7909   */\n      tag_302\n        /* \"#utility.yul\":7906:7907   */\n      0x00\n        /* \"#utility.yul\":7895:7904   */\n      dup4\n        /* \"#utility.yul\":7891:7908   */\n      add\n        /* \"#utility.yul\":7882:7888   */\n      dup6\n        /* \"#utility.yul\":7838:7909   */\n      tag_191\n      jump\t// in\n    tag_302:\n        /* \"#utility.yul\":7919:7991   */\n      tag_303\n        /* \"#utility.yul\":7987:7989   */\n      0x20\n        /* \"#utility.yul\":7976:7985   */\n      dup4\n        /* \"#utility.yul\":7972:7990   */\n      add\n        /* \"#utility.yul\":7963:7969   */\n      dup5\n        /* \"#utility.yul\":7919:7991   */\n      tag_191\n      jump\t// in\n    tag_303:\n        /* \"#utility.yul\":7666:7998   */\n      swap4\n      swap3\n      pop\n      pop\n      pop\n      jump\t// out\n        /* \"#utility.yul\":8004:8176   */\n    tag_212:\n        /* \"#utility.yul\":8144:8168   */\n      0x5072652d73616c65206e6f742066696e616c697a656400000000000000000000\n        /* \"#utility.yul\":8140:8141   */\n      0x00\n        /* \"#utility.yul\":8132:8138   */\n      dup3\n        /* \"#utility.yul\":8128:8142   */\n      add\n        /* \"#utility.yul\":8121:8169   */\n      mstore\n        /* \"#utility.yul\":8004:8176   */\n      pop\n      jump\t// out\n        /* \"#utility.yul\":8182:8548   */\n    tag_213:\n        /* \"#utility.yul\":8324:8327   */\n      0x00\n        /* \"#utility.yul\":8345:8412   */\n      tag_306\n        /* \"#utility.yul\":8409:8411   */\n      0x16\n        /* \"#utility.yul\":8404:8407   */\n      dup4\n        /* \"#utility.yul\":8345:8412   */\n      tag_204\n      jump\t// in\n    tag_306:\n        /* \"#utility.yul\":8338:8412   */\n      swap2\n      pop\n        /* \"#utility.yul\":8421:8514   */\n      tag_307\n        /* \"#utility.yul\":8510:8513   */\n      dup3\n        /* \"#utility.yul\":8421:8514   */\n      tag_212\n      jump\t// in\n    tag_307:\n        /* \"#utility.yul\":8539:8541   */\n      0x20\n        /* \"#utility.yul\":8534:8537   */\n      dup3\n        /* \"#utility.yul\":8530:8542   */\n      add\n        /* \"#utility.yul\":8523:8542   */\n      swap1\n      pop\n        /* \"#utility.yul\":8182:8548   */\n      swap2\n      swap1\n      pop\n      jump\t// out\n        /* \"#utility.yul\":8554:8973   */\n    tag_124:\n        /* \"#utility.yul\":8720:8724   */\n      0x00\n        /* \"#utility.yul\":8758:8760   */\n      0x20\n        /* \"#utility.yul\":8747:8756   */\n      dup3\n        /* \"#utility.yul\":8743:8761   */\n      add\n        /* \"#utility.yul\":8735:8761   */\n      swap1\n      pop\n        /* \"#utility.yul\":8807:8816   */\n      dup2\n        /* \"#utility.yul\":8801:8805   */\n      dup2\n        /* \"#utility.yul\":8797:8817   */\n      sub\n        /* \"#utility.yul\":8793:8794   */\n      0x00\n        /* \"#utility.yul\":8782:8791   */\n      dup4\n        /* \"#utility.yul\":8778:8795   */\n      add\n        /* \"#utility.yul\":8771:8818   */\n      mstore\n        /* \"#utility.yul\":8835:8966   */\n      tag_309\n        /* \"#utility.yul\":8961:8965   */\n      dup2\n        /* \"#utility.yul\":8835:8966   */\n      tag_213\n      jump\t// in\n    tag_309:\n        /* \"#utility.yul\":8827:8966   */\n      swap1\n      pop\n        /* \"#utility.yul\":8554:8973   */\n      swap2\n      swap1\n      pop\n      jump\t// out\n        /* \"#utility.yul\":8979:9147   */\n    tag_214:\n        /* \"#utility.yul\":9119:9139   */\n      0x4e6f20746f6b656e7320746f20636c61696d0000000000000000000000000000\n        /* \"#utility.yul\":9115:9116   */\n      0x00\n        /* \"#utility.yul\":9107:9113   */\n      dup3\n        /* \"#utility.yul\":9103:9117   */\n      add\n        /* \"#utility.yul\":9096:9140   */\n      mstore\n        /* \"#utility.yul\":8979:9147   */\n      pop\n      jump\t// out\n        /* \"#utility.yul\":9153:9519   */\n    tag_215:\n        /* \"#utility.yul\":9295:9298   */\n      0x00\n        /* \"#utility.yul\":9316:9383   */\n      tag_312\n        /* \"#utility.yul\":9380:9382   */\n      0x12\n        /* \"#utility.yul\":9375:9378   */\n      dup4\n        /* \"#utility.yul\":9316:9383   */\n      tag_204\n      jump\t// in\n    tag_312:\n        /* \"#utility.yul\":9309:9383   */\n      swap2\n      pop\n        /* \"#utility.yul\":9392:9485   */\n      tag_313\n        /* \"#utility.yul\":9481:9484   */\n      dup3\n        /* \"#utility.yul\":9392:9485   */\n      tag_214\n      jump\t// in\n    tag_313:\n        /* \"#utility.yul\":9510:9512   */\n      0x20\n        /* \"#utility.yul\":9505:9508   */\n      dup3\n        /* \"#utility.yul\":9501:9513   */\n      add\n        /* \"#utility.yul\":9494:9513   */\n      swap1\n      pop\n        /* \"#utility.yul\":9153:9519   */\n      swap2\n      swap1\n      pop\n      jump\t// out\n        /* \"#utility.yul\":9525:9944   */\n    tag_127:\n        /* \"#utility.yul\":9691:9695   */\n      0x00\n        /* \"#utility.yul\":9729:9731   */\n      0x20\n        /* \"#utility.yul\":9718:9727   */\n      dup3\n        /* \"#utility.yul\":9714:9732   */\n      add\n        /* \"#utility.yul\":9706:9732   */\n      swap1\n      pop\n        /* \"#utility.yul\":9778:9787   */\n      dup2\n        /* \"#utility.yul\":9772:9776   */\n      dup2\n        /* \"#utility.yul\":9768:9788   */\n      sub\n        /* \"#utility.yul\":9764:9765   */\n      0x00\n        /* \"#utility.yul\":9753:9762   */\n      dup4\n        /* \"#utility.yul\":9749:9766   */\n      add\n        /* \"#utility.yul\":9742:9789   */\n      mstore\n        /* \"#utility.yul\":9806:9937   */\n      tag_315\n        /* \"#utility.yul\":9932:9936   */\n      dup2\n        /* \"#utility.yul\":9806:9937   */\n      tag_215\n      jump\t// in\n    tag_315:\n        /* \"#utility.yul\":9798:9937   */\n      swap1\n      pop\n        /* \"#utility.yul\":9525:9944   */\n      swap2\n      swap1\n      pop\n      jump\t// out\n        /* \"#utility.yul\":9950:10282   */\n    tag_130:\n        /* \"#utility.yul\":10071:10075   */\n      0x00\n        /* \"#utility.yul\":10109:10111   */\n      0x40\n        /* \"#utility.yul\":10098:10107   */\n      dup3\n        /* \"#utility.yul\":10094:10112   */\n      add\n        /* \"#utility.yul\":10086:10112   */\n      swap1\n      pop\n        /* \"#utility.yul\":10122:10193   */\n      tag_317\n        /* \"#utility.yul\":10190:10191   */\n      0x00\n        /* \"#utility.yul\":10179:10188   */\n      dup4\n        /* \"#utility.yul\":10175:10192   */\n      add\n        /* \"#utility.yul\":10166:10172   */\n      dup6\n        /* \"#utility.yul\":10122:10193   */\n      tag_189\n      jump\t// in\n    tag_317:\n        /* \"#utility.yul\":10203:10275   */\n      tag_318\n        /* \"#utility.yul\":10271:10273   */\n      0x20\n        /* \"#utility.yul\":10260:10269   */\n      dup4\n        /* \"#utility.yul\":10256:10274   */\n      add\n        /* \"#utility.yul\":10247:10253   */\n      dup5\n        /* \"#utility.yul\":10203:10275   */\n      tag_191\n      jump\t// in\n    tag_318:\n        /* \"#utility.yul\":9950:10282   */\n      swap4\n      swap3\n      pop\n      pop\n      pop\n      jump\t// out\n        /* \"#utility.yul\":10288:10404   */\n    tag_216:\n        /* \"#utility.yul\":10358:10379   */\n      tag_320\n        /* \"#utility.yul\":10373:10378   */\n      dup2\n        /* \"#utility.yul\":10358:10379   */\n      tag_197\n      jump\t// in\n    tag_320:\n        /* \"#utility.yul\":10351:10356   */\n      dup2\n        /* \"#utility.yul\":10348:10380   */\n      eq\n        /* \"#utility.yul\":10338:10398   */\n      tag_321\n      jumpi\n        /* \"#utility.yul\":10394:10395   */\n      0x00\n        /* \"#utility.yul\":10391:10392   */\n      dup1\n        /* \"#utility.yul\":10384:10396   */\n      revert\n        /* \"#utility.yul\":10338:10398   */\n    tag_321:\n        /* \"#utility.yul\":10288:10404   */\n      pop\n      jump\t// out\n        /* \"#utility.yul\":10410:10547   */\n    tag_217:\n        /* \"#utility.yul\":10464:10469   */\n      0x00\n        /* \"#utility.yul\":10495:10501   */\n      dup2\n        /* \"#utility.yul\":10489:10502   */\n      mload\n        /* \"#utility.yul\":10480:10502   */\n      swap1\n      pop\n        /* \"#utility.yul\":10511:10541   */\n      tag_323\n        /* \"#utility.yul\":10535:10540   */\n      dup2\n        /* \"#utility.yul\":10511:10541   */\n      tag_216\n      jump\t// in\n    tag_323:\n        /* \"#utility.yul\":10410:10547   */\n      swap3\n      swap2\n      pop\n      pop\n      jump\t// out\n        /* \"#utility.yul\":10553:10898   */\n    tag_134:\n        /* \"#utility.yul\":10620:10626   */\n      0x00\n        /* \"#utility.yul\":10669:10671   */\n      0x20\n        /* \"#utility.yul\":10657:10666   */\n      dup3\n        /* \"#utility.yul\":10648:10655   */\n      dup5\n        /* \"#utility.yul\":10644:10667   */\n      sub\n        /* \"#utility.yul\":10640:10672   */\n      slt\n        /* \"#utility.yul\":10637:10756   */\n      iszero\n      tag_325\n      jumpi\n        /* \"#utility.yul\":10675:10754   */\n      tag_326\n      tag_193\n      jump\t// in\n    tag_326:\n        /* \"#utility.yul\":10637:10756   */\n    tag_325:\n        /* \"#utility.yul\":10795:10796   */\n      0x00\n        /* \"#utility.yul\":10820:10881   */\n      tag_327\n        /* \"#utility.yul\":10873:10880   */\n      dup5\n        /* \"#utility.yul\":10864:10870   */\n      dup3\n        /* \"#utility.yul\":10853:10862   */\n      dup6\n        /* \"#utility.yul\":10849:10871   */\n      add\n        /* \"#utility.yul\":10820:10881   */\n      tag_217\n      jump\t// in\n    tag_327:\n        /* \"#utility.yul\":10810:10881   */\n      swap2\n      pop\n        /* \"#utility.yul\":10766:10891   */\n      pop\n        /* \"#utility.yul\":10553:10898   */\n      swap3\n      swap2\n      pop\n      pop\n      jump\t// out\n        /* \"#utility.yul\":10904:11080   */\n    tag_218:\n        /* \"#utility.yul\":11044:11072   */\n      0x5072652d73616c6520686173206e6f7420656e64656420796574000000000000\n        /* \"#utility.yul\":11040:11041   */\n      0x00\n        /* \"#utility.yul\":11032:11038   */\n      dup3\n        /* \"#utility.yul\":11028:11042   */\n      add\n        /* \"#utility.yul\":11021:11073   */\n      mstore\n        /* \"#utility.yul\":10904:11080   */\n      pop\n      jump\t// out\n        /* \"#utility.yul\":11086:11452   */\n    tag_219:\n        /* \"#utility.yul\":11228:11231   */\n      0x00\n        /* \"#utility.yul\":11249:11316   */\n      tag_330\n        /* \"#utility.yul\":11313:11315   */\n      0x1a\n        /* \"#utility.yul\":11308:11311   */\n      dup4\n        /* \"#utility.yul\":11249:11316   */\n      tag_204\n      jump\t// in\n    tag_330:\n        /* \"#utility.yul\":11242:11316   */\n      swap2\n      pop\n        /* \"#utility.yul\":11325:11418   */\n      tag_331\n        /* \"#utility.yul\":11414:11417   */\n      dup3\n        /* \"#utility.yul\":11325:11418   */\n      tag_218\n      jump\t// in\n    tag_331:\n        /* \"#utility.yul\":11443:11445   */\n      0x20\n        /* \"#utility.yul\":11438:11441   */\n      dup3\n        /* \"#utility.yul\":11434:11446   */\n      add\n        /* \"#utility.yul\":11427:11446   */\n      swap1\n      pop\n        /* \"#utility.yul\":11086:11452   */\n      swap2\n      swap1\n      pop\n      jump\t// out\n        /* \"#utility.yul\":11458:11877   */\n    tag_147:\n        /* \"#utility.yul\":11624:11628   */\n      0x00\n        /* \"#utility.yul\":11662:11664   */\n      0x20\n        /* \"#utility.yul\":11651:11660   */\n      dup3\n        /* \"#utility.yul\":11647:11665   */\n      add\n        /* \"#utility.yul\":11639:11665   */\n      swap1\n      pop\n        /* \"#utility.yul\":11711:11720   */\n      dup2\n        /* \"#utility.yul\":11705:11709   */\n      dup2\n        /* \"#utility.yul\":11701:11721   */\n      sub\n        /* \"#utility.yul\":11697:11698   */\n      0x00\n        /* \"#utility.yul\":11686:11695   */\n      dup4\n        /* \"#utility.yul\":11682:11699   */\n      add\n        /* \"#utility.yul\":11675:11722   */\n      mstore\n        /* \"#utility.yul\":11739:11870   */\n      tag_333\n        /* \"#utility.yul\":11865:11869   */\n      dup2\n        /* \"#utility.yul\":11739:11870   */\n      tag_219\n      jump\t// in\n    tag_333:\n        /* \"#utility.yul\":11731:11870   */\n      swap1\n      pop\n        /* \"#utility.yul\":11458:11877   */\n      swap2\n      swap1\n      pop\n      jump\t// out\n        /* \"#utility.yul\":11883:12059   */\n    tag_220:\n        /* \"#utility.yul\":12023:12051   */\n      0x5072652d73616c6520616c72656164792066696e616c697a6564000000000000\n        /* \"#utility.yul\":12019:12020   */\n      0x00\n        /* \"#utility.yul\":12011:12017   */\n      dup3\n        /* \"#utility.yul\":12007:12021   */\n      add\n        /* \"#utility.yul\":12000:12052   */\n      mstore\n        /* \"#utility.yul\":11883:12059   */\n      pop\n      jump\t// out\n        /* \"#utility.yul\":12065:12431   */\n    tag_221:\n        /* \"#utility.yul\":12207:12210   */\n      0x00\n        /* \"#utility.yul\":12228:12295   */\n      tag_336\n        /* \"#utility.yul\":12292:12294   */\n      0x1a\n        /* \"#utility.yul\":12287:12290   */\n      dup4\n        /* \"#utility.yul\":12228:12295   */\n      tag_204\n      jump\t// in\n    tag_336:\n        /* \"#utility.yul\":12221:12295   */\n      swap2\n      pop\n        /* \"#utility.yul\":12304:12397   */\n      tag_337\n        /* \"#utility.yul\":12393:12396   */\n      dup3\n        /* \"#utility.yul\":12304:12397   */\n      tag_220\n      jump\t// in\n    tag_337:\n        /* \"#utility.yul\":12422:12424   */\n      0x20\n        /* \"#utility.yul\":12417:12420   */\n      dup3\n        /* \"#utility.yul\":12413:12425   */\n      add\n        /* \"#utility.yul\":12406:12425   */\n      swap1\n      pop\n        /* \"#utility.yul\":12065:12431   */\n      swap2\n      swap1\n      pop\n      jump\t// out\n        /* \"#utility.yul\":12437:12856   */\n    tag_150:\n        /* \"#utility.yul\":12603:12607   */\n      0x00\n        /* \"#utility.yul\":12641:12643   */\n      0x20\n        /* \"#utility.yul\":12630:12639   */\n      dup3\n        /* \"#utility.yul\":12626:12644   */\n      add\n        /* \"#utility.yul\":12618:12644   */\n      swap1\n      pop\n        /* \"#utility.yul\":12690:12699   */\n      dup2\n        /* \"#utility.yul\":12684:12688   */\n      dup2\n        /* \"#utility.yul\":12680:12700   */\n      sub\n        /* \"#utility.yul\":12676:12677   */\n      0x00\n        /* \"#utility.yul\":12665:12674   */\n      dup4\n        /* \"#utility.yul\":12661:12678   */\n      add\n        /* \"#utility.yul\":12654:12701   */\n      mstore\n        /* \"#utility.yul\":12718:12849   */\n      tag_339\n        /* \"#utility.yul\":12844:12848   */\n      dup2\n        /* \"#utility.yul\":12718:12849   */\n      tag_221\n      jump\t// in\n    tag_339:\n        /* \"#utility.yul\":12710:12849   */\n      swap1\n      pop\n        /* \"#utility.yul\":12437:12856   */\n      swap2\n      swap1\n      pop\n      jump\t// out\n        /* \"#utility.yul\":12862:12984   */\n    tag_222:\n        /* \"#utility.yul\":12935:12959   */\n      tag_341\n        /* \"#utility.yul\":12953:12958   */\n      dup2\n        /* \"#utility.yul\":12935:12959   */\n      tag_190\n      jump\t// in\n    tag_341:\n        /* \"#utility.yul\":12928:12933   */\n      dup2\n        /* \"#utility.yul\":12925:12960   */\n      eq\n        /* \"#utility.yul\":12915:12978   */\n      tag_342\n      jumpi\n        /* \"#utility.yul\":12974:12975   */\n      0x00\n        /* \"#utility.yul\":12971:12972   */\n      dup1\n        /* \"#utility.yul\":12964:12976   */\n      revert\n        /* \"#utility.yul\":12915:12978   */\n    tag_342:\n        /* \"#utility.yul\":12862:12984   */\n      pop\n      jump\t// out\n        /* \"#utility.yul\":12990:13133   */\n    tag_223:\n        /* \"#utility.yul\":13047:13052   */\n      0x00\n        /* \"#utility.yul\":13078:13084   */\n      dup2\n        /* \"#utility.yul\":13072:13085   */\n      mload\n        /* \"#utility.yul\":13063:13085   */\n      swap1\n      pop\n        /* \"#utility.yul\":13094:13127   */\n      tag_344\n        /* \"#utility.yul\":13121:13126   */\n      dup2\n        /* \"#utility.yul\":13094:13127   */\n      tag_222\n      jump\t// in\n    tag_344:\n        /* \"#utility.yul\":12990:13133   */\n      swap3\n      swap2\n      pop\n      pop\n      jump\t// out\n        /* \"#utility.yul\":13139:13490   */\n    tag_155:\n        /* \"#utility.yul\":13209:13215   */\n      0x00\n        /* \"#utility.yul\":13258:13260   */\n      0x20\n        /* \"#utility.yul\":13246:13255   */\n      dup3\n        /* \"#utility.yul\":13237:13244   */\n      dup5\n        /* \"#utility.yul\":13233:13256   */\n      sub\n        /* \"#utility.yul\":13229:13261   */\n      slt\n        /* \"#utility.yul\":13226:13345   */\n      iszero\n      tag_346\n      jumpi\n        /* \"#utility.yul\":13264:13343   */\n      tag_347\n      tag_193\n      jump\t// in\n    tag_347:\n        /* \"#utility.yul\":13226:13345   */\n    tag_346:\n        /* \"#utility.yul\":13384:13385   */\n      0x00\n        /* \"#utility.yul\":13409:13473   */\n      tag_348\n        /* \"#utility.yul\":13465:13472   */\n      dup5\n        /* \"#utility.yul\":13456:13462   */\n      dup3\n        /* \"#utility.yul\":13445:13454   */\n      dup6\n        /* \"#utility.yul\":13441:13463   */\n      add\n        /* \"#utility.yul\":13409:13473   */\n      tag_223\n      jump\t// in\n    tag_348:\n        /* \"#utility.yul\":13399:13473   */\n      swap2\n      pop\n        /* \"#utility.yul\":13355:13483   */\n      pop\n        /* \"#utility.yul\":13139:13490   */\n      swap3\n      swap2\n      pop\n      pop\n      jump\t// out\n        /* \"#utility.yul\":13496:13677   */\n    tag_224:\n        /* \"#utility.yul\":13636:13669   */\n      0x5265656e7472616e637947756172643a207265656e7472616e742063616c6c00\n        /* \"#utility.yul\":13632:13633   */\n      0x00\n        /* \"#utility.yul\":13624:13630   */\n      dup3\n        /* \"#utility.yul\":13620:13634   */\n      add\n        /* \"#utility.yul\":13613:13670   */\n      mstore\n        /* \"#utility.yul\":13496:13677   */\n      pop\n      jump\t// out\n        /* \"#utility.yul\":13683:14049   */\n    tag_225:\n        /* \"#utility.yul\":13825:13828   */\n      0x00\n        /* \"#utility.yul\":13846:13913   */\n      tag_351\n        /* \"#utility.yul\":13910:13912   */\n      0x1f\n        /* \"#utility.yul\":13905:13908   */\n      dup4\n        /* \"#utility.yul\":13846:13913   */\n      tag_204\n      jump\t// in\n    tag_351:\n        /* \"#utility.yul\":13839:13913   */\n      swap2\n      pop\n        /* \"#utility.yul\":13922:14015   */\n      tag_352\n        /* \"#utility.yul\":14011:14014   */\n      dup3\n        /* \"#utility.yul\":13922:14015   */\n      tag_224\n      jump\t// in\n    tag_352:\n        /* \"#utility.yul\":14040:14042   */\n      0x20\n        /* \"#utility.yul\":14035:14038   */\n      dup3\n        /* \"#utility.yul\":14031:14043   */\n      add\n        /* \"#utility.yul\":14024:14043   */\n      swap1\n      pop\n        /* \"#utility.yul\":13683:14049   */\n      swap2\n      swap1\n      pop\n      jump\t// out\n        /* \"#utility.yul\":14055:14474   */\n    tag_173:\n        /* \"#utility.yul\":14221:14225   */\n      0x00\n        /* \"#utility.yul\":14259:14261   */\n      0x20\n        /* \"#utility.yul\":14248:14257   */\n      dup3\n        /* \"#utility.yul\":14244:14262   */\n      add\n        /* \"#utility.yul\":14236:14262   */\n      swap1\n      pop\n        /* \"#utility.yul\":14308:14317   */\n      dup2\n        /* \"#utility.yul\":14302:14306   */\n      dup2\n        /* \"#utility.yul\":14298:14318   */\n      sub\n        /* \"#utility.yul\":14294:14295   */\n      0x00\n        /* \"#utility.yul\":14283:14292   */\n      dup4\n        /* \"#utility.yul\":14279:14296   */\n      add\n        /* \"#utility.yul\":14272:14319   */\n      mstore\n        /* \"#utility.yul\":14336:14467   */\n      tag_354\n        /* \"#utility.yul\":14462:14466   */\n      dup2\n        /* \"#utility.yul\":14336:14467   */\n      tag_225\n      jump\t// in\n    tag_354:\n        /* \"#utility.yul\":14328:14467   */\n      swap1\n      pop\n        /* \"#utility.yul\":14055:14474   */\n      swap2\n      swap1\n      pop\n      jump\t// out\n        /* \"#utility.yul\":14480:14890   */\n    tag_176:\n        /* \"#utility.yul\":14520:14527   */\n      0x00\n        /* \"#utility.yul\":14543:14563   */\n      tag_356\n        /* \"#utility.yul\":14561:14562   */\n      dup3\n        /* \"#utility.yul\":14543:14563   */\n      tag_190\n      jump\t// in\n    tag_356:\n        /* \"#utility.yul\":14538:14563   */\n      swap2\n      pop\n        /* \"#utility.yul\":14577:14597   */\n      tag_357\n        /* \"#utility.yul\":14595:14596   */\n      dup4\n        /* \"#utility.yul\":14577:14597   */\n      tag_190\n      jump\t// in\n    tag_357:\n        /* \"#utility.yul\":14572:14597   */\n      swap3\n      pop\n        /* \"#utility.yul\":14632:14633   */\n      dup3\n        /* \"#utility.yul\":14629:14630   */\n      dup3\n        /* \"#utility.yul\":14625:14634   */\n      mul\n        /* \"#utility.yul\":14654:14684   */\n      tag_358\n        /* \"#utility.yul\":14672:14683   */\n      dup2\n        /* \"#utility.yul\":14654:14684   */\n      tag_190\n      jump\t// in\n    tag_358:\n        /* \"#utility.yul\":14643:14684   */\n      swap2\n      pop\n        /* \"#utility.yul\":14833:14834   */\n      dup3\n        /* \"#utility.yul\":14824:14831   */\n      dup3\n        /* \"#utility.yul\":14820:14835   */\n      div\n        /* \"#utility.yul\":14817:14818   */\n      dup5\n        /* \"#utility.yul\":14814:14836   */\n      eq\n        /* \"#utility.yul\":14794:14795   */\n      dup4\n        /* \"#utility.yul\":14787:14796   */\n      iszero\n        /* \"#utility.yul\":14767:14850   */\n      or\n        /* \"#utility.yul\":14744:14883   */\n      tag_359\n      jumpi\n        /* \"#utility.yul\":14863:14881   */\n      tag_360\n      tag_209\n      jump\t// in\n    tag_360:\n        /* \"#utility.yul\":14744:14883   */\n    tag_359:\n        /* \"#utility.yul\":14528:14890   */\n      pop\n        /* \"#utility.yul\":14480:14890   */\n      swap3\n      swap2\n      pop\n      pop\n      jump\t// out\n\n    auxdata: 0xa2646970667358221220fd735c3572669bde4032bca83010cb24de3ee0886690f1024f19794a9c1874c164736f6c63430008140033\n}\n",
				"bytecode": {
					"linkReferences": {},
					"object": "60806040525f60095f6101000a81548160ff02191690831515021790555034801562000029575f80fd5b5060405162001b0938038062001b0983398181016040528101906200004f9190620003b9565b335f73ffffffffffffffffffffffffffffffffffffffff168173ffffffffffffffffffffffffffffffffffffffff1603620000c3575f6040517f1e4fbdf7000000000000000000000000000000000000000000000000000000008152600401620000ba919062000478565b60405180910390fd5b620000d4816200025b60201b60201c565b506001808190555081811162000121576040517f08c379a0000000000000000000000000000000000000000000000000000000008152600401620001189062000517565b60405180910390fd5b5f851162000166576040517f08c379a00000000000000000000000000000000000000000000000000000000081526004016200015d9062000585565b60405180910390fd5b5f8411620001ab576040517f08c379a0000000000000000000000000000000000000000000000000000000008152600401620001a29062000619565b60405180910390fd5b8660025f6101000a81548173ffffffffffffffffffffffffffffffffffffffff021916908373ffffffffffffffffffffffffffffffffffffffff1602179055508560035f6101000a81548173ffffffffffffffffffffffffffffffffffffffff021916908373ffffffffffffffffffffffffffffffffffffffff16021790555084600481905550836005819055508260068190555081600781905550806008819055505050505050505062000639565b5f805f9054906101000a900473ffffffffffffffffffffffffffffffffffffffff169050815f806101000a81548173ffffffffffffffffffffffffffffffffffffffff021916908373ffffffffffffffffffffffffffffffffffffffff1602179055508173ffffffffffffffffffffffffffffffffffffffff168173ffffffffffffffffffffffffffffffffffffffff167f8be0079c531659141344cd1fd0a4f28419497f9722a3daafe3b4186f6b6457e060405160405180910390a35050565b5f80fd5b5f73ffffffffffffffffffffffffffffffffffffffff82169050919050565b5f6200034b8262000320565b9050919050565b6200035d816200033f565b811462000368575f80fd5b50565b5f815190506200037b8162000352565b92915050565b5f819050919050565b620003958162000381565b8114620003a0575f80fd5b50565b5f81519050620003b3816200038a565b92915050565b5f805f805f805f60e0888a031215620003d757620003d66200031c565b5b5f620003e68a828b016200036b565b9750506020620003f98a828b016200036b565b96505060406200040c8a828b01620003a3565b95505060606200041f8a828b01620003a3565b9450506080620004328a828b01620003a3565b93505060a0620004458a828b01620003a3565b92505060c0620004588a828b01620003a3565b91505092959891949750929550565b62000472816200033f565b82525050565b5f6020820190506200048d5f83018462000467565b92915050565b5f82825260208201905092915050565b7f456e642074696d65206d7573742062652061667465722073746172742074696d5f8201527f6500000000000000000000000000000000000000000000000000000000000000602082015250565b5f620004ff60218362000493565b91506200050c82620004a3565b604082019050919050565b5f6020820190508181035f8301526200053081620004f1565b9050919050565b7f52617465206d7573742062652067726561746572207468616e203000000000005f82015250565b5f6200056d601b8362000493565b91506200057a8262000537565b602082019050919050565b5f6020820190508181035f8301526200059e816200055f565b9050919050565b7f4d696e20636f6e747269627574696f6e206d75737420626520677265617465725f8201527f207468616e203000000000000000000000000000000000000000000000000000602082015250565b5f6200060160278362000493565b91506200060e82620005a5565b604082019050919050565b5f6020820190508181035f8301526200063281620005f3565b9050919050565b6114c280620006475f395ff3fe6080604052600436106100f6575f3560e01c806378e9792511610089578063b3f05b9711610058578063b3f05b97146102dd578063d0febe4c14610307578063f2fde38b14610311578063fc0c546a1461033957610105565b806378e97925146102355780638d3d65761461025f5780638da5cb5b14610289578063aaffadf3146102b357610105565b806342e94c90116100c557806342e94c90146101b757806348c54b9d146101f3578063715018a6146102095780637376678b1461021f57610105565b80631fc75e411461010f5780632c4e722e146101395780633197cbb61461016357806337c089231461018d57610105565b3661010557610103610363565b005b61010d610363565b005b34801561011a575f80fd5b506101236105ab565b6040516101309190610dae565b60405180910390f35b348015610144575f80fd5b5061014d6105d0565b60405161015a9190610ddf565b60405180910390f35b34801561016e575f80fd5b506101776105d6565b6040516101849190610ddf565b60405180910390f35b348015610198575f80fd5b506101a16105dc565b6040516101ae9190610ddf565b60405180910390f35b3480156101c2575f80fd5b506101dd60048036038101906101d89190610e26565b6105e2565b6040516101ea9190610ddf565b60405180910390f35b3480156101fe575f80fd5b506102076105f7565b005b348015610214575f80fd5b5061021d6107ff565b005b34801561022a575f80fd5b50610233610812565b005b348015610240575f80fd5b50610249610abe565b6040516102569190610ddf565b60405180910390f35b34801561026a575f80fd5b50610273610ac4565b6040516102809190610ddf565b60405180910390f35b348015610294575f80fd5b5061029d610aca565b6040516102aa9190610dae565b60405180910390f35b3480156102be575f80fd5b506102c7610af1565b6040516102d49190610ddf565b60405180910390f35b3480156102e8575f80fd5b506102f1610af7565b6040516102fe9190610e6b565b60405180910390f35b61030f610363565b005b34801561031c575f80fd5b5061033760048036038101906103329190610e26565b610b09565b005b348015610344575f80fd5b5061034d610b8d565b60405161035a9190610edf565b60405180910390f35b61036b610bb2565b7fc09d2df50ba063522fd6763cfb9c99e8e93dee49b8af5450c70a00268ba281b242600754600854346005546006546040516103ac96959493929190610ef8565b60405180910390a160075442101580156103c857506008544211155b610407576040517f08c379a00000000000000000000000000000000000000000000000000000000081526004016103fe90610fb1565b60405180910390fd5b60055434101561044c576040517f08c379a00000000000000000000000000000000000000000000000000000000081526004016104439061103f565b60405180910390fd5b60065434600a5f3373ffffffffffffffffffffffffffffffffffffffff1673ffffffffffffffffffffffffffffffffffffffff1681526020019081526020015f2054610498919061108a565b11156104d9576040517f08c379a00000000000000000000000000000000000000000000000000000000081526004016104d09061112d565b60405180910390fd5b5f6104e334610c01565b905034600a5f3373ffffffffffffffffffffffffffffffffffffffff1673ffffffffffffffffffffffffffffffffffffffff1681526020019081526020015f205f828254610531919061108a565b9250508190555034600b5f828254610549919061108a565b925050819055503373ffffffffffffffffffffffffffffffffffffffff167f8fafebcaf9d154343dad25669bfa277f4fbacd7ac6b0c4fed522580e040a0f33348360405161059892919061114b565b60405180910390a2506105a9610c17565b565b60035f9054906101000a900473ffffffffffffffffffffffffffffffffffffffff1681565b60045481565b60085481565b600b5481565b600a602052805f5260405f205f915090505481565b6105ff610bb2565b60095f9054906101000a900460ff1661064d576040517f08c379a0000000000000000000000000000000000000000000000000000000008152600401610644906111bc565b60405180910390fd5b5f600a5f3373ffffffffffffffffffffffffffffffffffffffff1673ffffffffffffffffffffffffffffffffffffffff1681526020019081526020015f2054116106cc576040517f08c379a00000000000000000000000000000000000000000000000000000000081526004016106c390611224565b60405180910390fd5b5f610713600a5f3373ffffffffffffffffffffffffffffffffffffffff1673ffffffffffffffffffffffffffffffffffffffff1681526020019081526020015f2054610c01565b90505f600a5f3373ffffffffffffffffffffffffffffffffffffffff1673ffffffffffffffffffffffffffffffffffffffff1681526020019081526020015f208190555060025f9054906101000a900473ffffffffffffffffffffffffffffffffffffffff1673ffffffffffffffffffffffffffffffffffffffff1663a9059cbb33836040518363ffffffff1660e01b81526004016107b3929190611242565b6020604051808303815f875af11580156107cf573d5f803e3d5ffd5b505050506040513d601f19601f820116820180604052508101906107f39190611293565b50506107fd610c17565b565b610807610c20565b6108105f610ca7565b565b61081a610c20565b600854421161085e576040517f08c379a000000000000000000000000000000000000000000000000000000000815260040161085590611308565b60405180910390fd5b60095f9054906101000a900460ff16156108ad576040517f08c379a00000000000000000000000000000000000000000000000000000000081526004016108a490611370565b60405180910390fd5b600160095f6101000a81548160ff0219169083151502179055505f60025f9054906101000a900473ffffffffffffffffffffffffffffffffffffffff1673ffffffffffffffffffffffffffffffffffffffff166370a08231306040518263ffffffff1660e01b81526004016109229190610dae565b602060405180830381865afa15801561093d573d5f803e3d5ffd5b505050506040513d601f19601f8201168201806040525081019061096191906113b8565b90505f811115610a2a5760025f9054906101000a900473ffffffffffffffffffffffffffffffffffffffff1673ffffffffffffffffffffffffffffffffffffffff1663a9059cbb60035f9054906101000a900473ffffffffffffffffffffffffffffffffffffffff16836040518363ffffffff1660e01b81526004016109e8929190611242565b6020604051808303815f875af1158015610a04573d5f803e3d5ffd5b505050506040513d601f19601f82011682018060405250810190610a289190611293565b505b60035f9054906101000a900473ffffffffffffffffffffffffffffffffffffffff1673ffffffffffffffffffffffffffffffffffffffff166108fc4790811502906040515f60405180830381858888f19350505050158015610a8e573d5f803e3d5ffd5b507f1ad1caa1c571aefbfc687d24e1f5c54fb44b2a683ce9dd8d68a2c391e5d8321360405160405180910390a150565b60075481565b60065481565b5f805f9054906101000a900473ffffffffffffffffffffffffffffffffffffffff16905090565b60055481565b60095f9054906101000a900460ff1681565b610b11610c20565b5f73ffffffffffffffffffffffffffffffffffffffff168173ffffffffffffffffffffffffffffffffffffffff1603610b81575f6040517f1e4fbdf7000000000000000000000000000000000000000000000000000000008152600401610b789190610dae565b60405180910390fd5b610b8a81610ca7565b50565b60025f9054906101000a900473ffffffffffffffffffffffffffffffffffffffff1681565b600260015403610bf7576040517f08c379a0000000000000000000000000000000000000000000000000000000008152600401610bee9061142d565b60405180910390fd5b6002600181905550565b5f60045482610c10919061144b565b9050919050565b60018081905550565b610c28610d68565b73ffffffffffffffffffffffffffffffffffffffff16610c46610aca565b73ffffffffffffffffffffffffffffffffffffffff1614610ca557610c69610d68565b6040517f118cdaa7000000000000000000000000000000000000000000000000000000008152600401610c9c9190610dae565b60405180910390fd5b565b5f805f9054906101000a900473ffffffffffffffffffffffffffffffffffffffff169050815f806101000a81548173ffffffffffffffffffffffffffffffffffffffff021916908373ffffffffffffffffffffffffffffffffffffffff1602179055508173ffffffffffffffffffffffffffffffffffffffff168173ffffffffffffffffffffffffffffffffffffffff167f8be0079c531659141344cd1fd0a4f28419497f9722a3daafe3b4186f6b6457e060405160405180910390a35050565b5f33905090565b5f73ffffffffffffffffffffffffffffffffffffffff82169050919050565b5f610d9882610d6f565b9050919050565b610da881610d8e565b82525050565b5f602082019050610dc15f830184610d9f565b92915050565b5f819050919050565b610dd981610dc7565b82525050565b5f602082019050610df25f830184610dd0565b92915050565b5f80fd5b610e0581610d8e565b8114610e0f575f80fd5b50565b5f81359050610e2081610dfc565b92915050565b5f60208284031215610e3b57610e3a610df8565b5b5f610e4884828501610e12565b91505092915050565b5f8115159050919050565b610e6581610e51565b82525050565b5f602082019050610e7e5f830184610e5c565b92915050565b5f819050919050565b5f610ea7610ea2610e9d84610d6f565b610e84565b610d6f565b9050919050565b5f610eb882610e8d565b9050919050565b5f610ec982610eae565b9050919050565b610ed981610ebf565b82525050565b5f602082019050610ef25f830184610ed0565b92915050565b5f60c082019050610f0b5f830189610dd0565b610f186020830188610dd0565b610f256040830187610dd0565b610f326060830186610dd0565b610f3f6080830185610dd0565b610f4c60a0830184610dd0565b979650505050505050565b5f82825260208201905092915050565b7f5072652d73616c65206973206e6f7420616374697665000000000000000000005f82015250565b5f610f9b601683610f57565b9150610fa682610f67565b602082019050919050565b5f6020820190508181035f830152610fc881610f8f565b9050919050565b7f436f6e747269627574696f6e2069732062656c6f77206d696e696d756d206c695f8201527f6d69740000000000000000000000000000000000000000000000000000000000602082015250565b5f611029602383610f57565b915061103482610fcf565b604082019050919050565b5f6020820190508181035f8301526110568161101d565b9050919050565b7f4e487b71000000000000000000000000000000000000000000000000000000005f52601160045260245ffd5b5f61109482610dc7565b915061109f83610dc7565b92508282019050808211156110b7576110b661105d565b5b92915050565b7f436f6e747269627574696f6e2065786365656473206d6178696d756d206c696d5f8201527f6974000000000000000000000000000000000000000000000000000000000000602082015250565b5f611117602283610f57565b9150611122826110bd565b604082019050919050565b5f6020820190508181035f8301526111448161110b565b9050919050565b5f60408201905061115e5f830185610dd0565b61116b6020830184610dd0565b9392505050565b7f5072652d73616c65206e6f742066696e616c697a6564000000000000000000005f82015250565b5f6111a6601683610f57565b91506111b182611172565b602082019050919050565b5f6020820190508181035f8301526111d38161119a565b9050919050565b7f4e6f20746f6b656e7320746f20636c61696d00000000000000000000000000005f82015250565b5f61120e601283610f57565b9150611219826111da565b602082019050919050565b5f6020820190508181035f83015261123b81611202565b9050919050565b5f6040820190506112555f830185610d9f565b6112626020830184610dd0565b9392505050565b61127281610e51565b811461127c575f80fd5b50565b5f8151905061128d81611269565b92915050565b5f602082840312156112a8576112a7610df8565b5b5f6112b58482850161127f565b91505092915050565b7f5072652d73616c6520686173206e6f7420656e646564207965740000000000005f82015250565b5f6112f2601a83610f57565b91506112fd826112be565b602082019050919050565b5f6020820190508181035f83015261131f816112e6565b9050919050565b7f5072652d73616c6520616c72656164792066696e616c697a65640000000000005f82015250565b5f61135a601a83610f57565b915061136582611326565b602082019050919050565b5f6020820190508181035f8301526113878161134e565b9050919050565b61139781610dc7565b81146113a1575f80fd5b50565b5f815190506113b28161138e565b92915050565b5f602082840312156113cd576113cc610df8565b5b5f6113da848285016113a4565b91505092915050565b7f5265656e7472616e637947756172643a207265656e7472616e742063616c6c005f82015250565b5f611417601f83610f57565b9150611422826113e3565b602082019050919050565b5f6020820190508181035f8301526114448161140b565b9050919050565b5f61145582610dc7565b915061146083610dc7565b925082820261146e81610dc7565b915082820484148315176114855761148461105d565b5b509291505056fea2646970667358221220fd735c3572669bde4032bca83010cb24de3ee0886690f1024f19794a9c1874c164736f6c63430008140033",
					"opcodes": "PUSH1 0x80 PUSH1 0x40 MSTORE PUSH0 PUSH1 0x9 PUSH0 PUSH2 0x100 EXP DUP2 SLOAD DUP2 PUSH1 0xFF MUL NOT AND SWAP1 DUP4 ISZERO ISZERO MUL OR SWAP1 SSTORE POP CALLVALUE DUP1 ISZERO PUSH3 0x29 JUMPI PUSH0 DUP1 REVERT JUMPDEST POP PUSH1 0x40 MLOAD PUSH3 0x1B09 CODESIZE SUB DUP1 PUSH3 0x1B09 DUP4 CODECOPY DUP2 DUP2 ADD PUSH1 0x40 MSTORE DUP2 ADD SWAP1 PUSH3 0x4F SWAP2 SWAP1 PUSH3 0x3B9 JUMP JUMPDEST CALLER PUSH0 PUSH20 0xFFFFFFFFFFFFFFFFFFFFFFFFFFFFFFFFFFFFFFFF AND DUP2 PUSH20 0xFFFFFFFFFFFFFFFFFFFFFFFFFFFFFFFFFFFFFFFF AND SUB PUSH3 0xC3 JUMPI PUSH0 PUSH1 0x40 MLOAD PUSH32 0x1E4FBDF700000000000000000000000000000000000000000000000000000000 DUP2 MSTORE PUSH1 0x4 ADD PUSH3 0xBA SWAP2 SWAP1 PUSH3 0x478 JUMP JUMPDEST PUSH1 0x40 MLOAD DUP1 SWAP2 SUB SWAP1 REVERT JUMPDEST PUSH3 0xD4 DUP2 PUSH3 0x25B PUSH1 0x20 SHL PUSH1 0x20 SHR JUMP JUMPDEST POP PUSH1 0x1 DUP1 DUP2 SWAP1 SSTORE POP DUP2 DUP2 GT PUSH3 0x121 JUMPI PUSH1 0x40 MLOAD PUSH32 0x8C379A000000000000000000000000000000000000000000000000000000000 DUP2 MSTORE PUSH1 0x4 ADD PUSH3 0x118 SWAP1 PUSH3 0x517 JUMP JUMPDEST PUSH1 0x40 MLOAD DUP1 SWAP2 SUB SWAP1 REVERT JUMPDEST PUSH0 DUP6 GT PUSH3 0x166 JUMPI PUSH1 0x40 MLOAD PUSH32 0x8C379A000000000000000000000000000000000000000000000000000000000 DUP2 MSTORE PUSH1 0x4 ADD PUSH3 0x15D SWAP1 PUSH3 0x585 JUMP JUMPDEST PUSH1 0x40 MLOAD DUP1 SWAP2 SUB SWAP1 REVERT JUMPDEST PUSH0 DUP5 GT PUSH3 0x1AB JUMPI PUSH1 0x40 MLOAD PUSH32 0x8C379A000000000000000000000000000000000000000000000000000000000 DUP2 MSTORE PUSH1 0x4 ADD PUSH3 0x1A2 SWAP1 PUSH3 0x619 JUMP JUMPDEST PUSH1 0x40 MLOAD DUP1 SWAP2 SUB SWAP1 REVERT JUMPDEST DUP7 PUSH1 0x2 PUSH0 PUSH2 0x100 EXP DUP2 SLOAD DUP2 PUSH20 0xFFFFFFFFFFFFFFFFFFFFFFFFFFFFFFFFFFFFFFFF MUL NOT AND SWAP1 DUP4 PUSH20 0xFFFFFFFFFFFFFFFFFFFFFFFFFFFFFFFFFFFFFFFF AND MUL OR SWAP1 SSTORE POP DUP6 PUSH1 0x3 PUSH0 PUSH2 0x100 EXP DUP2 SLOAD DUP2 PUSH20 0xFFFFFFFFFFFFFFFFFFFFFFFFFFFFFFFFFFFFFFFF MUL NOT AND SWAP1 DUP4 PUSH20 0xFFFFFFFFFFFFFFFFFFFFFFFFFFFFFFFFFFFFFFFF AND MUL OR SWAP1 SSTORE POP DUP5 PUSH1 0x4 DUP2 SWAP1 SSTORE POP DUP4 PUSH1 0x5 DUP2 SWAP1 SSTORE POP DUP3 PUSH1 0x6 DUP2 SWAP1 SSTORE POP DUP2 PUSH1 0x7 DUP2 SWAP1 SSTORE POP DUP1 PUSH1 0x8 DUP2 SWAP1 SSTORE POP POP POP POP POP POP POP POP PUSH3 0x639 JUMP JUMPDEST PUSH0 DUP1 PUSH0 SWAP1 SLOAD SWAP1 PUSH2 0x100 EXP SWAP1 DIV PUSH20 0xFFFFFFFFFFFFFFFFFFFFFFFFFFFFFFFFFFFFFFFF AND SWAP1 POP DUP2 PUSH0 DUP1 PUSH2 0x100 EXP DUP2 SLOAD DUP2 PUSH20 0xFFFFFFFFFFFFFFFFFFFFFFFFFFFFFFFFFFFFFFFF MUL NOT AND SWAP1 DUP4 PUSH20 0xFFFFFFFFFFFFFFFFFFFFFFFFFFFFFFFFFFFFFFFF AND MUL OR SWAP1 SSTORE POP DUP2 PUSH20 0xFFFFFFFFFFFFFFFFFFFFFFFFFFFFFFFFFFFFFFFF AND DUP2 PUSH20 0xFFFFFFFFFFFFFFFFFFFFFFFFFFFFFFFFFFFFFFFF AND PUSH32 0x8BE0079C531659141344CD1FD0A4F28419497F9722A3DAAFE3B4186F6B6457E0 PUSH1 0x40 MLOAD PUSH1 0x40 MLOAD DUP1 SWAP2 SUB SWAP1 LOG3 POP POP JUMP JUMPDEST PUSH0 DUP1 REVERT JUMPDEST PUSH0 PUSH20 0xFFFFFFFFFFFFFFFFFFFFFFFFFFFFFFFFFFFFFFFF DUP3 AND SWAP1 POP SWAP2 SWAP1 POP JUMP JUMPDEST PUSH0 PUSH3 0x34B DUP3 PUSH3 0x320 JUMP JUMPDEST SWAP1 POP SWAP2 SWAP1 POP JUMP JUMPDEST PUSH3 0x35D DUP2 PUSH3 0x33F JUMP JUMPDEST DUP2 EQ PUSH3 0x368 JUMPI PUSH0 DUP1 REVERT JUMPDEST POP JUMP JUMPDEST PUSH0 DUP2 MLOAD SWAP1 POP PUSH3 0x37B DUP2 PUSH3 0x352 JUMP JUMPDEST SWAP3 SWAP2 POP POP JUMP JUMPDEST PUSH0 DUP2 SWAP1 POP SWAP2 SWAP1 POP JUMP JUMPDEST PUSH3 0x395 DUP2 PUSH3 0x381 JUMP JUMPDEST DUP2 EQ PUSH3 0x3A0 JUMPI PUSH0 DUP1 REVERT JUMPDEST POP JUMP JUMPDEST PUSH0 DUP2 MLOAD SWAP1 POP PUSH3 0x3B3 DUP2 PUSH3 0x38A JUMP JUMPDEST SWAP3 SWAP2 POP POP JUMP JUMPDEST PUSH0 DUP1 PUSH0 DUP1 PUSH0 DUP1 PUSH0 PUSH1 0xE0 DUP9 DUP11 SUB SLT ISZERO PUSH3 0x3D7 JUMPI PUSH3 0x3D6 PUSH3 0x31C JUMP JUMPDEST JUMPDEST PUSH0 PUSH3 0x3E6 DUP11 DUP3 DUP12 ADD PUSH3 0x36B JUMP JUMPDEST SWAP8 POP POP PUSH1 0x20 PUSH3 0x3F9 DUP11 DUP3 DUP12 ADD PUSH3 0x36B JUMP JUMPDEST SWAP7 POP POP PUSH1 0x40 PUSH3 0x40C DUP11 DUP3 DUP12 ADD PUSH3 0x3A3 JUMP JUMPDEST SWAP6 POP POP PUSH1 0x60 PUSH3 0x41F DUP11 DUP3 DUP12 ADD PUSH3 0x3A3 JUMP JUMPDEST SWAP5 POP POP PUSH1 0x80 PUSH3 0x432 DUP11 DUP3 DUP12 ADD PUSH3 0x3A3 JUMP JUMPDEST SWAP4 POP POP PUSH1 0xA0 PUSH3 0x445 DUP11 DUP3 DUP12 ADD PUSH3 0x3A3 JUMP JUMPDEST SWAP3 POP POP PUSH1 0xC0 PUSH3 0x458 DUP11 DUP3 DUP12 ADD PUSH3 0x3A3 JUMP JUMPDEST SWAP2 POP POP SWAP3 SWAP6 SWAP9 SWAP2 SWAP5 SWAP8 POP SWAP3 SWAP6 POP JUMP JUMPDEST PUSH3 0x472 DUP2 PUSH3 0x33F JUMP JUMPDEST DUP3 MSTORE POP POP JUMP JUMPDEST PUSH0 PUSH1 0x20 DUP3 ADD SWAP1 POP PUSH3 0x48D PUSH0 DUP4 ADD DUP5 PUSH3 0x467 JUMP JUMPDEST SWAP3 SWAP2 POP POP JUMP JUMPDEST PUSH0 DUP3 DUP3 MSTORE PUSH1 0x20 DUP3 ADD SWAP1 POP SWAP3 SWAP2 POP POP JUMP JUMPDEST PUSH32 0x456E642074696D65206D7573742062652061667465722073746172742074696D PUSH0 DUP3 ADD MSTORE PUSH32 0x6500000000000000000000000000000000000000000000000000000000000000 PUSH1 0x20 DUP3 ADD MSTORE POP JUMP JUMPDEST PUSH0 PUSH3 0x4FF PUSH1 0x21 DUP4 PUSH3 0x493 JUMP JUMPDEST SWAP2 POP PUSH3 0x50C DUP3 PUSH3 0x4A3 JUMP JUMPDEST PUSH1 0x40 DUP3 ADD SWAP1 POP SWAP2 SWAP1 POP JUMP JUMPDEST PUSH0 PUSH1 0x20 DUP3 ADD SWAP1 POP DUP2 DUP2 SUB PUSH0 DUP4 ADD MSTORE PUSH3 0x530 DUP2 PUSH3 0x4F1 JUMP JUMPDEST SWAP1 POP SWAP2 SWAP1 POP JUMP JUMPDEST PUSH32 0x52617465206D7573742062652067726561746572207468616E20300000000000 PUSH0 DUP3 ADD MSTORE POP JUMP JUMPDEST PUSH0 PUSH3 0x56D PUSH1 0x1B DUP4 PUSH3 0x493 JUMP JUMPDEST SWAP2 POP PUSH3 0x57A DUP3 PUSH3 0x537 JUMP JUMPDEST PUSH1 0x20 DUP3 ADD SWAP1 POP SWAP2 SWAP1 POP JUMP JUMPDEST PUSH0 PUSH1 0x20 DUP3 ADD SWAP1 POP DUP2 DUP2 SUB PUSH0 DUP4 ADD MSTORE PUSH3 0x59E DUP2 PUSH3 0x55F JUMP JUMPDEST SWAP1 POP SWAP2 SWAP1 POP JUMP JUMPDEST PUSH32 0x4D696E20636F6E747269627574696F6E206D7573742062652067726561746572 PUSH0 DUP3 ADD MSTORE PUSH32 0x207468616E203000000000000000000000000000000000000000000000000000 PUSH1 0x20 DUP3 ADD MSTORE POP JUMP JUMPDEST PUSH0 PUSH3 0x601 PUSH1 0x27 DUP4 PUSH3 0x493 JUMP JUMPDEST SWAP2 POP PUSH3 0x60E DUP3 PUSH3 0x5A5 JUMP JUMPDEST PUSH1 0x40 DUP3 ADD SWAP1 POP SWAP2 SWAP1 POP JUMP JUMPDEST PUSH0 PUSH1 0x20 DUP3 ADD SWAP1 POP DUP2 DUP2 SUB PUSH0 DUP4 ADD MSTORE PUSH3 0x632 DUP2 PUSH3 0x5F3 JUMP JUMPDEST SWAP1 POP SWAP2 SWAP1 POP JUMP JUMPDEST PUSH2 0x14C2 DUP1 PUSH3 0x647 PUSH0 CODECOPY PUSH0 RETURN INVALID PUSH1 0x80 PUSH1 0x40 MSTORE PUSH1 0x4 CALLDATASIZE LT PUSH2 0xF6 JUMPI PUSH0 CALLDATALOAD PUSH1 0xE0 SHR DUP1 PUSH4 0x78E97925 GT PUSH2 0x89 JUMPI DUP1 PUSH4 0xB3F05B97 GT PUSH2 0x58 JUMPI DUP1 PUSH4 0xB3F05B97 EQ PUSH2 0x2DD JUMPI DUP1 PUSH4 0xD0FEBE4C EQ PUSH2 0x307 JUMPI DUP1 PUSH4 0xF2FDE38B EQ PUSH2 0x311 JUMPI DUP1 PUSH4 0xFC0C546A EQ PUSH2 0x339 JUMPI PUSH2 0x105 JUMP JUMPDEST DUP1 PUSH4 0x78E97925 EQ PUSH2 0x235 JUMPI DUP1 PUSH4 0x8D3D6576 EQ PUSH2 0x25F JUMPI DUP1 PUSH4 0x8DA5CB5B EQ PUSH2 0x289 JUMPI DUP1 PUSH4 0xAAFFADF3 EQ PUSH2 0x2B3 JUMPI PUSH2 0x105 JUMP JUMPDEST DUP1 PUSH4 0x42E94C90 GT PUSH2 0xC5 JUMPI DUP1 PUSH4 0x42E94C90 EQ PUSH2 0x1B7 JUMPI DUP1 PUSH4 0x48C54B9D EQ PUSH2 0x1F3 JUMPI DUP1 PUSH4 0x715018A6 EQ PUSH2 0x209 JUMPI DUP1 PUSH4 0x7376678B EQ PUSH2 0x21F JUMPI PUSH2 0x105 JUMP JUMPDEST DUP1 PUSH4 0x1FC75E41 EQ PUSH2 0x10F JUMPI DUP1 PUSH4 0x2C4E722E EQ PUSH2 0x139 JUMPI DUP1 PUSH4 0x3197CBB6 EQ PUSH2 0x163 JUMPI DUP1 PUSH4 0x37C08923 EQ PUSH2 0x18D JUMPI PUSH2 0x105 JUMP JUMPDEST CALLDATASIZE PUSH2 0x105 JUMPI PUSH2 0x103 PUSH2 0x363 JUMP JUMPDEST STOP JUMPDEST PUSH2 0x10D PUSH2 0x363 JUMP JUMPDEST STOP JUMPDEST CALLVALUE DUP1 ISZERO PUSH2 0x11A JUMPI PUSH0 DUP1 REVERT JUMPDEST POP PUSH2 0x123 PUSH2 0x5AB JUMP JUMPDEST PUSH1 0x40 MLOAD PUSH2 0x130 SWAP2 SWAP1 PUSH2 0xDAE JUMP JUMPDEST PUSH1 0x40 MLOAD DUP1 SWAP2 SUB SWAP1 RETURN JUMPDEST CALLVALUE DUP1 ISZERO PUSH2 0x144 JUMPI PUSH0 DUP1 REVERT JUMPDEST POP PUSH2 0x14D PUSH2 0x5D0 JUMP JUMPDEST PUSH1 0x40 MLOAD PUSH2 0x15A SWAP2 SWAP1 PUSH2 0xDDF JUMP JUMPDEST PUSH1 0x40 MLOAD DUP1 SWAP2 SUB SWAP1 RETURN JUMPDEST CALLVALUE DUP1 ISZERO PUSH2 0x16E JUMPI PUSH0 DUP1 REVERT JUMPDEST POP PUSH2 0x177 PUSH2 0x5D6 JUMP JUMPDEST PUSH1 0x40 MLOAD PUSH2 0x184 SWAP2 SWAP1 PUSH2 0xDDF JUMP JUMPDEST PUSH1 0x40 MLOAD DUP1 SWAP2 SUB SWAP1 RETURN JUMPDEST CALLVALUE DUP1 ISZERO PUSH2 0x198 JUMPI PUSH0 DUP1 REVERT JUMPDEST POP PUSH2 0x1A1 PUSH2 0x5DC JUMP JUMPDEST PUSH1 0x40 MLOAD PUSH2 0x1AE SWAP2 SWAP1 PUSH2 0xDDF JUMP JUMPDEST PUSH1 0x40 MLOAD DUP1 SWAP2 SUB SWAP1 RETURN JUMPDEST CALLVALUE DUP1 ISZERO PUSH2 0x1C2 JUMPI PUSH0 DUP1 REVERT JUMPDEST POP PUSH2 0x1DD PUSH1 0x4 DUP1 CALLDATASIZE SUB DUP2 ADD SWAP1 PUSH2 0x1D8 SWAP2 SWAP1 PUSH2 0xE26 JUMP JUMPDEST PUSH2 0x5E2 JUMP JUMPDEST PUSH1 0x40 MLOAD PUSH2 0x1EA SWAP2 SWAP1 PUSH2 0xDDF JUMP JUMPDEST PUSH1 0x40 MLOAD DUP1 SWAP2 SUB SWAP1 RETURN JUMPDEST CALLVALUE DUP1 ISZERO PUSH2 0x1FE JUMPI PUSH0 DUP1 REVERT JUMPDEST POP PUSH2 0x207 PUSH2 0x5F7 JUMP JUMPDEST STOP JUMPDEST CALLVALUE DUP1 ISZERO PUSH2 0x214 JUMPI PUSH0 DUP1 REVERT JUMPDEST POP PUSH2 0x21D PUSH2 0x7FF JUMP JUMPDEST STOP JUMPDEST CALLVALUE DUP1 ISZERO PUSH2 0x22A JUMPI PUSH0 DUP1 REVERT JUMPDEST POP PUSH2 0x233 PUSH2 0x812 JUMP JUMPDEST STOP JUMPDEST CALLVALUE DUP1 ISZERO PUSH2 0x240 JUMPI PUSH0 DUP1 REVERT JUMPDEST POP PUSH2 0x249 PUSH2 0xABE JUMP JUMPDEST PUSH1 0x40 MLOAD PUSH2 0x256 SWAP2 SWAP1 PUSH2 0xDDF JUMP JUMPDEST PUSH1 0x40 MLOAD DUP1 SWAP2 SUB SWAP1 RETURN JUMPDEST CALLVALUE DUP1 ISZERO PUSH2 0x26A JUMPI PUSH0 DUP1 REVERT JUMPDEST POP PUSH2 0x273 PUSH2 0xAC4 JUMP JUMPDEST PUSH1 0x40 MLOAD PUSH2 0x280 SWAP2 SWAP1 PUSH2 0xDDF JUMP JUMPDEST PUSH1 0x40 MLOAD DUP1 SWAP2 SUB SWAP1 RETURN JUMPDEST CALLVALUE DUP1 ISZERO PUSH2 0x294 JUMPI PUSH0 DUP1 REVERT JUMPDEST POP PUSH2 0x29D PUSH2 0xACA JUMP JUMPDEST PUSH1 0x40 MLOAD PUSH2 0x2AA SWAP2 SWAP1 PUSH2 0xDAE JUMP JUMPDEST PUSH1 0x40 MLOAD DUP1 SWAP2 SUB SWAP1 RETURN JUMPDEST CALLVALUE DUP1 ISZERO PUSH2 0x2BE JUMPI PUSH0 DUP1 REVERT JUMPDEST POP PUSH2 0x2C7 PUSH2 0xAF1 JUMP JUMPDEST PUSH1 0x40 MLOAD PUSH2 0x2D4 SWAP2 SWAP1 PUSH2 0xDDF JUMP JUMPDEST PUSH1 0x40 MLOAD DUP1 SWAP2 SUB SWAP1 RETURN JUMPDEST CALLVALUE DUP1 ISZERO PUSH2 0x2E8 JUMPI PUSH0 DUP1 REVERT JUMPDEST POP PUSH2 0x2F1 PUSH2 0xAF7 JUMP JUMPDEST PUSH1 0x40 MLOAD PUSH2 0x2FE SWAP2 SWAP1 PUSH2 0xE6B JUMP JUMPDEST PUSH1 0x40 MLOAD DUP1 SWAP2 SUB SWAP1 RETURN JUMPDEST PUSH2 0x30F PUSH2 0x363 JUMP JUMPDEST STOP JUMPDEST CALLVALUE DUP1 ISZERO PUSH2 0x31C JUMPI PUSH0 DUP1 REVERT JUMPDEST POP PUSH2 0x337 PUSH1 0x4 DUP1 CALLDATASIZE SUB DUP2 ADD SWAP1 PUSH2 0x332 SWAP2 SWAP1 PUSH2 0xE26 JUMP JUMPDEST PUSH2 0xB09 JUMP JUMPDEST STOP JUMPDEST CALLVALUE DUP1 ISZERO PUSH2 0x344 JUMPI PUSH0 DUP1 REVERT JUMPDEST POP PUSH2 0x34D PUSH2 0xB8D JUMP JUMPDEST PUSH1 0x40 MLOAD PUSH2 0x35A SWAP2 SWAP1 PUSH2 0xEDF JUMP JUMPDEST PUSH1 0x40 MLOAD DUP1 SWAP2 SUB SWAP1 RETURN JUMPDEST PUSH2 0x36B PUSH2 0xBB2 JUMP JUMPDEST PUSH32 0xC09D2DF50BA063522FD6763CFB9C99E8E93DEE49B8AF5450C70A00268BA281B2 TIMESTAMP PUSH1 0x7 SLOAD PUSH1 0x8 SLOAD CALLVALUE PUSH1 0x5 SLOAD PUSH1 0x6 SLOAD PUSH1 0x40 MLOAD PUSH2 0x3AC SWAP7 SWAP6 SWAP5 SWAP4 SWAP3 SWAP2 SWAP1 PUSH2 0xEF8 JUMP JUMPDEST PUSH1 0x40 MLOAD DUP1 SWAP2 SUB SWAP1 LOG1 PUSH1 0x7 SLOAD TIMESTAMP LT ISZERO DUP1 ISZERO PUSH2 0x3C8 JUMPI POP PUSH1 0x8 SLOAD TIMESTAMP GT ISZERO JUMPDEST PUSH2 0x407 JUMPI PUSH1 0x40 MLOAD PUSH32 0x8C379A000000000000000000000000000000000000000000000000000000000 DUP2 MSTORE PUSH1 0x4 ADD PUSH2 0x3FE SWAP1 PUSH2 0xFB1 JUMP JUMPDEST PUSH1 0x40 MLOAD DUP1 SWAP2 SUB SWAP1 REVERT JUMPDEST PUSH1 0x5 SLOAD CALLVALUE LT ISZERO PUSH2 0x44C JUMPI PUSH1 0x40 MLOAD PUSH32 0x8C379A000000000000000000000000000000000000000000000000000000000 DUP2 MSTORE PUSH1 0x4 ADD PUSH2 0x443 SWAP1 PUSH2 0x103F JUMP JUMPDEST PUSH1 0x40 MLOAD DUP1 SWAP2 SUB SWAP1 REVERT JUMPDEST PUSH1 0x6 SLOAD CALLVALUE PUSH1 0xA PUSH0 CALLER PUSH20 0xFFFFFFFFFFFFFFFFFFFFFFFFFFFFFFFFFFFFFFFF AND PUSH20 0xFFFFFFFFFFFFFFFFFFFFFFFFFFFFFFFFFFFFFFFF AND DUP2 MSTORE PUSH1 0x20 ADD SWAP1 DUP2 MSTORE PUSH1 0x20 ADD PUSH0 KECCAK256 SLOAD PUSH2 0x498 SWAP2 SWAP1 PUSH2 0x108A JUMP JUMPDEST GT ISZERO PUSH2 0x4D9 JUMPI PUSH1 0x40 MLOAD PUSH32 0x8C379A000000000000000000000000000000000000000000000000000000000 DUP2 MSTORE PUSH1 0x4 ADD PUSH2 0x4D0 SWAP1 PUSH2 0x112D JUMP JUMPDEST PUSH1 0x40 MLOAD DUP1 SWAP2 SUB SWAP1 REVERT JUMPDEST PUSH0 PUSH2 0x4E3 CALLVALUE PUSH2 0xC01 JUMP JUMPDEST SWAP1 POP CALLVALUE PUSH1 0xA PUSH0 CALLER PUSH20 0xFFFFFFFFFFFFFFFFFFFFFFFFFFFFFFFFFFFFFFFF AND PUSH20 0xFFFFFFFFFFFFFFFFFFFFFFFFFFFFFFFFFFFFFFFF AND DUP2 MSTORE PUSH1 0x20 ADD SWAP1 DUP2 MSTORE PUSH1 0x20 ADD PUSH0 KECCAK256 PUSH0 DUP3 DUP3 SLOAD PUSH2 0x531 SWAP2 SWAP1 PUSH2 0x108A JUMP JUMPDEST SWAP3 POP POP DUP2 SWAP1 SSTORE POP CALLVALUE PUSH1 0xB PUSH0 DUP3 DUP3 SLOAD PUSH2 0x549 SWAP2 SWAP1 PUSH2 0x108A JUMP JUMPDEST SWAP3 POP POP DUP2 SWAP1 SSTORE POP CALLER PUSH20 0xFFFFFFFFFFFFFFFFFFFFFFFFFFFFFFFFFFFFFFFF AND PUSH32 0x8FAFEBCAF9D154343DAD25669BFA277F4FBACD7AC6B0C4FED522580E040A0F33 CALLVALUE DUP4 PUSH1 0x40 MLOAD PUSH2 0x598 SWAP3 SWAP2 SWAP1 PUSH2 0x114B JUMP JUMPDEST PUSH1 0x40 MLOAD DUP1 SWAP2 SUB SWAP1 LOG2 POP PUSH2 0x5A9 PUSH2 0xC17 JUMP JUMPDEST JUMP JUMPDEST PUSH1 0x3 PUSH0 SWAP1 SLOAD SWAP1 PUSH2 0x100 EXP SWAP1 DIV PUSH20 0xFFFFFFFFFFFFFFFFFFFFFFFFFFFFFFFFFFFFFFFF AND DUP2 JUMP JUMPDEST PUSH1 0x4 SLOAD DUP2 JUMP JUMPDEST PUSH1 0x8 SLOAD DUP2 JUMP JUMPDEST PUSH1 0xB SLOAD DUP2 JUMP JUMPDEST PUSH1 0xA PUSH1 0x20 MSTORE DUP1 PUSH0 MSTORE PUSH1 0x40 PUSH0 KECCAK256 PUSH0 SWAP2 POP SWAP1 POP SLOAD DUP2 JUMP JUMPDEST PUSH2 0x5FF PUSH2 0xBB2 JUMP JUMPDEST PUSH1 0x9 PUSH0 SWAP1 SLOAD SWAP1 PUSH2 0x100 EXP SWAP1 DIV PUSH1 0xFF AND PUSH2 0x64D JUMPI PUSH1 0x40 MLOAD PUSH32 0x8C379A000000000000000000000000000000000000000000000000000000000 DUP2 MSTORE PUSH1 0x4 ADD PUSH2 0x644 SWAP1 PUSH2 0x11BC JUMP JUMPDEST PUSH1 0x40 MLOAD DUP1 SWAP2 SUB SWAP1 REVERT JUMPDEST PUSH0 PUSH1 0xA PUSH0 CALLER PUSH20 0xFFFFFFFFFFFFFFFFFFFFFFFFFFFFFFFFFFFFFFFF AND PUSH20 0xFFFFFFFFFFFFFFFFFFFFFFFFFFFFFFFFFFFFFFFF AND DUP2 MSTORE PUSH1 0x20 ADD SWAP1 DUP2 MSTORE PUSH1 0x20 ADD PUSH0 KECCAK256 SLOAD GT PUSH2 0x6CC JUMPI PUSH1 0x40 MLOAD PUSH32 0x8C379A000000000000000000000000000000000000000000000000000000000 DUP2 MSTORE PUSH1 0x4 ADD PUSH2 0x6C3 SWAP1 PUSH2 0x1224 JUMP JUMPDEST PUSH1 0x40 MLOAD DUP1 SWAP2 SUB SWAP1 REVERT JUMPDEST PUSH0 PUSH2 0x713 PUSH1 0xA PUSH0 CALLER PUSH20 0xFFFFFFFFFFFFFFFFFFFFFFFFFFFFFFFFFFFFFFFF AND PUSH20 0xFFFFFFFFFFFFFFFFFFFFFFFFFFFFFFFFFFFFFFFF AND DUP2 MSTORE PUSH1 0x20 ADD SWAP1 DUP2 MSTORE PUSH1 0x20 ADD PUSH0 KECCAK256 SLOAD PUSH2 0xC01 JUMP JUMPDEST SWAP1 POP PUSH0 PUSH1 0xA PUSH0 CALLER PUSH20 0xFFFFFFFFFFFFFFFFFFFFFFFFFFFFFFFFFFFFFFFF AND PUSH20 0xFFFFFFFFFFFFFFFFFFFFFFFFFFFFFFFFFFFFFFFF AND DUP2 MSTORE PUSH1 0x20 ADD SWAP1 DUP2 MSTORE PUSH1 0x20 ADD PUSH0 KECCAK256 DUP2 SWAP1 SSTORE POP PUSH1 0x2 PUSH0 SWAP1 SLOAD SWAP1 PUSH2 0x100 EXP SWAP1 DIV PUSH20 0xFFFFFFFFFFFFFFFFFFFFFFFFFFFFFFFFFFFFFFFF AND PUSH20 0xFFFFFFFFFFFFFFFFFFFFFFFFFFFFFFFFFFFFFFFF AND PUSH4 0xA9059CBB CALLER DUP4 PUSH1 0x40 MLOAD DUP4 PUSH4 0xFFFFFFFF AND PUSH1 0xE0 SHL DUP2 MSTORE PUSH1 0x4 ADD PUSH2 0x7B3 SWAP3 SWAP2 SWAP1 PUSH2 0x1242 JUMP JUMPDEST PUSH1 0x20 PUSH1 0x40 MLOAD DUP1 DUP4 SUB DUP2 PUSH0 DUP8 GAS CALL ISZERO DUP1 ISZERO PUSH2 0x7CF JUMPI RETURNDATASIZE PUSH0 DUP1 RETURNDATACOPY RETURNDATASIZE PUSH0 REVERT JUMPDEST POP POP POP POP PUSH1 0x40 MLOAD RETURNDATASIZE PUSH1 0x1F NOT PUSH1 0x1F DUP3 ADD AND DUP3 ADD DUP1 PUSH1 0x40 MSTORE POP DUP2 ADD SWAP1 PUSH2 0x7F3 SWAP2 SWAP1 PUSH2 0x1293 JUMP JUMPDEST POP POP PUSH2 0x7FD PUSH2 0xC17 JUMP JUMPDEST JUMP JUMPDEST PUSH2 0x807 PUSH2 0xC20 JUMP JUMPDEST PUSH2 0x810 PUSH0 PUSH2 0xCA7 JUMP JUMPDEST JUMP JUMPDEST PUSH2 0x81A PUSH2 0xC20 JUMP JUMPDEST PUSH1 0x8 SLOAD TIMESTAMP GT PUSH2 0x85E JUMPI PUSH1 0x40 MLOAD PUSH32 0x8C379A000000000000000000000000000000000000000000000000000000000 DUP2 MSTORE PUSH1 0x4 ADD PUSH2 0x855 SWAP1 PUSH2 0x1308 JUMP JUMPDEST PUSH1 0x40 MLOAD DUP1 SWAP2 SUB SWAP1 REVERT JUMPDEST PUSH1 0x9 PUSH0 SWAP1 SLOAD SWAP1 PUSH2 0x100 EXP SWAP1 DIV PUSH1 0xFF AND ISZERO PUSH2 0x8AD JUMPI PUSH1 0x40 MLOAD PUSH32 0x8C379A000000000000000000000000000000000000000000000000000000000 DUP2 MSTORE PUSH1 0x4 ADD PUSH2 0x8A4 SWAP1 PUSH2 0x1370 JUMP JUMPDEST PUSH1 0x40 MLOAD DUP1 SWAP2 SUB SWAP1 REVERT JUMPDEST PUSH1 0x1 PUSH1 0x9 PUSH0 PUSH2 0x100 EXP DUP2 SLOAD DUP2 PUSH1 0xFF MUL NOT AND SWAP1 DUP4 ISZERO ISZERO MUL OR SWAP1 SSTORE POP PUSH0 PUSH1 0x2 PUSH0 SWAP1 SLOAD SWAP1 PUSH2 0x100 EXP SWAP1 DIV PUSH20 0xFFFFFFFFFFFFFFFFFFFFFFFFFFFFFFFFFFFFFFFF AND PUSH20 0xFFFFFFFFFFFFFFFFFFFFFFFFFFFFFFFFFFFFFFFF AND PUSH4 0x70A08231 ADDRESS PUSH1 0x40 MLOAD DUP3 PUSH4 0xFFFFFFFF AND PUSH1 0xE0 SHL DUP2 MSTORE PUSH1 0x4 ADD PUSH2 0x922 SWAP2 SWAP1 PUSH2 0xDAE JUMP JUMPDEST PUSH1 0x20 PUSH1 0x40 MLOAD DUP1 DUP4 SUB DUP2 DUP7 GAS STATICCALL ISZERO DUP1 ISZERO PUSH2 0x93D JUMPI RETURNDATASIZE PUSH0 DUP1 RETURNDATACOPY RETURNDATASIZE PUSH0 REVERT JUMPDEST POP POP POP POP PUSH1 0x40 MLOAD RETURNDATASIZE PUSH1 0x1F NOT PUSH1 0x1F DUP3 ADD AND DUP3 ADD DUP1 PUSH1 0x40 MSTORE POP DUP2 ADD SWAP1 PUSH2 0x961 SWAP2 SWAP1 PUSH2 0x13B8 JUMP JUMPDEST SWAP1 POP PUSH0 DUP2 GT ISZERO PUSH2 0xA2A JUMPI PUSH1 0x2 PUSH0 SWAP1 SLOAD SWAP1 PUSH2 0x100 EXP SWAP1 DIV PUSH20 0xFFFFFFFFFFFFFFFFFFFFFFFFFFFFFFFFFFFFFFFF AND PUSH20 0xFFFFFFFFFFFFFFFFFFFFFFFFFFFFFFFFFFFFFFFF AND PUSH4 0xA9059CBB PUSH1 0x3 PUSH0 SWAP1 SLOAD SWAP1 PUSH2 0x100 EXP SWAP1 DIV PUSH20 0xFFFFFFFFFFFFFFFFFFFFFFFFFFFFFFFFFFFFFFFF AND DUP4 PUSH1 0x40 MLOAD DUP4 PUSH4 0xFFFFFFFF AND PUSH1 0xE0 SHL DUP2 MSTORE PUSH1 0x4 ADD PUSH2 0x9E8 SWAP3 SWAP2 SWAP1 PUSH2 0x1242 JUMP JUMPDEST PUSH1 0x20 PUSH1 0x40 MLOAD DUP1 DUP4 SUB DUP2 PUSH0 DUP8 GAS CALL ISZERO DUP1 ISZERO PUSH2 0xA04 JUMPI RETURNDATASIZE PUSH0 DUP1 RETURNDATACOPY RETURNDATASIZE PUSH0 REVERT JUMPDEST POP POP POP POP PUSH1 0x40 MLOAD RETURNDATASIZE PUSH1 0x1F NOT PUSH1 0x1F DUP3 ADD AND DUP3 ADD DUP1 PUSH1 0x40 MSTORE POP DUP2 ADD SWAP1 PUSH2 0xA28 SWAP2 SWAP1 PUSH2 0x1293 JUMP JUMPDEST POP JUMPDEST PUSH1 0x3 PUSH0 SWAP1 SLOAD SWAP1 PUSH2 0x100 EXP SWAP1 DIV PUSH20 0xFFFFFFFFFFFFFFFFFFFFFFFFFFFFFFFFFFFFFFFF AND PUSH20 0xFFFFFFFFFFFFFFFFFFFFFFFFFFFFFFFFFFFFFFFF AND PUSH2 0x8FC SELFBALANCE SWAP1 DUP2 ISZERO MUL SWAP1 PUSH1 0x40 MLOAD PUSH0 PUSH1 0x40 MLOAD DUP1 DUP4 SUB DUP2 DUP6 DUP9 DUP9 CALL SWAP4 POP POP POP POP ISZERO DUP1 ISZERO PUSH2 0xA8E JUMPI RETURNDATASIZE PUSH0 DUP1 RETURNDATACOPY RETURNDATASIZE PUSH0 REVERT JUMPDEST POP PUSH32 0x1AD1CAA1C571AEFBFC687D24E1F5C54FB44B2A683CE9DD8D68A2C391E5D83213 PUSH1 0x40 MLOAD PUSH1 0x40 MLOAD DUP1 SWAP2 SUB SWAP1 LOG1 POP JUMP JUMPDEST PUSH1 0x7 SLOAD DUP2 JUMP JUMPDEST PUSH1 0x6 SLOAD DUP2 JUMP JUMPDEST PUSH0 DUP1 PUSH0 SWAP1 SLOAD SWAP1 PUSH2 0x100 EXP SWAP1 DIV PUSH20 0xFFFFFFFFFFFFFFFFFFFFFFFFFFFFFFFFFFFFFFFF AND SWAP1 POP SWAP1 JUMP JUMPDEST PUSH1 0x5 SLOAD DUP2 JUMP JUMPDEST PUSH1 0x9 PUSH0 SWAP1 SLOAD SWAP1 PUSH2 0x100 EXP SWAP1 DIV PUSH1 0xFF AND DUP2 JUMP JUMPDEST PUSH2 0xB11 PUSH2 0xC20 JUMP JUMPDEST PUSH0 PUSH20 0xFFFFFFFFFFFFFFFFFFFFFFFFFFFFFFFFFFFFFFFF AND DUP2 PUSH20 0xFFFFFFFFFFFFFFFFFFFFFFFFFFFFFFFFFFFFFFFF AND SUB PUSH2 0xB81 JUMPI PUSH0 PUSH1 0x40 MLOAD PUSH32 0x1E4FBDF700000000000000000000000000000000000000000000000000000000 DUP2 MSTORE PUSH1 0x4 ADD PUSH2 0xB78 SWAP2 SWAP1 PUSH2 0xDAE JUMP JUMPDEST PUSH1 0x40 MLOAD DUP1 SWAP2 SUB SWAP1 REVERT JUMPDEST PUSH2 0xB8A DUP2 PUSH2 0xCA7 JUMP JUMPDEST POP JUMP JUMPDEST PUSH1 0x2 PUSH0 SWAP1 SLOAD SWAP1 PUSH2 0x100 EXP SWAP1 DIV PUSH20 0xFFFFFFFFFFFFFFFFFFFFFFFFFFFFFFFFFFFFFFFF AND DUP2 JUMP JUMPDEST PUSH1 0x2 PUSH1 0x1 SLOAD SUB PUSH2 0xBF7 JUMPI PUSH1 0x40 MLOAD PUSH32 0x8C379A000000000000000000000000000000000000000000000000000000000 DUP2 MSTORE PUSH1 0x4 ADD PUSH2 0xBEE SWAP1 PUSH2 0x142D JUMP JUMPDEST PUSH1 0x40 MLOAD DUP1 SWAP2 SUB SWAP1 REVERT JUMPDEST PUSH1 0x2 PUSH1 0x1 DUP2 SWAP1 SSTORE POP JUMP JUMPDEST PUSH0 PUSH1 0x4 SLOAD DUP3 PUSH2 0xC10 SWAP2 SWAP1 PUSH2 0x144B JUMP JUMPDEST SWAP1 POP SWAP2 SWAP1 POP JUMP JUMPDEST PUSH1 0x1 DUP1 DUP2 SWAP1 SSTORE POP JUMP JUMPDEST PUSH2 0xC28 PUSH2 0xD68 JUMP JUMPDEST PUSH20 0xFFFFFFFFFFFFFFFFFFFFFFFFFFFFFFFFFFFFFFFF AND PUSH2 0xC46 PUSH2 0xACA JUMP JUMPDEST PUSH20 0xFFFFFFFFFFFFFFFFFFFFFFFFFFFFFFFFFFFFFFFF AND EQ PUSH2 0xCA5 JUMPI PUSH2 0xC69 PUSH2 0xD68 JUMP JUMPDEST PUSH1 0x40 MLOAD PUSH32 0x118CDAA700000000000000000000000000000000000000000000000000000000 DUP2 MSTORE PUSH1 0x4 ADD PUSH2 0xC9C SWAP2 SWAP1 PUSH2 0xDAE JUMP JUMPDEST PUSH1 0x40 MLOAD DUP1 SWAP2 SUB SWAP1 REVERT JUMPDEST JUMP JUMPDEST PUSH0 DUP1 PUSH0 SWAP1 SLOAD SWAP1 PUSH2 0x100 EXP SWAP1 DIV PUSH20 0xFFFFFFFFFFFFFFFFFFFFFFFFFFFFFFFFFFFFFFFF AND SWAP1 POP DUP2 PUSH0 DUP1 PUSH2 0x100 EXP DUP2 SLOAD DUP2 PUSH20 0xFFFFFFFFFFFFFFFFFFFFFFFFFFFFFFFFFFFFFFFF MUL NOT AND SWAP1 DUP4 PUSH20 0xFFFFFFFFFFFFFFFFFFFFFFFFFFFFFFFFFFFFFFFF AND MUL OR SWAP1 SSTORE POP DUP2 PUSH20 0xFFFFFFFFFFFFFFFFFFFFFFFFFFFFFFFFFFFFFFFF AND DUP2 PUSH20 0xFFFFFFFFFFFFFFFFFFFFFFFFFFFFFFFFFFFFFFFF AND PUSH32 0x8BE0079C531659141344CD1FD0A4F28419497F9722A3DAAFE3B4186F6B6457E0 PUSH1 0x40 MLOAD PUSH1 0x40 MLOAD DUP1 SWAP2 SUB SWAP1 LOG3 POP POP JUMP JUMPDEST PUSH0 CALLER SWAP1 POP SWAP1 JUMP JUMPDEST PUSH0 PUSH20 0xFFFFFFFFFFFFFFFFFFFFFFFFFFFFFFFFFFFFFFFF DUP3 AND SWAP1 POP SWAP2 SWAP1 POP JUMP JUMPDEST PUSH0 PUSH2 0xD98 DUP3 PUSH2 0xD6F JUMP JUMPDEST SWAP1 POP SWAP2 SWAP1 POP JUMP JUMPDEST PUSH2 0xDA8 DUP2 PUSH2 0xD8E JUMP JUMPDEST DUP3 MSTORE POP POP JUMP JUMPDEST PUSH0 PUSH1 0x20 DUP3 ADD SWAP1 POP PUSH2 0xDC1 PUSH0 DUP4 ADD DUP5 PUSH2 0xD9F JUMP JUMPDEST SWAP3 SWAP2 POP POP JUMP JUMPDEST PUSH0 DUP2 SWAP1 POP SWAP2 SWAP1 POP JUMP JUMPDEST PUSH2 0xDD9 DUP2 PUSH2 0xDC7 JUMP JUMPDEST DUP3 MSTORE POP POP JUMP JUMPDEST PUSH0 PUSH1 0x20 DUP3 ADD SWAP1 POP PUSH2 0xDF2 PUSH0 DUP4 ADD DUP5 PUSH2 0xDD0 JUMP JUMPDEST SWAP3 SWAP2 POP POP JUMP JUMPDEST PUSH0 DUP1 REVERT JUMPDEST PUSH2 0xE05 DUP2 PUSH2 0xD8E JUMP JUMPDEST DUP2 EQ PUSH2 0xE0F JUMPI PUSH0 DUP1 REVERT JUMPDEST POP JUMP JUMPDEST PUSH0 DUP2 CALLDATALOAD SWAP1 POP PUSH2 0xE20 DUP2 PUSH2 0xDFC JUMP JUMPDEST SWAP3 SWAP2 POP POP JUMP JUMPDEST PUSH0 PUSH1 0x20 DUP3 DUP5 SUB SLT ISZERO PUSH2 0xE3B JUMPI PUSH2 0xE3A PUSH2 0xDF8 JUMP JUMPDEST JUMPDEST PUSH0 PUSH2 0xE48 DUP5 DUP3 DUP6 ADD PUSH2 0xE12 JUMP JUMPDEST SWAP2 POP POP SWAP3 SWAP2 POP POP JUMP JUMPDEST PUSH0 DUP2 ISZERO ISZERO SWAP1 POP SWAP2 SWAP1 POP JUMP JUMPDEST PUSH2 0xE65 DUP2 PUSH2 0xE51 JUMP JUMPDEST DUP3 MSTORE POP POP JUMP JUMPDEST PUSH0 PUSH1 0x20 DUP3 ADD SWAP1 POP PUSH2 0xE7E PUSH0 DUP4 ADD DUP5 PUSH2 0xE5C JUMP JUMPDEST SWAP3 SWAP2 POP POP JUMP JUMPDEST PUSH0 DUP2 SWAP1 POP SWAP2 SWAP1 POP JUMP JUMPDEST PUSH0 PUSH2 0xEA7 PUSH2 0xEA2 PUSH2 0xE9D DUP5 PUSH2 0xD6F JUMP JUMPDEST PUSH2 0xE84 JUMP JUMPDEST PUSH2 0xD6F JUMP JUMPDEST SWAP1 POP SWAP2 SWAP1 POP JUMP JUMPDEST PUSH0 PUSH2 0xEB8 DUP3 PUSH2 0xE8D JUMP JUMPDEST SWAP1 POP SWAP2 SWAP1 POP JUMP JUMPDEST PUSH0 PUSH2 0xEC9 DUP3 PUSH2 0xEAE JUMP JUMPDEST SWAP1 POP SWAP2 SWAP1 POP JUMP JUMPDEST PUSH2 0xED9 DUP2 PUSH2 0xEBF JUMP JUMPDEST DUP3 MSTORE POP POP JUMP JUMPDEST PUSH0 PUSH1 0x20 DUP3 ADD SWAP1 POP PUSH2 0xEF2 PUSH0 DUP4 ADD DUP5 PUSH2 0xED0 JUMP JUMPDEST SWAP3 SWAP2 POP POP JUMP JUMPDEST PUSH0 PUSH1 0xC0 DUP3 ADD SWAP1 POP PUSH2 0xF0B PUSH0 DUP4 ADD DUP10 PUSH2 0xDD0 JUMP JUMPDEST PUSH2 0xF18 PUSH1 0x20 DUP4 ADD DUP9 PUSH2 0xDD0 JUMP JUMPDEST PUSH2 0xF25 PUSH1 0x40 DUP4 ADD DUP8 PUSH2 0xDD0 JUMP JUMPDEST PUSH2 0xF32 PUSH1 0x60 DUP4 ADD DUP7 PUSH2 0xDD0 JUMP JUMPDEST PUSH2 0xF3F PUSH1 0x80 DUP4 ADD DUP6 PUSH2 0xDD0 JUMP JUMPDEST PUSH2 0xF4C PUSH1 0xA0 DUP4 ADD DUP5 PUSH2 0xDD0 JUMP JUMPDEST SWAP8 SWAP7 POP POP POP POP POP POP POP JUMP JUMPDEST PUSH0 DUP3 DUP3 MSTORE PUSH1 0x20 DUP3 ADD SWAP1 POP SWAP3 SWAP2 POP POP JUMP JUMPDEST PUSH32 0x5072652D73616C65206973206E6F742061637469766500000000000000000000 PUSH0 DUP3 ADD MSTORE POP JUMP JUMPDEST PUSH0 PUSH2 0xF9B PUSH1 0x16 DUP4 PUSH2 0xF57 JUMP JUMPDEST SWAP2 POP PUSH2 0xFA6 DUP3 PUSH2 0xF67 JUMP JUMPDEST PUSH1 0x20 DUP3 ADD SWAP1 POP SWAP2 SWAP1 POP JUMP JUMPDEST PUSH0 PUSH1 0x20 DUP3 ADD SWAP1 POP DUP2 DUP2 SUB PUSH0 DUP4 ADD MSTORE PUSH2 0xFC8 DUP2 PUSH2 0xF8F JUMP JUMPDEST SWAP1 POP SWAP2 SWAP1 POP JUMP JUMPDEST PUSH32 0x436F6E747269627574696F6E2069732062656C6F77206D696E696D756D206C69 PUSH0 DUP3 ADD MSTORE PUSH32 0x6D69740000000000000000000000000000000000000000000000000000000000 PUSH1 0x20 DUP3 ADD MSTORE POP JUMP JUMPDEST PUSH0 PUSH2 0x1029 PUSH1 0x23 DUP4 PUSH2 0xF57 JUMP JUMPDEST SWAP2 POP PUSH2 0x1034 DUP3 PUSH2 0xFCF JUMP JUMPDEST PUSH1 0x40 DUP3 ADD SWAP1 POP SWAP2 SWAP1 POP JUMP JUMPDEST PUSH0 PUSH1 0x20 DUP3 ADD SWAP1 POP DUP2 DUP2 SUB PUSH0 DUP4 ADD MSTORE PUSH2 0x1056 DUP2 PUSH2 0x101D JUMP JUMPDEST SWAP1 POP SWAP2 SWAP1 POP JUMP JUMPDEST PUSH32 0x4E487B7100000000000000000000000000000000000000000000000000000000 PUSH0 MSTORE PUSH1 0x11 PUSH1 0x4 MSTORE PUSH1 0x24 PUSH0 REVERT JUMPDEST PUSH0 PUSH2 0x1094 DUP3 PUSH2 0xDC7 JUMP JUMPDEST SWAP2 POP PUSH2 0x109F DUP4 PUSH2 0xDC7 JUMP JUMPDEST SWAP3 POP DUP3 DUP3 ADD SWAP1 POP DUP1 DUP3 GT ISZERO PUSH2 0x10B7 JUMPI PUSH2 0x10B6 PUSH2 0x105D JUMP JUMPDEST JUMPDEST SWAP3 SWAP2 POP POP JUMP JUMPDEST PUSH32 0x436F6E747269627574696F6E2065786365656473206D6178696D756D206C696D PUSH0 DUP3 ADD MSTORE PUSH32 0x6974000000000000000000000000000000000000000000000000000000000000 PUSH1 0x20 DUP3 ADD MSTORE POP JUMP JUMPDEST PUSH0 PUSH2 0x1117 PUSH1 0x22 DUP4 PUSH2 0xF57 JUMP JUMPDEST SWAP2 POP PUSH2 0x1122 DUP3 PUSH2 0x10BD JUMP JUMPDEST PUSH1 0x40 DUP3 ADD SWAP1 POP SWAP2 SWAP1 POP JUMP JUMPDEST PUSH0 PUSH1 0x20 DUP3 ADD SWAP1 POP DUP2 DUP2 SUB PUSH0 DUP4 ADD MSTORE PUSH2 0x1144 DUP2 PUSH2 0x110B JUMP JUMPDEST SWAP1 POP SWAP2 SWAP1 POP JUMP JUMPDEST PUSH0 PUSH1 0x40 DUP3 ADD SWAP1 POP PUSH2 0x115E PUSH0 DUP4 ADD DUP6 PUSH2 0xDD0 JUMP JUMPDEST PUSH2 0x116B PUSH1 0x20 DUP4 ADD DUP5 PUSH2 0xDD0 JUMP JUMPDEST SWAP4 SWAP3 POP POP POP JUMP JUMPDEST PUSH32 0x5072652D73616C65206E6F742066696E616C697A656400000000000000000000 PUSH0 DUP3 ADD MSTORE POP JUMP JUMPDEST PUSH0 PUSH2 0x11A6 PUSH1 0x16 DUP4 PUSH2 0xF57 JUMP JUMPDEST SWAP2 POP PUSH2 0x11B1 DUP3 PUSH2 0x1172 JUMP JUMPDEST PUSH1 0x20 DUP3 ADD SWAP1 POP SWAP2 SWAP1 POP JUMP JUMPDEST PUSH0 PUSH1 0x20 DUP3 ADD SWAP1 POP DUP2 DUP2 SUB PUSH0 DUP4 ADD MSTORE PUSH2 0x11D3 DUP2 PUSH2 0x119A JUMP JUMPDEST SWAP1 POP SWAP2 SWAP1 POP JUMP JUMPDEST PUSH32 0x4E6F20746F6B656E7320746F20636C61696D0000000000000000000000000000 PUSH0 DUP3 ADD MSTORE POP JUMP JUMPDEST PUSH0 PUSH2 0x120E PUSH1 0x12 DUP4 PUSH2 0xF57 JUMP JUMPDEST SWAP2 POP PUSH2 0x1219 DUP3 PUSH2 0x11DA JUMP JUMPDEST PUSH1 0x20 DUP3 ADD SWAP1 POP SWAP2 SWAP1 POP JUMP JUMPDEST PUSH0 PUSH1 0x20 DUP3 ADD SWAP1 POP DUP2 DUP2 SUB PUSH0 DUP4 ADD MSTORE PUSH2 0x123B DUP2 PUSH2 0x1202 JUMP JUMPDEST SWAP1 POP SWAP2 SWAP1 POP JUMP JUMPDEST PUSH0 PUSH1 0x40 DUP3 ADD SWAP1 POP PUSH2 0x1255 PUSH0 DUP4 ADD DUP6 PUSH2 0xD9F JUMP JUMPDEST PUSH2 0x1262 PUSH1 0x20 DUP4 ADD DUP5 PUSH2 0xDD0 JUMP JUMPDEST SWAP4 SWAP3 POP POP POP JUMP JUMPDEST PUSH2 0x1272 DUP2 PUSH2 0xE51 JUMP JUMPDEST DUP2 EQ PUSH2 0x127C JUMPI PUSH0 DUP1 REVERT JUMPDEST POP JUMP JUMPDEST PUSH0 DUP2 MLOAD SWAP1 POP PUSH2 0x128D DUP2 PUSH2 0x1269 JUMP JUMPDEST SWAP3 SWAP2 POP POP JUMP JUMPDEST PUSH0 PUSH1 0x20 DUP3 DUP5 SUB SLT ISZERO PUSH2 0x12A8 JUMPI PUSH2 0x12A7 PUSH2 0xDF8 JUMP JUMPDEST JUMPDEST PUSH0 PUSH2 0x12B5 DUP5 DUP3 DUP6 ADD PUSH2 0x127F JUMP JUMPDEST SWAP2 POP POP SWAP3 SWAP2 POP POP JUMP JUMPDEST PUSH32 0x5072652D73616C6520686173206E6F7420656E64656420796574000000000000 PUSH0 DUP3 ADD MSTORE POP JUMP JUMPDEST PUSH0 PUSH2 0x12F2 PUSH1 0x1A DUP4 PUSH2 0xF57 JUMP JUMPDEST SWAP2 POP PUSH2 0x12FD DUP3 PUSH2 0x12BE JUMP JUMPDEST PUSH1 0x20 DUP3 ADD SWAP1 POP SWAP2 SWAP1 POP JUMP JUMPDEST PUSH0 PUSH1 0x20 DUP3 ADD SWAP1 POP DUP2 DUP2 SUB PUSH0 DUP4 ADD MSTORE PUSH2 0x131F DUP2 PUSH2 0x12E6 JUMP JUMPDEST SWAP1 POP SWAP2 SWAP1 POP JUMP JUMPDEST PUSH32 0x5072652D73616C6520616C72656164792066696E616C697A6564000000000000 PUSH0 DUP3 ADD MSTORE POP JUMP JUMPDEST PUSH0 PUSH2 0x135A PUSH1 0x1A DUP4 PUSH2 0xF57 JUMP JUMPDEST SWAP2 POP PUSH2 0x1365 DUP3 PUSH2 0x1326 JUMP JUMPDEST PUSH1 0x20 DUP3 ADD SWAP1 POP SWAP2 SWAP1 POP JUMP JUMPDEST PUSH0 PUSH1 0x20 DUP3 ADD SWAP1 POP DUP2 DUP2 SUB PUSH0 DUP4 ADD MSTORE PUSH2 0x1387 DUP2 PUSH2 0x134E JUMP JUMPDEST SWAP1 POP SWAP2 SWAP1 POP JUMP JUMPDEST PUSH2 0x1397 DUP2 PUSH2 0xDC7 JUMP JUMPDEST DUP2 EQ PUSH2 0x13A1 JUMPI PUSH0 DUP1 REVERT JUMPDEST POP JUMP JUMPDEST PUSH0 DUP2 MLOAD SWAP1 POP PUSH2 0x13B2 DUP2 PUSH2 0x138E JUMP JUMPDEST SWAP3 SWAP2 POP POP JUMP JUMPDEST PUSH0 PUSH1 0x20 DUP3 DUP5 SUB SLT ISZERO PUSH2 0x13CD JUMPI PUSH2 0x13CC PUSH2 0xDF8 JUMP JUMPDEST JUMPDEST PUSH0 PUSH2 0x13DA DUP5 DUP3 DUP6 ADD PUSH2 0x13A4 JUMP JUMPDEST SWAP2 POP POP SWAP3 SWAP2 POP POP JUMP JUMPDEST PUSH32 0x5265656E7472616E637947756172643A207265656E7472616E742063616C6C00 PUSH0 DUP3 ADD MSTORE POP JUMP JUMPDEST PUSH0 PUSH2 0x1417 PUSH1 0x1F DUP4 PUSH2 0xF57 JUMP JUMPDEST SWAP2 POP PUSH2 0x1422 DUP3 PUSH2 0x13E3 JUMP JUMPDEST PUSH1 0x20 DUP3 ADD SWAP1 POP SWAP2 SWAP1 POP JUMP JUMPDEST PUSH0 PUSH1 0x20 DUP3 ADD SWAP1 POP DUP2 DUP2 SUB PUSH0 DUP4 ADD MSTORE PUSH2 0x1444 DUP2 PUSH2 0x140B JUMP JUMPDEST SWAP1 POP SWAP2 SWAP1 POP JUMP JUMPDEST PUSH0 PUSH2 0x1455 DUP3 PUSH2 0xDC7 JUMP JUMPDEST SWAP2 POP PUSH2 0x1460 DUP4 PUSH2 0xDC7 JUMP JUMPDEST SWAP3 POP DUP3 DUP3 MUL PUSH2 0x146E DUP2 PUSH2 0xDC7 JUMP JUMPDEST SWAP2 POP DUP3 DUP3 DIV DUP5 EQ DUP4 ISZERO OR PUSH2 0x1485 JUMPI PUSH2 0x1484 PUSH2 0x105D JUMP JUMPDEST JUMPDEST POP SWAP3 SWAP2 POP POP JUMP INVALID LOG2 PUSH5 0x6970667358 0x22 SLT KECCAK256 REVERT PUSH20 0x5C3572669BDE4032BCA83010CB24DE3EE0886690 CALL MUL 0x4F NOT PUSH26 0x4A9C1874C164736F6C6343000814003300000000000000000000 "
				},
				"gasEstimates": {
					"creation": {
						"codeDepositCost": "1062800",
						"executionCost": "infinite",
						"totalCost": "infinite"
					},
					"external": {
						"": "infinite",
						"buyTokens()": "infinite",
						"claimTokens()": "infinite",
						"contributions(address)": "2825",
						"endTime()": "2493",
						"finalizePreSale()": "infinite",
						"finalized()": "2488",
						"maxContribution()": "2470",
						"minContribution()": "2514",
						"owner()": "2582",
						"preSaleWallet()": "2532",
						"rate()": "2471",
						"renounceOwnership()": "infinite",
						"startTime()": "2448",
						"token()": "infinite",
						"totalContributions()": "2515",
						"transferOwnership(address)": "infinite"
					},
					"internal": {
						"getTokenAmount(uint256)": "infinite"
					}
				},
				"methodIdentifiers": {
					"buyTokens()": "d0febe4c",
					"claimTokens()": "48c54b9d",
					"contributions(address)": "42e94c90",
					"endTime()": "3197cbb6",
					"finalizePreSale()": "7376678b",
					"finalized()": "b3f05b97",
					"maxContribution()": "8d3d6576",
					"minContribution()": "aaffadf3",
					"owner()": "8da5cb5b",
					"preSaleWallet()": "1fc75e41",
					"rate()": "2c4e722e",
					"renounceOwnership()": "715018a6",
					"startTime()": "78e97925",
					"token()": "fc0c546a",
					"totalContributions()": "37c08923",
					"transferOwnership(address)": "f2fde38b"
				}
			},
			"storageLayout": {
				"storage": [
					{
						"astId": 8,
						"contract": "octo-ps.sol:PreSale",
						"label": "_owner",
						"offset": 0,
						"slot": "0",
						"type": "t_address"
					},
					{
						"astId": 158,
						"contract": "octo-ps.sol:PreSale",
						"label": "_status",
						"offset": 0,
						"slot": "1",
						"type": "t_uint256"
					},
					{
						"astId": 332,
						"contract": "octo-ps.sol:PreSale",
						"label": "token",
						"offset": 0,
						"slot": "2",
						"type": "t_contract(IERC20)290"
					},
					{
						"astId": 334,
						"contract": "octo-ps.sol:PreSale",
						"label": "preSaleWallet",
						"offset": 0,
						"slot": "3",
						"type": "t_address"
					},
					{
						"astId": 336,
						"contract": "octo-ps.sol:PreSale",
						"label": "rate",
						"offset": 0,
						"slot": "4",
						"type": "t_uint256"
					},
					{
						"astId": 338,
						"contract": "octo-ps.sol:PreSale",
						"label": "minContribution",
						"offset": 0,
						"slot": "5",
						"type": "t_uint256"
					},
					{
						"astId": 340,
						"contract": "octo-ps.sol:PreSale",
						"label": "maxContribution",
						"offset": 0,
						"slot": "6",
						"type": "t_uint256"
					},
					{
						"astId": 342,
						"contract": "octo-ps.sol:PreSale",
						"label": "startTime",
						"offset": 0,
						"slot": "7",
						"type": "t_uint256"
					},
					{
						"astId": 344,
						"contract": "octo-ps.sol:PreSale",
						"label": "endTime",
						"offset": 0,
						"slot": "8",
						"type": "t_uint256"
					},
					{
						"astId": 347,
						"contract": "octo-ps.sol:PreSale",
						"label": "finalized",
						"offset": 0,
						"slot": "9",
						"type": "t_bool"
					},
					{
						"astId": 351,
						"contract": "octo-ps.sol:PreSale",
						"label": "contributions",
						"offset": 0,
						"slot": "10",
						"type": "t_mapping(t_address,t_uint256)"
					},
					{
						"astId": 353,
						"contract": "octo-ps.sol:PreSale",
						"label": "totalContributions",
						"offset": 0,
						"slot": "11",
						"type": "t_uint256"
					}
				],
				"types": {
					"t_address": {
						"encoding": "inplace",
						"label": "address",
						"numberOfBytes": "20"
					},
					"t_bool": {
						"encoding": "inplace",
						"label": "bool",
						"numberOfBytes": "1"
					},
					"t_contract(IERC20)290": {
						"encoding": "inplace",
						"label": "contract IERC20",
						"numberOfBytes": "20"
					},
					"t_mapping(t_address,t_uint256)": {
						"encoding": "mapping",
						"key": "t_address",
						"label": "mapping(address => uint256)",
						"numberOfBytes": "32",
						"value": "t_uint256"
					},
					"t_uint256": {
						"encoding": "inplace",
						"label": "uint256",
						"numberOfBytes": "32"
					}
				}
			},
			"userdoc": {
				"kind": "user",
				"methods": {},
				"version": 1
			}
		}
	}
}