{
	"octo-ps_flattened.sol": {
		"PreSale": {
			"abi": [
				{
					"inputs": [
						{
							"internalType": "address",
							"name": "_token",
							"type": "address"
						},
						{
							"internalType": "address",
							"name": "_preSaleWallet",
							"type": "address"
						},
						{
							"internalType": "uint256",
							"name": "_rate",
							"type": "uint256"
						},
						{
							"internalType": "uint256",
							"name": "_minContribution",
							"type": "uint256"
						},
						{
							"internalType": "uint256",
							"name": "_maxContribution",
							"type": "uint256"
						},
						{
							"internalType": "uint256",
							"name": "_startTime",
							"type": "uint256"
						},
						{
							"internalType": "uint256",
							"name": "_endTime",
							"type": "uint256"
						}
					],
					"stateMutability": "nonpayable",
					"type": "constructor"
				},
				{
					"inputs": [
						{
							"internalType": "address",
							"name": "owner",
							"type": "address"
						}
					],
					"name": "OwnableInvalidOwner",
					"type": "error"
				},
				{
					"inputs": [
						{
							"internalType": "address",
							"name": "account",
							"type": "address"
						}
					],
					"name": "OwnableUnauthorizedAccount",
					"type": "error"
				},
				{
					"anonymous": false,
					"inputs": [
						{
							"indexed": false,
							"internalType": "uint256",
							"name": "currentTime",
							"type": "uint256"
						},
						{
							"indexed": false,
							"internalType": "uint256",
							"name": "startTime",
							"type": "uint256"
						},
						{
							"indexed": false,
							"internalType": "uint256",
							"name": "endTime",
							"type": "uint256"
						},
						{
							"indexed": false,
							"internalType": "uint256",
							"name": "value",
							"type": "uint256"
						},
						{
							"indexed": false,
							"internalType": "uint256",
							"name": "minContribution",
							"type": "uint256"
						},
						{
							"indexed": false,
							"internalType": "uint256",
							"name": "maxContribution",
							"type": "uint256"
						}
					],
					"name": "Debug",
					"type": "event"
				},
				{
					"anonymous": false,
					"inputs": [
						{
							"indexed": true,
							"internalType": "address",
							"name": "previousOwner",
							"type": "address"
						},
						{
							"indexed": true,
							"internalType": "address",
							"name": "newOwner",
							"type": "address"
						}
					],
					"name": "OwnershipTransferred",
					"type": "event"
				},
				{
					"anonymous": false,
					"inputs": [],
					"name": "PreSaleFinalized",
					"type": "event"
				},
				{
					"anonymous": false,
					"inputs": [
						{
							"indexed": true,
							"internalType": "address",
							"name": "purchaser",
							"type": "address"
						},
						{
							"indexed": false,
							"internalType": "uint256",
							"name": "value",
							"type": "uint256"
						},
						{
							"indexed": false,
							"internalType": "uint256",
							"name": "amount",
							"type": "uint256"
						}
					],
					"name": "TokensPurchased",
					"type": "event"
				},
				{
					"stateMutability": "payable",
					"type": "fallback"
				},
				{
					"inputs": [],
					"name": "buyTokens",
					"outputs": [],
					"stateMutability": "payable",
					"type": "function"
				},
				{
					"inputs": [],
					"name": "claimTokens",
					"outputs": [],
					"stateMutability": "nonpayable",
					"type": "function"
				},
				{
					"inputs": [
						{
							"internalType": "address",
							"name": "",
							"type": "address"
						}
					],
					"name": "contributions",
					"outputs": [
						{
							"internalType": "uint256",
							"name": "",
							"type": "uint256"
						}
					],
					"stateMutability": "view",
					"type": "function"
				},
				{
					"inputs": [],
					"name": "endTime",
					"outputs": [
						{
							"internalType": "uint256",
							"name": "",
							"type": "uint256"
						}
					],
					"stateMutability": "view",
					"type": "function"
				},
				{
					"inputs": [],
					"name": "finalizePreSale",
					"outputs": [],
					"stateMutability": "nonpayable",
					"type": "function"
				},
				{
					"inputs": [],
					"name": "finalized",
					"outputs": [
						{
							"internalType": "bool",
							"name": "",
							"type": "bool"
						}
					],
					"stateMutability": "view",
					"type": "function"
				},
				{
					"inputs": [],
					"name": "maxContribution",
					"outputs": [
						{
							"internalType": "uint256",
							"name": "",
							"type": "uint256"
						}
					],
					"stateMutability": "view",
					"type": "function"
				},
				{
					"inputs": [],
					"name": "minContribution",
					"outputs": [
						{
							"internalType": "uint256",
							"name": "",
							"type": "uint256"
						}
					],
					"stateMutability": "view",
					"type": "function"
				},
				{
					"inputs": [],
					"name": "owner",
					"outputs": [
						{
							"internalType": "address",
							"name": "",
							"type": "address"
						}
					],
					"stateMutability": "view",
					"type": "function"
				},
				{
					"inputs": [],
					"name": "preSaleWallet",
					"outputs": [
						{
							"internalType": "address",
							"name": "",
							"type": "address"
						}
					],
					"stateMutability": "view",
					"type": "function"
				},
				{
					"inputs": [],
					"name": "rate",
					"outputs": [
						{
							"internalType": "uint256",
							"name": "",
							"type": "uint256"
						}
					],
					"stateMutability": "view",
					"type": "function"
				},
				{
					"inputs": [],
					"name": "renounceOwnership",
					"outputs": [],
					"stateMutability": "nonpayable",
					"type": "function"
				},
				{
					"inputs": [],
					"name": "startTime",
					"outputs": [
						{
							"internalType": "uint256",
							"name": "",
							"type": "uint256"
						}
					],
					"stateMutability": "view",
					"type": "function"
				},
				{
					"inputs": [],
					"name": "token",
					"outputs": [
						{
							"internalType": "contract IERC20",
							"name": "",
							"type": "address"
						}
					],
					"stateMutability": "view",
					"type": "function"
				},
				{
					"inputs": [],
					"name": "totalContributions",
					"outputs": [
						{
							"internalType": "uint256",
							"name": "",
							"type": "uint256"
						}
					],
					"stateMutability": "view",
					"type": "function"
				},
				{
					"inputs": [
						{
							"internalType": "address",
							"name": "newOwner",
							"type": "address"
						}
					],
					"name": "transferOwnership",
					"outputs": [],
					"stateMutability": "nonpayable",
					"type": "function"
				},
				{
					"stateMutability": "payable",
					"type": "receive"
				}
			],
			"devdoc": {
				"errors": {
					"OwnableInvalidOwner(address)": [
						{
							"details": "The owner is not a valid owner account. (eg. `address(0)`)"
						}
					],
					"OwnableUnauthorizedAccount(address)": [
						{
							"details": "The caller account is not authorized to perform an operation."
						}
					]
				},
				"kind": "dev",
				"methods": {
					"owner()": {
						"details": "Returns the address of the current owner."
					},
					"renounceOwnership()": {
						"details": "Leaves the contract without owner. It will not be possible to call `onlyOwner` functions. Can only be called by the current owner. NOTE: Renouncing ownership will leave the contract without an owner, thereby disabling any functionality that is only available to the owner."
					},
					"transferOwnership(address)": {
						"details": "Transfers ownership of the contract to a new account (`newOwner`). Can only be called by the current owner."
					}
				},
				"version": 1
			},
			"evm": {
				"assembly": "    /* \"octo-ps_flattened.sol\":10116:13254  contract PreSale is Ownable, ReentrancyGuard {... */\n  mstore(0x40, 0x80)\n    /* \"octo-ps_flattened.sol\":10433:10438  false */\n  0x00\n    /* \"octo-ps_flattened.sol\":10409:10438  bool public finalized = false */\n  0x09\n  exp(0x0100, 0x00)\n  dup2\n  sload\n  dup2\n  0xff\n  mul\n  not\n  and\n  swap1\n  dup4\n  iszero\n  iszero\n  mul\n  or\n  swap1\n  sstore\n  pop\n    /* \"octo-ps_flattened.sol\":10794:11502  constructor(... */\n  callvalue\n  dup1\n  iszero\n  tag_1\n  jumpi\n  0x00\n  dup1\n  revert\ntag_1:\n  pop\n  mload(0x40)\n  sub(codesize, bytecodeSize)\n  dup1\n  bytecodeSize\n  dup4\n  codecopy\n  dup2\n  dup2\n  add\n  0x40\n  mstore\n  dup2\n  add\n  swap1\n  tag_2\n  swap2\n  swap1\n  tag_3\n  jump\t// in\ntag_2:\n    /* \"octo-ps_flattened.sol\":11021:11031  msg.sender */\n  caller\n    /* \"octo-ps_flattened.sol\":8257:8258  0 */\n  0x00\n    /* \"octo-ps_flattened.sol\":8233:8259  initialOwner == address(0) */\n  0xffffffffffffffffffffffffffffffffffffffff\n  and\n    /* \"octo-ps_flattened.sol\":8233:8245  initialOwner */\n  dup2\n    /* \"octo-ps_flattened.sol\":8233:8259  initialOwner == address(0) */\n  0xffffffffffffffffffffffffffffffffffffffff\n  and\n  sub\n    /* \"octo-ps_flattened.sol\":8229:8324  if (initialOwner == address(0)) {... */\n  tag_8\n  jumpi\n    /* \"octo-ps_flattened.sol\":8310:8311  0 */\n  0x00\n    /* \"octo-ps_flattened.sol\":8282:8313  OwnableInvalidOwner(address(0)) */\n  mload(0x40)\n  0x1e4fbdf700000000000000000000000000000000000000000000000000000000\n  dup2\n  mstore\n  0x04\n  add\n  tag_9\n  swap2\n  swap1\n  tag_10\n  jump\t// in\ntag_9:\n  mload(0x40)\n  dup1\n  swap2\n  sub\n  swap1\n  revert\n    /* \"octo-ps_flattened.sol\":8229:8324  if (initialOwner == address(0)) {... */\ntag_8:\n    /* \"octo-ps_flattened.sol\":8333:8365  _transferOwnership(initialOwner) */\n  tag_11\n    /* \"octo-ps_flattened.sol\":8352:8364  initialOwner */\n  dup2\n    /* \"octo-ps_flattened.sol\":8333:8351  _transferOwnership */\n  shl(0x20, tag_12)\n    /* \"octo-ps_flattened.sol\":8333:8365  _transferOwnership(initialOwner) */\n  0x20\n  shr\n  jump\t// in\ntag_11:\n    /* \"octo-ps_flattened.sol\":8185:8372  constructor(address initialOwner) {... */\n  pop\n    /* \"octo-ps_flattened.sol\":4587:4588  1 */\n  0x01\n    /* \"octo-ps_flattened.sol\":4692:4699  _status */\n  dup1\n    /* \"octo-ps_flattened.sol\":4692:4714  _status = _NOT_ENTERED */\n  dup2\n  swap1\n  sstore\n  pop\n    /* \"octo-ps_flattened.sol\":11063:11073  _startTime */\n  dup2\n    /* \"octo-ps_flattened.sol\":11052:11060  _endTime */\n  dup2\n    /* \"octo-ps_flattened.sol\":11052:11073  _endTime > _startTime */\n  gt\n    /* \"octo-ps_flattened.sol\":11044:11111  require(_endTime > _startTime, \"End time must be after start time\") */\n  tag_15\n  jumpi\n  mload(0x40)\n  0x08c379a000000000000000000000000000000000000000000000000000000000\n  dup2\n  mstore\n  0x04\n  add\n  tag_16\n  swap1\n  tag_17\n  jump\t// in\ntag_16:\n  mload(0x40)\n  dup1\n  swap2\n  sub\n  swap1\n  revert\ntag_15:\n    /* \"octo-ps_flattened.sol\":11137:11138  0 */\n  0x00\n    /* \"octo-ps_flattened.sol\":11129:11134  _rate */\n  dup6\n    /* \"octo-ps_flattened.sol\":11129:11138  _rate > 0 */\n  gt\n    /* \"octo-ps_flattened.sol\":11121:11170  require(_rate > 0, \"Rate must be greater than 0\") */\n  tag_18\n  jumpi\n  mload(0x40)\n  0x08c379a000000000000000000000000000000000000000000000000000000000\n  dup2\n  mstore\n  0x04\n  add\n  tag_19\n  swap1\n  tag_20\n  jump\t// in\ntag_19:\n  mload(0x40)\n  dup1\n  swap2\n  sub\n  swap1\n  revert\ntag_18:\n    /* \"octo-ps_flattened.sol\":11207:11208  0 */\n  0x00\n    /* \"octo-ps_flattened.sol\":11188:11204  _minContribution */\n  dup5\n    /* \"octo-ps_flattened.sol\":11188:11208  _minContribution > 0 */\n  gt\n    /* \"octo-ps_flattened.sol\":11180:11252  require(_minContribution > 0, \"Min contribution must be greater than 0\") */\n  tag_21\n  jumpi\n  mload(0x40)\n  0x08c379a000000000000000000000000000000000000000000000000000000000\n  dup2\n  mstore\n  0x04\n  add\n  tag_22\n  swap1\n  tag_23\n  jump\t// in\ntag_22:\n  mload(0x40)\n  dup1\n  swap2\n  sub\n  swap1\n  revert\ntag_21:\n    /* \"octo-ps_flattened.sol\":11278:11284  _token */\n  dup7\n    /* \"octo-ps_flattened.sol\":11263:11268  token */\n  0x02\n  0x00\n    /* \"octo-ps_flattened.sol\":11263:11285  token = IERC20(_token) */\n  0x0100\n  exp\n  dup2\n  sload\n  dup2\n  0xffffffffffffffffffffffffffffffffffffffff\n  mul\n  not\n  and\n  swap1\n  dup4\n  0xffffffffffffffffffffffffffffffffffffffff\n  and\n  mul\n  or\n  swap1\n  sstore\n  pop\n    /* \"octo-ps_flattened.sol\":11311:11325  _preSaleWallet */\n  dup6\n    /* \"octo-ps_flattened.sol\":11295:11308  preSaleWallet */\n  0x03\n  0x00\n    /* \"octo-ps_flattened.sol\":11295:11325  preSaleWallet = _preSaleWallet */\n  0x0100\n  exp\n  dup2\n  sload\n  dup2\n  0xffffffffffffffffffffffffffffffffffffffff\n  mul\n  not\n  and\n  swap1\n  dup4\n  0xffffffffffffffffffffffffffffffffffffffff\n  and\n  mul\n  or\n  swap1\n  sstore\n  pop\n    /* \"octo-ps_flattened.sol\":11342:11347  _rate */\n  dup5\n    /* \"octo-ps_flattened.sol\":11335:11339  rate */\n  0x04\n    /* \"octo-ps_flattened.sol\":11335:11347  rate = _rate */\n  dup2\n  swap1\n  sstore\n  pop\n    /* \"octo-ps_flattened.sol\":11375:11391  _minContribution */\n  dup4\n    /* \"octo-ps_flattened.sol\":11357:11372  minContribution */\n  0x05\n    /* \"octo-ps_flattened.sol\":11357:11391  minContribution = _minContribution */\n  dup2\n  swap1\n  sstore\n  pop\n    /* \"octo-ps_flattened.sol\":11419:11435  _maxContribution */\n  dup3\n    /* \"octo-ps_flattened.sol\":11401:11416  maxContribution */\n  0x06\n    /* \"octo-ps_flattened.sol\":11401:11435  maxContribution = _maxContribution */\n  dup2\n  swap1\n  sstore\n  pop\n    /* \"octo-ps_flattened.sol\":11457:11467  _startTime */\n  dup2\n    /* \"octo-ps_flattened.sol\":11445:11454  startTime */\n  0x07\n    /* \"octo-ps_flattened.sol\":11445:11467  startTime = _startTime */\n  dup2\n  swap1\n  sstore\n  pop\n    /* \"octo-ps_flattened.sol\":11487:11495  _endTime */\n  dup1\n    /* \"octo-ps_flattened.sol\":11477:11484  endTime */\n  0x08\n    /* \"octo-ps_flattened.sol\":11477:11495  endTime = _endTime */\n  dup2\n  swap1\n  sstore\n  pop\n    /* \"octo-ps_flattened.sol\":10794:11502  constructor(... */\n  pop\n  pop\n  pop\n  pop\n  pop\n  pop\n  pop\n    /* \"octo-ps_flattened.sol\":10116:13254  contract PreSale is Ownable, ReentrancyGuard {... */\n  jump(tag_24)\n    /* \"octo-ps_flattened.sol\":9872:10059  function _transferOwnership(address newOwner) internal virtual {... */\ntag_12:\n    /* \"octo-ps_flattened.sol\":9945:9961  address oldOwner */\n  0x00\n    /* \"octo-ps_flattened.sol\":9964:9970  _owner */\n  dup1\n  0x00\n  swap1\n  sload\n  swap1\n  0x0100\n  exp\n  swap1\n  div\n  0xffffffffffffffffffffffffffffffffffffffff\n  and\n    /* \"octo-ps_flattened.sol\":9945:9970  address oldOwner = _owner */\n  swap1\n  pop\n    /* \"octo-ps_flattened.sol\":9989:9997  newOwner */\n  dup2\n    /* \"octo-ps_flattened.sol\":9980:9986  _owner */\n  0x00\n  dup1\n    /* \"octo-ps_flattened.sol\":9980:9997  _owner = newOwner */\n  0x0100\n  exp\n  dup2\n  sload\n  dup2\n  0xffffffffffffffffffffffffffffffffffffffff\n  mul\n  not\n  and\n  swap1\n  dup4\n  0xffffffffffffffffffffffffffffffffffffffff\n  and\n  mul\n  or\n  swap1\n  sstore\n  pop\n    /* \"octo-ps_flattened.sol\":10043:10051  newOwner */\n  dup2\n    /* \"octo-ps_flattened.sol\":10012:10052  OwnershipTransferred(oldOwner, newOwner) */\n  0xffffffffffffffffffffffffffffffffffffffff\n  and\n    /* \"octo-ps_flattened.sol\":10033:10041  oldOwner */\n  dup2\n    /* \"octo-ps_flattened.sol\":10012:10052  OwnershipTransferred(oldOwner, newOwner) */\n  0xffffffffffffffffffffffffffffffffffffffff\n  and\n  0x8be0079c531659141344cd1fd0a4f28419497f9722a3daafe3b4186f6b6457e0\n  mload(0x40)\n  mload(0x40)\n  dup1\n  swap2\n  sub\n  swap1\n  log3\n    /* \"octo-ps_flattened.sol\":9935:10059  {... */\n  pop\n    /* \"octo-ps_flattened.sol\":9872:10059  function _transferOwnership(address newOwner) internal virtual {... */\n  pop\n  jump\t// out\n    /* \"#utility.yul\":88:205   */\ntag_27:\n    /* \"#utility.yul\":197:198   */\n  0x00\n    /* \"#utility.yul\":194:195   */\n  dup1\n    /* \"#utility.yul\":187:199   */\n  revert\n    /* \"#utility.yul\":334:460   */\ntag_29:\n    /* \"#utility.yul\":371:378   */\n  0x00\n    /* \"#utility.yul\":411:453   */\n  0xffffffffffffffffffffffffffffffffffffffff\n    /* \"#utility.yul\":404:409   */\n  dup3\n    /* \"#utility.yul\":400:454   */\n  and\n    /* \"#utility.yul\":389:454   */\n  swap1\n  pop\n    /* \"#utility.yul\":334:460   */\n  swap2\n  swap1\n  pop\n  jump\t// out\n    /* \"#utility.yul\":466:562   */\ntag_30:\n    /* \"#utility.yul\":503:510   */\n  0x00\n    /* \"#utility.yul\":532:556   */\n  tag_50\n    /* \"#utility.yul\":550:555   */\n  dup3\n    /* \"#utility.yul\":532:556   */\n  tag_29\n  jump\t// in\ntag_50:\n    /* \"#utility.yul\":521:556   */\n  swap1\n  pop\n    /* \"#utility.yul\":466:562   */\n  swap2\n  swap1\n  pop\n  jump\t// out\n    /* \"#utility.yul\":568:690   */\ntag_31:\n    /* \"#utility.yul\":641:665   */\n  tag_52\n    /* \"#utility.yul\":659:664   */\n  dup2\n    /* \"#utility.yul\":641:665   */\n  tag_30\n  jump\t// in\ntag_52:\n    /* \"#utility.yul\":634:639   */\n  dup2\n    /* \"#utility.yul\":631:666   */\n  eq\n    /* \"#utility.yul\":621:684   */\n  tag_53\n  jumpi\n    /* \"#utility.yul\":680:681   */\n  0x00\n    /* \"#utility.yul\":677:678   */\n  dup1\n    /* \"#utility.yul\":670:682   */\n  revert\n    /* \"#utility.yul\":621:684   */\ntag_53:\n    /* \"#utility.yul\":568:690   */\n  pop\n  jump\t// out\n    /* \"#utility.yul\":696:839   */\ntag_32:\n    /* \"#utility.yul\":753:758   */\n  0x00\n    /* \"#utility.yul\":784:790   */\n  dup2\n    /* \"#utility.yul\":778:791   */\n  mload\n    /* \"#utility.yul\":769:791   */\n  swap1\n  pop\n    /* \"#utility.yul\":800:833   */\n  tag_55\n    /* \"#utility.yul\":827:832   */\n  dup2\n    /* \"#utility.yul\":800:833   */\n  tag_31\n  jump\t// in\ntag_55:\n    /* \"#utility.yul\":696:839   */\n  swap3\n  swap2\n  pop\n  pop\n  jump\t// out\n    /* \"#utility.yul\":845:922   */\ntag_33:\n    /* \"#utility.yul\":882:889   */\n  0x00\n    /* \"#utility.yul\":911:916   */\n  dup2\n    /* \"#utility.yul\":900:916   */\n  swap1\n  pop\n    /* \"#utility.yul\":845:922   */\n  swap2\n  swap1\n  pop\n  jump\t// out\n    /* \"#utility.yul\":928:1050   */\ntag_34:\n    /* \"#utility.yul\":1001:1025   */\n  tag_58\n    /* \"#utility.yul\":1019:1024   */\n  dup2\n    /* \"#utility.yul\":1001:1025   */\n  tag_33\n  jump\t// in\ntag_58:\n    /* \"#utility.yul\":994:999   */\n  dup2\n    /* \"#utility.yul\":991:1026   */\n  eq\n    /* \"#utility.yul\":981:1044   */\n  tag_59\n  jumpi\n    /* \"#utility.yul\":1040:1041   */\n  0x00\n    /* \"#utility.yul\":1037:1038   */\n  dup1\n    /* \"#utility.yul\":1030:1042   */\n  revert\n    /* \"#utility.yul\":981:1044   */\ntag_59:\n    /* \"#utility.yul\":928:1050   */\n  pop\n  jump\t// out\n    /* \"#utility.yul\":1056:1199   */\ntag_35:\n    /* \"#utility.yul\":1113:1118   */\n  0x00\n    /* \"#utility.yul\":1144:1150   */\n  dup2\n    /* \"#utility.yul\":1138:1151   */\n  mload\n    /* \"#utility.yul\":1129:1151   */\n  swap1\n  pop\n    /* \"#utility.yul\":1160:1193   */\n  tag_61\n    /* \"#utility.yul\":1187:1192   */\n  dup2\n    /* \"#utility.yul\":1160:1193   */\n  tag_34\n  jump\t// in\ntag_61:\n    /* \"#utility.yul\":1056:1199   */\n  swap3\n  swap2\n  pop\n  pop\n  jump\t// out\n    /* \"#utility.yul\":1205:2496   */\ntag_3:\n    /* \"#utility.yul\":1329:1335   */\n  0x00\n    /* \"#utility.yul\":1337:1343   */\n  dup1\n    /* \"#utility.yul\":1345:1351   */\n  0x00\n    /* \"#utility.yul\":1353:1359   */\n  dup1\n    /* \"#utility.yul\":1361:1367   */\n  0x00\n    /* \"#utility.yul\":1369:1375   */\n  dup1\n    /* \"#utility.yul\":1377:1383   */\n  0x00\n    /* \"#utility.yul\":1426:1429   */\n  0xe0\n    /* \"#utility.yul\":1414:1423   */\n  dup9\n    /* \"#utility.yul\":1405:1412   */\n  dup11\n    /* \"#utility.yul\":1401:1424   */\n  sub\n    /* \"#utility.yul\":1397:1430   */\n  slt\n    /* \"#utility.yul\":1394:1514   */\n  iszero\n  tag_63\n  jumpi\n    /* \"#utility.yul\":1433:1512   */\n  tag_64\n  tag_27\n  jump\t// in\ntag_64:\n    /* \"#utility.yul\":1394:1514   */\ntag_63:\n    /* \"#utility.yul\":1553:1554   */\n  0x00\n    /* \"#utility.yul\":1578:1642   */\n  tag_65\n    /* \"#utility.yul\":1634:1641   */\n  dup11\n    /* \"#utility.yul\":1625:1631   */\n  dup3\n    /* \"#utility.yul\":1614:1623   */\n  dup12\n    /* \"#utility.yul\":1610:1632   */\n  add\n    /* \"#utility.yul\":1578:1642   */\n  tag_32\n  jump\t// in\ntag_65:\n    /* \"#utility.yul\":1568:1642   */\n  swap8\n  pop\n    /* \"#utility.yul\":1524:1652   */\n  pop\n    /* \"#utility.yul\":1691:1693   */\n  0x20\n    /* \"#utility.yul\":1717:1781   */\n  tag_66\n    /* \"#utility.yul\":1773:1780   */\n  dup11\n    /* \"#utility.yul\":1764:1770   */\n  dup3\n    /* \"#utility.yul\":1753:1762   */\n  dup12\n    /* \"#utility.yul\":1749:1771   */\n  add\n    /* \"#utility.yul\":1717:1781   */\n  tag_32\n  jump\t// in\ntag_66:\n    /* \"#utility.yul\":1707:1781   */\n  swap7\n  pop\n    /* \"#utility.yul\":1662:1791   */\n  pop\n    /* \"#utility.yul\":1830:1832   */\n  0x40\n    /* \"#utility.yul\":1856:1920   */\n  tag_67\n    /* \"#utility.yul\":1912:1919   */\n  dup11\n    /* \"#utility.yul\":1903:1909   */\n  dup3\n    /* \"#utility.yul\":1892:1901   */\n  dup12\n    /* \"#utility.yul\":1888:1910   */\n  add\n    /* \"#utility.yul\":1856:1920   */\n  tag_35\n  jump\t// in\ntag_67:\n    /* \"#utility.yul\":1846:1920   */\n  swap6\n  pop\n    /* \"#utility.yul\":1801:1930   */\n  pop\n    /* \"#utility.yul\":1969:1971   */\n  0x60\n    /* \"#utility.yul\":1995:2059   */\n  tag_68\n    /* \"#utility.yul\":2051:2058   */\n  dup11\n    /* \"#utility.yul\":2042:2048   */\n  dup3\n    /* \"#utility.yul\":2031:2040   */\n  dup12\n    /* \"#utility.yul\":2027:2049   */\n  add\n    /* \"#utility.yul\":1995:2059   */\n  tag_35\n  jump\t// in\ntag_68:\n    /* \"#utility.yul\":1985:2059   */\n  swap5\n  pop\n    /* \"#utility.yul\":1940:2069   */\n  pop\n    /* \"#utility.yul\":2108:2111   */\n  0x80\n    /* \"#utility.yul\":2135:2199   */\n  tag_69\n    /* \"#utility.yul\":2191:2198   */\n  dup11\n    /* \"#utility.yul\":2182:2188   */\n  dup3\n    /* \"#utility.yul\":2171:2180   */\n  dup12\n    /* \"#utility.yul\":2167:2189   */\n  add\n    /* \"#utility.yul\":2135:2199   */\n  tag_35\n  jump\t// in\ntag_69:\n    /* \"#utility.yul\":2125:2199   */\n  swap4\n  pop\n    /* \"#utility.yul\":2079:2209   */\n  pop\n    /* \"#utility.yul\":2248:2251   */\n  0xa0\n    /* \"#utility.yul\":2275:2339   */\n  tag_70\n    /* \"#utility.yul\":2331:2338   */\n  dup11\n    /* \"#utility.yul\":2322:2328   */\n  dup3\n    /* \"#utility.yul\":2311:2320   */\n  dup12\n    /* \"#utility.yul\":2307:2329   */\n  add\n    /* \"#utility.yul\":2275:2339   */\n  tag_35\n  jump\t// in\ntag_70:\n    /* \"#utility.yul\":2265:2339   */\n  swap3\n  pop\n    /* \"#utility.yul\":2219:2349   */\n  pop\n    /* \"#utility.yul\":2388:2391   */\n  0xc0\n    /* \"#utility.yul\":2415:2479   */\n  tag_71\n    /* \"#utility.yul\":2471:2478   */\n  dup11\n    /* \"#utility.yul\":2462:2468   */\n  dup3\n    /* \"#utility.yul\":2451:2460   */\n  dup12\n    /* \"#utility.yul\":2447:2469   */\n  add\n    /* \"#utility.yul\":2415:2479   */\n  tag_35\n  jump\t// in\ntag_71:\n    /* \"#utility.yul\":2405:2479   */\n  swap2\n  pop\n    /* \"#utility.yul\":2359:2489   */\n  pop\n    /* \"#utility.yul\":1205:2496   */\n  swap3\n  swap6\n  swap9\n  swap2\n  swap5\n  swap8\n  pop\n  swap3\n  swap6\n  pop\n  jump\t// out\n    /* \"#utility.yul\":2502:2620   */\ntag_36:\n    /* \"#utility.yul\":2589:2613   */\n  tag_73\n    /* \"#utility.yul\":2607:2612   */\n  dup2\n    /* \"#utility.yul\":2589:2613   */\n  tag_30\n  jump\t// in\ntag_73:\n    /* \"#utility.yul\":2584:2587   */\n  dup3\n    /* \"#utility.yul\":2577:2614   */\n  mstore\n    /* \"#utility.yul\":2502:2620   */\n  pop\n  pop\n  jump\t// out\n    /* \"#utility.yul\":2626:2848   */\ntag_10:\n    /* \"#utility.yul\":2719:2723   */\n  0x00\n    /* \"#utility.yul\":2757:2759   */\n  0x20\n    /* \"#utility.yul\":2746:2755   */\n  dup3\n    /* \"#utility.yul\":2742:2760   */\n  add\n    /* \"#utility.yul\":2734:2760   */\n  swap1\n  pop\n    /* \"#utility.yul\":2770:2841   */\n  tag_75\n    /* \"#utility.yul\":2838:2839   */\n  0x00\n    /* \"#utility.yul\":2827:2836   */\n  dup4\n    /* \"#utility.yul\":2823:2840   */\n  add\n    /* \"#utility.yul\":2814:2820   */\n  dup5\n    /* \"#utility.yul\":2770:2841   */\n  tag_36\n  jump\t// in\ntag_75:\n    /* \"#utility.yul\":2626:2848   */\n  swap3\n  swap2\n  pop\n  pop\n  jump\t// out\n    /* \"#utility.yul\":2854:3023   */\ntag_37:\n    /* \"#utility.yul\":2938:2949   */\n  0x00\n    /* \"#utility.yul\":2972:2978   */\n  dup3\n    /* \"#utility.yul\":2967:2970   */\n  dup3\n    /* \"#utility.yul\":2960:2979   */\n  mstore\n    /* \"#utility.yul\":3012:3016   */\n  0x20\n    /* \"#utility.yul\":3007:3010   */\n  dup3\n    /* \"#utility.yul\":3003:3017   */\n  add\n    /* \"#utility.yul\":2988:3017   */\n  swap1\n  pop\n    /* \"#utility.yul\":2854:3023   */\n  swap3\n  swap2\n  pop\n  pop\n  jump\t// out\n    /* \"#utility.yul\":3029:3249   */\ntag_38:\n    /* \"#utility.yul\":3169:3203   */\n  0x456e642074696d65206d7573742062652061667465722073746172742074696d\n    /* \"#utility.yul\":3165:3166   */\n  0x00\n    /* \"#utility.yul\":3157:3163   */\n  dup3\n    /* \"#utility.yul\":3153:3167   */\n  add\n    /* \"#utility.yul\":3146:3204   */\n  mstore\n    /* \"#utility.yul\":3238:3241   */\n  0x6500000000000000000000000000000000000000000000000000000000000000\n    /* \"#utility.yul\":3233:3235   */\n  0x20\n    /* \"#utility.yul\":3225:3231   */\n  dup3\n    /* \"#utility.yul\":3221:3236   */\n  add\n    /* \"#utility.yul\":3214:3242   */\n  mstore\n    /* \"#utility.yul\":3029:3249   */\n  pop\n  jump\t// out\n    /* \"#utility.yul\":3255:3621   */\ntag_39:\n    /* \"#utility.yul\":3397:3400   */\n  0x00\n    /* \"#utility.yul\":3418:3485   */\n  tag_79\n    /* \"#utility.yul\":3482:3484   */\n  0x21\n    /* \"#utility.yul\":3477:3480   */\n  dup4\n    /* \"#utility.yul\":3418:3485   */\n  tag_37\n  jump\t// in\ntag_79:\n    /* \"#utility.yul\":3411:3485   */\n  swap2\n  pop\n    /* \"#utility.yul\":3494:3587   */\n  tag_80\n    /* \"#utility.yul\":3583:3586   */\n  dup3\n    /* \"#utility.yul\":3494:3587   */\n  tag_38\n  jump\t// in\ntag_80:\n    /* \"#utility.yul\":3612:3614   */\n  0x40\n    /* \"#utility.yul\":3607:3610   */\n  dup3\n    /* \"#utility.yul\":3603:3615   */\n  add\n    /* \"#utility.yul\":3596:3615   */\n  swap1\n  pop\n    /* \"#utility.yul\":3255:3621   */\n  swap2\n  swap1\n  pop\n  jump\t// out\n    /* \"#utility.yul\":3627:4046   */\ntag_17:\n    /* \"#utility.yul\":3793:3797   */\n  0x00\n    /* \"#utility.yul\":3831:3833   */\n  0x20\n    /* \"#utility.yul\":3820:3829   */\n  dup3\n    /* \"#utility.yul\":3816:3834   */\n  add\n    /* \"#utility.yul\":3808:3834   */\n  swap1\n  pop\n    /* \"#utility.yul\":3880:3889   */\n  dup2\n    /* \"#utility.yul\":3874:3878   */\n  dup2\n    /* \"#utility.yul\":3870:3890   */\n  sub\n    /* \"#utility.yul\":3866:3867   */\n  0x00\n    /* \"#utility.yul\":3855:3864   */\n  dup4\n    /* \"#utility.yul\":3851:3868   */\n  add\n    /* \"#utility.yul\":3844:3891   */\n  mstore\n    /* \"#utility.yul\":3908:4039   */\n  tag_82\n    /* \"#utility.yul\":4034:4038   */\n  dup2\n    /* \"#utility.yul\":3908:4039   */\n  tag_39\n  jump\t// in\ntag_82:\n    /* \"#utility.yul\":3900:4039   */\n  swap1\n  pop\n    /* \"#utility.yul\":3627:4046   */\n  swap2\n  swap1\n  pop\n  jump\t// out\n    /* \"#utility.yul\":4052:4229   */\ntag_40:\n    /* \"#utility.yul\":4192:4221   */\n  0x52617465206d7573742062652067726561746572207468616e20300000000000\n    /* \"#utility.yul\":4188:4189   */\n  0x00\n    /* \"#utility.yul\":4180:4186   */\n  dup3\n    /* \"#utility.yul\":4176:4190   */\n  add\n    /* \"#utility.yul\":4169:4222   */\n  mstore\n    /* \"#utility.yul\":4052:4229   */\n  pop\n  jump\t// out\n    /* \"#utility.yul\":4235:4601   */\ntag_41:\n    /* \"#utility.yul\":4377:4380   */\n  0x00\n    /* \"#utility.yul\":4398:4465   */\n  tag_85\n    /* \"#utility.yul\":4462:4464   */\n  0x1b\n    /* \"#utility.yul\":4457:4460   */\n  dup4\n    /* \"#utility.yul\":4398:4465   */\n  tag_37\n  jump\t// in\ntag_85:\n    /* \"#utility.yul\":4391:4465   */\n  swap2\n  pop\n    /* \"#utility.yul\":4474:4567   */\n  tag_86\n    /* \"#utility.yul\":4563:4566   */\n  dup3\n    /* \"#utility.yul\":4474:4567   */\n  tag_40\n  jump\t// in\ntag_86:\n    /* \"#utility.yul\":4592:4594   */\n  0x20\n    /* \"#utility.yul\":4587:4590   */\n  dup3\n    /* \"#utility.yul\":4583:4595   */\n  add\n    /* \"#utility.yul\":4576:4595   */\n  swap1\n  pop\n    /* \"#utility.yul\":4235:4601   */\n  swap2\n  swap1\n  pop\n  jump\t// out\n    /* \"#utility.yul\":4607:5026   */\ntag_20:\n    /* \"#utility.yul\":4773:4777   */\n  0x00\n    /* \"#utility.yul\":4811:4813   */\n  0x20\n    /* \"#utility.yul\":4800:4809   */\n  dup3\n    /* \"#utility.yul\":4796:4814   */\n  add\n    /* \"#utility.yul\":4788:4814   */\n  swap1\n  pop\n    /* \"#utility.yul\":4860:4869   */\n  dup2\n    /* \"#utility.yul\":4854:4858   */\n  dup2\n    /* \"#utility.yul\":4850:4870   */\n  sub\n    /* \"#utility.yul\":4846:4847   */\n  0x00\n    /* \"#utility.yul\":4835:4844   */\n  dup4\n    /* \"#utility.yul\":4831:4848   */\n  add\n    /* \"#utility.yul\":4824:4871   */\n  mstore\n    /* \"#utility.yul\":4888:5019   */\n  tag_88\n    /* \"#utility.yul\":5014:5018   */\n  dup2\n    /* \"#utility.yul\":4888:5019   */\n  tag_41\n  jump\t// in\ntag_88:\n    /* \"#utility.yul\":4880:5019   */\n  swap1\n  pop\n    /* \"#utility.yul\":4607:5026   */\n  swap2\n  swap1\n  pop\n  jump\t// out\n    /* \"#utility.yul\":5032:5258   */\ntag_42:\n    /* \"#utility.yul\":5172:5206   */\n  0x4d696e20636f6e747269627574696f6e206d7573742062652067726561746572\n    /* \"#utility.yul\":5168:5169   */\n  0x00\n    /* \"#utility.yul\":5160:5166   */\n  dup3\n    /* \"#utility.yul\":5156:5170   */\n  add\n    /* \"#utility.yul\":5149:5207   */\n  mstore\n    /* \"#utility.yul\":5241:5250   */\n  0x207468616e203000000000000000000000000000000000000000000000000000\n    /* \"#utility.yul\":5236:5238   */\n  0x20\n    /* \"#utility.yul\":5228:5234   */\n  dup3\n    /* \"#utility.yul\":5224:5239   */\n  add\n    /* \"#utility.yul\":5217:5251   */\n  mstore\n    /* \"#utility.yul\":5032:5258   */\n  pop\n  jump\t// out\n    /* \"#utility.yul\":5264:5630   */\ntag_43:\n    /* \"#utility.yul\":5406:5409   */\n  0x00\n    /* \"#utility.yul\":5427:5494   */\n  tag_91\n    /* \"#utility.yul\":5491:5493   */\n  0x27\n    /* \"#utility.yul\":5486:5489   */\n  dup4\n    /* \"#utility.yul\":5427:5494   */\n  tag_37\n  jump\t// in\ntag_91:\n    /* \"#utility.yul\":5420:5494   */\n  swap2\n  pop\n    /* \"#utility.yul\":5503:5596   */\n  tag_92\n    /* \"#utility.yul\":5592:5595   */\n  dup3\n    /* \"#utility.yul\":5503:5596   */\n  tag_42\n  jump\t// in\ntag_92:\n    /* \"#utility.yul\":5621:5623   */\n  0x40\n    /* \"#utility.yul\":5616:5619   */\n  dup3\n    /* \"#utility.yul\":5612:5624   */\n  add\n    /* \"#utility.yul\":5605:5624   */\n  swap1\n  pop\n    /* \"#utility.yul\":5264:5630   */\n  swap2\n  swap1\n  pop\n  jump\t// out\n    /* \"#utility.yul\":5636:6055   */\ntag_23:\n    /* \"#utility.yul\":5802:5806   */\n  0x00\n    /* \"#utility.yul\":5840:5842   */\n  0x20\n    /* \"#utility.yul\":5829:5838   */\n  dup3\n    /* \"#utility.yul\":5825:5843   */\n  add\n    /* \"#utility.yul\":5817:5843   */\n  swap1\n  pop\n    /* \"#utility.yul\":5889:5898   */\n  dup2\n    /* \"#utility.yul\":5883:5887   */\n  dup2\n    /* \"#utility.yul\":5879:5899   */\n  sub\n    /* \"#utility.yul\":5875:5876   */\n  0x00\n    /* \"#utility.yul\":5864:5873   */\n  dup4\n    /* \"#utility.yul\":5860:5877   */\n  add\n    /* \"#utility.yul\":5853:5900   */\n  mstore\n    /* \"#utility.yul\":5917:6048   */\n  tag_94\n    /* \"#utility.yul\":6043:6047   */\n  dup2\n    /* \"#utility.yul\":5917:6048   */\n  tag_43\n  jump\t// in\ntag_94:\n    /* \"#utility.yul\":5909:6048   */\n  swap1\n  pop\n    /* \"#utility.yul\":5636:6055   */\n  swap2\n  swap1\n  pop\n  jump\t// out\n    /* \"octo-ps_flattened.sol\":10116:13254  contract PreSale is Ownable, ReentrancyGuard {... */\ntag_24:\n  dataSize(sub_0)\n  dup1\n  dataOffset(sub_0)\n  0x00\n  codecopy\n  0x00\n  return\nstop\n\nsub_0: assembly {\n        /* \"octo-ps_flattened.sol\":10116:13254  contract PreSale is Ownable, ReentrancyGuard {... */\n      mstore(0x40, 0x80)\n      jumpi(tag_1, lt(calldatasize, 0x04))\n      shr(0xe0, calldataload(0x00))\n      dup1\n      0x78e97925\n      gt\n      tag_19\n      jumpi\n      dup1\n      0xb3f05b97\n      gt\n      tag_20\n      jumpi\n      dup1\n      0xb3f05b97\n      eq\n      tag_15\n      jumpi\n      dup1\n      0xd0febe4c\n      eq\n      tag_16\n      jumpi\n      dup1\n      0xf2fde38b\n      eq\n      tag_17\n      jumpi\n      dup1\n      0xfc0c546a\n      eq\n      tag_18\n      jumpi\n      jump(tag_2)\n    tag_20:\n      dup1\n      0x78e97925\n      eq\n      tag_11\n      jumpi\n      dup1\n      0x8d3d6576\n      eq\n      tag_12\n      jumpi\n      dup1\n      0x8da5cb5b\n      eq\n      tag_13\n      jumpi\n      dup1\n      0xaaffadf3\n      eq\n      tag_14\n      jumpi\n      jump(tag_2)\n    tag_19:\n      dup1\n      0x42e94c90\n      gt\n      tag_21\n      jumpi\n      dup1\n      0x42e94c90\n      eq\n      tag_7\n      jumpi\n      dup1\n      0x48c54b9d\n      eq\n      tag_8\n      jumpi\n      dup1\n      0x715018a6\n      eq\n      tag_9\n      jumpi\n      dup1\n      0x7376678b\n      eq\n      tag_10\n      jumpi\n      jump(tag_2)\n    tag_21:\n      dup1\n      0x1fc75e41\n      eq\n      tag_3\n      jumpi\n      dup1\n      0x2c4e722e\n      eq\n      tag_4\n      jumpi\n      dup1\n      0x3197cbb6\n      eq\n      tag_5\n      jumpi\n      dup1\n      0x37c08923\n      eq\n      tag_6\n      jumpi\n      jump(tag_2)\n    tag_1:\n      jumpi(tag_2, calldatasize)\n        /* \"octo-ps_flattened.sol\":11545:11556  buyTokens() */\n      tag_24\n        /* \"octo-ps_flattened.sol\":11545:11554  buyTokens */\n      tag_25\n        /* \"octo-ps_flattened.sol\":11545:11556  buyTokens() */\n      jump\t// in\n    tag_24:\n        /* \"octo-ps_flattened.sol\":10116:13254  contract PreSale is Ownable, ReentrancyGuard {... */\n      stop\n    tag_2:\n        /* \"octo-ps_flattened.sol\":11607:11618  buyTokens() */\n      tag_28\n        /* \"octo-ps_flattened.sol\":11607:11616  buyTokens */\n      tag_25\n        /* \"octo-ps_flattened.sol\":11607:11618  buyTokens() */\n      jump\t// in\n    tag_28:\n        /* \"octo-ps_flattened.sol\":10116:13254  contract PreSale is Ownable, ReentrancyGuard {... */\n      stop\n        /* \"octo-ps_flattened.sol\":10192:10220  address public preSaleWallet */\n    tag_3:\n      callvalue\n      dup1\n      iszero\n      tag_29\n      jumpi\n      0x00\n      dup1\n      revert\n    tag_29:\n      pop\n      tag_30\n      tag_31\n      jump\t// in\n    tag_30:\n      mload(0x40)\n      tag_32\n      swap2\n      swap1\n      tag_33\n      jump\t// in\n    tag_32:\n      mload(0x40)\n      dup1\n      swap2\n      sub\n      swap1\n      return\n        /* \"octo-ps_flattened.sol\":10226:10245  uint256 public rate */\n    tag_4:\n      callvalue\n      dup1\n      iszero\n      tag_34\n      jumpi\n      0x00\n      dup1\n      revert\n    tag_34:\n      pop\n      tag_35\n      tag_36\n      jump\t// in\n    tag_35:\n      mload(0x40)\n      tag_37\n      swap2\n      swap1\n      tag_38\n      jump\t// in\n    tag_37:\n      mload(0x40)\n      dup1\n      swap2\n      sub\n      swap1\n      return\n        /* \"octo-ps_flattened.sol\":10381:10403  uint256 public endTime */\n    tag_5:\n      callvalue\n      dup1\n      iszero\n      tag_39\n      jumpi\n      0x00\n      dup1\n      revert\n    tag_39:\n      pop\n      tag_40\n      tag_41\n      jump\t// in\n    tag_40:\n      mload(0x40)\n      tag_42\n      swap2\n      swap1\n      tag_38\n      jump\t// in\n    tag_42:\n      mload(0x40)\n      dup1\n      swap2\n      sub\n      swap1\n      return\n        /* \"octo-ps_flattened.sol\":10499:10532  uint256 public totalContributions */\n    tag_6:\n      callvalue\n      dup1\n      iszero\n      tag_43\n      jumpi\n      0x00\n      dup1\n      revert\n    tag_43:\n      pop\n      tag_44\n      tag_45\n      jump\t// in\n    tag_44:\n      mload(0x40)\n      tag_46\n      swap2\n      swap1\n      tag_38\n      jump\t// in\n    tag_46:\n      mload(0x40)\n      dup1\n      swap2\n      sub\n      swap1\n      return\n        /* \"octo-ps_flattened.sol\":10445:10493  mapping(address => uint256) public contributions */\n    tag_7:\n      callvalue\n      dup1\n      iszero\n      tag_47\n      jumpi\n      0x00\n      dup1\n      revert\n    tag_47:\n      pop\n      tag_48\n      0x04\n      dup1\n      calldatasize\n      sub\n      dup2\n      add\n      swap1\n      tag_49\n      swap2\n      swap1\n      tag_50\n      jump\t// in\n    tag_49:\n      tag_51\n      jump\t// in\n    tag_48:\n      mload(0x40)\n      tag_52\n      swap2\n      swap1\n      tag_38\n      jump\t// in\n    tag_52:\n      mload(0x40)\n      dup1\n      swap2\n      sub\n      swap1\n      return\n        /* \"octo-ps_flattened.sol\":12914:13252  function claimTokens() external nonReentrant {... */\n    tag_8:\n      callvalue\n      dup1\n      iszero\n      tag_53\n      jumpi\n      0x00\n      dup1\n      revert\n    tag_53:\n      pop\n      tag_54\n      tag_55\n      jump\t// in\n    tag_54:\n      stop\n        /* \"octo-ps_flattened.sol\":9253:9354  function renounceOwnership() public virtual onlyOwner {... */\n    tag_9:\n      callvalue\n      dup1\n      iszero\n      tag_56\n      jumpi\n      0x00\n      dup1\n      revert\n    tag_56:\n      pop\n      tag_57\n      tag_58\n      jump\t// in\n    tag_57:\n      stop\n        /* \"octo-ps_flattened.sol\":12433:12908  function finalizePreSale() external onlyOwner {... */\n    tag_10:\n      callvalue\n      dup1\n      iszero\n      tag_59\n      jumpi\n      0x00\n      dup1\n      revert\n    tag_59:\n      pop\n      tag_60\n      tag_61\n      jump\t// in\n    tag_60:\n      stop\n        /* \"octo-ps_flattened.sol\":10351:10375  uint256 public startTime */\n    tag_11:\n      callvalue\n      dup1\n      iszero\n      tag_62\n      jumpi\n      0x00\n      dup1\n      revert\n    tag_62:\n      pop\n      tag_63\n      tag_64\n      jump\t// in\n    tag_63:\n      mload(0x40)\n      tag_65\n      swap2\n      swap1\n      tag_38\n      jump\t// in\n    tag_65:\n      mload(0x40)\n      dup1\n      swap2\n      sub\n      swap1\n      return\n        /* \"octo-ps_flattened.sol\":10315:10345  uint256 public maxContribution */\n    tag_12:\n      callvalue\n      dup1\n      iszero\n      tag_66\n      jumpi\n      0x00\n      dup1\n      revert\n    tag_66:\n      pop\n      tag_67\n      tag_68\n      jump\t// in\n    tag_67:\n      mload(0x40)\n      tag_69\n      swap2\n      swap1\n      tag_38\n      jump\t// in\n    tag_69:\n      mload(0x40)\n      dup1\n      swap2\n      sub\n      swap1\n      return\n        /* \"octo-ps_flattened.sol\":8598:8683  function owner() public view virtual returns (address) {... */\n    tag_13:\n      callvalue\n      dup1\n      iszero\n      tag_70\n      jumpi\n      0x00\n      dup1\n      revert\n    tag_70:\n      pop\n      tag_71\n      tag_72\n      jump\t// in\n    tag_71:\n      mload(0x40)\n      tag_73\n      swap2\n      swap1\n      tag_33\n      jump\t// in\n    tag_73:\n      mload(0x40)\n      dup1\n      swap2\n      sub\n      swap1\n      return\n        /* \"octo-ps_flattened.sol\":10279:10309  uint256 public minContribution */\n    tag_14:\n      callvalue\n      dup1\n      iszero\n      tag_74\n      jumpi\n      0x00\n      dup1\n      revert\n    tag_74:\n      pop\n      tag_75\n      tag_76\n      jump\t// in\n    tag_75:\n      mload(0x40)\n      tag_77\n      swap2\n      swap1\n      tag_38\n      jump\t// in\n    tag_77:\n      mload(0x40)\n      dup1\n      swap2\n      sub\n      swap1\n      return\n        /* \"octo-ps_flattened.sol\":10409:10438  bool public finalized = false */\n    tag_15:\n      callvalue\n      dup1\n      iszero\n      tag_78\n      jumpi\n      0x00\n      dup1\n      revert\n    tag_78:\n      pop\n      tag_79\n      tag_80\n      jump\t// in\n    tag_79:\n      mload(0x40)\n      tag_81\n      swap2\n      swap1\n      tag_82\n      jump\t// in\n    tag_81:\n      mload(0x40)\n      dup1\n      swap2\n      sub\n      swap1\n      return\n        /* \"octo-ps_flattened.sol\":11631:12306  function buyTokens() public nonReentrant payable {... */\n    tag_16:\n      tag_83\n      tag_25\n      jump\t// in\n    tag_83:\n      stop\n        /* \"octo-ps_flattened.sol\":9503:9718  function transferOwnership(address newOwner) public virtual onlyOwner {... */\n    tag_17:\n      callvalue\n      dup1\n      iszero\n      tag_84\n      jumpi\n      0x00\n      dup1\n      revert\n    tag_84:\n      pop\n      tag_85\n      0x04\n      dup1\n      calldatasize\n      sub\n      dup2\n      add\n      swap1\n      tag_86\n      swap2\n      swap1\n      tag_50\n      jump\t// in\n    tag_86:\n      tag_87\n      jump\t// in\n    tag_85:\n      stop\n        /* \"octo-ps_flattened.sol\":10167:10186  IERC20 public token */\n    tag_18:\n      callvalue\n      dup1\n      iszero\n      tag_88\n      jumpi\n      0x00\n      dup1\n      revert\n    tag_88:\n      pop\n      tag_89\n      tag_90\n      jump\t// in\n    tag_89:\n      mload(0x40)\n      tag_91\n      swap2\n      swap1\n      tag_92\n      jump\t// in\n    tag_91:\n      mload(0x40)\n      dup1\n      swap2\n      sub\n      swap1\n      return\n        /* \"octo-ps_flattened.sol\":11631:12306  function buyTokens() public nonReentrant payable {... */\n    tag_25:\n        /* \"octo-ps_flattened.sol\":5132:5153  _nonReentrantBefore() */\n      tag_94\n        /* \"octo-ps_flattened.sol\":5132:5151  _nonReentrantBefore */\n      tag_95\n        /* \"octo-ps_flattened.sol\":5132:5153  _nonReentrantBefore() */\n      jump\t// in\n    tag_94:\n        /* \"octo-ps_flattened.sol\":11695:11782  Debug(block.timestamp, startTime, endTime, msg.value, minContribution, maxContribution) */\n      0xc09d2df50ba063522fd6763cfb9c99e8e93dee49b8af5450c70a00268ba281b2\n        /* \"octo-ps_flattened.sol\":11701:11716  block.timestamp */\n      timestamp\n        /* \"octo-ps_flattened.sol\":11718:11727  startTime */\n      sload(0x07)\n        /* \"octo-ps_flattened.sol\":11729:11736  endTime */\n      sload(0x08)\n        /* \"octo-ps_flattened.sol\":11738:11747  msg.value */\n      callvalue\n        /* \"octo-ps_flattened.sol\":11749:11764  minContribution */\n      sload(0x05)\n        /* \"octo-ps_flattened.sol\":11766:11781  maxContribution */\n      sload(0x06)\n        /* \"octo-ps_flattened.sol\":11695:11782  Debug(block.timestamp, startTime, endTime, msg.value, minContribution, maxContribution) */\n      mload(0x40)\n      tag_97\n      swap7\n      swap6\n      swap5\n      swap4\n      swap3\n      swap2\n      swap1\n      tag_98\n      jump\t// in\n    tag_97:\n      mload(0x40)\n      dup1\n      swap2\n      sub\n      swap1\n      log1\n        /* \"octo-ps_flattened.sol\":11820:11829  startTime */\n      sload(0x07)\n        /* \"octo-ps_flattened.sol\":11801:11816  block.timestamp */\n      timestamp\n        /* \"octo-ps_flattened.sol\":11801:11829  block.timestamp >= startTime */\n      lt\n      iszero\n        /* \"octo-ps_flattened.sol\":11801:11859  block.timestamp >= startTime && block.timestamp <= endTime */\n      dup1\n      iszero\n      tag_99\n      jumpi\n      pop\n        /* \"octo-ps_flattened.sol\":11852:11859  endTime */\n      sload(0x08)\n        /* \"octo-ps_flattened.sol\":11833:11848  block.timestamp */\n      timestamp\n        /* \"octo-ps_flattened.sol\":11833:11859  block.timestamp <= endTime */\n      gt\n      iszero\n        /* \"octo-ps_flattened.sol\":11801:11859  block.timestamp >= startTime && block.timestamp <= endTime */\n    tag_99:\n        /* \"octo-ps_flattened.sol\":11793:11886  require(block.timestamp >= startTime && block.timestamp <= endTime, \"Pre-sale is not active\") */\n      tag_100\n      jumpi\n      mload(0x40)\n      0x08c379a000000000000000000000000000000000000000000000000000000000\n      dup2\n      mstore\n      0x04\n      add\n      tag_101\n      swap1\n      tag_102\n      jump\t// in\n    tag_101:\n      mload(0x40)\n      dup1\n      swap2\n      sub\n      swap1\n      revert\n    tag_100:\n        /* \"octo-ps_flattened.sol\":11917:11932  minContribution */\n      sload(0x05)\n        /* \"octo-ps_flattened.sol\":11904:11913  msg.value */\n      callvalue\n        /* \"octo-ps_flattened.sol\":11904:11932  msg.value >= minContribution */\n      lt\n      iszero\n        /* \"octo-ps_flattened.sol\":11896:11972  require(msg.value >= minContribution, \"Contribution is below minimum limit\") */\n      tag_103\n      jumpi\n      mload(0x40)\n      0x08c379a000000000000000000000000000000000000000000000000000000000\n      dup2\n      mstore\n      0x04\n      add\n      tag_104\n      swap1\n      tag_105\n      jump\t// in\n    tag_104:\n      mload(0x40)\n      dup1\n      swap2\n      sub\n      swap1\n      revert\n    tag_103:\n        /* \"octo-ps_flattened.sol\":12031:12046  maxContribution */\n      sload(0x06)\n        /* \"octo-ps_flattened.sol\":12018:12027  msg.value */\n      callvalue\n        /* \"octo-ps_flattened.sol\":11990:12003  contributions */\n      0x0a\n        /* \"octo-ps_flattened.sol\":11990:12015  contributions[msg.sender] */\n      0x00\n        /* \"octo-ps_flattened.sol\":12004:12014  msg.sender */\n      caller\n        /* \"octo-ps_flattened.sol\":11990:12015  contributions[msg.sender] */\n      0xffffffffffffffffffffffffffffffffffffffff\n      and\n      0xffffffffffffffffffffffffffffffffffffffff\n      and\n      dup2\n      mstore\n      0x20\n      add\n      swap1\n      dup2\n      mstore\n      0x20\n      add\n      0x00\n      keccak256\n      sload\n        /* \"octo-ps_flattened.sol\":11990:12027  contributions[msg.sender] + msg.value */\n      tag_106\n      swap2\n      swap1\n      tag_107\n      jump\t// in\n    tag_106:\n        /* \"octo-ps_flattened.sol\":11990:12046  contributions[msg.sender] + msg.value <= maxContribution */\n      gt\n      iszero\n        /* \"octo-ps_flattened.sol\":11982:12085  require(contributions[msg.sender] + msg.value <= maxContribution, \"Contribution exceeds maximum limit\") */\n      tag_108\n      jumpi\n      mload(0x40)\n      0x08c379a000000000000000000000000000000000000000000000000000000000\n      dup2\n      mstore\n      0x04\n      add\n      tag_109\n      swap1\n      tag_110\n      jump\t// in\n    tag_109:\n      mload(0x40)\n      dup1\n      swap2\n      sub\n      swap1\n      revert\n    tag_108:\n        /* \"octo-ps_flattened.sol\":12096:12115  uint256 tokenAmount */\n      0x00\n        /* \"octo-ps_flattened.sol\":12118:12143  getTokenAmount(msg.value) */\n      tag_111\n        /* \"octo-ps_flattened.sol\":12133:12142  msg.value */\n      callvalue\n        /* \"octo-ps_flattened.sol\":12118:12132  getTokenAmount */\n      tag_112\n        /* \"octo-ps_flattened.sol\":12118:12143  getTokenAmount(msg.value) */\n      jump\t// in\n    tag_111:\n        /* \"octo-ps_flattened.sol\":12096:12143  uint256 tokenAmount = getTokenAmount(msg.value) */\n      swap1\n      pop\n        /* \"octo-ps_flattened.sol\":12182:12191  msg.value */\n      callvalue\n        /* \"octo-ps_flattened.sol\":12153:12166  contributions */\n      0x0a\n        /* \"octo-ps_flattened.sol\":12153:12178  contributions[msg.sender] */\n      0x00\n        /* \"octo-ps_flattened.sol\":12167:12177  msg.sender */\n      caller\n        /* \"octo-ps_flattened.sol\":12153:12178  contributions[msg.sender] */\n      0xffffffffffffffffffffffffffffffffffffffff\n      and\n      0xffffffffffffffffffffffffffffffffffffffff\n      and\n      dup2\n      mstore\n      0x20\n      add\n      swap1\n      dup2\n      mstore\n      0x20\n      add\n      0x00\n      keccak256\n      0x00\n        /* \"octo-ps_flattened.sol\":12153:12191  contributions[msg.sender] += msg.value */\n      dup3\n      dup3\n      sload\n      tag_113\n      swap2\n      swap1\n      tag_107\n      jump\t// in\n    tag_113:\n      swap3\n      pop\n      pop\n      dup2\n      swap1\n      sstore\n      pop\n        /* \"octo-ps_flattened.sol\":12223:12232  msg.value */\n      callvalue\n        /* \"octo-ps_flattened.sol\":12201:12219  totalContributions */\n      0x0b\n      0x00\n        /* \"octo-ps_flattened.sol\":12201:12232  totalContributions += msg.value */\n      dup3\n      dup3\n      sload\n      tag_114\n      swap2\n      swap1\n      tag_107\n      jump\t// in\n    tag_114:\n      swap3\n      pop\n      pop\n      dup2\n      swap1\n      sstore\n      pop\n        /* \"octo-ps_flattened.sol\":12264:12274  msg.sender */\n      caller\n        /* \"octo-ps_flattened.sol\":12248:12299  TokensPurchased(msg.sender, msg.value, tokenAmount) */\n      0xffffffffffffffffffffffffffffffffffffffff\n      and\n      0x8fafebcaf9d154343dad25669bfa277f4fbacd7ac6b0c4fed522580e040a0f33\n        /* \"octo-ps_flattened.sol\":12276:12285  msg.value */\n      callvalue\n        /* \"octo-ps_flattened.sol\":12287:12298  tokenAmount */\n      dup4\n        /* \"octo-ps_flattened.sol\":12248:12299  TokensPurchased(msg.sender, msg.value, tokenAmount) */\n      mload(0x40)\n      tag_115\n      swap3\n      swap2\n      swap1\n      tag_116\n      jump\t// in\n    tag_115:\n      mload(0x40)\n      dup1\n      swap2\n      sub\n      swap1\n      log2\n        /* \"octo-ps_flattened.sol\":11680:12306  {... */\n      pop\n        /* \"octo-ps_flattened.sol\":5174:5194  _nonReentrantAfter() */\n      tag_117\n        /* \"octo-ps_flattened.sol\":5174:5192  _nonReentrantAfter */\n      tag_118\n        /* \"octo-ps_flattened.sol\":5174:5194  _nonReentrantAfter() */\n      jump\t// in\n    tag_117:\n        /* \"octo-ps_flattened.sol\":11631:12306  function buyTokens() public nonReentrant payable {... */\n      jump\t// out\n        /* \"octo-ps_flattened.sol\":10192:10220  address public preSaleWallet */\n    tag_31:\n      0x03\n      0x00\n      swap1\n      sload\n      swap1\n      0x0100\n      exp\n      swap1\n      div\n      0xffffffffffffffffffffffffffffffffffffffff\n      and\n      dup2\n      jump\t// out\n        /* \"octo-ps_flattened.sol\":10226:10245  uint256 public rate */\n    tag_36:\n      sload(0x04)\n      dup2\n      jump\t// out\n        /* \"octo-ps_flattened.sol\":10381:10403  uint256 public endTime */\n    tag_41:\n      sload(0x08)\n      dup2\n      jump\t// out\n        /* \"octo-ps_flattened.sol\":10499:10532  uint256 public totalContributions */\n    tag_45:\n      sload(0x0b)\n      dup2\n      jump\t// out\n        /* \"octo-ps_flattened.sol\":10445:10493  mapping(address => uint256) public contributions */\n    tag_51:\n      mstore(0x20, 0x0a)\n      dup1\n      0x00\n      mstore\n      keccak256(0x00, 0x40)\n      0x00\n      swap2\n      pop\n      swap1\n      pop\n      sload\n      dup2\n      jump\t// out\n        /* \"octo-ps_flattened.sol\":12914:13252  function claimTokens() external nonReentrant {... */\n    tag_55:\n        /* \"octo-ps_flattened.sol\":5132:5153  _nonReentrantBefore() */\n      tag_120\n        /* \"octo-ps_flattened.sol\":5132:5151  _nonReentrantBefore */\n      tag_95\n        /* \"octo-ps_flattened.sol\":5132:5153  _nonReentrantBefore() */\n      jump\t// in\n    tag_120:\n        /* \"octo-ps_flattened.sol\":12977:12986  finalized */\n      0x09\n      0x00\n      swap1\n      sload\n      swap1\n      0x0100\n      exp\n      swap1\n      div\n      0xff\n      and\n        /* \"octo-ps_flattened.sol\":12969:13013  require(finalized, \"Pre-sale not finalized\") */\n      tag_122\n      jumpi\n      mload(0x40)\n      0x08c379a000000000000000000000000000000000000000000000000000000000\n      dup2\n      mstore\n      0x04\n      add\n      tag_123\n      swap1\n      tag_124\n      jump\t// in\n    tag_123:\n      mload(0x40)\n      dup1\n      swap2\n      sub\n      swap1\n      revert\n    tag_122:\n        /* \"octo-ps_flattened.sol\":13059:13060  0 */\n      0x00\n        /* \"octo-ps_flattened.sol\":13031:13044  contributions */\n      0x0a\n        /* \"octo-ps_flattened.sol\":13031:13056  contributions[msg.sender] */\n      0x00\n        /* \"octo-ps_flattened.sol\":13045:13055  msg.sender */\n      caller\n        /* \"octo-ps_flattened.sol\":13031:13056  contributions[msg.sender] */\n      0xffffffffffffffffffffffffffffffffffffffff\n      and\n      0xffffffffffffffffffffffffffffffffffffffff\n      and\n      dup2\n      mstore\n      0x20\n      add\n      swap1\n      dup2\n      mstore\n      0x20\n      add\n      0x00\n      keccak256\n      sload\n        /* \"octo-ps_flattened.sol\":13031:13060  contributions[msg.sender] > 0 */\n      gt\n        /* \"octo-ps_flattened.sol\":13023:13083  require(contributions[msg.sender] > 0, \"No tokens to claim\") */\n      tag_125\n      jumpi\n      mload(0x40)\n      0x08c379a000000000000000000000000000000000000000000000000000000000\n      dup2\n      mstore\n      0x04\n      add\n      tag_126\n      swap1\n      tag_127\n      jump\t// in\n    tag_126:\n      mload(0x40)\n      dup1\n      swap2\n      sub\n      swap1\n      revert\n    tag_125:\n        /* \"octo-ps_flattened.sol\":13094:13113  uint256 tokenAmount */\n      0x00\n        /* \"octo-ps_flattened.sol\":13116:13157  getTokenAmount(contributions[msg.sender]) */\n      tag_128\n        /* \"octo-ps_flattened.sol\":13131:13144  contributions */\n      0x0a\n        /* \"octo-ps_flattened.sol\":13131:13156  contributions[msg.sender] */\n      0x00\n        /* \"octo-ps_flattened.sol\":13145:13155  msg.sender */\n      caller\n        /* \"octo-ps_flattened.sol\":13131:13156  contributions[msg.sender] */\n      0xffffffffffffffffffffffffffffffffffffffff\n      and\n      0xffffffffffffffffffffffffffffffffffffffff\n      and\n      dup2\n      mstore\n      0x20\n      add\n      swap1\n      dup2\n      mstore\n      0x20\n      add\n      0x00\n      keccak256\n      sload\n        /* \"octo-ps_flattened.sol\":13116:13130  getTokenAmount */\n      tag_112\n        /* \"octo-ps_flattened.sol\":13116:13157  getTokenAmount(contributions[msg.sender]) */\n      jump\t// in\n    tag_128:\n        /* \"octo-ps_flattened.sol\":13094:13157  uint256 tokenAmount = getTokenAmount(contributions[msg.sender]) */\n      swap1\n      pop\n        /* \"octo-ps_flattened.sol\":13195:13196  0 */\n      0x00\n        /* \"octo-ps_flattened.sol\":13167:13180  contributions */\n      0x0a\n        /* \"octo-ps_flattened.sol\":13167:13192  contributions[msg.sender] */\n      0x00\n        /* \"octo-ps_flattened.sol\":13181:13191  msg.sender */\n      caller\n        /* \"octo-ps_flattened.sol\":13167:13192  contributions[msg.sender] */\n      0xffffffffffffffffffffffffffffffffffffffff\n      and\n      0xffffffffffffffffffffffffffffffffffffffff\n      and\n      dup2\n      mstore\n      0x20\n      add\n      swap1\n      dup2\n      mstore\n      0x20\n      add\n      0x00\n      keccak256\n        /* \"octo-ps_flattened.sol\":13167:13196  contributions[msg.sender] = 0 */\n      dup2\n      swap1\n      sstore\n      pop\n        /* \"octo-ps_flattened.sol\":13206:13211  token */\n      0x02\n      0x00\n      swap1\n      sload\n      swap1\n      0x0100\n      exp\n      swap1\n      div\n      0xffffffffffffffffffffffffffffffffffffffff\n      and\n        /* \"octo-ps_flattened.sol\":13206:13220  token.transfer */\n      0xffffffffffffffffffffffffffffffffffffffff\n      and\n      0xa9059cbb\n        /* \"octo-ps_flattened.sol\":13221:13231  msg.sender */\n      caller\n        /* \"octo-ps_flattened.sol\":13233:13244  tokenAmount */\n      dup4\n        /* \"octo-ps_flattened.sol\":13206:13245  token.transfer(msg.sender, tokenAmount) */\n      mload(0x40)\n      dup4\n      0xffffffff\n      and\n      0xe0\n      shl\n      dup2\n      mstore\n      0x04\n      add\n      tag_129\n      swap3\n      swap2\n      swap1\n      tag_130\n      jump\t// in\n    tag_129:\n      0x20\n      mload(0x40)\n      dup1\n      dup4\n      sub\n      dup2\n      0x00\n      dup8\n      gas\n      call\n      iszero\n      dup1\n      iszero\n      tag_132\n      jumpi\n      returndatasize\n      0x00\n      dup1\n      returndatacopy\n      revert(0x00, returndatasize)\n    tag_132:\n      pop\n      pop\n      pop\n      pop\n      mload(0x40)\n      returndatasize\n      not(0x1f)\n      0x1f\n      dup3\n      add\n      and\n      dup3\n      add\n      dup1\n      0x40\n      mstore\n      pop\n      dup2\n      add\n      swap1\n      tag_133\n      swap2\n      swap1\n      tag_134\n      jump\t// in\n    tag_133:\n      pop\n        /* \"octo-ps_flattened.sol\":12959:13252  {... */\n      pop\n        /* \"octo-ps_flattened.sol\":5174:5194  _nonReentrantAfter() */\n      tag_135\n        /* \"octo-ps_flattened.sol\":5174:5192  _nonReentrantAfter */\n      tag_118\n        /* \"octo-ps_flattened.sol\":5174:5194  _nonReentrantAfter() */\n      jump\t// in\n    tag_135:\n        /* \"octo-ps_flattened.sol\":12914:13252  function claimTokens() external nonReentrant {... */\n      jump\t// out\n        /* \"octo-ps_flattened.sol\":9253:9354  function renounceOwnership() public virtual onlyOwner {... */\n    tag_58:\n        /* \"octo-ps_flattened.sol\":8491:8504  _checkOwner() */\n      tag_137\n        /* \"octo-ps_flattened.sol\":8491:8502  _checkOwner */\n      tag_138\n        /* \"octo-ps_flattened.sol\":8491:8504  _checkOwner() */\n      jump\t// in\n    tag_137:\n        /* \"octo-ps_flattened.sol\":9317:9347  _transferOwnership(address(0)) */\n      tag_140\n        /* \"octo-ps_flattened.sol\":9344:9345  0 */\n      0x00\n        /* \"octo-ps_flattened.sol\":9317:9335  _transferOwnership */\n      tag_141\n        /* \"octo-ps_flattened.sol\":9317:9347  _transferOwnership(address(0)) */\n      jump\t// in\n    tag_140:\n        /* \"octo-ps_flattened.sol\":9253:9354  function renounceOwnership() public virtual onlyOwner {... */\n      jump\t// out\n        /* \"octo-ps_flattened.sol\":12433:12908  function finalizePreSale() external onlyOwner {... */\n    tag_61:\n        /* \"octo-ps_flattened.sol\":8491:8504  _checkOwner() */\n      tag_143\n        /* \"octo-ps_flattened.sol\":8491:8502  _checkOwner */\n      tag_138\n        /* \"octo-ps_flattened.sol\":8491:8504  _checkOwner() */\n      jump\t// in\n    tag_143:\n        /* \"octo-ps_flattened.sol\":12515:12522  endTime */\n      sload(0x08)\n        /* \"octo-ps_flattened.sol\":12497:12512  block.timestamp */\n      timestamp\n        /* \"octo-ps_flattened.sol\":12497:12522  block.timestamp > endTime */\n      gt\n        /* \"octo-ps_flattened.sol\":12489:12553  require(block.timestamp > endTime, \"Pre-sale has not ended yet\") */\n      tag_145\n      jumpi\n      mload(0x40)\n      0x08c379a000000000000000000000000000000000000000000000000000000000\n      dup2\n      mstore\n      0x04\n      add\n      tag_146\n      swap1\n      tag_147\n      jump\t// in\n    tag_146:\n      mload(0x40)\n      dup1\n      swap2\n      sub\n      swap1\n      revert\n    tag_145:\n        /* \"octo-ps_flattened.sol\":12572:12581  finalized */\n      0x09\n      0x00\n      swap1\n      sload\n      swap1\n      0x0100\n      exp\n      swap1\n      div\n      0xff\n      and\n        /* \"octo-ps_flattened.sol\":12571:12581  !finalized */\n      iszero\n        /* \"octo-ps_flattened.sol\":12563:12612  require(!finalized, \"Pre-sale already finalized\") */\n      tag_148\n      jumpi\n      mload(0x40)\n      0x08c379a000000000000000000000000000000000000000000000000000000000\n      dup2\n      mstore\n      0x04\n      add\n      tag_149\n      swap1\n      tag_150\n      jump\t// in\n    tag_149:\n      mload(0x40)\n      dup1\n      swap2\n      sub\n      swap1\n      revert\n    tag_148:\n        /* \"octo-ps_flattened.sol\":12635:12639  true */\n      0x01\n        /* \"octo-ps_flattened.sol\":12623:12632  finalized */\n      0x09\n      0x00\n        /* \"octo-ps_flattened.sol\":12623:12639  finalized = true */\n      0x0100\n      exp\n      dup2\n      sload\n      dup2\n      0xff\n      mul\n      not\n      and\n      swap1\n      dup4\n      iszero\n      iszero\n      mul\n      or\n      swap1\n      sstore\n      pop\n        /* \"octo-ps_flattened.sol\":12650:12670  uint256 unsoldTokens */\n      0x00\n        /* \"octo-ps_flattened.sol\":12673:12678  token */\n      0x02\n      0x00\n      swap1\n      sload\n      swap1\n      0x0100\n      exp\n      swap1\n      div\n      0xffffffffffffffffffffffffffffffffffffffff\n      and\n        /* \"octo-ps_flattened.sol\":12673:12688  token.balanceOf */\n      0xffffffffffffffffffffffffffffffffffffffff\n      and\n      0x70a08231\n        /* \"octo-ps_flattened.sol\":12697:12701  this */\n      address\n        /* \"octo-ps_flattened.sol\":12673:12703  token.balanceOf(address(this)) */\n      mload(0x40)\n      dup3\n      0xffffffff\n      and\n      0xe0\n      shl\n      dup2\n      mstore\n      0x04\n      add\n      tag_151\n      swap2\n      swap1\n      tag_33\n      jump\t// in\n    tag_151:\n      0x20\n      mload(0x40)\n      dup1\n      dup4\n      sub\n      dup2\n      dup7\n      gas\n      staticcall\n      iszero\n      dup1\n      iszero\n      tag_153\n      jumpi\n      returndatasize\n      0x00\n      dup1\n      returndatacopy\n      revert(0x00, returndatasize)\n    tag_153:\n      pop\n      pop\n      pop\n      pop\n      mload(0x40)\n      returndatasize\n      not(0x1f)\n      0x1f\n      dup3\n      add\n      and\n      dup3\n      add\n      dup1\n      0x40\n      mstore\n      pop\n      dup2\n      add\n      swap1\n      tag_154\n      swap2\n      swap1\n      tag_155\n      jump\t// in\n    tag_154:\n        /* \"octo-ps_flattened.sol\":12650:12703  uint256 unsoldTokens = token.balanceOf(address(this)) */\n      swap1\n      pop\n        /* \"octo-ps_flattened.sol\":12732:12733  0 */\n      0x00\n        /* \"octo-ps_flattened.sol\":12717:12729  unsoldTokens */\n      dup2\n        /* \"octo-ps_flattened.sol\":12717:12733  unsoldTokens > 0 */\n      gt\n        /* \"octo-ps_flattened.sol\":12713:12803  if (unsoldTokens > 0) {... */\n      iszero\n      tag_156\n      jumpi\n        /* \"octo-ps_flattened.sol\":12749:12754  token */\n      0x02\n      0x00\n      swap1\n      sload\n      swap1\n      0x0100\n      exp\n      swap1\n      div\n      0xffffffffffffffffffffffffffffffffffffffff\n      and\n        /* \"octo-ps_flattened.sol\":12749:12763  token.transfer */\n      0xffffffffffffffffffffffffffffffffffffffff\n      and\n      0xa9059cbb\n        /* \"octo-ps_flattened.sol\":12764:12777  preSaleWallet */\n      0x03\n      0x00\n      swap1\n      sload\n      swap1\n      0x0100\n      exp\n      swap1\n      div\n      0xffffffffffffffffffffffffffffffffffffffff\n      and\n        /* \"octo-ps_flattened.sol\":12779:12791  unsoldTokens */\n      dup4\n        /* \"octo-ps_flattened.sol\":12749:12792  token.transfer(preSaleWallet, unsoldTokens) */\n      mload(0x40)\n      dup4\n      0xffffffff\n      and\n      0xe0\n      shl\n      dup2\n      mstore\n      0x04\n      add\n      tag_157\n      swap3\n      swap2\n      swap1\n      tag_130\n      jump\t// in\n    tag_157:\n      0x20\n      mload(0x40)\n      dup1\n      dup4\n      sub\n      dup2\n      0x00\n      dup8\n      gas\n      call\n      iszero\n      dup1\n      iszero\n      tag_159\n      jumpi\n      returndatasize\n      0x00\n      dup1\n      returndatacopy\n      revert(0x00, returndatasize)\n    tag_159:\n      pop\n      pop\n      pop\n      pop\n      mload(0x40)\n      returndatasize\n      not(0x1f)\n      0x1f\n      dup3\n      add\n      and\n      dup3\n      add\n      dup1\n      0x40\n      mstore\n      pop\n      dup2\n      add\n      swap1\n      tag_160\n      swap2\n      swap1\n      tag_134\n      jump\t// in\n    tag_160:\n      pop\n        /* \"octo-ps_flattened.sol\":12713:12803  if (unsoldTokens > 0) {... */\n    tag_156:\n        /* \"octo-ps_flattened.sol\":12821:12834  preSaleWallet */\n      0x03\n      0x00\n      swap1\n      sload\n      swap1\n      0x0100\n      exp\n      swap1\n      div\n      0xffffffffffffffffffffffffffffffffffffffff\n      and\n        /* \"octo-ps_flattened.sol\":12813:12844  payable(preSaleWallet).transfer */\n      0xffffffffffffffffffffffffffffffffffffffff\n      and\n        /* \"octo-ps_flattened.sol\":12813:12867  payable(preSaleWallet).transfer(address(this).balance) */\n      0x08fc\n        /* \"octo-ps_flattened.sol\":12845:12866  address(this).balance */\n      selfbalance\n        /* \"octo-ps_flattened.sol\":12813:12867  payable(preSaleWallet).transfer(address(this).balance) */\n      swap1\n      dup2\n      iszero\n      mul\n      swap1\n      mload(0x40)\n      0x00\n      mload(0x40)\n      dup1\n      dup4\n      sub\n      dup2\n      dup6\n      dup9\n      dup9\n      call\n      swap4\n      pop\n      pop\n      pop\n      pop\n      iszero\n      dup1\n      iszero\n      tag_162\n      jumpi\n      returndatasize\n      0x00\n      dup1\n      returndatacopy\n      revert(0x00, returndatasize)\n    tag_162:\n      pop\n        /* \"octo-ps_flattened.sol\":12883:12901  PreSaleFinalized() */\n      0x1ad1caa1c571aefbfc687d24e1f5c54fb44b2a683ce9dd8d68a2c391e5d83213\n      mload(0x40)\n      mload(0x40)\n      dup1\n      swap2\n      sub\n      swap1\n      log1\n        /* \"octo-ps_flattened.sol\":12479:12908  {... */\n      pop\n        /* \"octo-ps_flattened.sol\":12433:12908  function finalizePreSale() external onlyOwner {... */\n      jump\t// out\n        /* \"octo-ps_flattened.sol\":10351:10375  uint256 public startTime */\n    tag_64:\n      sload(0x07)\n      dup2\n      jump\t// out\n        /* \"octo-ps_flattened.sol\":10315:10345  uint256 public maxContribution */\n    tag_68:\n      sload(0x06)\n      dup2\n      jump\t// out\n        /* \"octo-ps_flattened.sol\":8598:8683  function owner() public view virtual returns (address) {... */\n    tag_72:\n        /* \"octo-ps_flattened.sol\":8644:8651  address */\n      0x00\n        /* \"octo-ps_flattened.sol\":8670:8676  _owner */\n      dup1\n      0x00\n      swap1\n      sload\n      swap1\n      0x0100\n      exp\n      swap1\n      div\n      0xffffffffffffffffffffffffffffffffffffffff\n      and\n        /* \"octo-ps_flattened.sol\":8663:8676  return _owner */\n      swap1\n      pop\n        /* \"octo-ps_flattened.sol\":8598:8683  function owner() public view virtual returns (address) {... */\n      swap1\n      jump\t// out\n        /* \"octo-ps_flattened.sol\":10279:10309  uint256 public minContribution */\n    tag_76:\n      sload(0x05)\n      dup2\n      jump\t// out\n        /* \"octo-ps_flattened.sol\":10409:10438  bool public finalized = false */\n    tag_80:\n      0x09\n      0x00\n      swap1\n      sload\n      swap1\n      0x0100\n      exp\n      swap1\n      div\n      0xff\n      and\n      dup2\n      jump\t// out\n        /* \"octo-ps_flattened.sol\":9503:9718  function transferOwnership(address newOwner) public virtual onlyOwner {... */\n    tag_87:\n        /* \"octo-ps_flattened.sol\":8491:8504  _checkOwner() */\n      tag_165\n        /* \"octo-ps_flattened.sol\":8491:8502  _checkOwner */\n      tag_138\n        /* \"octo-ps_flattened.sol\":8491:8504  _checkOwner() */\n      jump\t// in\n    tag_165:\n        /* \"octo-ps_flattened.sol\":9607:9608  0 */\n      0x00\n        /* \"octo-ps_flattened.sol\":9587:9609  newOwner == address(0) */\n      0xffffffffffffffffffffffffffffffffffffffff\n      and\n        /* \"octo-ps_flattened.sol\":9587:9595  newOwner */\n      dup2\n        /* \"octo-ps_flattened.sol\":9587:9609  newOwner == address(0) */\n      0xffffffffffffffffffffffffffffffffffffffff\n      and\n      sub\n        /* \"octo-ps_flattened.sol\":9583:9674  if (newOwner == address(0)) {... */\n      tag_167\n      jumpi\n        /* \"octo-ps_flattened.sol\":9660:9661  0 */\n      0x00\n        /* \"octo-ps_flattened.sol\":9632:9663  OwnableInvalidOwner(address(0)) */\n      mload(0x40)\n      0x1e4fbdf700000000000000000000000000000000000000000000000000000000\n      dup2\n      mstore\n      0x04\n      add\n      tag_168\n      swap2\n      swap1\n      tag_33\n      jump\t// in\n    tag_168:\n      mload(0x40)\n      dup1\n      swap2\n      sub\n      swap1\n      revert\n        /* \"octo-ps_flattened.sol\":9583:9674  if (newOwner == address(0)) {... */\n    tag_167:\n        /* \"octo-ps_flattened.sol\":9683:9711  _transferOwnership(newOwner) */\n      tag_169\n        /* \"octo-ps_flattened.sol\":9702:9710  newOwner */\n      dup2\n        /* \"octo-ps_flattened.sol\":9683:9701  _transferOwnership */\n      tag_141\n        /* \"octo-ps_flattened.sol\":9683:9711  _transferOwnership(newOwner) */\n      jump\t// in\n    tag_169:\n        /* \"octo-ps_flattened.sol\":9503:9718  function transferOwnership(address newOwner) public virtual onlyOwner {... */\n      pop\n      jump\t// out\n        /* \"octo-ps_flattened.sol\":10167:10186  IERC20 public token */\n    tag_90:\n      0x02\n      0x00\n      swap1\n      sload\n      swap1\n      0x0100\n      exp\n      swap1\n      div\n      0xffffffffffffffffffffffffffffffffffffffff\n      and\n      dup2\n      jump\t// out\n        /* \"octo-ps_flattened.sol\":5207:5494  function _nonReentrantBefore() private {... */\n    tag_95:\n        /* \"octo-ps_flattened.sol\":4630:4631  2 */\n      0x02\n        /* \"octo-ps_flattened.sol\":5339:5346  _status */\n      sload(0x01)\n        /* \"octo-ps_flattened.sol\":5339:5358  _status != _ENTERED */\n      sub\n        /* \"octo-ps_flattened.sol\":5331:5394  require(_status != _ENTERED, \"ReentrancyGuard: reentrant call\") */\n      tag_171\n      jumpi\n      mload(0x40)\n      0x08c379a000000000000000000000000000000000000000000000000000000000\n      dup2\n      mstore\n      0x04\n      add\n      tag_172\n      swap1\n      tag_173\n      jump\t// in\n    tag_172:\n      mload(0x40)\n      dup1\n      swap2\n      sub\n      swap1\n      revert\n    tag_171:\n        /* \"octo-ps_flattened.sol\":4630:4631  2 */\n      0x02\n        /* \"octo-ps_flattened.sol\":5469:5476  _status */\n      0x01\n        /* \"octo-ps_flattened.sol\":5469:5487  _status = _ENTERED */\n      dup2\n      swap1\n      sstore\n      pop\n        /* \"octo-ps_flattened.sol\":5207:5494  function _nonReentrantBefore() private {... */\n      jump\t// out\n        /* \"octo-ps_flattened.sol\":12312:12427  function getTokenAmount(uint256 weiAmount) internal view returns (uint256) {... */\n    tag_112:\n        /* \"octo-ps_flattened.sol\":12378:12385  uint256 */\n      0x00\n        /* \"octo-ps_flattened.sol\":12416:12420  rate */\n      sload(0x04)\n        /* \"octo-ps_flattened.sol\":12404:12413  weiAmount */\n      dup3\n        /* \"octo-ps_flattened.sol\":12404:12420  weiAmount * rate */\n      tag_175\n      swap2\n      swap1\n      tag_176\n      jump\t// in\n    tag_175:\n        /* \"octo-ps_flattened.sol\":12397:12420  return weiAmount * rate */\n      swap1\n      pop\n        /* \"octo-ps_flattened.sol\":12312:12427  function getTokenAmount(uint256 weiAmount) internal view returns (uint256) {... */\n      swap2\n      swap1\n      pop\n      jump\t// out\n        /* \"octo-ps_flattened.sol\":5500:5709  function _nonReentrantAfter() private {... */\n    tag_118:\n        /* \"octo-ps_flattened.sol\":4587:4588  1 */\n      0x01\n        /* \"octo-ps_flattened.sol\":5680:5687  _status */\n      dup1\n        /* \"octo-ps_flattened.sol\":5680:5702  _status = _NOT_ENTERED */\n      dup2\n      swap1\n      sstore\n      pop\n        /* \"octo-ps_flattened.sol\":5500:5709  function _nonReentrantAfter() private {... */\n      jump\t// out\n        /* \"octo-ps_flattened.sol\":8756:8918  function _checkOwner() internal view virtual {... */\n    tag_138:\n        /* \"octo-ps_flattened.sol\":8826:8838  _msgSender() */\n      tag_179\n        /* \"octo-ps_flattened.sol\":8826:8836  _msgSender */\n      tag_180\n        /* \"octo-ps_flattened.sol\":8826:8838  _msgSender() */\n      jump\t// in\n    tag_179:\n        /* \"octo-ps_flattened.sol\":8815:8838  owner() != _msgSender() */\n      0xffffffffffffffffffffffffffffffffffffffff\n      and\n        /* \"octo-ps_flattened.sol\":8815:8822  owner() */\n      tag_181\n        /* \"octo-ps_flattened.sol\":8815:8820  owner */\n      tag_72\n        /* \"octo-ps_flattened.sol\":8815:8822  owner() */\n      jump\t// in\n    tag_181:\n        /* \"octo-ps_flattened.sol\":8815:8838  owner() != _msgSender() */\n      0xffffffffffffffffffffffffffffffffffffffff\n      and\n      eq\n        /* \"octo-ps_flattened.sol\":8811:8912  if (owner() != _msgSender()) {... */\n      tag_182\n      jumpi\n        /* \"octo-ps_flattened.sol\":8888:8900  _msgSender() */\n      tag_183\n        /* \"octo-ps_flattened.sol\":8888:8898  _msgSender */\n      tag_180\n        /* \"octo-ps_flattened.sol\":8888:8900  _msgSender() */\n      jump\t// in\n    tag_183:\n        /* \"octo-ps_flattened.sol\":8861:8901  OwnableUnauthorizedAccount(_msgSender()) */\n      mload(0x40)\n      0x118cdaa700000000000000000000000000000000000000000000000000000000\n      dup2\n      mstore\n      0x04\n      add\n      tag_184\n      swap2\n      swap1\n      tag_33\n      jump\t// in\n    tag_184:\n      mload(0x40)\n      dup1\n      swap2\n      sub\n      swap1\n      revert\n        /* \"octo-ps_flattened.sol\":8811:8912  if (owner() != _msgSender()) {... */\n    tag_182:\n        /* \"octo-ps_flattened.sol\":8756:8918  function _checkOwner() internal view virtual {... */\n      jump\t// out\n        /* \"octo-ps_flattened.sol\":9872:10059  function _transferOwnership(address newOwner) internal virtual {... */\n    tag_141:\n        /* \"octo-ps_flattened.sol\":9945:9961  address oldOwner */\n      0x00\n        /* \"octo-ps_flattened.sol\":9964:9970  _owner */\n      dup1\n      0x00\n      swap1\n      sload\n      swap1\n      0x0100\n      exp\n      swap1\n      div\n      0xffffffffffffffffffffffffffffffffffffffff\n      and\n        /* \"octo-ps_flattened.sol\":9945:9970  address oldOwner = _owner */\n      swap1\n      pop\n        /* \"octo-ps_flattened.sol\":9989:9997  newOwner */\n      dup2\n        /* \"octo-ps_flattened.sol\":9980:9986  _owner */\n      0x00\n      dup1\n        /* \"octo-ps_flattened.sol\":9980:9997  _owner = newOwner */\n      0x0100\n      exp\n      dup2\n      sload\n      dup2\n      0xffffffffffffffffffffffffffffffffffffffff\n      mul\n      not\n      and\n      swap1\n      dup4\n      0xffffffffffffffffffffffffffffffffffffffff\n      and\n      mul\n      or\n      swap1\n      sstore\n      pop\n        /* \"octo-ps_flattened.sol\":10043:10051  newOwner */\n      dup2\n        /* \"octo-ps_flattened.sol\":10012:10052  OwnershipTransferred(oldOwner, newOwner) */\n      0xffffffffffffffffffffffffffffffffffffffff\n      and\n        /* \"octo-ps_flattened.sol\":10033:10041  oldOwner */\n      dup2\n        /* \"octo-ps_flattened.sol\":10012:10052  OwnershipTransferred(oldOwner, newOwner) */\n      0xffffffffffffffffffffffffffffffffffffffff\n      and\n      0x8be0079c531659141344cd1fd0a4f28419497f9722a3daafe3b4186f6b6457e0\n      mload(0x40)\n      mload(0x40)\n      dup1\n      swap2\n      sub\n      swap1\n      log3\n        /* \"octo-ps_flattened.sol\":9935:10059  {... */\n      pop\n        /* \"octo-ps_flattened.sol\":9872:10059  function _transferOwnership(address newOwner) internal virtual {... */\n      pop\n      jump\t// out\n        /* \"octo-ps_flattened.sol\":6676:6772  function _msgSender() internal view virtual returns (address) {... */\n    tag_180:\n        /* \"octo-ps_flattened.sol\":6729:6736  address */\n      0x00\n        /* \"octo-ps_flattened.sol\":6755:6765  msg.sender */\n      caller\n        /* \"octo-ps_flattened.sol\":6748:6765  return msg.sender */\n      swap1\n      pop\n        /* \"octo-ps_flattened.sol\":6676:6772  function _msgSender() internal view virtual returns (address) {... */\n      swap1\n      jump\t// out\n        /* \"#utility.yul\":7:133   */\n    tag_187:\n        /* \"#utility.yul\":44:51   */\n      0x00\n        /* \"#utility.yul\":84:126   */\n      0xffffffffffffffffffffffffffffffffffffffff\n        /* \"#utility.yul\":77:82   */\n      dup3\n        /* \"#utility.yul\":73:127   */\n      and\n        /* \"#utility.yul\":62:127   */\n      swap1\n      pop\n        /* \"#utility.yul\":7:133   */\n      swap2\n      swap1\n      pop\n      jump\t// out\n        /* \"#utility.yul\":139:235   */\n    tag_188:\n        /* \"#utility.yul\":176:183   */\n      0x00\n        /* \"#utility.yul\":205:229   */\n      tag_229\n        /* \"#utility.yul\":223:228   */\n      dup3\n        /* \"#utility.yul\":205:229   */\n      tag_187\n      jump\t// in\n    tag_229:\n        /* \"#utility.yul\":194:229   */\n      swap1\n      pop\n        /* \"#utility.yul\":139:235   */\n      swap2\n      swap1\n      pop\n      jump\t// out\n        /* \"#utility.yul\":241:359   */\n    tag_189:\n        /* \"#utility.yul\":328:352   */\n      tag_231\n        /* \"#utility.yul\":346:351   */\n      dup2\n        /* \"#utility.yul\":328:352   */\n      tag_188\n      jump\t// in\n    tag_231:\n        /* \"#utility.yul\":323:326   */\n      dup3\n        /* \"#utility.yul\":316:353   */\n      mstore\n        /* \"#utility.yul\":241:359   */\n      pop\n      pop\n      jump\t// out\n        /* \"#utility.yul\":365:587   */\n    tag_33:\n        /* \"#utility.yul\":458:462   */\n      0x00\n        /* \"#utility.yul\":496:498   */\n      0x20\n        /* \"#utility.yul\":485:494   */\n      dup3\n        /* \"#utility.yul\":481:499   */\n      add\n        /* \"#utility.yul\":473:499   */\n      swap1\n      pop\n        /* \"#utility.yul\":509:580   */\n      tag_233\n        /* \"#utility.yul\":577:578   */\n      0x00\n        /* \"#utility.yul\":566:575   */\n      dup4\n        /* \"#utility.yul\":562:579   */\n      add\n        /* \"#utility.yul\":553:559   */\n      dup5\n        /* \"#utility.yul\":509:580   */\n      tag_189\n      jump\t// in\n    tag_233:\n        /* \"#utility.yul\":365:587   */\n      swap3\n      swap2\n      pop\n      pop\n      jump\t// out\n        /* \"#utility.yul\":593:670   */\n    tag_190:\n        /* \"#utility.yul\":630:637   */\n      0x00\n        /* \"#utility.yul\":659:664   */\n      dup2\n        /* \"#utility.yul\":648:664   */\n      swap1\n      pop\n        /* \"#utility.yul\":593:670   */\n      swap2\n      swap1\n      pop\n      jump\t// out\n        /* \"#utility.yul\":676:794   */\n    tag_191:\n        /* \"#utility.yul\":763:787   */\n      tag_236\n        /* \"#utility.yul\":781:786   */\n      dup2\n        /* \"#utility.yul\":763:787   */\n      tag_190\n      jump\t// in\n    tag_236:\n        /* \"#utility.yul\":758:761   */\n      dup3\n        /* \"#utility.yul\":751:788   */\n      mstore\n        /* \"#utility.yul\":676:794   */\n      pop\n      pop\n      jump\t// out\n        /* \"#utility.yul\":800:1022   */\n    tag_38:\n        /* \"#utility.yul\":893:897   */\n      0x00\n        /* \"#utility.yul\":931:933   */\n      0x20\n        /* \"#utility.yul\":920:929   */\n      dup3\n        /* \"#utility.yul\":916:934   */\n      add\n        /* \"#utility.yul\":908:934   */\n      swap1\n      pop\n        /* \"#utility.yul\":944:1015   */\n      tag_238\n        /* \"#utility.yul\":1012:1013   */\n      0x00\n        /* \"#utility.yul\":1001:1010   */\n      dup4\n        /* \"#utility.yul\":997:1014   */\n      add\n        /* \"#utility.yul\":988:994   */\n      dup5\n        /* \"#utility.yul\":944:1015   */\n      tag_191\n      jump\t// in\n    tag_238:\n        /* \"#utility.yul\":800:1022   */\n      swap3\n      swap2\n      pop\n      pop\n      jump\t// out\n        /* \"#utility.yul\":1109:1226   */\n    tag_193:\n        /* \"#utility.yul\":1218:1219   */\n      0x00\n        /* \"#utility.yul\":1215:1216   */\n      dup1\n        /* \"#utility.yul\":1208:1220   */\n      revert\n        /* \"#utility.yul\":1355:1477   */\n    tag_195:\n        /* \"#utility.yul\":1428:1452   */\n      tag_243\n        /* \"#utility.yul\":1446:1451   */\n      dup2\n        /* \"#utility.yul\":1428:1452   */\n      tag_188\n      jump\t// in\n    tag_243:\n        /* \"#utility.yul\":1421:1426   */\n      dup2\n        /* \"#utility.yul\":1418:1453   */\n      eq\n        /* \"#utility.yul\":1408:1471   */\n      tag_244\n      jumpi\n        /* \"#utility.yul\":1467:1468   */\n      0x00\n        /* \"#utility.yul\":1464:1465   */\n      dup1\n        /* \"#utility.yul\":1457:1469   */\n      revert\n        /* \"#utility.yul\":1408:1471   */\n    tag_244:\n        /* \"#utility.yul\":1355:1477   */\n      pop\n      jump\t// out\n        /* \"#utility.yul\":1483:1622   */\n    tag_196:\n        /* \"#utility.yul\":1529:1534   */\n      0x00\n        /* \"#utility.yul\":1567:1573   */\n      dup2\n        /* \"#utility.yul\":1554:1574   */\n      calldataload\n        /* \"#utility.yul\":1545:1574   */\n      swap1\n      pop\n        /* \"#utility.yul\":1583:1616   */\n      tag_246\n        /* \"#utility.yul\":1610:1615   */\n      dup2\n        /* \"#utility.yul\":1583:1616   */\n      tag_195\n      jump\t// in\n    tag_246:\n        /* \"#utility.yul\":1483:1622   */\n      swap3\n      swap2\n      pop\n      pop\n      jump\t// out\n        /* \"#utility.yul\":1628:1957   */\n    tag_50:\n        /* \"#utility.yul\":1687:1693   */\n      0x00\n        /* \"#utility.yul\":1736:1738   */\n      0x20\n        /* \"#utility.yul\":1724:1733   */\n      dup3\n        /* \"#utility.yul\":1715:1722   */\n      dup5\n        /* \"#utility.yul\":1711:1734   */\n      sub\n        /* \"#utility.yul\":1707:1739   */\n      slt\n        /* \"#utility.yul\":1704:1823   */\n      iszero\n      tag_248\n      jumpi\n        /* \"#utility.yul\":1742:1821   */\n      tag_249\n      tag_193\n      jump\t// in\n    tag_249:\n        /* \"#utility.yul\":1704:1823   */\n    tag_248:\n        /* \"#utility.yul\":1862:1863   */\n      0x00\n        /* \"#utility.yul\":1887:1940   */\n      tag_250\n        /* \"#utility.yul\":1932:1939   */\n      dup5\n        /* \"#utility.yul\":1923:1929   */\n      dup3\n        /* \"#utility.yul\":1912:1921   */\n      dup6\n        /* \"#utility.yul\":1908:1930   */\n      add\n        /* \"#utility.yul\":1887:1940   */\n      tag_196\n      jump\t// in\n    tag_250:\n        /* \"#utility.yul\":1877:1940   */\n      swap2\n      pop\n        /* \"#utility.yul\":1833:1950   */\n      pop\n        /* \"#utility.yul\":1628:1957   */\n      swap3\n      swap2\n      pop\n      pop\n      jump\t// out\n        /* \"#utility.yul\":1963:2053   */\n    tag_197:\n        /* \"#utility.yul\":1997:2004   */\n      0x00\n        /* \"#utility.yul\":2040:2045   */\n      dup2\n        /* \"#utility.yul\":2033:2046   */\n      iszero\n        /* \"#utility.yul\":2026:2047   */\n      iszero\n        /* \"#utility.yul\":2015:2047   */\n      swap1\n      pop\n        /* \"#utility.yul\":1963:2053   */\n      swap2\n      swap1\n      pop\n      jump\t// out\n        /* \"#utility.yul\":2059:2168   */\n    tag_198:\n        /* \"#utility.yul\":2140:2161   */\n      tag_253\n        /* \"#utility.yul\":2155:2160   */\n      dup2\n        /* \"#utility.yul\":2140:2161   */\n      tag_197\n      jump\t// in\n    tag_253:\n        /* \"#utility.yul\":2135:2138   */\n      dup3\n        /* \"#utility.yul\":2128:2162   */\n      mstore\n        /* \"#utility.yul\":2059:2168   */\n      pop\n      pop\n      jump\t// out\n        /* \"#utility.yul\":2174:2384   */\n    tag_82:\n        /* \"#utility.yul\":2261:2265   */\n      0x00\n        /* \"#utility.yul\":2299:2301   */\n      0x20\n        /* \"#utility.yul\":2288:2297   */\n      dup3\n        /* \"#utility.yul\":2284:2302   */\n      add\n        /* \"#utility.yul\":2276:2302   */\n      swap1\n      pop\n        /* \"#utility.yul\":2312:2377   */\n      tag_255\n        /* \"#utility.yul\":2374:2375   */\n      0x00\n        /* \"#utility.yul\":2363:2372   */\n      dup4\n        /* \"#utility.yul\":2359:2376   */\n      add\n        /* \"#utility.yul\":2350:2356   */\n      dup5\n        /* \"#utility.yul\":2312:2377   */\n      tag_198\n      jump\t// in\n    tag_255:\n        /* \"#utility.yul\":2174:2384   */\n      swap3\n      swap2\n      pop\n      pop\n      jump\t// out\n        /* \"#utility.yul\":2390:2450   */\n    tag_199:\n        /* \"#utility.yul\":2418:2421   */\n      0x00\n        /* \"#utility.yul\":2439:2444   */\n      dup2\n        /* \"#utility.yul\":2432:2444   */\n      swap1\n      pop\n        /* \"#utility.yul\":2390:2450   */\n      swap2\n      swap1\n      pop\n      jump\t// out\n        /* \"#utility.yul\":2456:2598   */\n    tag_200:\n        /* \"#utility.yul\":2506:2515   */\n      0x00\n        /* \"#utility.yul\":2539:2592   */\n      tag_258\n        /* \"#utility.yul\":2557:2591   */\n      tag_259\n        /* \"#utility.yul\":2566:2590   */\n      tag_260\n        /* \"#utility.yul\":2584:2589   */\n      dup5\n        /* \"#utility.yul\":2566:2590   */\n      tag_187\n      jump\t// in\n    tag_260:\n        /* \"#utility.yul\":2557:2591   */\n      tag_199\n      jump\t// in\n    tag_259:\n        /* \"#utility.yul\":2539:2592   */\n      tag_187\n      jump\t// in\n    tag_258:\n        /* \"#utility.yul\":2526:2592   */\n      swap1\n      pop\n        /* \"#utility.yul\":2456:2598   */\n      swap2\n      swap1\n      pop\n      jump\t// out\n        /* \"#utility.yul\":2604:2730   */\n    tag_201:\n        /* \"#utility.yul\":2654:2663   */\n      0x00\n        /* \"#utility.yul\":2687:2724   */\n      tag_262\n        /* \"#utility.yul\":2718:2723   */\n      dup3\n        /* \"#utility.yul\":2687:2724   */\n      tag_200\n      jump\t// in\n    tag_262:\n        /* \"#utility.yul\":2674:2724   */\n      swap1\n      pop\n        /* \"#utility.yul\":2604:2730   */\n      swap2\n      swap1\n      pop\n      jump\t// out\n        /* \"#utility.yul\":2736:2875   */\n    tag_202:\n        /* \"#utility.yul\":2799:2808   */\n      0x00\n        /* \"#utility.yul\":2832:2869   */\n      tag_264\n        /* \"#utility.yul\":2863:2868   */\n      dup3\n        /* \"#utility.yul\":2832:2869   */\n      tag_201\n      jump\t// in\n    tag_264:\n        /* \"#utility.yul\":2819:2869   */\n      swap1\n      pop\n        /* \"#utility.yul\":2736:2875   */\n      swap2\n      swap1\n      pop\n      jump\t// out\n        /* \"#utility.yul\":2881:3038   */\n    tag_203:\n        /* \"#utility.yul\":2981:3031   */\n      tag_266\n        /* \"#utility.yul\":3025:3030   */\n      dup2\n        /* \"#utility.yul\":2981:3031   */\n      tag_202\n      jump\t// in\n    tag_266:\n        /* \"#utility.yul\":2976:2979   */\n      dup3\n        /* \"#utility.yul\":2969:3032   */\n      mstore\n        /* \"#utility.yul\":2881:3038   */\n      pop\n      pop\n      jump\t// out\n        /* \"#utility.yul\":3044:3292   */\n    tag_92:\n        /* \"#utility.yul\":3150:3154   */\n      0x00\n        /* \"#utility.yul\":3188:3190   */\n      0x20\n        /* \"#utility.yul\":3177:3186   */\n      dup3\n        /* \"#utility.yul\":3173:3191   */\n      add\n        /* \"#utility.yul\":3165:3191   */\n      swap1\n      pop\n        /* \"#utility.yul\":3201:3285   */\n      tag_268\n        /* \"#utility.yul\":3282:3283   */\n      0x00\n        /* \"#utility.yul\":3271:3280   */\n      dup4\n        /* \"#utility.yul\":3267:3284   */\n      add\n        /* \"#utility.yul\":3258:3264   */\n      dup5\n        /* \"#utility.yul\":3201:3285   */\n      tag_203\n      jump\t// in\n    tag_268:\n        /* \"#utility.yul\":3044:3292   */\n      swap3\n      swap2\n      pop\n      pop\n      jump\t// out\n        /* \"#utility.yul\":3298:4073   */\n    tag_98:\n        /* \"#utility.yul\":3531:3535   */\n      0x00\n        /* \"#utility.yul\":3569:3572   */\n      0xc0\n        /* \"#utility.yul\":3558:3567   */\n      dup3\n        /* \"#utility.yul\":3554:3573   */\n      add\n        /* \"#utility.yul\":3546:3573   */\n      swap1\n      pop\n        /* \"#utility.yul\":3583:3654   */\n      tag_270\n        /* \"#utility.yul\":3651:3652   */\n      0x00\n        /* \"#utility.yul\":3640:3649   */\n      dup4\n        /* \"#utility.yul\":3636:3653   */\n      add\n        /* \"#utility.yul\":3627:3633   */\n      dup10\n        /* \"#utility.yul\":3583:3654   */\n      tag_191\n      jump\t// in\n    tag_270:\n        /* \"#utility.yul\":3664:3736   */\n      tag_271\n        /* \"#utility.yul\":3732:3734   */\n      0x20\n        /* \"#utility.yul\":3721:3730   */\n      dup4\n        /* \"#utility.yul\":3717:3735   */\n      add\n        /* \"#utility.yul\":3708:3714   */\n      dup9\n        /* \"#utility.yul\":3664:3736   */\n      tag_191\n      jump\t// in\n    tag_271:\n        /* \"#utility.yul\":3746:3818   */\n      tag_272\n        /* \"#utility.yul\":3814:3816   */\n      0x40\n        /* \"#utility.yul\":3803:3812   */\n      dup4\n        /* \"#utility.yul\":3799:3817   */\n      add\n        /* \"#utility.yul\":3790:3796   */\n      dup8\n        /* \"#utility.yul\":3746:3818   */\n      tag_191\n      jump\t// in\n    tag_272:\n        /* \"#utility.yul\":3828:3900   */\n      tag_273\n        /* \"#utility.yul\":3896:3898   */\n      0x60\n        /* \"#utility.yul\":3885:3894   */\n      dup4\n        /* \"#utility.yul\":3881:3899   */\n      add\n        /* \"#utility.yul\":3872:3878   */\n      dup7\n        /* \"#utility.yul\":3828:3900   */\n      tag_191\n      jump\t// in\n    tag_273:\n        /* \"#utility.yul\":3910:3983   */\n      tag_274\n        /* \"#utility.yul\":3978:3981   */\n      0x80\n        /* \"#utility.yul\":3967:3976   */\n      dup4\n        /* \"#utility.yul\":3963:3982   */\n      add\n        /* \"#utility.yul\":3954:3960   */\n      dup6\n        /* \"#utility.yul\":3910:3983   */\n      tag_191\n      jump\t// in\n    tag_274:\n        /* \"#utility.yul\":3993:4066   */\n      tag_275\n        /* \"#utility.yul\":4061:4064   */\n      0xa0\n        /* \"#utility.yul\":4050:4059   */\n      dup4\n        /* \"#utility.yul\":4046:4065   */\n      add\n        /* \"#utility.yul\":4037:4043   */\n      dup5\n        /* \"#utility.yul\":3993:4066   */\n      tag_191\n      jump\t// in\n    tag_275:\n        /* \"#utility.yul\":3298:4073   */\n      swap8\n      swap7\n      pop\n      pop\n      pop\n      pop\n      pop\n      pop\n      pop\n      jump\t// out\n        /* \"#utility.yul\":4079:4248   */\n    tag_204:\n        /* \"#utility.yul\":4163:4174   */\n      0x00\n        /* \"#utility.yul\":4197:4203   */\n      dup3\n        /* \"#utility.yul\":4192:4195   */\n      dup3\n        /* \"#utility.yul\":4185:4204   */\n      mstore\n        /* \"#utility.yul\":4237:4241   */\n      0x20\n        /* \"#utility.yul\":4232:4235   */\n      dup3\n        /* \"#utility.yul\":4228:4242   */\n      add\n        /* \"#utility.yul\":4213:4242   */\n      swap1\n      pop\n        /* \"#utility.yul\":4079:4248   */\n      swap3\n      swap2\n      pop\n      pop\n      jump\t// out\n        /* \"#utility.yul\":4254:4426   */\n    tag_205:\n        /* \"#utility.yul\":4394:4418   */\n      0x5072652d73616c65206973206e6f742061637469766500000000000000000000\n        /* \"#utility.yul\":4390:4391   */\n      0x00\n        /* \"#utility.yul\":4382:4388   */\n      dup3\n        /* \"#utility.yul\":4378:4392   */\n      add\n        /* \"#utility.yul\":4371:4419   */\n      mstore\n        /* \"#utility.yul\":4254:4426   */\n      pop\n      jump\t// out\n        /* \"#utility.yul\":4432:4798   */\n    tag_206:\n        /* \"#utility.yul\":4574:4577   */\n      0x00\n        /* \"#utility.yul\":4595:4662   */\n      tag_279\n        /* \"#utility.yul\":4659:4661   */\n      0x16\n        /* \"#utility.yul\":4654:4657   */\n      dup4\n        /* \"#utility.yul\":4595:4662   */\n      tag_204\n      jump\t// in\n    tag_279:\n        /* \"#utility.yul\":4588:4662   */\n      swap2\n      pop\n        /* \"#utility.yul\":4671:4764   */\n      tag_280\n        /* \"#utility.yul\":4760:4763   */\n      dup3\n        /* \"#utility.yul\":4671:4764   */\n      tag_205\n      jump\t// in\n    tag_280:\n        /* \"#utility.yul\":4789:4791   */\n      0x20\n        /* \"#utility.yul\":4784:4787   */\n      dup3\n        /* \"#utility.yul\":4780:4792   */\n      add\n        /* \"#utility.yul\":4773:4792   */\n      swap1\n      pop\n        /* \"#utility.yul\":4432:4798   */\n      swap2\n      swap1\n      pop\n      jump\t// out\n        /* \"#utility.yul\":4804:5223   */\n    tag_102:\n        /* \"#utility.yul\":4970:4974   */\n      0x00\n        /* \"#utility.yul\":5008:5010   */\n      0x20\n        /* \"#utility.yul\":4997:5006   */\n      dup3\n        /* \"#utility.yul\":4993:5011   */\n      add\n        /* \"#utility.yul\":4985:5011   */\n      swap1\n      pop\n        /* \"#utility.yul\":5057:5066   */\n      dup2\n        /* \"#utility.yul\":5051:5055   */\n      dup2\n        /* \"#utility.yul\":5047:5067   */\n      sub\n        /* \"#utility.yul\":5043:5044   */\n      0x00\n        /* \"#utility.yul\":5032:5041   */\n      dup4\n        /* \"#utility.yul\":5028:5045   */\n      add\n        /* \"#utility.yul\":5021:5068   */\n      mstore\n        /* \"#utility.yul\":5085:5216   */\n      tag_282\n        /* \"#utility.yul\":5211:5215   */\n      dup2\n        /* \"#utility.yul\":5085:5216   */\n      tag_206\n      jump\t// in\n    tag_282:\n        /* \"#utility.yul\":5077:5216   */\n      swap1\n      pop\n        /* \"#utility.yul\":4804:5223   */\n      swap2\n      swap1\n      pop\n      jump\t// out\n        /* \"#utility.yul\":5229:5451   */\n    tag_207:\n        /* \"#utility.yul\":5369:5403   */\n      0x436f6e747269627574696f6e2069732062656c6f77206d696e696d756d206c69\n        /* \"#utility.yul\":5365:5366   */\n      0x00\n        /* \"#utility.yul\":5357:5363   */\n      dup3\n        /* \"#utility.yul\":5353:5367   */\n      add\n        /* \"#utility.yul\":5346:5404   */\n      mstore\n        /* \"#utility.yul\":5438:5443   */\n      0x6d69740000000000000000000000000000000000000000000000000000000000\n        /* \"#utility.yul\":5433:5435   */\n      0x20\n        /* \"#utility.yul\":5425:5431   */\n      dup3\n        /* \"#utility.yul\":5421:5436   */\n      add\n        /* \"#utility.yul\":5414:5444   */\n      mstore\n        /* \"#utility.yul\":5229:5451   */\n      pop\n      jump\t// out\n        /* \"#utility.yul\":5457:5823   */\n    tag_208:\n        /* \"#utility.yul\":5599:5602   */\n      0x00\n        /* \"#utility.yul\":5620:5687   */\n      tag_285\n        /* \"#utility.yul\":5684:5686   */\n      0x23\n        /* \"#utility.yul\":5679:5682   */\n      dup4\n        /* \"#utility.yul\":5620:5687   */\n      tag_204\n      jump\t// in\n    tag_285:\n        /* \"#utility.yul\":5613:5687   */\n      swap2\n      pop\n        /* \"#utility.yul\":5696:5789   */\n      tag_286\n        /* \"#utility.yul\":5785:5788   */\n      dup3\n        /* \"#utility.yul\":5696:5789   */\n      tag_207\n      jump\t// in\n    tag_286:\n        /* \"#utility.yul\":5814:5816   */\n      0x40\n        /* \"#utility.yul\":5809:5812   */\n      dup3\n        /* \"#utility.yul\":5805:5817   */\n      add\n        /* \"#utility.yul\":5798:5817   */\n      swap1\n      pop\n        /* \"#utility.yul\":5457:5823   */\n      swap2\n      swap1\n      pop\n      jump\t// out\n        /* \"#utility.yul\":5829:6248   */\n    tag_105:\n        /* \"#utility.yul\":5995:5999   */\n      0x00\n        /* \"#utility.yul\":6033:6035   */\n      0x20\n        /* \"#utility.yul\":6022:6031   */\n      dup3\n        /* \"#utility.yul\":6018:6036   */\n      add\n        /* \"#utility.yul\":6010:6036   */\n      swap1\n      pop\n        /* \"#utility.yul\":6082:6091   */\n      dup2\n        /* \"#utility.yul\":6076:6080   */\n      dup2\n        /* \"#utility.yul\":6072:6092   */\n      sub\n        /* \"#utility.yul\":6068:6069   */\n      0x00\n        /* \"#utility.yul\":6057:6066   */\n      dup4\n        /* \"#utility.yul\":6053:6070   */\n      add\n        /* \"#utility.yul\":6046:6093   */\n      mstore\n        /* \"#utility.yul\":6110:6241   */\n      tag_288\n        /* \"#utility.yul\":6236:6240   */\n      dup2\n        /* \"#utility.yul\":6110:6241   */\n      tag_208\n      jump\t// in\n    tag_288:\n        /* \"#utility.yul\":6102:6241   */\n      swap1\n      pop\n        /* \"#utility.yul\":5829:6248   */\n      swap2\n      swap1\n      pop\n      jump\t// out\n        /* \"#utility.yul\":6254:6434   */\n    tag_209:\n        /* \"#utility.yul\":6302:6379   */\n      0x4e487b7100000000000000000000000000000000000000000000000000000000\n        /* \"#utility.yul\":6299:6300   */\n      0x00\n        /* \"#utility.yul\":6292:6380   */\n      mstore\n        /* \"#utility.yul\":6399:6403   */\n      0x11\n        /* \"#utility.yul\":6396:6397   */\n      0x04\n        /* \"#utility.yul\":6389:6404   */\n      mstore\n        /* \"#utility.yul\":6423:6427   */\n      0x24\n        /* \"#utility.yul\":6420:6421   */\n      0x00\n        /* \"#utility.yul\":6413:6428   */\n      revert\n        /* \"#utility.yul\":6440:6631   */\n    tag_107:\n        /* \"#utility.yul\":6480:6483   */\n      0x00\n        /* \"#utility.yul\":6499:6519   */\n      tag_291\n        /* \"#utility.yul\":6517:6518   */\n      dup3\n        /* \"#utility.yul\":6499:6519   */\n      tag_190\n      jump\t// in\n    tag_291:\n        /* \"#utility.yul\":6494:6519   */\n      swap2\n      pop\n        /* \"#utility.yul\":6533:6553   */\n      tag_292\n        /* \"#utility.yul\":6551:6552   */\n      dup4\n        /* \"#utility.yul\":6533:6553   */\n      tag_190\n      jump\t// in\n    tag_292:\n        /* \"#utility.yul\":6528:6553   */\n      swap3\n      pop\n        /* \"#utility.yul\":6576:6577   */\n      dup3\n        /* \"#utility.yul\":6573:6574   */\n      dup3\n        /* \"#utility.yul\":6569:6578   */\n      add\n        /* \"#utility.yul\":6562:6578   */\n      swap1\n      pop\n        /* \"#utility.yul\":6597:6600   */\n      dup1\n        /* \"#utility.yul\":6594:6595   */\n      dup3\n        /* \"#utility.yul\":6591:6601   */\n      gt\n        /* \"#utility.yul\":6588:6624   */\n      iszero\n      tag_293\n      jumpi\n        /* \"#utility.yul\":6604:6622   */\n      tag_294\n      tag_209\n      jump\t// in\n    tag_294:\n        /* \"#utility.yul\":6588:6624   */\n    tag_293:\n        /* \"#utility.yul\":6440:6631   */\n      swap3\n      swap2\n      pop\n      pop\n      jump\t// out\n        /* \"#utility.yul\":6637:6858   */\n    tag_210:\n        /* \"#utility.yul\":6777:6811   */\n      0x436f6e747269627574696f6e2065786365656473206d6178696d756d206c696d\n        /* \"#utility.yul\":6773:6774   */\n      0x00\n        /* \"#utility.yul\":6765:6771   */\n      dup3\n        /* \"#utility.yul\":6761:6775   */\n      add\n        /* \"#utility.yul\":6754:6812   */\n      mstore\n        /* \"#utility.yul\":6846:6850   */\n      0x6974000000000000000000000000000000000000000000000000000000000000\n        /* \"#utility.yul\":6841:6843   */\n      0x20\n        /* \"#utility.yul\":6833:6839   */\n      dup3\n        /* \"#utility.yul\":6829:6844   */\n      add\n        /* \"#utility.yul\":6822:6851   */\n      mstore\n        /* \"#utility.yul\":6637:6858   */\n      pop\n      jump\t// out\n        /* \"#utility.yul\":6864:7230   */\n    tag_211:\n        /* \"#utility.yul\":7006:7009   */\n      0x00\n        /* \"#utility.yul\":7027:7094   */\n      tag_297\n        /* \"#utility.yul\":7091:7093   */\n      0x22\n        /* \"#utility.yul\":7086:7089   */\n      dup4\n        /* \"#utility.yul\":7027:7094   */\n      tag_204\n      jump\t// in\n    tag_297:\n        /* \"#utility.yul\":7020:7094   */\n      swap2\n      pop\n        /* \"#utility.yul\":7103:7196   */\n      tag_298\n        /* \"#utility.yul\":7192:7195   */\n      dup3\n        /* \"#utility.yul\":7103:7196   */\n      tag_210\n      jump\t// in\n    tag_298:\n        /* \"#utility.yul\":7221:7223   */\n      0x40\n        /* \"#utility.yul\":7216:7219   */\n      dup3\n        /* \"#utility.yul\":7212:7224   */\n      add\n        /* \"#utility.yul\":7205:7224   */\n      swap1\n      pop\n        /* \"#utility.yul\":6864:7230   */\n      swap2\n      swap1\n      pop\n      jump\t// out\n        /* \"#utility.yul\":7236:7655   */\n    tag_110:\n        /* \"#utility.yul\":7402:7406   */\n      0x00\n        /* \"#utility.yul\":7440:7442   */\n      0x20\n        /* \"#utility.yul\":7429:7438   */\n      dup3\n        /* \"#utility.yul\":7425:7443   */\n      add\n        /* \"#utility.yul\":7417:7443   */\n      swap1\n      pop\n        /* \"#utility.yul\":7489:7498   */\n      dup2\n        /* \"#utility.yul\":7483:7487   */\n      dup2\n        /* \"#utility.yul\":7479:7499   */\n      sub\n        /* \"#utility.yul\":7475:7476   */\n      0x00\n        /* \"#utility.yul\":7464:7473   */\n      dup4\n        /* \"#utility.yul\":7460:7477   */\n      add\n        /* \"#utility.yul\":7453:7500   */\n      mstore\n        /* \"#utility.yul\":7517:7648   */\n      tag_300\n        /* \"#utility.yul\":7643:7647   */\n      dup2\n        /* \"#utility.yul\":7517:7648   */\n      tag_211\n      jump\t// in\n    tag_300:\n        /* \"#utility.yul\":7509:7648   */\n      swap1\n      pop\n        /* \"#utility.yul\":7236:7655   */\n      swap2\n      swap1\n      pop\n      jump\t// out\n        /* \"#utility.yul\":7661:7993   */\n    tag_116:\n        /* \"#utility.yul\":7782:7786   */\n      0x00\n        /* \"#utility.yul\":7820:7822   */\n      0x40\n        /* \"#utility.yul\":7809:7818   */\n      dup3\n        /* \"#utility.yul\":7805:7823   */\n      add\n        /* \"#utility.yul\":7797:7823   */\n      swap1\n      pop\n        /* \"#utility.yul\":7833:7904   */\n      tag_302\n        /* \"#utility.yul\":7901:7902   */\n      0x00\n        /* \"#utility.yul\":7890:7899   */\n      dup4\n        /* \"#utility.yul\":7886:7903   */\n      add\n        /* \"#utility.yul\":7877:7883   */\n      dup6\n        /* \"#utility.yul\":7833:7904   */\n      tag_191\n      jump\t// in\n    tag_302:\n        /* \"#utility.yul\":7914:7986   */\n      tag_303\n        /* \"#utility.yul\":7982:7984   */\n      0x20\n        /* \"#utility.yul\":7971:7980   */\n      dup4\n        /* \"#utility.yul\":7967:7985   */\n      add\n        /* \"#utility.yul\":7958:7964   */\n      dup5\n        /* \"#utility.yul\":7914:7986   */\n      tag_191\n      jump\t// in\n    tag_303:\n        /* \"#utility.yul\":7661:7993   */\n      swap4\n      swap3\n      pop\n      pop\n      pop\n      jump\t// out\n        /* \"#utility.yul\":7999:8171   */\n    tag_212:\n        /* \"#utility.yul\":8139:8163   */\n      0x5072652d73616c65206e6f742066696e616c697a656400000000000000000000\n        /* \"#utility.yul\":8135:8136   */\n      0x00\n        /* \"#utility.yul\":8127:8133   */\n      dup3\n        /* \"#utility.yul\":8123:8137   */\n      add\n        /* \"#utility.yul\":8116:8164   */\n      mstore\n        /* \"#utility.yul\":7999:8171   */\n      pop\n      jump\t// out\n        /* \"#utility.yul\":8177:8543   */\n    tag_213:\n        /* \"#utility.yul\":8319:8322   */\n      0x00\n        /* \"#utility.yul\":8340:8407   */\n      tag_306\n        /* \"#utility.yul\":8404:8406   */\n      0x16\n        /* \"#utility.yul\":8399:8402   */\n      dup4\n        /* \"#utility.yul\":8340:8407   */\n      tag_204\n      jump\t// in\n    tag_306:\n        /* \"#utility.yul\":8333:8407   */\n      swap2\n      pop\n        /* \"#utility.yul\":8416:8509   */\n      tag_307\n        /* \"#utility.yul\":8505:8508   */\n      dup3\n        /* \"#utility.yul\":8416:8509   */\n      tag_212\n      jump\t// in\n    tag_307:\n        /* \"#utility.yul\":8534:8536   */\n      0x20\n        /* \"#utility.yul\":8529:8532   */\n      dup3\n        /* \"#utility.yul\":8525:8537   */\n      add\n        /* \"#utility.yul\":8518:8537   */\n      swap1\n      pop\n        /* \"#utility.yul\":8177:8543   */\n      swap2\n      swap1\n      pop\n      jump\t// out\n        /* \"#utility.yul\":8549:8968   */\n    tag_124:\n        /* \"#utility.yul\":8715:8719   */\n      0x00\n        /* \"#utility.yul\":8753:8755   */\n      0x20\n        /* \"#utility.yul\":8742:8751   */\n      dup3\n        /* \"#utility.yul\":8738:8756   */\n      add\n        /* \"#utility.yul\":8730:8756   */\n      swap1\n      pop\n        /* \"#utility.yul\":8802:8811   */\n      dup2\n        /* \"#utility.yul\":8796:8800   */\n      dup2\n        /* \"#utility.yul\":8792:8812   */\n      sub\n        /* \"#utility.yul\":8788:8789   */\n      0x00\n        /* \"#utility.yul\":8777:8786   */\n      dup4\n        /* \"#utility.yul\":8773:8790   */\n      add\n        /* \"#utility.yul\":8766:8813   */\n      mstore\n        /* \"#utility.yul\":8830:8961   */\n      tag_309\n        /* \"#utility.yul\":8956:8960   */\n      dup2\n        /* \"#utility.yul\":8830:8961   */\n      tag_213\n      jump\t// in\n    tag_309:\n        /* \"#utility.yul\":8822:8961   */\n      swap1\n      pop\n        /* \"#utility.yul\":8549:8968   */\n      swap2\n      swap1\n      pop\n      jump\t// out\n        /* \"#utility.yul\":8974:9142   */\n    tag_214:\n        /* \"#utility.yul\":9114:9134   */\n      0x4e6f20746f6b656e7320746f20636c61696d0000000000000000000000000000\n        /* \"#utility.yul\":9110:9111   */\n      0x00\n        /* \"#utility.yul\":9102:9108   */\n      dup3\n        /* \"#utility.yul\":9098:9112   */\n      add\n        /* \"#utility.yul\":9091:9135   */\n      mstore\n        /* \"#utility.yul\":8974:9142   */\n      pop\n      jump\t// out\n        /* \"#utility.yul\":9148:9514   */\n    tag_215:\n        /* \"#utility.yul\":9290:9293   */\n      0x00\n        /* \"#utility.yul\":9311:9378   */\n      tag_312\n        /* \"#utility.yul\":9375:9377   */\n      0x12\n        /* \"#utility.yul\":9370:9373   */\n      dup4\n        /* \"#utility.yul\":9311:9378   */\n      tag_204\n      jump\t// in\n    tag_312:\n        /* \"#utility.yul\":9304:9378   */\n      swap2\n      pop\n        /* \"#utility.yul\":9387:9480   */\n      tag_313\n        /* \"#utility.yul\":9476:9479   */\n      dup3\n        /* \"#utility.yul\":9387:9480   */\n      tag_214\n      jump\t// in\n    tag_313:\n        /* \"#utility.yul\":9505:9507   */\n      0x20\n        /* \"#utility.yul\":9500:9503   */\n      dup3\n        /* \"#utility.yul\":9496:9508   */\n      add\n        /* \"#utility.yul\":9489:9508   */\n      swap1\n      pop\n        /* \"#utility.yul\":9148:9514   */\n      swap2\n      swap1\n      pop\n      jump\t// out\n        /* \"#utility.yul\":9520:9939   */\n    tag_127:\n        /* \"#utility.yul\":9686:9690   */\n      0x00\n        /* \"#utility.yul\":9724:9726   */\n      0x20\n        /* \"#utility.yul\":9713:9722   */\n      dup3\n        /* \"#utility.yul\":9709:9727   */\n      add\n        /* \"#utility.yul\":9701:9727   */\n      swap1\n      pop\n        /* \"#utility.yul\":9773:9782   */\n      dup2\n        /* \"#utility.yul\":9767:9771   */\n      dup2\n        /* \"#utility.yul\":9763:9783   */\n      sub\n        /* \"#utility.yul\":9759:9760   */\n      0x00\n        /* \"#utility.yul\":9748:9757   */\n      dup4\n        /* \"#utility.yul\":9744:9761   */\n      add\n        /* \"#utility.yul\":9737:9784   */\n      mstore\n        /* \"#utility.yul\":9801:9932   */\n      tag_315\n        /* \"#utility.yul\":9927:9931   */\n      dup2\n        /* \"#utility.yul\":9801:9932   */\n      tag_215\n      jump\t// in\n    tag_315:\n        /* \"#utility.yul\":9793:9932   */\n      swap1\n      pop\n        /* \"#utility.yul\":9520:9939   */\n      swap2\n      swap1\n      pop\n      jump\t// out\n        /* \"#utility.yul\":9945:10277   */\n    tag_130:\n        /* \"#utility.yul\":10066:10070   */\n      0x00\n        /* \"#utility.yul\":10104:10106   */\n      0x40\n        /* \"#utility.yul\":10093:10102   */\n      dup3\n        /* \"#utility.yul\":10089:10107   */\n      add\n        /* \"#utility.yul\":10081:10107   */\n      swap1\n      pop\n        /* \"#utility.yul\":10117:10188   */\n      tag_317\n        /* \"#utility.yul\":10185:10186   */\n      0x00\n        /* \"#utility.yul\":10174:10183   */\n      dup4\n        /* \"#utility.yul\":10170:10187   */\n      add\n        /* \"#utility.yul\":10161:10167   */\n      dup6\n        /* \"#utility.yul\":10117:10188   */\n      tag_189\n      jump\t// in\n    tag_317:\n        /* \"#utility.yul\":10198:10270   */\n      tag_318\n        /* \"#utility.yul\":10266:10268   */\n      0x20\n        /* \"#utility.yul\":10255:10264   */\n      dup4\n        /* \"#utility.yul\":10251:10269   */\n      add\n        /* \"#utility.yul\":10242:10248   */\n      dup5\n        /* \"#utility.yul\":10198:10270   */\n      tag_191\n      jump\t// in\n    tag_318:\n        /* \"#utility.yul\":9945:10277   */\n      swap4\n      swap3\n      pop\n      pop\n      pop\n      jump\t// out\n        /* \"#utility.yul\":10283:10399   */\n    tag_216:\n        /* \"#utility.yul\":10353:10374   */\n      tag_320\n        /* \"#utility.yul\":10368:10373   */\n      dup2\n        /* \"#utility.yul\":10353:10374   */\n      tag_197\n      jump\t// in\n    tag_320:\n        /* \"#utility.yul\":10346:10351   */\n      dup2\n        /* \"#utility.yul\":10343:10375   */\n      eq\n        /* \"#utility.yul\":10333:10393   */\n      tag_321\n      jumpi\n        /* \"#utility.yul\":10389:10390   */\n      0x00\n        /* \"#utility.yul\":10386:10387   */\n      dup1\n        /* \"#utility.yul\":10379:10391   */\n      revert\n        /* \"#utility.yul\":10333:10393   */\n    tag_321:\n        /* \"#utility.yul\":10283:10399   */\n      pop\n      jump\t// out\n        /* \"#utility.yul\":10405:10542   */\n    tag_217:\n        /* \"#utility.yul\":10459:10464   */\n      0x00\n        /* \"#utility.yul\":10490:10496   */\n      dup2\n        /* \"#utility.yul\":10484:10497   */\n      mload\n        /* \"#utility.yul\":10475:10497   */\n      swap1\n      pop\n        /* \"#utility.yul\":10506:10536   */\n      tag_323\n        /* \"#utility.yul\":10530:10535   */\n      dup2\n        /* \"#utility.yul\":10506:10536   */\n      tag_216\n      jump\t// in\n    tag_323:\n        /* \"#utility.yul\":10405:10542   */\n      swap3\n      swap2\n      pop\n      pop\n      jump\t// out\n        /* \"#utility.yul\":10548:10893   */\n    tag_134:\n        /* \"#utility.yul\":10615:10621   */\n      0x00\n        /* \"#utility.yul\":10664:10666   */\n      0x20\n        /* \"#utility.yul\":10652:10661   */\n      dup3\n        /* \"#utility.yul\":10643:10650   */\n      dup5\n        /* \"#utility.yul\":10639:10662   */\n      sub\n        /* \"#utility.yul\":10635:10667   */\n      slt\n        /* \"#utility.yul\":10632:10751   */\n      iszero\n      tag_325\n      jumpi\n        /* \"#utility.yul\":10670:10749   */\n      tag_326\n      tag_193\n      jump\t// in\n    tag_326:\n        /* \"#utility.yul\":10632:10751   */\n    tag_325:\n        /* \"#utility.yul\":10790:10791   */\n      0x00\n        /* \"#utility.yul\":10815:10876   */\n      tag_327\n        /* \"#utility.yul\":10868:10875   */\n      dup5\n        /* \"#utility.yul\":10859:10865   */\n      dup3\n        /* \"#utility.yul\":10848:10857   */\n      dup6\n        /* \"#utility.yul\":10844:10866   */\n      add\n        /* \"#utility.yul\":10815:10876   */\n      tag_217\n      jump\t// in\n    tag_327:\n        /* \"#utility.yul\":10805:10876   */\n      swap2\n      pop\n        /* \"#utility.yul\":10761:10886   */\n      pop\n        /* \"#utility.yul\":10548:10893   */\n      swap3\n      swap2\n      pop\n      pop\n      jump\t// out\n        /* \"#utility.yul\":10899:11075   */\n    tag_218:\n        /* \"#utility.yul\":11039:11067   */\n      0x5072652d73616c6520686173206e6f7420656e64656420796574000000000000\n        /* \"#utility.yul\":11035:11036   */\n      0x00\n        /* \"#utility.yul\":11027:11033   */\n      dup3\n        /* \"#utility.yul\":11023:11037   */\n      add\n        /* \"#utility.yul\":11016:11068   */\n      mstore\n        /* \"#utility.yul\":10899:11075   */\n      pop\n      jump\t// out\n        /* \"#utility.yul\":11081:11447   */\n    tag_219:\n        /* \"#utility.yul\":11223:11226   */\n      0x00\n        /* \"#utility.yul\":11244:11311   */\n      tag_330\n        /* \"#utility.yul\":11308:11310   */\n      0x1a\n        /* \"#utility.yul\":11303:11306   */\n      dup4\n        /* \"#utility.yul\":11244:11311   */\n      tag_204\n      jump\t// in\n    tag_330:\n        /* \"#utility.yul\":11237:11311   */\n      swap2\n      pop\n        /* \"#utility.yul\":11320:11413   */\n      tag_331\n        /* \"#utility.yul\":11409:11412   */\n      dup3\n        /* \"#utility.yul\":11320:11413   */\n      tag_218\n      jump\t// in\n    tag_331:\n        /* \"#utility.yul\":11438:11440   */\n      0x20\n        /* \"#utility.yul\":11433:11436   */\n      dup3\n        /* \"#utility.yul\":11429:11441   */\n      add\n        /* \"#utility.yul\":11422:11441   */\n      swap1\n      pop\n        /* \"#utility.yul\":11081:11447   */\n      swap2\n      swap1\n      pop\n      jump\t// out\n        /* \"#utility.yul\":11453:11872   */\n    tag_147:\n        /* \"#utility.yul\":11619:11623   */\n      0x00\n        /* \"#utility.yul\":11657:11659   */\n      0x20\n        /* \"#utility.yul\":11646:11655   */\n      dup3\n        /* \"#utility.yul\":11642:11660   */\n      add\n        /* \"#utility.yul\":11634:11660   */\n      swap1\n      pop\n        /* \"#utility.yul\":11706:11715   */\n      dup2\n        /* \"#utility.yul\":11700:11704   */\n      dup2\n        /* \"#utility.yul\":11696:11716   */\n      sub\n        /* \"#utility.yul\":11692:11693   */\n      0x00\n        /* \"#utility.yul\":11681:11690   */\n      dup4\n        /* \"#utility.yul\":11677:11694   */\n      add\n        /* \"#utility.yul\":11670:11717   */\n      mstore\n        /* \"#utility.yul\":11734:11865   */\n      tag_333\n        /* \"#utility.yul\":11860:11864   */\n      dup2\n        /* \"#utility.yul\":11734:11865   */\n      tag_219\n      jump\t// in\n    tag_333:\n        /* \"#utility.yul\":11726:11865   */\n      swap1\n      pop\n        /* \"#utility.yul\":11453:11872   */\n      swap2\n      swap1\n      pop\n      jump\t// out\n        /* \"#utility.yul\":11878:12054   */\n    tag_220:\n        /* \"#utility.yul\":12018:12046   */\n      0x5072652d73616c6520616c72656164792066696e616c697a6564000000000000\n        /* \"#utility.yul\":12014:12015   */\n      0x00\n        /* \"#utility.yul\":12006:12012   */\n      dup3\n        /* \"#utility.yul\":12002:12016   */\n      add\n        /* \"#utility.yul\":11995:12047   */\n      mstore\n        /* \"#utility.yul\":11878:12054   */\n      pop\n      jump\t// out\n        /* \"#utility.yul\":12060:12426   */\n    tag_221:\n        /* \"#utility.yul\":12202:12205   */\n      0x00\n        /* \"#utility.yul\":12223:12290   */\n      tag_336\n        /* \"#utility.yul\":12287:12289   */\n      0x1a\n        /* \"#utility.yul\":12282:12285   */\n      dup4\n        /* \"#utility.yul\":12223:12290   */\n      tag_204\n      jump\t// in\n    tag_336:\n        /* \"#utility.yul\":12216:12290   */\n      swap2\n      pop\n        /* \"#utility.yul\":12299:12392   */\n      tag_337\n        /* \"#utility.yul\":12388:12391   */\n      dup3\n        /* \"#utility.yul\":12299:12392   */\n      tag_220\n      jump\t// in\n    tag_337:\n        /* \"#utility.yul\":12417:12419   */\n      0x20\n        /* \"#utility.yul\":12412:12415   */\n      dup3\n        /* \"#utility.yul\":12408:12420   */\n      add\n        /* \"#utility.yul\":12401:12420   */\n      swap1\n      pop\n        /* \"#utility.yul\":12060:12426   */\n      swap2\n      swap1\n      pop\n      jump\t// out\n        /* \"#utility.yul\":12432:12851   */\n    tag_150:\n        /* \"#utility.yul\":12598:12602   */\n      0x00\n        /* \"#utility.yul\":12636:12638   */\n      0x20\n        /* \"#utility.yul\":12625:12634   */\n      dup3\n        /* \"#utility.yul\":12621:12639   */\n      add\n        /* \"#utility.yul\":12613:12639   */\n      swap1\n      pop\n        /* \"#utility.yul\":12685:12694   */\n      dup2\n        /* \"#utility.yul\":12679:12683   */\n      dup2\n        /* \"#utility.yul\":12675:12695   */\n      sub\n        /* \"#utility.yul\":12671:12672   */\n      0x00\n        /* \"#utility.yul\":12660:12669   */\n      dup4\n        /* \"#utility.yul\":12656:12673   */\n      add\n        /* \"#utility.yul\":12649:12696   */\n      mstore\n        /* \"#utility.yul\":12713:12844   */\n      tag_339\n        /* \"#utility.yul\":12839:12843   */\n      dup2\n        /* \"#utility.yul\":12713:12844   */\n      tag_221\n      jump\t// in\n    tag_339:\n        /* \"#utility.yul\":12705:12844   */\n      swap1\n      pop\n        /* \"#utility.yul\":12432:12851   */\n      swap2\n      swap1\n      pop\n      jump\t// out\n        /* \"#utility.yul\":12857:12979   */\n    tag_222:\n        /* \"#utility.yul\":12930:12954   */\n      tag_341\n        /* \"#utility.yul\":12948:12953   */\n      dup2\n        /* \"#utility.yul\":12930:12954   */\n      tag_190\n      jump\t// in\n    tag_341:\n        /* \"#utility.yul\":12923:12928   */\n      dup2\n        /* \"#utility.yul\":12920:12955   */\n      eq\n        /* \"#utility.yul\":12910:12973   */\n      tag_342\n      jumpi\n        /* \"#utility.yul\":12969:12970   */\n      0x00\n        /* \"#utility.yul\":12966:12967   */\n      dup1\n        /* \"#utility.yul\":12959:12971   */\n      revert\n        /* \"#utility.yul\":12910:12973   */\n    tag_342:\n        /* \"#utility.yul\":12857:12979   */\n      pop\n      jump\t// out\n        /* \"#utility.yul\":12985:13128   */\n    tag_223:\n        /* \"#utility.yul\":13042:13047   */\n      0x00\n        /* \"#utility.yul\":13073:13079   */\n      dup2\n        /* \"#utility.yul\":13067:13080   */\n      mload\n        /* \"#utility.yul\":13058:13080   */\n      swap1\n      pop\n        /* \"#utility.yul\":13089:13122   */\n      tag_344\n        /* \"#utility.yul\":13116:13121   */\n      dup2\n        /* \"#utility.yul\":13089:13122   */\n      tag_222\n      jump\t// in\n    tag_344:\n        /* \"#utility.yul\":12985:13128   */\n      swap3\n      swap2\n      pop\n      pop\n      jump\t// out\n        /* \"#utility.yul\":13134:13485   */\n    tag_155:\n        /* \"#utility.yul\":13204:13210   */\n      0x00\n        /* \"#utility.yul\":13253:13255   */\n      0x20\n        /* \"#utility.yul\":13241:13250   */\n      dup3\n        /* \"#utility.yul\":13232:13239   */\n      dup5\n        /* \"#utility.yul\":13228:13251   */\n      sub\n        /* \"#utility.yul\":13224:13256   */\n      slt\n        /* \"#utility.yul\":13221:13340   */\n      iszero\n      tag_346\n      jumpi\n        /* \"#utility.yul\":13259:13338   */\n      tag_347\n      tag_193\n      jump\t// in\n    tag_347:\n        /* \"#utility.yul\":13221:13340   */\n    tag_346:\n        /* \"#utility.yul\":13379:13380   */\n      0x00\n        /* \"#utility.yul\":13404:13468   */\n      tag_348\n        /* \"#utility.yul\":13460:13467   */\n      dup5\n        /* \"#utility.yul\":13451:13457   */\n      dup3\n        /* \"#utility.yul\":13440:13449   */\n      dup6\n        /* \"#utility.yul\":13436:13458   */\n      add\n        /* \"#utility.yul\":13404:13468   */\n      tag_223\n      jump\t// in\n    tag_348:\n        /* \"#utility.yul\":13394:13468   */\n      swap2\n      pop\n        /* \"#utility.yul\":13350:13478   */\n      pop\n        /* \"#utility.yul\":13134:13485   */\n      swap3\n      swap2\n      pop\n      pop\n      jump\t// out\n        /* \"#utility.yul\":13491:13672   */\n    tag_224:\n        /* \"#utility.yul\":13631:13664   */\n      0x5265656e7472616e637947756172643a207265656e7472616e742063616c6c00\n        /* \"#utility.yul\":13627:13628   */\n      0x00\n        /* \"#utility.yul\":13619:13625   */\n      dup3\n        /* \"#utility.yul\":13615:13629   */\n      add\n        /* \"#utility.yul\":13608:13665   */\n      mstore\n        /* \"#utility.yul\":13491:13672   */\n      pop\n      jump\t// out\n        /* \"#utility.yul\":13678:14044   */\n    tag_225:\n        /* \"#utility.yul\":13820:13823   */\n      0x00\n        /* \"#utility.yul\":13841:13908   */\n      tag_351\n        /* \"#utility.yul\":13905:13907   */\n      0x1f\n        /* \"#utility.yul\":13900:13903   */\n      dup4\n        /* \"#utility.yul\":13841:13908   */\n      tag_204\n      jump\t// in\n    tag_351:\n        /* \"#utility.yul\":13834:13908   */\n      swap2\n      pop\n        /* \"#utility.yul\":13917:14010   */\n      tag_352\n        /* \"#utility.yul\":14006:14009   */\n      dup3\n        /* \"#utility.yul\":13917:14010   */\n      tag_224\n      jump\t// in\n    tag_352:\n        /* \"#utility.yul\":14035:14037   */\n      0x20\n        /* \"#utility.yul\":14030:14033   */\n      dup3\n        /* \"#utility.yul\":14026:14038   */\n      add\n        /* \"#utility.yul\":14019:14038   */\n      swap1\n      pop\n        /* \"#utility.yul\":13678:14044   */\n      swap2\n      swap1\n      pop\n      jump\t// out\n        /* \"#utility.yul\":14050:14469   */\n    tag_173:\n        /* \"#utility.yul\":14216:14220   */\n      0x00\n        /* \"#utility.yul\":14254:14256   */\n      0x20\n        /* \"#utility.yul\":14243:14252   */\n      dup3\n        /* \"#utility.yul\":14239:14257   */\n      add\n        /* \"#utility.yul\":14231:14257   */\n      swap1\n      pop\n        /* \"#utility.yul\":14303:14312   */\n      dup2\n        /* \"#utility.yul\":14297:14301   */\n      dup2\n        /* \"#utility.yul\":14293:14313   */\n      sub\n        /* \"#utility.yul\":14289:14290   */\n      0x00\n        /* \"#utility.yul\":14278:14287   */\n      dup4\n        /* \"#utility.yul\":14274:14291   */\n      add\n        /* \"#utility.yul\":14267:14314   */\n      mstore\n        /* \"#utility.yul\":14331:14462   */\n      tag_354\n        /* \"#utility.yul\":14457:14461   */\n      dup2\n        /* \"#utility.yul\":14331:14462   */\n      tag_225\n      jump\t// in\n    tag_354:\n        /* \"#utility.yul\":14323:14462   */\n      swap1\n      pop\n        /* \"#utility.yul\":14050:14469   */\n      swap2\n      swap1\n      pop\n      jump\t// out\n        /* \"#utility.yul\":14475:14885   */\n    tag_176:\n        /* \"#utility.yul\":14515:14522   */\n      0x00\n        /* \"#utility.yul\":14538:14558   */\n      tag_356\n        /* \"#utility.yul\":14556:14557   */\n      dup3\n        /* \"#utility.yul\":14538:14558   */\n      tag_190\n      jump\t// in\n    tag_356:\n        /* \"#utility.yul\":14533:14558   */\n      swap2\n      pop\n        /* \"#utility.yul\":14572:14592   */\n      tag_357\n        /* \"#utility.yul\":14590:14591   */\n      dup4\n        /* \"#utility.yul\":14572:14592   */\n      tag_190\n      jump\t// in\n    tag_357:\n        /* \"#utility.yul\":14567:14592   */\n      swap3\n      pop\n        /* \"#utility.yul\":14627:14628   */\n      dup3\n        /* \"#utility.yul\":14624:14625   */\n      dup3\n        /* \"#utility.yul\":14620:14629   */\n      mul\n        /* \"#utility.yul\":14649:14679   */\n      tag_358\n        /* \"#utility.yul\":14667:14678   */\n      dup2\n        /* \"#utility.yul\":14649:14679   */\n      tag_190\n      jump\t// in\n    tag_358:\n        /* \"#utility.yul\":14638:14679   */\n      swap2\n      pop\n        /* \"#utility.yul\":14828:14829   */\n      dup3\n        /* \"#utility.yul\":14819:14826   */\n      dup3\n        /* \"#utility.yul\":14815:14830   */\n      div\n        /* \"#utility.yul\":14812:14813   */\n      dup5\n        /* \"#utility.yul\":14809:14831   */\n      eq\n        /* \"#utility.yul\":14789:14790   */\n      dup4\n        /* \"#utility.yul\":14782:14791   */\n      iszero\n        /* \"#utility.yul\":14762:14845   */\n      or\n        /* \"#utility.yul\":14739:14878   */\n      tag_359\n      jumpi\n        /* \"#utility.yul\":14858:14876   */\n      tag_360\n      tag_209\n      jump\t// in\n    tag_360:\n        /* \"#utility.yul\":14739:14878   */\n    tag_359:\n        /* \"#utility.yul\":14523:14885   */\n      pop\n        /* \"#utility.yul\":14475:14885   */\n      swap3\n      swap2\n      pop\n      pop\n      jump\t// out\n\n    auxdata: 0xa2646970667358221220e5156069fa3f3387e27892ce893d21df1834bd371802bfb88db055be3c2c4fa564736f6c63430008140033\n}\n",
				"bytecode": {
					"linkReferences": {},
					"object": "60806040525f60095f6101000a81548160ff02191690831515021790555034801562000029575f80fd5b5060405162001b0938038062001b0983398181016040528101906200004f9190620003b9565b335f73ffffffffffffffffffffffffffffffffffffffff168173ffffffffffffffffffffffffffffffffffffffff1603620000c3575f6040517f1e4fbdf7000000000000000000000000000000000000000000000000000000008152600401620000ba919062000478565b60405180910390fd5b620000d4816200025b60201b60201c565b506001808190555081811162000121576040517f08c379a0000000000000000000000000000000000000000000000000000000008152600401620001189062000517565b60405180910390fd5b5f851162000166576040517f08c379a00000000000000000000000000000000000000000000000000000000081526004016200015d9062000585565b60405180910390fd5b5f8411620001ab576040517f08c379a0000000000000000000000000000000000000000000000000000000008152600401620001a29062000619565b60405180910390fd5b8660025f6101000a81548173ffffffffffffffffffffffffffffffffffffffff021916908373ffffffffffffffffffffffffffffffffffffffff1602179055508560035f6101000a81548173ffffffffffffffffffffffffffffffffffffffff021916908373ffffffffffffffffffffffffffffffffffffffff16021790555084600481905550836005819055508260068190555081600781905550806008819055505050505050505062000639565b5f805f9054906101000a900473ffffffffffffffffffffffffffffffffffffffff169050815f806101000a81548173ffffffffffffffffffffffffffffffffffffffff021916908373ffffffffffffffffffffffffffffffffffffffff1602179055508173ffffffffffffffffffffffffffffffffffffffff168173ffffffffffffffffffffffffffffffffffffffff167f8be0079c531659141344cd1fd0a4f28419497f9722a3daafe3b4186f6b6457e060405160405180910390a35050565b5f80fd5b5f73ffffffffffffffffffffffffffffffffffffffff82169050919050565b5f6200034b8262000320565b9050919050565b6200035d816200033f565b811462000368575f80fd5b50565b5f815190506200037b8162000352565b92915050565b5f819050919050565b620003958162000381565b8114620003a0575f80fd5b50565b5f81519050620003b3816200038a565b92915050565b5f805f805f805f60e0888a031215620003d757620003d66200031c565b5b5f620003e68a828b016200036b565b9750506020620003f98a828b016200036b565b96505060406200040c8a828b01620003a3565b95505060606200041f8a828b01620003a3565b9450506080620004328a828b01620003a3565b93505060a0620004458a828b01620003a3565b92505060c0620004588a828b01620003a3565b91505092959891949750929550565b62000472816200033f565b82525050565b5f6020820190506200048d5f83018462000467565b92915050565b5f82825260208201905092915050565b7f456e642074696d65206d7573742062652061667465722073746172742074696d5f8201527f6500000000000000000000000000000000000000000000000000000000000000602082015250565b5f620004ff60218362000493565b91506200050c82620004a3565b604082019050919050565b5f6020820190508181035f8301526200053081620004f1565b9050919050565b7f52617465206d7573742062652067726561746572207468616e203000000000005f82015250565b5f6200056d601b8362000493565b91506200057a8262000537565b602082019050919050565b5f6020820190508181035f8301526200059e816200055f565b9050919050565b7f4d696e20636f6e747269627574696f6e206d75737420626520677265617465725f8201527f207468616e203000000000000000000000000000000000000000000000000000602082015250565b5f6200060160278362000493565b91506200060e82620005a5565b604082019050919050565b5f6020820190508181035f8301526200063281620005f3565b9050919050565b6114c280620006475f395ff3fe6080604052600436106100f6575f3560e01c806378e9792511610089578063b3f05b9711610058578063b3f05b97146102dd578063d0febe4c14610307578063f2fde38b14610311578063fc0c546a1461033957610105565b806378e97925146102355780638d3d65761461025f5780638da5cb5b14610289578063aaffadf3146102b357610105565b806342e94c90116100c557806342e94c90146101b757806348c54b9d146101f3578063715018a6146102095780637376678b1461021f57610105565b80631fc75e411461010f5780632c4e722e146101395780633197cbb61461016357806337c089231461018d57610105565b3661010557610103610363565b005b61010d610363565b005b34801561011a575f80fd5b506101236105ab565b6040516101309190610dae565b60405180910390f35b348015610144575f80fd5b5061014d6105d0565b60405161015a9190610ddf565b60405180910390f35b34801561016e575f80fd5b506101776105d6565b6040516101849190610ddf565b60405180910390f35b348015610198575f80fd5b506101a16105dc565b6040516101ae9190610ddf565b60405180910390f35b3480156101c2575f80fd5b506101dd60048036038101906101d89190610e26565b6105e2565b6040516101ea9190610ddf565b60405180910390f35b3480156101fe575f80fd5b506102076105f7565b005b348015610214575f80fd5b5061021d6107ff565b005b34801561022a575f80fd5b50610233610812565b005b348015610240575f80fd5b50610249610abe565b6040516102569190610ddf565b60405180910390f35b34801561026a575f80fd5b50610273610ac4565b6040516102809190610ddf565b60405180910390f35b348015610294575f80fd5b5061029d610aca565b6040516102aa9190610dae565b60405180910390f35b3480156102be575f80fd5b506102c7610af1565b6040516102d49190610ddf565b60405180910390f35b3480156102e8575f80fd5b506102f1610af7565b6040516102fe9190610e6b565b60405180910390f35b61030f610363565b005b34801561031c575f80fd5b5061033760048036038101906103329190610e26565b610b09565b005b348015610344575f80fd5b5061034d610b8d565b60405161035a9190610edf565b60405180910390f35b61036b610bb2565b7fc09d2df50ba063522fd6763cfb9c99e8e93dee49b8af5450c70a00268ba281b242600754600854346005546006546040516103ac96959493929190610ef8565b60405180910390a160075442101580156103c857506008544211155b610407576040517f08c379a00000000000000000000000000000000000000000000000000000000081526004016103fe90610fb1565b60405180910390fd5b60055434101561044c576040517f08c379a00000000000000000000000000000000000000000000000000000000081526004016104439061103f565b60405180910390fd5b60065434600a5f3373ffffffffffffffffffffffffffffffffffffffff1673ffffffffffffffffffffffffffffffffffffffff1681526020019081526020015f2054610498919061108a565b11156104d9576040517f08c379a00000000000000000000000000000000000000000000000000000000081526004016104d09061112d565b60405180910390fd5b5f6104e334610c01565b905034600a5f3373ffffffffffffffffffffffffffffffffffffffff1673ffffffffffffffffffffffffffffffffffffffff1681526020019081526020015f205f828254610531919061108a565b9250508190555034600b5f828254610549919061108a565b925050819055503373ffffffffffffffffffffffffffffffffffffffff167f8fafebcaf9d154343dad25669bfa277f4fbacd7ac6b0c4fed522580e040a0f33348360405161059892919061114b565b60405180910390a2506105a9610c17565b565b60035f9054906101000a900473ffffffffffffffffffffffffffffffffffffffff1681565b60045481565b60085481565b600b5481565b600a602052805f5260405f205f915090505481565b6105ff610bb2565b60095f9054906101000a900460ff1661064d576040517f08c379a0000000000000000000000000000000000000000000000000000000008152600401610644906111bc565b60405180910390fd5b5f600a5f3373ffffffffffffffffffffffffffffffffffffffff1673ffffffffffffffffffffffffffffffffffffffff1681526020019081526020015f2054116106cc576040517f08c379a00000000000000000000000000000000000000000000000000000000081526004016106c390611224565b60405180910390fd5b5f610713600a5f3373ffffffffffffffffffffffffffffffffffffffff1673ffffffffffffffffffffffffffffffffffffffff1681526020019081526020015f2054610c01565b90505f600a5f3373ffffffffffffffffffffffffffffffffffffffff1673ffffffffffffffffffffffffffffffffffffffff1681526020019081526020015f208190555060025f9054906101000a900473ffffffffffffffffffffffffffffffffffffffff1673ffffffffffffffffffffffffffffffffffffffff1663a9059cbb33836040518363ffffffff1660e01b81526004016107b3929190611242565b6020604051808303815f875af11580156107cf573d5f803e3d5ffd5b505050506040513d601f19601f820116820180604052508101906107f39190611293565b50506107fd610c17565b565b610807610c20565b6108105f610ca7565b565b61081a610c20565b600854421161085e576040517f08c379a000000000000000000000000000000000000000000000000000000000815260040161085590611308565b60405180910390fd5b60095f9054906101000a900460ff16156108ad576040517f08c379a00000000000000000000000000000000000000000000000000000000081526004016108a490611370565b60405180910390fd5b600160095f6101000a81548160ff0219169083151502179055505f60025f9054906101000a900473ffffffffffffffffffffffffffffffffffffffff1673ffffffffffffffffffffffffffffffffffffffff166370a08231306040518263ffffffff1660e01b81526004016109229190610dae565b602060405180830381865afa15801561093d573d5f803e3d5ffd5b505050506040513d601f19601f8201168201806040525081019061096191906113b8565b90505f811115610a2a5760025f9054906101000a900473ffffffffffffffffffffffffffffffffffffffff1673ffffffffffffffffffffffffffffffffffffffff1663a9059cbb60035f9054906101000a900473ffffffffffffffffffffffffffffffffffffffff16836040518363ffffffff1660e01b81526004016109e8929190611242565b6020604051808303815f875af1158015610a04573d5f803e3d5ffd5b505050506040513d601f19601f82011682018060405250810190610a289190611293565b505b60035f9054906101000a900473ffffffffffffffffffffffffffffffffffffffff1673ffffffffffffffffffffffffffffffffffffffff166108fc4790811502906040515f60405180830381858888f19350505050158015610a8e573d5f803e3d5ffd5b507f1ad1caa1c571aefbfc687d24e1f5c54fb44b2a683ce9dd8d68a2c391e5d8321360405160405180910390a150565b60075481565b60065481565b5f805f9054906101000a900473ffffffffffffffffffffffffffffffffffffffff16905090565b60055481565b60095f9054906101000a900460ff1681565b610b11610c20565b5f73ffffffffffffffffffffffffffffffffffffffff168173ffffffffffffffffffffffffffffffffffffffff1603610b81575f6040517f1e4fbdf7000000000000000000000000000000000000000000000000000000008152600401610b789190610dae565b60405180910390fd5b610b8a81610ca7565b50565b60025f9054906101000a900473ffffffffffffffffffffffffffffffffffffffff1681565b600260015403610bf7576040517f08c379a0000000000000000000000000000000000000000000000000000000008152600401610bee9061142d565b60405180910390fd5b6002600181905550565b5f60045482610c10919061144b565b9050919050565b60018081905550565b610c28610d68565b73ffffffffffffffffffffffffffffffffffffffff16610c46610aca565b73ffffffffffffffffffffffffffffffffffffffff1614610ca557610c69610d68565b6040517f118cdaa7000000000000000000000000000000000000000000000000000000008152600401610c9c9190610dae565b60405180910390fd5b565b5f805f9054906101000a900473ffffffffffffffffffffffffffffffffffffffff169050815f806101000a81548173ffffffffffffffffffffffffffffffffffffffff021916908373ffffffffffffffffffffffffffffffffffffffff1602179055508173ffffffffffffffffffffffffffffffffffffffff168173ffffffffffffffffffffffffffffffffffffffff167f8be0079c531659141344cd1fd0a4f28419497f9722a3daafe3b4186f6b6457e060405160405180910390a35050565b5f33905090565b5f73ffffffffffffffffffffffffffffffffffffffff82169050919050565b5f610d9882610d6f565b9050919050565b610da881610d8e565b82525050565b5f602082019050610dc15f830184610d9f565b92915050565b5f819050919050565b610dd981610dc7565b82525050565b5f602082019050610df25f830184610dd0565b92915050565b5f80fd5b610e0581610d8e565b8114610e0f575f80fd5b50565b5f81359050610e2081610dfc565b92915050565b5f60208284031215610e3b57610e3a610df8565b5b5f610e4884828501610e12565b91505092915050565b5f8115159050919050565b610e6581610e51565b82525050565b5f602082019050610e7e5f830184610e5c565b92915050565b5f819050919050565b5f610ea7610ea2610e9d84610d6f565b610e84565b610d6f565b9050919050565b5f610eb882610e8d565b9050919050565b5f610ec982610eae565b9050919050565b610ed981610ebf565b82525050565b5f602082019050610ef25f830184610ed0565b92915050565b5f60c082019050610f0b5f830189610dd0565b610f186020830188610dd0565b610f256040830187610dd0565b610f326060830186610dd0565b610f3f6080830185610dd0565b610f4c60a0830184610dd0565b979650505050505050565b5f82825260208201905092915050565b7f5072652d73616c65206973206e6f7420616374697665000000000000000000005f82015250565b5f610f9b601683610f57565b9150610fa682610f67565b602082019050919050565b5f6020820190508181035f830152610fc881610f8f565b9050919050565b7f436f6e747269627574696f6e2069732062656c6f77206d696e696d756d206c695f8201527f6d69740000000000000000000000000000000000000000000000000000000000602082015250565b5f611029602383610f57565b915061103482610fcf565b604082019050919050565b5f6020820190508181035f8301526110568161101d565b9050919050565b7f4e487b71000000000000000000000000000000000000000000000000000000005f52601160045260245ffd5b5f61109482610dc7565b915061109f83610dc7565b92508282019050808211156110b7576110b661105d565b5b92915050565b7f436f6e747269627574696f6e2065786365656473206d6178696d756d206c696d5f8201527f6974000000000000000000000000000000000000000000000000000000000000602082015250565b5f611117602283610f57565b9150611122826110bd565b604082019050919050565b5f6020820190508181035f8301526111448161110b565b9050919050565b5f60408201905061115e5f830185610dd0565b61116b6020830184610dd0565b9392505050565b7f5072652d73616c65206e6f742066696e616c697a6564000000000000000000005f82015250565b5f6111a6601683610f57565b91506111b182611172565b602082019050919050565b5f6020820190508181035f8301526111d38161119a565b9050919050565b7f4e6f20746f6b656e7320746f20636c61696d00000000000000000000000000005f82015250565b5f61120e601283610f57565b9150611219826111da565b602082019050919050565b5f6020820190508181035f83015261123b81611202565b9050919050565b5f6040820190506112555f830185610d9f565b6112626020830184610dd0565b9392505050565b61127281610e51565b811461127c575f80fd5b50565b5f8151905061128d81611269565b92915050565b5f602082840312156112a8576112a7610df8565b5b5f6112b58482850161127f565b91505092915050565b7f5072652d73616c6520686173206e6f7420656e646564207965740000000000005f82015250565b5f6112f2601a83610f57565b91506112fd826112be565b602082019050919050565b5f6020820190508181035f83015261131f816112e6565b9050919050565b7f5072652d73616c6520616c72656164792066696e616c697a65640000000000005f82015250565b5f61135a601a83610f57565b915061136582611326565b602082019050919050565b5f6020820190508181035f8301526113878161134e565b9050919050565b61139781610dc7565b81146113a1575f80fd5b50565b5f815190506113b28161138e565b92915050565b5f602082840312156113cd576113cc610df8565b5b5f6113da848285016113a4565b91505092915050565b7f5265656e7472616e637947756172643a207265656e7472616e742063616c6c005f82015250565b5f611417601f83610f57565b9150611422826113e3565b602082019050919050565b5f6020820190508181035f8301526114448161140b565b9050919050565b5f61145582610dc7565b915061146083610dc7565b925082820261146e81610dc7565b915082820484148315176114855761148461105d565b5b509291505056fea2646970667358221220e5156069fa3f3387e27892ce893d21df1834bd371802bfb88db055be3c2c4fa564736f6c63430008140033",
					"opcodes": "PUSH1 0x80 PUSH1 0x40 MSTORE PUSH0 PUSH1 0x9 PUSH0 PUSH2 0x100 EXP DUP2 SLOAD DUP2 PUSH1 0xFF MUL NOT AND SWAP1 DUP4 ISZERO ISZERO MUL OR SWAP1 SSTORE POP CALLVALUE DUP1 ISZERO PUSH3 0x29 JUMPI PUSH0 DUP1 REVERT JUMPDEST POP PUSH1 0x40 MLOAD PUSH3 0x1B09 CODESIZE SUB DUP1 PUSH3 0x1B09 DUP4 CODECOPY DUP2 DUP2 ADD PUSH1 0x40 MSTORE DUP2 ADD SWAP1 PUSH3 0x4F SWAP2 SWAP1 PUSH3 0x3B9 JUMP JUMPDEST CALLER PUSH0 PUSH20 0xFFFFFFFFFFFFFFFFFFFFFFFFFFFFFFFFFFFFFFFF AND DUP2 PUSH20 0xFFFFFFFFFFFFFFFFFFFFFFFFFFFFFFFFFFFFFFFF AND SUB PUSH3 0xC3 JUMPI PUSH0 PUSH1 0x40 MLOAD PUSH32 0x1E4FBDF700000000000000000000000000000000000000000000000000000000 DUP2 MSTORE PUSH1 0x4 ADD PUSH3 0xBA SWAP2 SWAP1 PUSH3 0x478 JUMP JUMPDEST PUSH1 0x40 MLOAD DUP1 SWAP2 SUB SWAP1 REVERT JUMPDEST PUSH3 0xD4 DUP2 PUSH3 0x25B PUSH1 0x20 SHL PUSH1 0x20 SHR JUMP JUMPDEST POP PUSH1 0x1 DUP1 DUP2 SWAP1 SSTORE POP DUP2 DUP2 GT PUSH3 0x121 JUMPI PUSH1 0x40 MLOAD PUSH32 0x8C379A000000000000000000000000000000000000000000000000000000000 DUP2 MSTORE PUSH1 0x4 ADD PUSH3 0x118 SWAP1 PUSH3 0x517 JUMP JUMPDEST PUSH1 0x40 MLOAD DUP1 SWAP2 SUB SWAP1 REVERT JUMPDEST PUSH0 DUP6 GT PUSH3 0x166 JUMPI PUSH1 0x40 MLOAD PUSH32 0x8C379A000000000000000000000000000000000000000000000000000000000 DUP2 MSTORE PUSH1 0x4 ADD PUSH3 0x15D SWAP1 PUSH3 0x585 JUMP JUMPDEST PUSH1 0x40 MLOAD DUP1 SWAP2 SUB SWAP1 REVERT JUMPDEST PUSH0 DUP5 GT PUSH3 0x1AB JUMPI PUSH1 0x40 MLOAD PUSH32 0x8C379A000000000000000000000000000000000000000000000000000000000 DUP2 MSTORE PUSH1 0x4 ADD PUSH3 0x1A2 SWAP1 PUSH3 0x619 JUMP JUMPDEST PUSH1 0x40 MLOAD DUP1 SWAP2 SUB SWAP1 REVERT JUMPDEST DUP7 PUSH1 0x2 PUSH0 PUSH2 0x100 EXP DUP2 SLOAD DUP2 PUSH20 0xFFFFFFFFFFFFFFFFFFFFFFFFFFFFFFFFFFFFFFFF MUL NOT AND SWAP1 DUP4 PUSH20 0xFFFFFFFFFFFFFFFFFFFFFFFFFFFFFFFFFFFFFFFF AND MUL OR SWAP1 SSTORE POP DUP6 PUSH1 0x3 PUSH0 PUSH2 0x100 EXP DUP2 SLOAD DUP2 PUSH20 0xFFFFFFFFFFFFFFFFFFFFFFFFFFFFFFFFFFFFFFFF MUL NOT AND SWAP1 DUP4 PUSH20 0xFFFFFFFFFFFFFFFFFFFFFFFFFFFFFFFFFFFFFFFF AND MUL OR SWAP1 SSTORE POP DUP5 PUSH1 0x4 DUP2 SWAP1 SSTORE POP DUP4 PUSH1 0x5 DUP2 SWAP1 SSTORE POP DUP3 PUSH1 0x6 DUP2 SWAP1 SSTORE POP DUP2 PUSH1 0x7 DUP2 SWAP1 SSTORE POP DUP1 PUSH1 0x8 DUP2 SWAP1 SSTORE POP POP POP POP POP POP POP POP PUSH3 0x639 JUMP JUMPDEST PUSH0 DUP1 PUSH0 SWAP1 SLOAD SWAP1 PUSH2 0x100 EXP SWAP1 DIV PUSH20 0xFFFFFFFFFFFFFFFFFFFFFFFFFFFFFFFFFFFFFFFF AND SWAP1 POP DUP2 PUSH0 DUP1 PUSH2 0x100 EXP DUP2 SLOAD DUP2 PUSH20 0xFFFFFFFFFFFFFFFFFFFFFFFFFFFFFFFFFFFFFFFF MUL NOT AND SWAP1 DUP4 PUSH20 0xFFFFFFFFFFFFFFFFFFFFFFFFFFFFFFFFFFFFFFFF AND MUL OR SWAP1 SSTORE POP DUP2 PUSH20 0xFFFFFFFFFFFFFFFFFFFFFFFFFFFFFFFFFFFFFFFF AND DUP2 PUSH20 0xFFFFFFFFFFFFFFFFFFFFFFFFFFFFFFFFFFFFFFFF AND PUSH32 0x8BE0079C531659141344CD1FD0A4F28419497F9722A3DAAFE3B4186F6B6457E0 PUSH1 0x40 MLOAD PUSH1 0x40 MLOAD DUP1 SWAP2 SUB SWAP1 LOG3 POP POP JUMP JUMPDEST PUSH0 DUP1 REVERT JUMPDEST PUSH0 PUSH20 0xFFFFFFFFFFFFFFFFFFFFFFFFFFFFFFFFFFFFFFFF DUP3 AND SWAP1 POP SWAP2 SWAP1 POP JUMP JUMPDEST PUSH0 PUSH3 0x34B DUP3 PUSH3 0x320 JUMP JUMPDEST SWAP1 POP SWAP2 SWAP1 POP JUMP JUMPDEST PUSH3 0x35D DUP2 PUSH3 0x33F JUMP JUMPDEST DUP2 EQ PUSH3 0x368 JUMPI PUSH0 DUP1 REVERT JUMPDEST POP JUMP JUMPDEST PUSH0 DUP2 MLOAD SWAP1 POP PUSH3 0x37B DUP2 PUSH3 0x352 JUMP JUMPDEST SWAP3 SWAP2 POP POP JUMP JUMPDEST PUSH0 DUP2 SWAP1 POP SWAP2 SWAP1 POP JUMP JUMPDEST PUSH3 0x395 DUP2 PUSH3 0x381 JUMP JUMPDEST DUP2 EQ PUSH3 0x3A0 JUMPI PUSH0 DUP1 REVERT JUMPDEST POP JUMP JUMPDEST PUSH0 DUP2 MLOAD SWAP1 POP PUSH3 0x3B3 DUP2 PUSH3 0x38A JUMP JUMPDEST SWAP3 SWAP2 POP POP JUMP JUMPDEST PUSH0 DUP1 PUSH0 DUP1 PUSH0 DUP1 PUSH0 PUSH1 0xE0 DUP9 DUP11 SUB SLT ISZERO PUSH3 0x3D7 JUMPI PUSH3 0x3D6 PUSH3 0x31C JUMP JUMPDEST JUMPDEST PUSH0 PUSH3 0x3E6 DUP11 DUP3 DUP12 ADD PUSH3 0x36B JUMP JUMPDEST SWAP8 POP POP PUSH1 0x20 PUSH3 0x3F9 DUP11 DUP3 DUP12 ADD PUSH3 0x36B JUMP JUMPDEST SWAP7 POP POP PUSH1 0x40 PUSH3 0x40C DUP11 DUP3 DUP12 ADD PUSH3 0x3A3 JUMP JUMPDEST SWAP6 POP POP PUSH1 0x60 PUSH3 0x41F DUP11 DUP3 DUP12 ADD PUSH3 0x3A3 JUMP JUMPDEST SWAP5 POP POP PUSH1 0x80 PUSH3 0x432 DUP11 DUP3 DUP12 ADD PUSH3 0x3A3 JUMP JUMPDEST SWAP4 POP POP PUSH1 0xA0 PUSH3 0x445 DUP11 DUP3 DUP12 ADD PUSH3 0x3A3 JUMP JUMPDEST SWAP3 POP POP PUSH1 0xC0 PUSH3 0x458 DUP11 DUP3 DUP12 ADD PUSH3 0x3A3 JUMP JUMPDEST SWAP2 POP POP SWAP3 SWAP6 SWAP9 SWAP2 SWAP5 SWAP8 POP SWAP3 SWAP6 POP JUMP JUMPDEST PUSH3 0x472 DUP2 PUSH3 0x33F JUMP JUMPDEST DUP3 MSTORE POP POP JUMP JUMPDEST PUSH0 PUSH1 0x20 DUP3 ADD SWAP1 POP PUSH3 0x48D PUSH0 DUP4 ADD DUP5 PUSH3 0x467 JUMP JUMPDEST SWAP3 SWAP2 POP POP JUMP JUMPDEST PUSH0 DUP3 DUP3 MSTORE PUSH1 0x20 DUP3 ADD SWAP1 POP SWAP3 SWAP2 POP POP JUMP JUMPDEST PUSH32 0x456E642074696D65206D7573742062652061667465722073746172742074696D PUSH0 DUP3 ADD MSTORE PUSH32 0x6500000000000000000000000000000000000000000000000000000000000000 PUSH1 0x20 DUP3 ADD MSTORE POP JUMP JUMPDEST PUSH0 PUSH3 0x4FF PUSH1 0x21 DUP4 PUSH3 0x493 JUMP JUMPDEST SWAP2 POP PUSH3 0x50C DUP3 PUSH3 0x4A3 JUMP JUMPDEST PUSH1 0x40 DUP3 ADD SWAP1 POP SWAP2 SWAP1 POP JUMP JUMPDEST PUSH0 PUSH1 0x20 DUP3 ADD SWAP1 POP DUP2 DUP2 SUB PUSH0 DUP4 ADD MSTORE PUSH3 0x530 DUP2 PUSH3 0x4F1 JUMP JUMPDEST SWAP1 POP SWAP2 SWAP1 POP JUMP JUMPDEST PUSH32 0x52617465206D7573742062652067726561746572207468616E20300000000000 PUSH0 DUP3 ADD MSTORE POP JUMP JUMPDEST PUSH0 PUSH3 0x56D PUSH1 0x1B DUP4 PUSH3 0x493 JUMP JUMPDEST SWAP2 POP PUSH3 0x57A DUP3 PUSH3 0x537 JUMP JUMPDEST PUSH1 0x20 DUP3 ADD SWAP1 POP SWAP2 SWAP1 POP JUMP JUMPDEST PUSH0 PUSH1 0x20 DUP3 ADD SWAP1 POP DUP2 DUP2 SUB PUSH0 DUP4 ADD MSTORE PUSH3 0x59E DUP2 PUSH3 0x55F JUMP JUMPDEST SWAP1 POP SWAP2 SWAP1 POP JUMP JUMPDEST PUSH32 0x4D696E20636F6E747269627574696F6E206D7573742062652067726561746572 PUSH0 DUP3 ADD MSTORE PUSH32 0x207468616E203000000000000000000000000000000000000000000000000000 PUSH1 0x20 DUP3 ADD MSTORE POP JUMP JUMPDEST PUSH0 PUSH3 0x601 PUSH1 0x27 DUP4 PUSH3 0x493 JUMP JUMPDEST SWAP2 POP PUSH3 0x60E DUP3 PUSH3 0x5A5 JUMP JUMPDEST PUSH1 0x40 DUP3 ADD SWAP1 POP SWAP2 SWAP1 POP JUMP JUMPDEST PUSH0 PUSH1 0x20 DUP3 ADD SWAP1 POP DUP2 DUP2 SUB PUSH0 DUP4 ADD MSTORE PUSH3 0x632 DUP2 PUSH3 0x5F3 JUMP JUMPDEST SWAP1 POP SWAP2 SWAP1 POP JUMP JUMPDEST PUSH2 0x14C2 DUP1 PUSH3 0x647 PUSH0 CODECOPY PUSH0 RETURN INVALID PUSH1 0x80 PUSH1 0x40 MSTORE PUSH1 0x4 CALLDATASIZE LT PUSH2 0xF6 JUMPI PUSH0 CALLDATALOAD PUSH1 0xE0 SHR DUP1 PUSH4 0x78E97925 GT PUSH2 0x89 JUMPI DUP1 PUSH4 0xB3F05B97 GT PUSH2 0x58 JUMPI DUP1 PUSH4 0xB3F05B97 EQ PUSH2 0x2DD JUMPI DUP1 PUSH4 0xD0FEBE4C EQ PUSH2 0x307 JUMPI DUP1 PUSH4 0xF2FDE38B EQ PUSH2 0x311 JUMPI DUP1 PUSH4 0xFC0C546A EQ PUSH2 0x339 JUMPI PUSH2 0x105 JUMP JUMPDEST DUP1 PUSH4 0x78E97925 EQ PUSH2 0x235 JUMPI DUP1 PUSH4 0x8D3D6576 EQ PUSH2 0x25F JUMPI DUP1 PUSH4 0x8DA5CB5B EQ PUSH2 0x289 JUMPI DUP1 PUSH4 0xAAFFADF3 EQ PUSH2 0x2B3 JUMPI PUSH2 0x105 JUMP JUMPDEST DUP1 PUSH4 0x42E94C90 GT PUSH2 0xC5 JUMPI DUP1 PUSH4 0x42E94C90 EQ PUSH2 0x1B7 JUMPI DUP1 PUSH4 0x48C54B9D EQ PUSH2 0x1F3 JUMPI DUP1 PUSH4 0x715018A6 EQ PUSH2 0x209 JUMPI DUP1 PUSH4 0x7376678B EQ PUSH2 0x21F JUMPI PUSH2 0x105 JUMP JUMPDEST DUP1 PUSH4 0x1FC75E41 EQ PUSH2 0x10F JUMPI DUP1 PUSH4 0x2C4E722E EQ PUSH2 0x139 JUMPI DUP1 PUSH4 0x3197CBB6 EQ PUSH2 0x163 JUMPI DUP1 PUSH4 0x37C08923 EQ PUSH2 0x18D JUMPI PUSH2 0x105 JUMP JUMPDEST CALLDATASIZE PUSH2 0x105 JUMPI PUSH2 0x103 PUSH2 0x363 JUMP JUMPDEST STOP JUMPDEST PUSH2 0x10D PUSH2 0x363 JUMP JUMPDEST STOP JUMPDEST CALLVALUE DUP1 ISZERO PUSH2 0x11A JUMPI PUSH0 DUP1 REVERT JUMPDEST POP PUSH2 0x123 PUSH2 0x5AB JUMP JUMPDEST PUSH1 0x40 MLOAD PUSH2 0x130 SWAP2 SWAP1 PUSH2 0xDAE JUMP JUMPDEST PUSH1 0x40 MLOAD DUP1 SWAP2 SUB SWAP1 RETURN JUMPDEST CALLVALUE DUP1 ISZERO PUSH2 0x144 JUMPI PUSH0 DUP1 REVERT JUMPDEST POP PUSH2 0x14D PUSH2 0x5D0 JUMP JUMPDEST PUSH1 0x40 MLOAD PUSH2 0x15A SWAP2 SWAP1 PUSH2 0xDDF JUMP JUMPDEST PUSH1 0x40 MLOAD DUP1 SWAP2 SUB SWAP1 RETURN JUMPDEST CALLVALUE DUP1 ISZERO PUSH2 0x16E JUMPI PUSH0 DUP1 REVERT JUMPDEST POP PUSH2 0x177 PUSH2 0x5D6 JUMP JUMPDEST PUSH1 0x40 MLOAD PUSH2 0x184 SWAP2 SWAP1 PUSH2 0xDDF JUMP JUMPDEST PUSH1 0x40 MLOAD DUP1 SWAP2 SUB SWAP1 RETURN JUMPDEST CALLVALUE DUP1 ISZERO PUSH2 0x198 JUMPI PUSH0 DUP1 REVERT JUMPDEST POP PUSH2 0x1A1 PUSH2 0x5DC JUMP JUMPDEST PUSH1 0x40 MLOAD PUSH2 0x1AE SWAP2 SWAP1 PUSH2 0xDDF JUMP JUMPDEST PUSH1 0x40 MLOAD DUP1 SWAP2 SUB SWAP1 RETURN JUMPDEST CALLVALUE DUP1 ISZERO PUSH2 0x1C2 JUMPI PUSH0 DUP1 REVERT JUMPDEST POP PUSH2 0x1DD PUSH1 0x4 DUP1 CALLDATASIZE SUB DUP2 ADD SWAP1 PUSH2 0x1D8 SWAP2 SWAP1 PUSH2 0xE26 JUMP JUMPDEST PUSH2 0x5E2 JUMP JUMPDEST PUSH1 0x40 MLOAD PUSH2 0x1EA SWAP2 SWAP1 PUSH2 0xDDF JUMP JUMPDEST PUSH1 0x40 MLOAD DUP1 SWAP2 SUB SWAP1 RETURN JUMPDEST CALLVALUE DUP1 ISZERO PUSH2 0x1FE JUMPI PUSH0 DUP1 REVERT JUMPDEST POP PUSH2 0x207 PUSH2 0x5F7 JUMP JUMPDEST STOP JUMPDEST CALLVALUE DUP1 ISZERO PUSH2 0x214 JUMPI PUSH0 DUP1 REVERT JUMPDEST POP PUSH2 0x21D PUSH2 0x7FF JUMP JUMPDEST STOP JUMPDEST CALLVALUE DUP1 ISZERO PUSH2 0x22A JUMPI PUSH0 DUP1 REVERT JUMPDEST POP PUSH2 0x233 PUSH2 0x812 JUMP JUMPDEST STOP JUMPDEST CALLVALUE DUP1 ISZERO PUSH2 0x240 JUMPI PUSH0 DUP1 REVERT JUMPDEST POP PUSH2 0x249 PUSH2 0xABE JUMP JUMPDEST PUSH1 0x40 MLOAD PUSH2 0x256 SWAP2 SWAP1 PUSH2 0xDDF JUMP JUMPDEST PUSH1 0x40 MLOAD DUP1 SWAP2 SUB SWAP1 RETURN JUMPDEST CALLVALUE DUP1 ISZERO PUSH2 0x26A JUMPI PUSH0 DUP1 REVERT JUMPDEST POP PUSH2 0x273 PUSH2 0xAC4 JUMP JUMPDEST PUSH1 0x40 MLOAD PUSH2 0x280 SWAP2 SWAP1 PUSH2 0xDDF JUMP JUMPDEST PUSH1 0x40 MLOAD DUP1 SWAP2 SUB SWAP1 RETURN JUMPDEST CALLVALUE DUP1 ISZERO PUSH2 0x294 JUMPI PUSH0 DUP1 REVERT JUMPDEST POP PUSH2 0x29D PUSH2 0xACA JUMP JUMPDEST PUSH1 0x40 MLOAD PUSH2 0x2AA SWAP2 SWAP1 PUSH2 0xDAE JUMP JUMPDEST PUSH1 0x40 MLOAD DUP1 SWAP2 SUB SWAP1 RETURN JUMPDEST CALLVALUE DUP1 ISZERO PUSH2 0x2BE JUMPI PUSH0 DUP1 REVERT JUMPDEST POP PUSH2 0x2C7 PUSH2 0xAF1 JUMP JUMPDEST PUSH1 0x40 MLOAD PUSH2 0x2D4 SWAP2 SWAP1 PUSH2 0xDDF JUMP JUMPDEST PUSH1 0x40 MLOAD DUP1 SWAP2 SUB SWAP1 RETURN JUMPDEST CALLVALUE DUP1 ISZERO PUSH2 0x2E8 JUMPI PUSH0 DUP1 REVERT JUMPDEST POP PUSH2 0x2F1 PUSH2 0xAF7 JUMP JUMPDEST PUSH1 0x40 MLOAD PUSH2 0x2FE SWAP2 SWAP1 PUSH2 0xE6B JUMP JUMPDEST PUSH1 0x40 MLOAD DUP1 SWAP2 SUB SWAP1 RETURN JUMPDEST PUSH2 0x30F PUSH2 0x363 JUMP JUMPDEST STOP JUMPDEST CALLVALUE DUP1 ISZERO PUSH2 0x31C JUMPI PUSH0 DUP1 REVERT JUMPDEST POP PUSH2 0x337 PUSH1 0x4 DUP1 CALLDATASIZE SUB DUP2 ADD SWAP1 PUSH2 0x332 SWAP2 SWAP1 PUSH2 0xE26 JUMP JUMPDEST PUSH2 0xB09 JUMP JUMPDEST STOP JUMPDEST CALLVALUE DUP1 ISZERO PUSH2 0x344 JUMPI PUSH0 DUP1 REVERT JUMPDEST POP PUSH2 0x34D PUSH2 0xB8D JUMP JUMPDEST PUSH1 0x40 MLOAD PUSH2 0x35A SWAP2 SWAP1 PUSH2 0xEDF JUMP JUMPDEST PUSH1 0x40 MLOAD DUP1 SWAP2 SUB SWAP1 RETURN JUMPDEST PUSH2 0x36B PUSH2 0xBB2 JUMP JUMPDEST PUSH32 0xC09D2DF50BA063522FD6763CFB9C99E8E93DEE49B8AF5450C70A00268BA281B2 TIMESTAMP PUSH1 0x7 SLOAD PUSH1 0x8 SLOAD CALLVALUE PUSH1 0x5 SLOAD PUSH1 0x6 SLOAD PUSH1 0x40 MLOAD PUSH2 0x3AC SWAP7 SWAP6 SWAP5 SWAP4 SWAP3 SWAP2 SWAP1 PUSH2 0xEF8 JUMP JUMPDEST PUSH1 0x40 MLOAD DUP1 SWAP2 SUB SWAP1 LOG1 PUSH1 0x7 SLOAD TIMESTAMP LT ISZERO DUP1 ISZERO PUSH2 0x3C8 JUMPI POP PUSH1 0x8 SLOAD TIMESTAMP GT ISZERO JUMPDEST PUSH2 0x407 JUMPI PUSH1 0x40 MLOAD PUSH32 0x8C379A000000000000000000000000000000000000000000000000000000000 DUP2 MSTORE PUSH1 0x4 ADD PUSH2 0x3FE SWAP1 PUSH2 0xFB1 JUMP JUMPDEST PUSH1 0x40 MLOAD DUP1 SWAP2 SUB SWAP1 REVERT JUMPDEST PUSH1 0x5 SLOAD CALLVALUE LT ISZERO PUSH2 0x44C JUMPI PUSH1 0x40 MLOAD PUSH32 0x8C379A000000000000000000000000000000000000000000000000000000000 DUP2 MSTORE PUSH1 0x4 ADD PUSH2 0x443 SWAP1 PUSH2 0x103F JUMP JUMPDEST PUSH1 0x40 MLOAD DUP1 SWAP2 SUB SWAP1 REVERT JUMPDEST PUSH1 0x6 SLOAD CALLVALUE PUSH1 0xA PUSH0 CALLER PUSH20 0xFFFFFFFFFFFFFFFFFFFFFFFFFFFFFFFFFFFFFFFF AND PUSH20 0xFFFFFFFFFFFFFFFFFFFFFFFFFFFFFFFFFFFFFFFF AND DUP2 MSTORE PUSH1 0x20 ADD SWAP1 DUP2 MSTORE PUSH1 0x20 ADD PUSH0 KECCAK256 SLOAD PUSH2 0x498 SWAP2 SWAP1 PUSH2 0x108A JUMP JUMPDEST GT ISZERO PUSH2 0x4D9 JUMPI PUSH1 0x40 MLOAD PUSH32 0x8C379A000000000000000000000000000000000000000000000000000000000 DUP2 MSTORE PUSH1 0x4 ADD PUSH2 0x4D0 SWAP1 PUSH2 0x112D JUMP JUMPDEST PUSH1 0x40 MLOAD DUP1 SWAP2 SUB SWAP1 REVERT JUMPDEST PUSH0 PUSH2 0x4E3 CALLVALUE PUSH2 0xC01 JUMP JUMPDEST SWAP1 POP CALLVALUE PUSH1 0xA PUSH0 CALLER PUSH20 0xFFFFFFFFFFFFFFFFFFFFFFFFFFFFFFFFFFFFFFFF AND PUSH20 0xFFFFFFFFFFFFFFFFFFFFFFFFFFFFFFFFFFFFFFFF AND DUP2 MSTORE PUSH1 0x20 ADD SWAP1 DUP2 MSTORE PUSH1 0x20 ADD PUSH0 KECCAK256 PUSH0 DUP3 DUP3 SLOAD PUSH2 0x531 SWAP2 SWAP1 PUSH2 0x108A JUMP JUMPDEST SWAP3 POP POP DUP2 SWAP1 SSTORE POP CALLVALUE PUSH1 0xB PUSH0 DUP3 DUP3 SLOAD PUSH2 0x549 SWAP2 SWAP1 PUSH2 0x108A JUMP JUMPDEST SWAP3 POP POP DUP2 SWAP1 SSTORE POP CALLER PUSH20 0xFFFFFFFFFFFFFFFFFFFFFFFFFFFFFFFFFFFFFFFF AND PUSH32 0x8FAFEBCAF9D154343DAD25669BFA277F4FBACD7AC6B0C4FED522580E040A0F33 CALLVALUE DUP4 PUSH1 0x40 MLOAD PUSH2 0x598 SWAP3 SWAP2 SWAP1 PUSH2 0x114B JUMP JUMPDEST PUSH1 0x40 MLOAD DUP1 SWAP2 SUB SWAP1 LOG2 POP PUSH2 0x5A9 PUSH2 0xC17 JUMP JUMPDEST JUMP JUMPDEST PUSH1 0x3 PUSH0 SWAP1 SLOAD SWAP1 PUSH2 0x100 EXP SWAP1 DIV PUSH20 0xFFFFFFFFFFFFFFFFFFFFFFFFFFFFFFFFFFFFFFFF AND DUP2 JUMP JUMPDEST PUSH1 0x4 SLOAD DUP2 JUMP JUMPDEST PUSH1 0x8 SLOAD DUP2 JUMP JUMPDEST PUSH1 0xB SLOAD DUP2 JUMP JUMPDEST PUSH1 0xA PUSH1 0x20 MSTORE DUP1 PUSH0 MSTORE PUSH1 0x40 PUSH0 KECCAK256 PUSH0 SWAP2 POP SWAP1 POP SLOAD DUP2 JUMP JUMPDEST PUSH2 0x5FF PUSH2 0xBB2 JUMP JUMPDEST PUSH1 0x9 PUSH0 SWAP1 SLOAD SWAP1 PUSH2 0x100 EXP SWAP1 DIV PUSH1 0xFF AND PUSH2 0x64D JUMPI PUSH1 0x40 MLOAD PUSH32 0x8C379A000000000000000000000000000000000000000000000000000000000 DUP2 MSTORE PUSH1 0x4 ADD PUSH2 0x644 SWAP1 PUSH2 0x11BC JUMP JUMPDEST PUSH1 0x40 MLOAD DUP1 SWAP2 SUB SWAP1 REVERT JUMPDEST PUSH0 PUSH1 0xA PUSH0 CALLER PUSH20 0xFFFFFFFFFFFFFFFFFFFFFFFFFFFFFFFFFFFFFFFF AND PUSH20 0xFFFFFFFFFFFFFFFFFFFFFFFFFFFFFFFFFFFFFFFF AND DUP2 MSTORE PUSH1 0x20 ADD SWAP1 DUP2 MSTORE PUSH1 0x20 ADD PUSH0 KECCAK256 SLOAD GT PUSH2 0x6CC JUMPI PUSH1 0x40 MLOAD PUSH32 0x8C379A000000000000000000000000000000000000000000000000000000000 DUP2 MSTORE PUSH1 0x4 ADD PUSH2 0x6C3 SWAP1 PUSH2 0x1224 JUMP JUMPDEST PUSH1 0x40 MLOAD DUP1 SWAP2 SUB SWAP1 REVERT JUMPDEST PUSH0 PUSH2 0x713 PUSH1 0xA PUSH0 CALLER PUSH20 0xFFFFFFFFFFFFFFFFFFFFFFFFFFFFFFFFFFFFFFFF AND PUSH20 0xFFFFFFFFFFFFFFFFFFFFFFFFFFFFFFFFFFFFFFFF AND DUP2 MSTORE PUSH1 0x20 ADD SWAP1 DUP2 MSTORE PUSH1 0x20 ADD PUSH0 KECCAK256 SLOAD PUSH2 0xC01 JUMP JUMPDEST SWAP1 POP PUSH0 PUSH1 0xA PUSH0 CALLER PUSH20 0xFFFFFFFFFFFFFFFFFFFFFFFFFFFFFFFFFFFFFFFF AND PUSH20 0xFFFFFFFFFFFFFFFFFFFFFFFFFFFFFFFFFFFFFFFF AND DUP2 MSTORE PUSH1 0x20 ADD SWAP1 DUP2 MSTORE PUSH1 0x20 ADD PUSH0 KECCAK256 DUP2 SWAP1 SSTORE POP PUSH1 0x2 PUSH0 SWAP1 SLOAD SWAP1 PUSH2 0x100 EXP SWAP1 DIV PUSH20 0xFFFFFFFFFFFFFFFFFFFFFFFFFFFFFFFFFFFFFFFF AND PUSH20 0xFFFFFFFFFFFFFFFFFFFFFFFFFFFFFFFFFFFFFFFF AND PUSH4 0xA9059CBB CALLER DUP4 PUSH1 0x40 MLOAD DUP4 PUSH4 0xFFFFFFFF AND PUSH1 0xE0 SHL DUP2 MSTORE PUSH1 0x4 ADD PUSH2 0x7B3 SWAP3 SWAP2 SWAP1 PUSH2 0x1242 JUMP JUMPDEST PUSH1 0x20 PUSH1 0x40 MLOAD DUP1 DUP4 SUB DUP2 PUSH0 DUP8 GAS CALL ISZERO DUP1 ISZERO PUSH2 0x7CF JUMPI RETURNDATASIZE PUSH0 DUP1 RETURNDATACOPY RETURNDATASIZE PUSH0 REVERT JUMPDEST POP POP POP POP PUSH1 0x40 MLOAD RETURNDATASIZE PUSH1 0x1F NOT PUSH1 0x1F DUP3 ADD AND DUP3 ADD DUP1 PUSH1 0x40 MSTORE POP DUP2 ADD SWAP1 PUSH2 0x7F3 SWAP2 SWAP1 PUSH2 0x1293 JUMP JUMPDEST POP POP PUSH2 0x7FD PUSH2 0xC17 JUMP JUMPDEST JUMP JUMPDEST PUSH2 0x807 PUSH2 0xC20 JUMP JUMPDEST PUSH2 0x810 PUSH0 PUSH2 0xCA7 JUMP JUMPDEST JUMP JUMPDEST PUSH2 0x81A PUSH2 0xC20 JUMP JUMPDEST PUSH1 0x8 SLOAD TIMESTAMP GT PUSH2 0x85E JUMPI PUSH1 0x40 MLOAD PUSH32 0x8C379A000000000000000000000000000000000000000000000000000000000 DUP2 MSTORE PUSH1 0x4 ADD PUSH2 0x855 SWAP1 PUSH2 0x1308 JUMP JUMPDEST PUSH1 0x40 MLOAD DUP1 SWAP2 SUB SWAP1 REVERT JUMPDEST PUSH1 0x9 PUSH0 SWAP1 SLOAD SWAP1 PUSH2 0x100 EXP SWAP1 DIV PUSH1 0xFF AND ISZERO PUSH2 0x8AD JUMPI PUSH1 0x40 MLOAD PUSH32 0x8C379A000000000000000000000000000000000000000000000000000000000 DUP2 MSTORE PUSH1 0x4 ADD PUSH2 0x8A4 SWAP1 PUSH2 0x1370 JUMP JUMPDEST PUSH1 0x40 MLOAD DUP1 SWAP2 SUB SWAP1 REVERT JUMPDEST PUSH1 0x1 PUSH1 0x9 PUSH0 PUSH2 0x100 EXP DUP2 SLOAD DUP2 PUSH1 0xFF MUL NOT AND SWAP1 DUP4 ISZERO ISZERO MUL OR SWAP1 SSTORE POP PUSH0 PUSH1 0x2 PUSH0 SWAP1 SLOAD SWAP1 PUSH2 0x100 EXP SWAP1 DIV PUSH20 0xFFFFFFFFFFFFFFFFFFFFFFFFFFFFFFFFFFFFFFFF AND PUSH20 0xFFFFFFFFFFFFFFFFFFFFFFFFFFFFFFFFFFFFFFFF AND PUSH4 0x70A08231 ADDRESS PUSH1 0x40 MLOAD DUP3 PUSH4 0xFFFFFFFF AND PUSH1 0xE0 SHL DUP2 MSTORE PUSH1 0x4 ADD PUSH2 0x922 SWAP2 SWAP1 PUSH2 0xDAE JUMP JUMPDEST PUSH1 0x20 PUSH1 0x40 MLOAD DUP1 DUP4 SUB DUP2 DUP7 GAS STATICCALL ISZERO DUP1 ISZERO PUSH2 0x93D JUMPI RETURNDATASIZE PUSH0 DUP1 RETURNDATACOPY RETURNDATASIZE PUSH0 REVERT JUMPDEST POP POP POP POP PUSH1 0x40 MLOAD RETURNDATASIZE PUSH1 0x1F NOT PUSH1 0x1F DUP3 ADD AND DUP3 ADD DUP1 PUSH1 0x40 MSTORE POP DUP2 ADD SWAP1 PUSH2 0x961 SWAP2 SWAP1 PUSH2 0x13B8 JUMP JUMPDEST SWAP1 POP PUSH0 DUP2 GT ISZERO PUSH2 0xA2A JUMPI PUSH1 0x2 PUSH0 SWAP1 SLOAD SWAP1 PUSH2 0x100 EXP SWAP1 DIV PUSH20 0xFFFFFFFFFFFFFFFFFFFFFFFFFFFFFFFFFFFFFFFF AND PUSH20 0xFFFFFFFFFFFFFFFFFFFFFFFFFFFFFFFFFFFFFFFF AND PUSH4 0xA9059CBB PUSH1 0x3 PUSH0 SWAP1 SLOAD SWAP1 PUSH2 0x100 EXP SWAP1 DIV PUSH20 0xFFFFFFFFFFFFFFFFFFFFFFFFFFFFFFFFFFFFFFFF AND DUP4 PUSH1 0x40 MLOAD DUP4 PUSH4 0xFFFFFFFF AND PUSH1 0xE0 SHL DUP2 MSTORE PUSH1 0x4 ADD PUSH2 0x9E8 SWAP3 SWAP2 SWAP1 PUSH2 0x1242 JUMP JUMPDEST PUSH1 0x20 PUSH1 0x40 MLOAD DUP1 DUP4 SUB DUP2 PUSH0 DUP8 GAS CALL ISZERO DUP1 ISZERO PUSH2 0xA04 JUMPI RETURNDATASIZE PUSH0 DUP1 RETURNDATACOPY RETURNDATASIZE PUSH0 REVERT JUMPDEST POP POP POP POP PUSH1 0x40 MLOAD RETURNDATASIZE PUSH1 0x1F NOT PUSH1 0x1F DUP3 ADD AND DUP3 ADD DUP1 PUSH1 0x40 MSTORE POP DUP2 ADD SWAP1 PUSH2 0xA28 SWAP2 SWAP1 PUSH2 0x1293 JUMP JUMPDEST POP JUMPDEST PUSH1 0x3 PUSH0 SWAP1 SLOAD SWAP1 PUSH2 0x100 EXP SWAP1 DIV PUSH20 0xFFFFFFFFFFFFFFFFFFFFFFFFFFFFFFFFFFFFFFFF AND PUSH20 0xFFFFFFFFFFFFFFFFFFFFFFFFFFFFFFFFFFFFFFFF AND PUSH2 0x8FC SELFBALANCE SWAP1 DUP2 ISZERO MUL SWAP1 PUSH1 0x40 MLOAD PUSH0 PUSH1 0x40 MLOAD DUP1 DUP4 SUB DUP2 DUP6 DUP9 DUP9 CALL SWAP4 POP POP POP POP ISZERO DUP1 ISZERO PUSH2 0xA8E JUMPI RETURNDATASIZE PUSH0 DUP1 RETURNDATACOPY RETURNDATASIZE PUSH0 REVERT JUMPDEST POP PUSH32 0x1AD1CAA1C571AEFBFC687D24E1F5C54FB44B2A683CE9DD8D68A2C391E5D83213 PUSH1 0x40 MLOAD PUSH1 0x40 MLOAD DUP1 SWAP2 SUB SWAP1 LOG1 POP JUMP JUMPDEST PUSH1 0x7 SLOAD DUP2 JUMP JUMPDEST PUSH1 0x6 SLOAD DUP2 JUMP JUMPDEST PUSH0 DUP1 PUSH0 SWAP1 SLOAD SWAP1 PUSH2 0x100 EXP SWAP1 DIV PUSH20 0xFFFFFFFFFFFFFFFFFFFFFFFFFFFFFFFFFFFFFFFF AND SWAP1 POP SWAP1 JUMP JUMPDEST PUSH1 0x5 SLOAD DUP2 JUMP JUMPDEST PUSH1 0x9 PUSH0 SWAP1 SLOAD SWAP1 PUSH2 0x100 EXP SWAP1 DIV PUSH1 0xFF AND DUP2 JUMP JUMPDEST PUSH2 0xB11 PUSH2 0xC20 JUMP JUMPDEST PUSH0 PUSH20 0xFFFFFFFFFFFFFFFFFFFFFFFFFFFFFFFFFFFFFFFF AND DUP2 PUSH20 0xFFFFFFFFFFFFFFFFFFFFFFFFFFFFFFFFFFFFFFFF AND SUB PUSH2 0xB81 JUMPI PUSH0 PUSH1 0x40 MLOAD PUSH32 0x1E4FBDF700000000000000000000000000000000000000000000000000000000 DUP2 MSTORE PUSH1 0x4 ADD PUSH2 0xB78 SWAP2 SWAP1 PUSH2 0xDAE JUMP JUMPDEST PUSH1 0x40 MLOAD DUP1 SWAP2 SUB SWAP1 REVERT JUMPDEST PUSH2 0xB8A DUP2 PUSH2 0xCA7 JUMP JUMPDEST POP JUMP JUMPDEST PUSH1 0x2 PUSH0 SWAP1 SLOAD SWAP1 PUSH2 0x100 EXP SWAP1 DIV PUSH20 0xFFFFFFFFFFFFFFFFFFFFFFFFFFFFFFFFFFFFFFFF AND DUP2 JUMP JUMPDEST PUSH1 0x2 PUSH1 0x1 SLOAD SUB PUSH2 0xBF7 JUMPI PUSH1 0x40 MLOAD PUSH32 0x8C379A000000000000000000000000000000000000000000000000000000000 DUP2 MSTORE PUSH1 0x4 ADD PUSH2 0xBEE SWAP1 PUSH2 0x142D JUMP JUMPDEST PUSH1 0x40 MLOAD DUP1 SWAP2 SUB SWAP1 REVERT JUMPDEST PUSH1 0x2 PUSH1 0x1 DUP2 SWAP1 SSTORE POP JUMP JUMPDEST PUSH0 PUSH1 0x4 SLOAD DUP3 PUSH2 0xC10 SWAP2 SWAP1 PUSH2 0x144B JUMP JUMPDEST SWAP1 POP SWAP2 SWAP1 POP JUMP JUMPDEST PUSH1 0x1 DUP1 DUP2 SWAP1 SSTORE POP JUMP JUMPDEST PUSH2 0xC28 PUSH2 0xD68 JUMP JUMPDEST PUSH20 0xFFFFFFFFFFFFFFFFFFFFFFFFFFFFFFFFFFFFFFFF AND PUSH2 0xC46 PUSH2 0xACA JUMP JUMPDEST PUSH20 0xFFFFFFFFFFFFFFFFFFFFFFFFFFFFFFFFFFFFFFFF AND EQ PUSH2 0xCA5 JUMPI PUSH2 0xC69 PUSH2 0xD68 JUMP JUMPDEST PUSH1 0x40 MLOAD PUSH32 0x118CDAA700000000000000000000000000000000000000000000000000000000 DUP2 MSTORE PUSH1 0x4 ADD PUSH2 0xC9C SWAP2 SWAP1 PUSH2 0xDAE JUMP JUMPDEST PUSH1 0x40 MLOAD DUP1 SWAP2 SUB SWAP1 REVERT JUMPDEST JUMP JUMPDEST PUSH0 DUP1 PUSH0 SWAP1 SLOAD SWAP1 PUSH2 0x100 EXP SWAP1 DIV PUSH20 0xFFFFFFFFFFFFFFFFFFFFFFFFFFFFFFFFFFFFFFFF AND SWAP1 POP DUP2 PUSH0 DUP1 PUSH2 0x100 EXP DUP2 SLOAD DUP2 PUSH20 0xFFFFFFFFFFFFFFFFFFFFFFFFFFFFFFFFFFFFFFFF MUL NOT AND SWAP1 DUP4 PUSH20 0xFFFFFFFFFFFFFFFFFFFFFFFFFFFFFFFFFFFFFFFF AND MUL OR SWAP1 SSTORE POP DUP2 PUSH20 0xFFFFFFFFFFFFFFFFFFFFFFFFFFFFFFFFFFFFFFFF AND DUP2 PUSH20 0xFFFFFFFFFFFFFFFFFFFFFFFFFFFFFFFFFFFFFFFF AND PUSH32 0x8BE0079C531659141344CD1FD0A4F28419497F9722A3DAAFE3B4186F6B6457E0 PUSH1 0x40 MLOAD PUSH1 0x40 MLOAD DUP1 SWAP2 SUB SWAP1 LOG3 POP POP JUMP JUMPDEST PUSH0 CALLER SWAP1 POP SWAP1 JUMP JUMPDEST PUSH0 PUSH20 0xFFFFFFFFFFFFFFFFFFFFFFFFFFFFFFFFFFFFFFFF DUP3 AND SWAP1 POP SWAP2 SWAP1 POP JUMP JUMPDEST PUSH0 PUSH2 0xD98 DUP3 PUSH2 0xD6F JUMP JUMPDEST SWAP1 POP SWAP2 SWAP1 POP JUMP JUMPDEST PUSH2 0xDA8 DUP2 PUSH2 0xD8E JUMP JUMPDEST DUP3 MSTORE POP POP JUMP JUMPDEST PUSH0 PUSH1 0x20 DUP3 ADD SWAP1 POP PUSH2 0xDC1 PUSH0 DUP4 ADD DUP5 PUSH2 0xD9F JUMP JUMPDEST SWAP3 SWAP2 POP POP JUMP JUMPDEST PUSH0 DUP2 SWAP1 POP SWAP2 SWAP1 POP JUMP JUMPDEST PUSH2 0xDD9 DUP2 PUSH2 0xDC7 JUMP JUMPDEST DUP3 MSTORE POP POP JUMP JUMPDEST PUSH0 PUSH1 0x20 DUP3 ADD SWAP1 POP PUSH2 0xDF2 PUSH0 DUP4 ADD DUP5 PUSH2 0xDD0 JUMP JUMPDEST SWAP3 SWAP2 POP POP JUMP JUMPDEST PUSH0 DUP1 REVERT JUMPDEST PUSH2 0xE05 DUP2 PUSH2 0xD8E JUMP JUMPDEST DUP2 EQ PUSH2 0xE0F JUMPI PUSH0 DUP1 REVERT JUMPDEST POP JUMP JUMPDEST PUSH0 DUP2 CALLDATALOAD SWAP1 POP PUSH2 0xE20 DUP2 PUSH2 0xDFC JUMP JUMPDEST SWAP3 SWAP2 POP POP JUMP JUMPDEST PUSH0 PUSH1 0x20 DUP3 DUP5 SUB SLT ISZERO PUSH2 0xE3B JUMPI PUSH2 0xE3A PUSH2 0xDF8 JUMP JUMPDEST JUMPDEST PUSH0 PUSH2 0xE48 DUP5 DUP3 DUP6 ADD PUSH2 0xE12 JUMP JUMPDEST SWAP2 POP POP SWAP3 SWAP2 POP POP JUMP JUMPDEST PUSH0 DUP2 ISZERO ISZERO SWAP1 POP SWAP2 SWAP1 POP JUMP JUMPDEST PUSH2 0xE65 DUP2 PUSH2 0xE51 JUMP JUMPDEST DUP3 MSTORE POP POP JUMP JUMPDEST PUSH0 PUSH1 0x20 DUP3 ADD SWAP1 POP PUSH2 0xE7E PUSH0 DUP4 ADD DUP5 PUSH2 0xE5C JUMP JUMPDEST SWAP3 SWAP2 POP POP JUMP JUMPDEST PUSH0 DUP2 SWAP1 POP SWAP2 SWAP1 POP JUMP JUMPDEST PUSH0 PUSH2 0xEA7 PUSH2 0xEA2 PUSH2 0xE9D DUP5 PUSH2 0xD6F JUMP JUMPDEST PUSH2 0xE84 JUMP JUMPDEST PUSH2 0xD6F JUMP JUMPDEST SWAP1 POP SWAP2 SWAP1 POP JUMP JUMPDEST PUSH0 PUSH2 0xEB8 DUP3 PUSH2 0xE8D JUMP JUMPDEST SWAP1 POP SWAP2 SWAP1 POP JUMP JUMPDEST PUSH0 PUSH2 0xEC9 DUP3 PUSH2 0xEAE JUMP JUMPDEST SWAP1 POP SWAP2 SWAP1 POP JUMP JUMPDEST PUSH2 0xED9 DUP2 PUSH2 0xEBF JUMP JUMPDEST DUP3 MSTORE POP POP JUMP JUMPDEST PUSH0 PUSH1 0x20 DUP3 ADD SWAP1 POP PUSH2 0xEF2 PUSH0 DUP4 ADD DUP5 PUSH2 0xED0 JUMP JUMPDEST SWAP3 SWAP2 POP POP JUMP JUMPDEST PUSH0 PUSH1 0xC0 DUP3 ADD SWAP1 POP PUSH2 0xF0B PUSH0 DUP4 ADD DUP10 PUSH2 0xDD0 JUMP JUMPDEST PUSH2 0xF18 PUSH1 0x20 DUP4 ADD DUP9 PUSH2 0xDD0 JUMP JUMPDEST PUSH2 0xF25 PUSH1 0x40 DUP4 ADD DUP8 PUSH2 0xDD0 JUMP JUMPDEST PUSH2 0xF32 PUSH1 0x60 DUP4 ADD DUP7 PUSH2 0xDD0 JUMP JUMPDEST PUSH2 0xF3F PUSH1 0x80 DUP4 ADD DUP6 PUSH2 0xDD0 JUMP JUMPDEST PUSH2 0xF4C PUSH1 0xA0 DUP4 ADD DUP5 PUSH2 0xDD0 JUMP JUMPDEST SWAP8 SWAP7 POP POP POP POP POP POP POP JUMP JUMPDEST PUSH0 DUP3 DUP3 MSTORE PUSH1 0x20 DUP3 ADD SWAP1 POP SWAP3 SWAP2 POP POP JUMP JUMPDEST PUSH32 0x5072652D73616C65206973206E6F742061637469766500000000000000000000 PUSH0 DUP3 ADD MSTORE POP JUMP JUMPDEST PUSH0 PUSH2 0xF9B PUSH1 0x16 DUP4 PUSH2 0xF57 JUMP JUMPDEST SWAP2 POP PUSH2 0xFA6 DUP3 PUSH2 0xF67 JUMP JUMPDEST PUSH1 0x20 DUP3 ADD SWAP1 POP SWAP2 SWAP1 POP JUMP JUMPDEST PUSH0 PUSH1 0x20 DUP3 ADD SWAP1 POP DUP2 DUP2 SUB PUSH0 DUP4 ADD MSTORE PUSH2 0xFC8 DUP2 PUSH2 0xF8F JUMP JUMPDEST SWAP1 POP SWAP2 SWAP1 POP JUMP JUMPDEST PUSH32 0x436F6E747269627574696F6E2069732062656C6F77206D696E696D756D206C69 PUSH0 DUP3 ADD MSTORE PUSH32 0x6D69740000000000000000000000000000000000000000000000000000000000 PUSH1 0x20 DUP3 ADD MSTORE POP JUMP JUMPDEST PUSH0 PUSH2 0x1029 PUSH1 0x23 DUP4 PUSH2 0xF57 JUMP JUMPDEST SWAP2 POP PUSH2 0x1034 DUP3 PUSH2 0xFCF JUMP JUMPDEST PUSH1 0x40 DUP3 ADD SWAP1 POP SWAP2 SWAP1 POP JUMP JUMPDEST PUSH0 PUSH1 0x20 DUP3 ADD SWAP1 POP DUP2 DUP2 SUB PUSH0 DUP4 ADD MSTORE PUSH2 0x1056 DUP2 PUSH2 0x101D JUMP JUMPDEST SWAP1 POP SWAP2 SWAP1 POP JUMP JUMPDEST PUSH32 0x4E487B7100000000000000000000000000000000000000000000000000000000 PUSH0 MSTORE PUSH1 0x11 PUSH1 0x4 MSTORE PUSH1 0x24 PUSH0 REVERT JUMPDEST PUSH0 PUSH2 0x1094 DUP3 PUSH2 0xDC7 JUMP JUMPDEST SWAP2 POP PUSH2 0x109F DUP4 PUSH2 0xDC7 JUMP JUMPDEST SWAP3 POP DUP3 DUP3 ADD SWAP1 POP DUP1 DUP3 GT ISZERO PUSH2 0x10B7 JUMPI PUSH2 0x10B6 PUSH2 0x105D JUMP JUMPDEST JUMPDEST SWAP3 SWAP2 POP POP JUMP JUMPDEST PUSH32 0x436F6E747269627574696F6E2065786365656473206D6178696D756D206C696D PUSH0 DUP3 ADD MSTORE PUSH32 0x6974000000000000000000000000000000000000000000000000000000000000 PUSH1 0x20 DUP3 ADD MSTORE POP JUMP JUMPDEST PUSH0 PUSH2 0x1117 PUSH1 0x22 DUP4 PUSH2 0xF57 JUMP JUMPDEST SWAP2 POP PUSH2 0x1122 DUP3 PUSH2 0x10BD JUMP JUMPDEST PUSH1 0x40 DUP3 ADD SWAP1 POP SWAP2 SWAP1 POP JUMP JUMPDEST PUSH0 PUSH1 0x20 DUP3 ADD SWAP1 POP DUP2 DUP2 SUB PUSH0 DUP4 ADD MSTORE PUSH2 0x1144 DUP2 PUSH2 0x110B JUMP JUMPDEST SWAP1 POP SWAP2 SWAP1 POP JUMP JUMPDEST PUSH0 PUSH1 0x40 DUP3 ADD SWAP1 POP PUSH2 0x115E PUSH0 DUP4 ADD DUP6 PUSH2 0xDD0 JUMP JUMPDEST PUSH2 0x116B PUSH1 0x20 DUP4 ADD DUP5 PUSH2 0xDD0 JUMP JUMPDEST SWAP4 SWAP3 POP POP POP JUMP JUMPDEST PUSH32 0x5072652D73616C65206E6F742066696E616C697A656400000000000000000000 PUSH0 DUP3 ADD MSTORE POP JUMP JUMPDEST PUSH0 PUSH2 0x11A6 PUSH1 0x16 DUP4 PUSH2 0xF57 JUMP JUMPDEST SWAP2 POP PUSH2 0x11B1 DUP3 PUSH2 0x1172 JUMP JUMPDEST PUSH1 0x20 DUP3 ADD SWAP1 POP SWAP2 SWAP1 POP JUMP JUMPDEST PUSH0 PUSH1 0x20 DUP3 ADD SWAP1 POP DUP2 DUP2 SUB PUSH0 DUP4 ADD MSTORE PUSH2 0x11D3 DUP2 PUSH2 0x119A JUMP JUMPDEST SWAP1 POP SWAP2 SWAP1 POP JUMP JUMPDEST PUSH32 0x4E6F20746F6B656E7320746F20636C61696D0000000000000000000000000000 PUSH0 DUP3 ADD MSTORE POP JUMP JUMPDEST PUSH0 PUSH2 0x120E PUSH1 0x12 DUP4 PUSH2 0xF57 JUMP JUMPDEST SWAP2 POP PUSH2 0x1219 DUP3 PUSH2 0x11DA JUMP JUMPDEST PUSH1 0x20 DUP3 ADD SWAP1 POP SWAP2 SWAP1 POP JUMP JUMPDEST PUSH0 PUSH1 0x20 DUP3 ADD SWAP1 POP DUP2 DUP2 SUB PUSH0 DUP4 ADD MSTORE PUSH2 0x123B DUP2 PUSH2 0x1202 JUMP JUMPDEST SWAP1 POP SWAP2 SWAP1 POP JUMP JUMPDEST PUSH0 PUSH1 0x40 DUP3 ADD SWAP1 POP PUSH2 0x1255 PUSH0 DUP4 ADD DUP6 PUSH2 0xD9F JUMP JUMPDEST PUSH2 0x1262 PUSH1 0x20 DUP4 ADD DUP5 PUSH2 0xDD0 JUMP JUMPDEST SWAP4 SWAP3 POP POP POP JUMP JUMPDEST PUSH2 0x1272 DUP2 PUSH2 0xE51 JUMP JUMPDEST DUP2 EQ PUSH2 0x127C JUMPI PUSH0 DUP1 REVERT JUMPDEST POP JUMP JUMPDEST PUSH0 DUP2 MLOAD SWAP1 POP PUSH2 0x128D DUP2 PUSH2 0x1269 JUMP JUMPDEST SWAP3 SWAP2 POP POP JUMP JUMPDEST PUSH0 PUSH1 0x20 DUP3 DUP5 SUB SLT ISZERO PUSH2 0x12A8 JUMPI PUSH2 0x12A7 PUSH2 0xDF8 JUMP JUMPDEST JUMPDEST PUSH0 PUSH2 0x12B5 DUP5 DUP3 DUP6 ADD PUSH2 0x127F JUMP JUMPDEST SWAP2 POP POP SWAP3 SWAP2 POP POP JUMP JUMPDEST PUSH32 0x5072652D73616C6520686173206E6F7420656E64656420796574000000000000 PUSH0 DUP3 ADD MSTORE POP JUMP JUMPDEST PUSH0 PUSH2 0x12F2 PUSH1 0x1A DUP4 PUSH2 0xF57 JUMP JUMPDEST SWAP2 POP PUSH2 0x12FD DUP3 PUSH2 0x12BE JUMP JUMPDEST PUSH1 0x20 DUP3 ADD SWAP1 POP SWAP2 SWAP1 POP JUMP JUMPDEST PUSH0 PUSH1 0x20 DUP3 ADD SWAP1 POP DUP2 DUP2 SUB PUSH0 DUP4 ADD MSTORE PUSH2 0x131F DUP2 PUSH2 0x12E6 JUMP JUMPDEST SWAP1 POP SWAP2 SWAP1 POP JUMP JUMPDEST PUSH32 0x5072652D73616C6520616C72656164792066696E616C697A6564000000000000 PUSH0 DUP3 ADD MSTORE POP JUMP JUMPDEST PUSH0 PUSH2 0x135A PUSH1 0x1A DUP4 PUSH2 0xF57 JUMP JUMPDEST SWAP2 POP PUSH2 0x1365 DUP3 PUSH2 0x1326 JUMP JUMPDEST PUSH1 0x20 DUP3 ADD SWAP1 POP SWAP2 SWAP1 POP JUMP JUMPDEST PUSH0 PUSH1 0x20 DUP3 ADD SWAP1 POP DUP2 DUP2 SUB PUSH0 DUP4 ADD MSTORE PUSH2 0x1387 DUP2 PUSH2 0x134E JUMP JUMPDEST SWAP1 POP SWAP2 SWAP1 POP JUMP JUMPDEST PUSH2 0x1397 DUP2 PUSH2 0xDC7 JUMP JUMPDEST DUP2 EQ PUSH2 0x13A1 JUMPI PUSH0 DUP1 REVERT JUMPDEST POP JUMP JUMPDEST PUSH0 DUP2 MLOAD SWAP1 POP PUSH2 0x13B2 DUP2 PUSH2 0x138E JUMP JUMPDEST SWAP3 SWAP2 POP POP JUMP JUMPDEST PUSH0 PUSH1 0x20 DUP3 DUP5 SUB SLT ISZERO PUSH2 0x13CD JUMPI PUSH2 0x13CC PUSH2 0xDF8 JUMP JUMPDEST JUMPDEST PUSH0 PUSH2 0x13DA DUP5 DUP3 DUP6 ADD PUSH2 0x13A4 JUMP JUMPDEST SWAP2 POP POP SWAP3 SWAP2 POP POP JUMP JUMPDEST PUSH32 0x5265656E7472616E637947756172643A207265656E7472616E742063616C6C00 PUSH0 DUP3 ADD MSTORE POP JUMP JUMPDEST PUSH0 PUSH2 0x1417 PUSH1 0x1F DUP4 PUSH2 0xF57 JUMP JUMPDEST SWAP2 POP PUSH2 0x1422 DUP3 PUSH2 0x13E3 JUMP JUMPDEST PUSH1 0x20 DUP3 ADD SWAP1 POP SWAP2 SWAP1 POP JUMP JUMPDEST PUSH0 PUSH1 0x20 DUP3 ADD SWAP1 POP DUP2 DUP2 SUB PUSH0 DUP4 ADD MSTORE PUSH2 0x1444 DUP2 PUSH2 0x140B JUMP JUMPDEST SWAP1 POP SWAP2 SWAP1 POP JUMP JUMPDEST PUSH0 PUSH2 0x1455 DUP3 PUSH2 0xDC7 JUMP JUMPDEST SWAP2 POP PUSH2 0x1460 DUP4 PUSH2 0xDC7 JUMP JUMPDEST SWAP3 POP DUP3 DUP3 MUL PUSH2 0x146E DUP2 PUSH2 0xDC7 JUMP JUMPDEST SWAP2 POP DUP3 DUP3 DIV DUP5 EQ DUP4 ISZERO OR PUSH2 0x1485 JUMPI PUSH2 0x1484 PUSH2 0x105D JUMP JUMPDEST JUMPDEST POP SWAP3 SWAP2 POP POP JUMP INVALID LOG2 PUSH5 0x6970667358 0x22 SLT KECCAK256 0xE5 ISZERO PUSH1 0x69 STATICCALL EXTCODEHASH CALLER DUP8 0xE2 PUSH25 0x92CE893D21DF1834BD371802BFB88DB055BE3C2C4FA564736F PUSH13 0x63430008140033000000000000 "
				},
				"gasEstimates": {
					"creation": {
						"codeDepositCost": "1062800",
						"executionCost": "infinite",
						"totalCost": "infinite"
					},
					"external": {
						"": "infinite",
						"buyTokens()": "infinite",
						"claimTokens()": "infinite",
						"contributions(address)": "2825",
						"endTime()": "2493",
						"finalizePreSale()": "infinite",
						"finalized()": "2488",
						"maxContribution()": "2470",
						"minContribution()": "2514",
						"owner()": "2582",
						"preSaleWallet()": "2532",
						"rate()": "2471",
						"renounceOwnership()": "infinite",
						"startTime()": "2448",
						"token()": "infinite",
						"totalContributions()": "2515",
						"transferOwnership(address)": "infinite"
					},
					"internal": {
						"getTokenAmount(uint256)": "infinite"
					}
				},
				"methodIdentifiers": {
					"buyTokens()": "d0febe4c",
					"claimTokens()": "48c54b9d",
					"contributions(address)": "42e94c90",
					"endTime()": "3197cbb6",
					"finalizePreSale()": "7376678b",
					"finalized()": "b3f05b97",
					"maxContribution()": "8d3d6576",
					"minContribution()": "aaffadf3",
					"owner()": "8da5cb5b",
					"preSaleWallet()": "1fc75e41",
					"rate()": "2c4e722e",
					"renounceOwnership()": "715018a6",
					"startTime()": "78e97925",
					"token()": "fc0c546a",
					"totalContributions()": "37c08923",
					"transferOwnership(address)": "f2fde38b"
				}
			},
			"storageLayout": {
				"storage": [
					{
						"astId": 176,
						"contract": "octo-ps_flattened.sol:PreSale",
						"label": "_owner",
						"offset": 0,
						"slot": "0",
						"type": "t_address"
					},
					{
						"astId": 87,
						"contract": "octo-ps_flattened.sol:PreSale",
						"label": "_status",
						"offset": 0,
						"slot": "1",
						"type": "t_uint256"
					},
					{
						"astId": 323,
						"contract": "octo-ps_flattened.sol:PreSale",
						"label": "token",
						"offset": 0,
						"slot": "2",
						"type": "t_contract(IERC20)77"
					},
					{
						"astId": 325,
						"contract": "octo-ps_flattened.sol:PreSale",
						"label": "preSaleWallet",
						"offset": 0,
						"slot": "3",
						"type": "t_address"
					},
					{
						"astId": 327,
						"contract": "octo-ps_flattened.sol:PreSale",
						"label": "rate",
						"offset": 0,
						"slot": "4",
						"type": "t_uint256"
					},
					{
						"astId": 329,
						"contract": "octo-ps_flattened.sol:PreSale",
						"label": "minContribution",
						"offset": 0,
						"slot": "5",
						"type": "t_uint256"
					},
					{
						"astId": 331,
						"contract": "octo-ps_flattened.sol:PreSale",
						"label": "maxContribution",
						"offset": 0,
						"slot": "6",
						"type": "t_uint256"
					},
					{
						"astId": 333,
						"contract": "octo-ps_flattened.sol:PreSale",
						"label": "startTime",
						"offset": 0,
						"slot": "7",
						"type": "t_uint256"
					},
					{
						"astId": 335,
						"contract": "octo-ps_flattened.sol:PreSale",
						"label": "endTime",
						"offset": 0,
						"slot": "8",
						"type": "t_uint256"
					},
					{
						"astId": 338,
						"contract": "octo-ps_flattened.sol:PreSale",
						"label": "finalized",
						"offset": 0,
						"slot": "9",
						"type": "t_bool"
					},
					{
						"astId": 342,
						"contract": "octo-ps_flattened.sol:PreSale",
						"label": "contributions",
						"offset": 0,
						"slot": "10",
						"type": "t_mapping(t_address,t_uint256)"
					},
					{
						"astId": 344,
						"contract": "octo-ps_flattened.sol:PreSale",
						"label": "totalContributions",
						"offset": 0,
						"slot": "11",
						"type": "t_uint256"
					}
				],
				"types": {
					"t_address": {
						"encoding": "inplace",
						"label": "address",
						"numberOfBytes": "20"
					},
					"t_bool": {
						"encoding": "inplace",
						"label": "bool",
						"numberOfBytes": "1"
					},
					"t_contract(IERC20)77": {
						"encoding": "inplace",
						"label": "contract IERC20",
						"numberOfBytes": "20"
					},
					"t_mapping(t_address,t_uint256)": {
						"encoding": "mapping",
						"key": "t_address",
						"label": "mapping(address => uint256)",
						"numberOfBytes": "32",
						"value": "t_uint256"
					},
					"t_uint256": {
						"encoding": "inplace",
						"label": "uint256",
						"numberOfBytes": "32"
					}
				}
			},
			"userdoc": {
				"kind": "user",
				"methods": {},
				"version": 1
			}
		}
	}
}